{
	"hotel_amangement_contract.sol": {
		"Hotel": {
			"abi": [
				{
					"inputs": [],
					"name": "no_of_aggrement",
					"outputs": [
						{
							"internalType": "uint256",
							"name": "",
							"type": "uint256"
						}
					],
					"stateMutability": "view",
					"type": "function"
				},
				{
					"inputs": [],
					"name": "no_of_rent",
					"outputs": [
						{
							"internalType": "uint256",
							"name": "",
							"type": "uint256"
						}
					],
					"stateMutability": "view",
					"type": "function"
				},
				{
					"inputs": [],
					"name": "no_of_rooms",
					"outputs": [
						{
							"internalType": "uint256",
							"name": "",
							"type": "uint256"
						}
					],
					"stateMutability": "view",
					"type": "function"
				},
				{
					"inputs": [
						{
							"internalType": "uint256",
							"name": "",
							"type": "uint256"
						}
					],
					"name": "rent_by_no",
					"outputs": [
						{
							"internalType": "uint256",
							"name": "rent_no",
							"type": "uint256"
						},
						{
							"internalType": "uint256",
							"name": "room_id",
							"type": "uint256"
						},
						{
							"internalType": "uint256",
							"name": "agreement_id",
							"type": "uint256"
						},
						{
							"internalType": "string",
							"name": "room_name",
							"type": "string"
						},
						{
							"internalType": "string",
							"name": "room_address",
							"type": "string"
						},
						{
							"internalType": "uint256",
							"name": "rent_per_month",
							"type": "uint256"
						},
						{
							"internalType": "uint256",
							"name": "timestamp",
							"type": "uint256"
						},
						{
							"internalType": "address payable",
							"name": "tenant_address",
							"type": "address"
						},
						{
							"internalType": "address payable",
							"name": "landlord_address",
							"type": "address"
						}
					],
					"stateMutability": "view",
					"type": "function"
				},
				{
					"inputs": [
						{
							"internalType": "uint256",
							"name": "",
							"type": "uint256"
						}
					],
					"name": "room_agreement_by_no",
					"outputs": [
						{
							"internalType": "uint256",
							"name": "room_id",
							"type": "uint256"
						},
						{
							"internalType": "uint256",
							"name": "agreement_id",
							"type": "uint256"
						},
						{
							"internalType": "string",
							"name": "room_name",
							"type": "string"
						},
						{
							"internalType": "string",
							"name": "room_address",
							"type": "string"
						},
						{
							"internalType": "uint256",
							"name": "rent_per_month",
							"type": "uint256"
						},
						{
							"internalType": "uint256",
							"name": "security_deposit",
							"type": "uint256"
						},
						{
							"internalType": "uint256",
							"name": "lock_in_period",
							"type": "uint256"
						},
						{
							"internalType": "uint256",
							"name": "time_stamp",
							"type": "uint256"
						},
						{
							"internalType": "address payable",
							"name": "tenant_address",
							"type": "address"
						},
						{
							"internalType": "address payable",
							"name": "landlord_address",
							"type": "address"
						}
					],
					"stateMutability": "view",
					"type": "function"
				},
				{
					"inputs": [
						{
							"internalType": "uint256",
							"name": "",
							"type": "uint256"
						}
					],
					"name": "room_by_no",
					"outputs": [
						{
							"internalType": "uint256",
							"name": "room_id",
							"type": "uint256"
						},
						{
							"internalType": "uint256",
							"name": "agreement_id",
							"type": "uint256"
						},
						{
							"internalType": "string",
							"name": "room_name",
							"type": "string"
						},
						{
							"internalType": "string",
							"name": "room_address",
							"type": "string"
						},
						{
							"internalType": "uint256",
							"name": "rent_per_month",
							"type": "uint256"
						},
						{
							"internalType": "uint256",
							"name": "security_deposit",
							"type": "uint256"
						},
						{
							"internalType": "uint256",
							"name": "time_stamp",
							"type": "uint256"
						},
						{
							"internalType": "bool",
							"name": "vacant",
							"type": "bool"
						},
						{
							"internalType": "address payable",
							"name": "landlord",
							"type": "address"
						},
						{
							"internalType": "address payable",
							"name": "current_tenant",
							"type": "address"
						}
					],
					"stateMutability": "view",
					"type": "function"
				}
			],
			"devdoc": {
				"kind": "dev",
				"methods": {},
				"version": 1
			},
			"evm": {
				"assembly": "    /* \"hotel_amangement_contract.sol\":62:1552  contract Hotel{... */\n  mstore(0x40, 0x80)\n    /* \"hotel_amangement_contract.sol\":173:174  0 */\n  0x00\n    /* \"hotel_amangement_contract.sol\":147:174  uint public no_of_rooms = 0 */\n  0x02\n  sstore\n    /* \"hotel_amangement_contract.sol\":211:212  0 */\n  0x00\n    /* \"hotel_amangement_contract.sol\":181:212  uint public no_of_aggrement = 0 */\n  0x03\n  sstore\n    /* \"hotel_amangement_contract.sol\":244:245  0 */\n  0x00\n    /* \"hotel_amangement_contract.sol\":219:245  uint public no_of_rent = 0 */\n  0x04\n  sstore\n    /* \"hotel_amangement_contract.sol\":62:1552  contract Hotel{... */\n  callvalue\n  dup1\n  iszero\n  tag_1\n  jumpi\n  0x00\n  dup1\n  revert\ntag_1:\n  pop\n  dataSize(sub_0)\n  dup1\n  dataOffset(sub_0)\n  0x00\n  codecopy\n  0x00\n  return\nstop\n\nsub_0: assembly {\n        /* \"hotel_amangement_contract.sol\":62:1552  contract Hotel{... */\n      mstore(0x40, 0x80)\n      callvalue\n      dup1\n      iszero\n      tag_1\n      jumpi\n      0x00\n      dup1\n      revert\n    tag_1:\n      pop\n      jumpi(tag_2, lt(calldatasize, 0x04))\n      shr(0xe0, calldataload(0x00))\n      dup1\n      0x59e2cbec\n      eq\n      tag_3\n      jumpi\n      dup1\n      0x646fc100\n      eq\n      tag_4\n      jumpi\n      dup1\n      0x75eb9ef6\n      eq\n      tag_5\n      jumpi\n      dup1\n      0x900b3b53\n      eq\n      tag_6\n      jumpi\n      dup1\n      0xccc3e83a\n      eq\n      tag_7\n      jumpi\n      dup1\n      0xf5b46a65\n      eq\n      tag_8\n      jumpi\n    tag_2:\n      0x00\n      dup1\n      revert\n        /* \"hotel_amangement_contract.sol\":147:174  uint public no_of_rooms = 0 */\n    tag_3:\n      tag_9\n      tag_10\n      jump\t// in\n    tag_9:\n      mload(0x40)\n      tag_11\n      swap2\n      swap1\n      tag_12\n      jump\t// in\n    tag_11:\n      mload(0x40)\n      dup1\n      swap2\n      sub\n      swap1\n      return\n        /* \"hotel_amangement_contract.sol\":577:616  mapping(uint => Room) public room_by_no */\n    tag_4:\n      tag_13\n      0x04\n      dup1\n      calldatasize\n      sub\n      dup2\n      add\n      swap1\n      tag_14\n      swap2\n      swap1\n      tag_15\n      jump\t// in\n    tag_14:\n      tag_16\n      jump\t// in\n    tag_13:\n      mload(0x40)\n      tag_17\n      swap11\n      swap10\n      swap9\n      swap8\n      swap7\n      swap6\n      swap5\n      swap4\n      swap3\n      swap2\n      swap1\n      tag_18\n      jump\t// in\n    tag_17:\n      mload(0x40)\n      dup1\n      swap2\n      sub\n      swap1\n      return\n        /* \"hotel_amangement_contract.sol\":219:245  uint public no_of_rent = 0 */\n    tag_5:\n      tag_19\n      tag_20\n      jump\t// in\n    tag_19:\n      mload(0x40)\n      tag_21\n      swap2\n      swap1\n      tag_12\n      jump\t// in\n    tag_21:\n      mload(0x40)\n      dup1\n      swap2\n      sub\n      swap1\n      return\n        /* \"hotel_amangement_contract.sol\":181:212  uint public no_of_aggrement = 0 */\n    tag_6:\n      tag_22\n      tag_23\n      jump\t// in\n    tag_22:\n      mload(0x40)\n      tag_24\n      swap2\n      swap1\n      tag_12\n      jump\t// in\n    tag_24:\n      mload(0x40)\n      dup1\n      swap2\n      sub\n      swap1\n      return\n        /* \"hotel_amangement_contract.sol\":971:1029  mapping(uint => RoomAgreement) public room_agreement_by_no */\n    tag_7:\n      tag_25\n      0x04\n      dup1\n      calldatasize\n      sub\n      dup2\n      add\n      swap1\n      tag_26\n      swap2\n      swap1\n      tag_15\n      jump\t// in\n    tag_26:\n      tag_27\n      jump\t// in\n    tag_25:\n      mload(0x40)\n      tag_28\n      swap11\n      swap10\n      swap9\n      swap8\n      swap7\n      swap6\n      swap5\n      swap4\n      swap3\n      swap2\n      swap1\n      tag_29\n      jump\t// in\n    tag_28:\n      mload(0x40)\n      dup1\n      swap2\n      sub\n      swap1\n      return\n        /* \"hotel_amangement_contract.sol\":1335:1375  mapping (uint => Rent) public rent_by_no */\n    tag_8:\n      tag_30\n      0x04\n      dup1\n      calldatasize\n      sub\n      dup2\n      add\n      swap1\n      tag_31\n      swap2\n      swap1\n      tag_15\n      jump\t// in\n    tag_31:\n      tag_32\n      jump\t// in\n    tag_30:\n      mload(0x40)\n      tag_33\n      swap10\n      swap9\n      swap8\n      swap7\n      swap6\n      swap5\n      swap4\n      swap3\n      swap2\n      swap1\n      tag_34\n      jump\t// in\n    tag_33:\n      mload(0x40)\n      dup1\n      swap2\n      sub\n      swap1\n      return\n        /* \"hotel_amangement_contract.sol\":147:174  uint public no_of_rooms = 0 */\n    tag_10:\n      sload(0x02)\n      dup2\n      jump\t// out\n        /* \"hotel_amangement_contract.sol\":577:616  mapping(uint => Room) public room_by_no */\n    tag_16:\n      mstore(0x20, 0x05)\n      dup1\n      0x00\n      mstore\n      keccak256(0x00, 0x40)\n      0x00\n      swap2\n      pop\n      swap1\n      pop\n      dup1\n      0x00\n      add\n      sload\n      swap1\n      dup1\n      0x01\n      add\n      sload\n      swap1\n      dup1\n      0x02\n      add\n      dup1\n      sload\n      tag_35\n      swap1\n      tag_36\n      jump\t// in\n    tag_35:\n      dup1\n      0x1f\n      add\n      0x20\n      dup1\n      swap2\n      div\n      mul\n      0x20\n      add\n      mload(0x40)\n      swap1\n      dup2\n      add\n      0x40\n      mstore\n      dup1\n      swap3\n      swap2\n      swap1\n      dup2\n      dup2\n      mstore\n      0x20\n      add\n      dup3\n      dup1\n      sload\n      tag_37\n      swap1\n      tag_36\n      jump\t// in\n    tag_37:\n      dup1\n      iszero\n      tag_38\n      jumpi\n      dup1\n      0x1f\n      lt\n      tag_39\n      jumpi\n      0x0100\n      dup1\n      dup4\n      sload\n      div\n      mul\n      dup4\n      mstore\n      swap2\n      0x20\n      add\n      swap2\n      jump(tag_38)\n    tag_39:\n      dup3\n      add\n      swap2\n      swap1\n      0x00\n      mstore\n      keccak256(0x00, 0x20)\n      swap1\n    tag_40:\n      dup2\n      sload\n      dup2\n      mstore\n      swap1\n      0x01\n      add\n      swap1\n      0x20\n      add\n      dup1\n      dup4\n      gt\n      tag_40\n      jumpi\n      dup3\n      swap1\n      sub\n      0x1f\n      and\n      dup3\n      add\n      swap2\n    tag_38:\n      pop\n      pop\n      pop\n      pop\n      pop\n      swap1\n      dup1\n      0x03\n      add\n      dup1\n      sload\n      tag_41\n      swap1\n      tag_36\n      jump\t// in\n    tag_41:\n      dup1\n      0x1f\n      add\n      0x20\n      dup1\n      swap2\n      div\n      mul\n      0x20\n      add\n      mload(0x40)\n      swap1\n      dup2\n      add\n      0x40\n      mstore\n      dup1\n      swap3\n      swap2\n      swap1\n      dup2\n      dup2\n      mstore\n      0x20\n      add\n      dup3\n      dup1\n      sload\n      tag_42\n      swap1\n      tag_36\n      jump\t// in\n    tag_42:\n      dup1\n      iszero\n      tag_43\n      jumpi\n      dup1\n      0x1f\n      lt\n      tag_44\n      jumpi\n      0x0100\n      dup1\n      dup4\n      sload\n      div\n      mul\n      dup4\n      mstore\n      swap2\n      0x20\n      add\n      swap2\n      jump(tag_43)\n    tag_44:\n      dup3\n      add\n      swap2\n      swap1\n      0x00\n      mstore\n      keccak256(0x00, 0x20)\n      swap1\n    tag_45:\n      dup2\n      sload\n      dup2\n      mstore\n      swap1\n      0x01\n      add\n      swap1\n      0x20\n      add\n      dup1\n      dup4\n      gt\n      tag_45\n      jumpi\n      dup3\n      swap1\n      sub\n      0x1f\n      and\n      dup3\n      add\n      swap2\n    tag_43:\n      pop\n      pop\n      pop\n      pop\n      pop\n      swap1\n      dup1\n      0x04\n      add\n      sload\n      swap1\n      dup1\n      0x05\n      add\n      sload\n      swap1\n      dup1\n      0x06\n      add\n      sload\n      swap1\n      dup1\n      0x07\n      add\n      0x00\n      swap1\n      sload\n      swap1\n      0x0100\n      exp\n      swap1\n      div\n      0xff\n      and\n      swap1\n      dup1\n      0x07\n      add\n      0x01\n      swap1\n      sload\n      swap1\n      0x0100\n      exp\n      swap1\n      div\n      0xffffffffffffffffffffffffffffffffffffffff\n      and\n      swap1\n      dup1\n      0x08\n      add\n      0x00\n      swap1\n      sload\n      swap1\n      0x0100\n      exp\n      swap1\n      div\n      0xffffffffffffffffffffffffffffffffffffffff\n      and\n      swap1\n      pop\n      dup11\n      jump\t// out\n        /* \"hotel_amangement_contract.sol\":219:245  uint public no_of_rent = 0 */\n    tag_20:\n      sload(0x04)\n      dup2\n      jump\t// out\n        /* \"hotel_amangement_contract.sol\":181:212  uint public no_of_aggrement = 0 */\n    tag_23:\n      sload(0x03)\n      dup2\n      jump\t// out\n        /* \"hotel_amangement_contract.sol\":971:1029  mapping(uint => RoomAgreement) public room_agreement_by_no */\n    tag_27:\n      mstore(0x20, 0x06)\n      dup1\n      0x00\n      mstore\n      keccak256(0x00, 0x40)\n      0x00\n      swap2\n      pop\n      swap1\n      pop\n      dup1\n      0x00\n      add\n      sload\n      swap1\n      dup1\n      0x01\n      add\n      sload\n      swap1\n      dup1\n      0x02\n      add\n      dup1\n      sload\n      tag_46\n      swap1\n      tag_36\n      jump\t// in\n    tag_46:\n      dup1\n      0x1f\n      add\n      0x20\n      dup1\n      swap2\n      div\n      mul\n      0x20\n      add\n      mload(0x40)\n      swap1\n      dup2\n      add\n      0x40\n      mstore\n      dup1\n      swap3\n      swap2\n      swap1\n      dup2\n      dup2\n      mstore\n      0x20\n      add\n      dup3\n      dup1\n      sload\n      tag_47\n      swap1\n      tag_36\n      jump\t// in\n    tag_47:\n      dup1\n      iszero\n      tag_48\n      jumpi\n      dup1\n      0x1f\n      lt\n      tag_49\n      jumpi\n      0x0100\n      dup1\n      dup4\n      sload\n      div\n      mul\n      dup4\n      mstore\n      swap2\n      0x20\n      add\n      swap2\n      jump(tag_48)\n    tag_49:\n      dup3\n      add\n      swap2\n      swap1\n      0x00\n      mstore\n      keccak256(0x00, 0x20)\n      swap1\n    tag_50:\n      dup2\n      sload\n      dup2\n      mstore\n      swap1\n      0x01\n      add\n      swap1\n      0x20\n      add\n      dup1\n      dup4\n      gt\n      tag_50\n      jumpi\n      dup3\n      swap1\n      sub\n      0x1f\n      and\n      dup3\n      add\n      swap2\n    tag_48:\n      pop\n      pop\n      pop\n      pop\n      pop\n      swap1\n      dup1\n      0x03\n      add\n      dup1\n      sload\n      tag_51\n      swap1\n      tag_36\n      jump\t// in\n    tag_51:\n      dup1\n      0x1f\n      add\n      0x20\n      dup1\n      swap2\n      div\n      mul\n      0x20\n      add\n      mload(0x40)\n      swap1\n      dup2\n      add\n      0x40\n      mstore\n      dup1\n      swap3\n      swap2\n      swap1\n      dup2\n      dup2\n      mstore\n      0x20\n      add\n      dup3\n      dup1\n      sload\n      tag_52\n      swap1\n      tag_36\n      jump\t// in\n    tag_52:\n      dup1\n      iszero\n      tag_53\n      jumpi\n      dup1\n      0x1f\n      lt\n      tag_54\n      jumpi\n      0x0100\n      dup1\n      dup4\n      sload\n      div\n      mul\n      dup4\n      mstore\n      swap2\n      0x20\n      add\n      swap2\n      jump(tag_53)\n    tag_54:\n      dup3\n      add\n      swap2\n      swap1\n      0x00\n      mstore\n      keccak256(0x00, 0x20)\n      swap1\n    tag_55:\n      dup2\n      sload\n      dup2\n      mstore\n      swap1\n      0x01\n      add\n      swap1\n      0x20\n      add\n      dup1\n      dup4\n      gt\n      tag_55\n      jumpi\n      dup3\n      swap1\n      sub\n      0x1f\n      and\n      dup3\n      add\n      swap2\n    tag_53:\n      pop\n      pop\n      pop\n      pop\n      pop\n      swap1\n      dup1\n      0x04\n      add\n      sload\n      swap1\n      dup1\n      0x05\n      add\n      sload\n      swap1\n      dup1\n      0x06\n      add\n      sload\n      swap1\n      dup1\n      0x07\n      add\n      sload\n      swap1\n      dup1\n      0x08\n      add\n      0x00\n      swap1\n      sload\n      swap1\n      0x0100\n      exp\n      swap1\n      div\n      0xffffffffffffffffffffffffffffffffffffffff\n      and\n      swap1\n      dup1\n      0x09\n      add\n      0x00\n      swap1\n      sload\n      swap1\n      0x0100\n      exp\n      swap1\n      div\n      0xffffffffffffffffffffffffffffffffffffffff\n      and\n      swap1\n      pop\n      dup11\n      jump\t// out\n        /* \"hotel_amangement_contract.sol\":1335:1375  mapping (uint => Rent) public rent_by_no */\n    tag_32:\n      mstore(0x20, 0x07)\n      dup1\n      0x00\n      mstore\n      keccak256(0x00, 0x40)\n      0x00\n      swap2\n      pop\n      swap1\n      pop\n      dup1\n      0x00\n      add\n      sload\n      swap1\n      dup1\n      0x01\n      add\n      sload\n      swap1\n      dup1\n      0x02\n      add\n      sload\n      swap1\n      dup1\n      0x03\n      add\n      dup1\n      sload\n      tag_56\n      swap1\n      tag_36\n      jump\t// in\n    tag_56:\n      dup1\n      0x1f\n      add\n      0x20\n      dup1\n      swap2\n      div\n      mul\n      0x20\n      add\n      mload(0x40)\n      swap1\n      dup2\n      add\n      0x40\n      mstore\n      dup1\n      swap3\n      swap2\n      swap1\n      dup2\n      dup2\n      mstore\n      0x20\n      add\n      dup3\n      dup1\n      sload\n      tag_57\n      swap1\n      tag_36\n      jump\t// in\n    tag_57:\n      dup1\n      iszero\n      tag_58\n      jumpi\n      dup1\n      0x1f\n      lt\n      tag_59\n      jumpi\n      0x0100\n      dup1\n      dup4\n      sload\n      div\n      mul\n      dup4\n      mstore\n      swap2\n      0x20\n      add\n      swap2\n      jump(tag_58)\n    tag_59:\n      dup3\n      add\n      swap2\n      swap1\n      0x00\n      mstore\n      keccak256(0x00, 0x20)\n      swap1\n    tag_60:\n      dup2\n      sload\n      dup2\n      mstore\n      swap1\n      0x01\n      add\n      swap1\n      0x20\n      add\n      dup1\n      dup4\n      gt\n      tag_60\n      jumpi\n      dup3\n      swap1\n      sub\n      0x1f\n      and\n      dup3\n      add\n      swap2\n    tag_58:\n      pop\n      pop\n      pop\n      pop\n      pop\n      swap1\n      dup1\n      0x04\n      add\n      dup1\n      sload\n      tag_61\n      swap1\n      tag_36\n      jump\t// in\n    tag_61:\n      dup1\n      0x1f\n      add\n      0x20\n      dup1\n      swap2\n      div\n      mul\n      0x20\n      add\n      mload(0x40)\n      swap1\n      dup2\n      add\n      0x40\n      mstore\n      dup1\n      swap3\n      swap2\n      swap1\n      dup2\n      dup2\n      mstore\n      0x20\n      add\n      dup3\n      dup1\n      sload\n      tag_62\n      swap1\n      tag_36\n      jump\t// in\n    tag_62:\n      dup1\n      iszero\n      tag_63\n      jumpi\n      dup1\n      0x1f\n      lt\n      tag_64\n      jumpi\n      0x0100\n      dup1\n      dup4\n      sload\n      div\n      mul\n      dup4\n      mstore\n      swap2\n      0x20\n      add\n      swap2\n      jump(tag_63)\n    tag_64:\n      dup3\n      add\n      swap2\n      swap1\n      0x00\n      mstore\n      keccak256(0x00, 0x20)\n      swap1\n    tag_65:\n      dup2\n      sload\n      dup2\n      mstore\n      swap1\n      0x01\n      add\n      swap1\n      0x20\n      add\n      dup1\n      dup4\n      gt\n      tag_65\n      jumpi\n      dup3\n      swap1\n      sub\n      0x1f\n      and\n      dup3\n      add\n      swap2\n    tag_63:\n      pop\n      pop\n      pop\n      pop\n      pop\n      swap1\n      dup1\n      0x05\n      add\n      sload\n      swap1\n      dup1\n      0x06\n      add\n      sload\n      swap1\n      dup1\n      0x07\n      add\n      0x00\n      swap1\n      sload\n      swap1\n      0x0100\n      exp\n      swap1\n      div\n      0xffffffffffffffffffffffffffffffffffffffff\n      and\n      swap1\n      dup1\n      0x08\n      add\n      0x00\n      swap1\n      sload\n      swap1\n      0x0100\n      exp\n      swap1\n      div\n      0xffffffffffffffffffffffffffffffffffffffff\n      and\n      swap1\n      pop\n      dup10\n      jump\t// out\n        /* \"#utility.yul\":7:84   */\n    tag_66:\n        /* \"#utility.yul\":44:51   */\n      0x00\n        /* \"#utility.yul\":73:78   */\n      dup2\n        /* \"#utility.yul\":62:78   */\n      swap1\n      pop\n        /* \"#utility.yul\":7:84   */\n      swap2\n      swap1\n      pop\n      jump\t// out\n        /* \"#utility.yul\":90:208   */\n    tag_67:\n        /* \"#utility.yul\":177:201   */\n      tag_87\n        /* \"#utility.yul\":195:200   */\n      dup2\n        /* \"#utility.yul\":177:201   */\n      tag_66\n      jump\t// in\n    tag_87:\n        /* \"#utility.yul\":172:175   */\n      dup3\n        /* \"#utility.yul\":165:202   */\n      mstore\n        /* \"#utility.yul\":90:208   */\n      pop\n      pop\n      jump\t// out\n        /* \"#utility.yul\":214:436   */\n    tag_12:\n        /* \"#utility.yul\":307:311   */\n      0x00\n        /* \"#utility.yul\":345:347   */\n      0x20\n        /* \"#utility.yul\":334:343   */\n      dup3\n        /* \"#utility.yul\":330:348   */\n      add\n        /* \"#utility.yul\":322:348   */\n      swap1\n      pop\n        /* \"#utility.yul\":358:429   */\n      tag_89\n        /* \"#utility.yul\":426:427   */\n      0x00\n        /* \"#utility.yul\":415:424   */\n      dup4\n        /* \"#utility.yul\":411:428   */\n      add\n        /* \"#utility.yul\":402:408   */\n      dup5\n        /* \"#utility.yul\":358:429   */\n      tag_67\n      jump\t// in\n    tag_89:\n        /* \"#utility.yul\":214:436   */\n      swap3\n      swap2\n      pop\n      pop\n      jump\t// out\n        /* \"#utility.yul\":523:640   */\n    tag_69:\n        /* \"#utility.yul\":632:633   */\n      0x00\n        /* \"#utility.yul\":629:630   */\n      dup1\n        /* \"#utility.yul\":622:634   */\n      revert\n        /* \"#utility.yul\":769:891   */\n    tag_71:\n        /* \"#utility.yul\":842:866   */\n      tag_94\n        /* \"#utility.yul\":860:865   */\n      dup2\n        /* \"#utility.yul\":842:866   */\n      tag_66\n      jump\t// in\n    tag_94:\n        /* \"#utility.yul\":835:840   */\n      dup2\n        /* \"#utility.yul\":832:867   */\n      eq\n        /* \"#utility.yul\":822:885   */\n      tag_95\n      jumpi\n        /* \"#utility.yul\":881:882   */\n      0x00\n        /* \"#utility.yul\":878:879   */\n      dup1\n        /* \"#utility.yul\":871:883   */\n      revert\n        /* \"#utility.yul\":822:885   */\n    tag_95:\n        /* \"#utility.yul\":769:891   */\n      pop\n      jump\t// out\n        /* \"#utility.yul\":897:1036   */\n    tag_72:\n        /* \"#utility.yul\":943:948   */\n      0x00\n        /* \"#utility.yul\":981:987   */\n      dup2\n        /* \"#utility.yul\":968:988   */\n      calldataload\n        /* \"#utility.yul\":959:988   */\n      swap1\n      pop\n        /* \"#utility.yul\":997:1030   */\n      tag_97\n        /* \"#utility.yul\":1024:1029   */\n      dup2\n        /* \"#utility.yul\":997:1030   */\n      tag_71\n      jump\t// in\n    tag_97:\n        /* \"#utility.yul\":897:1036   */\n      swap3\n      swap2\n      pop\n      pop\n      jump\t// out\n        /* \"#utility.yul\":1042:1371   */\n    tag_15:\n        /* \"#utility.yul\":1101:1107   */\n      0x00\n        /* \"#utility.yul\":1150:1152   */\n      0x20\n        /* \"#utility.yul\":1138:1147   */\n      dup3\n        /* \"#utility.yul\":1129:1136   */\n      dup5\n        /* \"#utility.yul\":1125:1148   */\n      sub\n        /* \"#utility.yul\":1121:1153   */\n      slt\n        /* \"#utility.yul\":1118:1237   */\n      iszero\n      tag_99\n      jumpi\n        /* \"#utility.yul\":1156:1235   */\n      tag_100\n      tag_69\n      jump\t// in\n    tag_100:\n        /* \"#utility.yul\":1118:1237   */\n    tag_99:\n        /* \"#utility.yul\":1276:1277   */\n      0x00\n        /* \"#utility.yul\":1301:1354   */\n      tag_101\n        /* \"#utility.yul\":1346:1353   */\n      dup5\n        /* \"#utility.yul\":1337:1343   */\n      dup3\n        /* \"#utility.yul\":1326:1335   */\n      dup6\n        /* \"#utility.yul\":1322:1344   */\n      add\n        /* \"#utility.yul\":1301:1354   */\n      tag_72\n      jump\t// in\n    tag_101:\n        /* \"#utility.yul\":1291:1354   */\n      swap2\n      pop\n        /* \"#utility.yul\":1247:1364   */\n      pop\n        /* \"#utility.yul\":1042:1371   */\n      swap3\n      swap2\n      pop\n      pop\n      jump\t// out\n        /* \"#utility.yul\":1377:1476   */\n    tag_73:\n        /* \"#utility.yul\":1429:1435   */\n      0x00\n        /* \"#utility.yul\":1463:1468   */\n      dup2\n        /* \"#utility.yul\":1457:1469   */\n      mload\n        /* \"#utility.yul\":1447:1469   */\n      swap1\n      pop\n        /* \"#utility.yul\":1377:1476   */\n      swap2\n      swap1\n      pop\n      jump\t// out\n        /* \"#utility.yul\":1482:1651   */\n    tag_74:\n        /* \"#utility.yul\":1566:1577   */\n      0x00\n        /* \"#utility.yul\":1600:1606   */\n      dup3\n        /* \"#utility.yul\":1595:1598   */\n      dup3\n        /* \"#utility.yul\":1588:1607   */\n      mstore\n        /* \"#utility.yul\":1640:1644   */\n      0x20\n        /* \"#utility.yul\":1635:1638   */\n      dup3\n        /* \"#utility.yul\":1631:1645   */\n      add\n        /* \"#utility.yul\":1616:1645   */\n      swap1\n      pop\n        /* \"#utility.yul\":1482:1651   */\n      swap3\n      swap2\n      pop\n      pop\n      jump\t// out\n        /* \"#utility.yul\":1657:1796   */\n    tag_75:\n        /* \"#utility.yul\":1746:1752   */\n      dup3\n        /* \"#utility.yul\":1741:1744   */\n      dup2\n        /* \"#utility.yul\":1736:1739   */\n      dup4\n        /* \"#utility.yul\":1730:1753   */\n      mcopy\n        /* \"#utility.yul\":1787:1788   */\n      0x00\n        /* \"#utility.yul\":1778:1784   */\n      dup4\n        /* \"#utility.yul\":1773:1776   */\n      dup4\n        /* \"#utility.yul\":1769:1785   */\n      add\n        /* \"#utility.yul\":1762:1789   */\n      mstore\n        /* \"#utility.yul\":1657:1796   */\n      pop\n      pop\n      pop\n      jump\t// out\n        /* \"#utility.yul\":1802:1904   */\n    tag_76:\n        /* \"#utility.yul\":1843:1849   */\n      0x00\n        /* \"#utility.yul\":1894:1896   */\n      0x1f\n        /* \"#utility.yul\":1890:1897   */\n      not\n        /* \"#utility.yul\":1885:1887   */\n      0x1f\n        /* \"#utility.yul\":1878:1883   */\n      dup4\n        /* \"#utility.yul\":1874:1888   */\n      add\n        /* \"#utility.yul\":1870:1898   */\n      and\n        /* \"#utility.yul\":1860:1898   */\n      swap1\n      pop\n        /* \"#utility.yul\":1802:1904   */\n      swap2\n      swap1\n      pop\n      jump\t// out\n        /* \"#utility.yul\":1910:2287   */\n    tag_77:\n        /* \"#utility.yul\":1998:2001   */\n      0x00\n        /* \"#utility.yul\":2026:2065   */\n      tag_107\n        /* \"#utility.yul\":2059:2064   */\n      dup3\n        /* \"#utility.yul\":2026:2065   */\n      tag_73\n      jump\t// in\n    tag_107:\n        /* \"#utility.yul\":2081:2152   */\n      tag_108\n        /* \"#utility.yul\":2145:2151   */\n      dup2\n        /* \"#utility.yul\":2140:2143   */\n      dup6\n        /* \"#utility.yul\":2081:2152   */\n      tag_74\n      jump\t// in\n    tag_108:\n        /* \"#utility.yul\":2074:2152   */\n      swap4\n      pop\n        /* \"#utility.yul\":2161:2226   */\n      tag_109\n        /* \"#utility.yul\":2219:2225   */\n      dup2\n        /* \"#utility.yul\":2214:2217   */\n      dup6\n        /* \"#utility.yul\":2207:2211   */\n      0x20\n        /* \"#utility.yul\":2200:2205   */\n      dup7\n        /* \"#utility.yul\":2196:2212   */\n      add\n        /* \"#utility.yul\":2161:2226   */\n      tag_75\n      jump\t// in\n    tag_109:\n        /* \"#utility.yul\":2251:2280   */\n      tag_110\n        /* \"#utility.yul\":2273:2279   */\n      dup2\n        /* \"#utility.yul\":2251:2280   */\n      tag_76\n      jump\t// in\n    tag_110:\n        /* \"#utility.yul\":2246:2249   */\n      dup5\n        /* \"#utility.yul\":2242:2281   */\n      add\n        /* \"#utility.yul\":2235:2281   */\n      swap2\n      pop\n        /* \"#utility.yul\":2002:2287   */\n      pop\n        /* \"#utility.yul\":1910:2287   */\n      swap3\n      swap2\n      pop\n      pop\n      jump\t// out\n        /* \"#utility.yul\":2293:2383   */\n    tag_78:\n        /* \"#utility.yul\":2327:2334   */\n      0x00\n        /* \"#utility.yul\":2370:2375   */\n      dup2\n        /* \"#utility.yul\":2363:2376   */\n      iszero\n        /* \"#utility.yul\":2356:2377   */\n      iszero\n        /* \"#utility.yul\":2345:2377   */\n      swap1\n      pop\n        /* \"#utility.yul\":2293:2383   */\n      swap2\n      swap1\n      pop\n      jump\t// out\n        /* \"#utility.yul\":2389:2498   */\n    tag_79:\n        /* \"#utility.yul\":2470:2491   */\n      tag_113\n        /* \"#utility.yul\":2485:2490   */\n      dup2\n        /* \"#utility.yul\":2470:2491   */\n      tag_78\n      jump\t// in\n    tag_113:\n        /* \"#utility.yul\":2465:2468   */\n      dup3\n        /* \"#utility.yul\":2458:2492   */\n      mstore\n        /* \"#utility.yul\":2389:2498   */\n      pop\n      pop\n      jump\t// out\n        /* \"#utility.yul\":2504:2630   */\n    tag_80:\n        /* \"#utility.yul\":2541:2548   */\n      0x00\n        /* \"#utility.yul\":2581:2623   */\n      0xffffffffffffffffffffffffffffffffffffffff\n        /* \"#utility.yul\":2574:2579   */\n      dup3\n        /* \"#utility.yul\":2570:2624   */\n      and\n        /* \"#utility.yul\":2559:2624   */\n      swap1\n      pop\n        /* \"#utility.yul\":2504:2630   */\n      swap2\n      swap1\n      pop\n      jump\t// out\n        /* \"#utility.yul\":2636:2740   */\n    tag_81:\n        /* \"#utility.yul\":2681:2688   */\n      0x00\n        /* \"#utility.yul\":2710:2734   */\n      tag_116\n        /* \"#utility.yul\":2728:2733   */\n      dup3\n        /* \"#utility.yul\":2710:2734   */\n      tag_80\n      jump\t// in\n    tag_116:\n        /* \"#utility.yul\":2699:2734   */\n      swap1\n      pop\n        /* \"#utility.yul\":2636:2740   */\n      swap2\n      swap1\n      pop\n      jump\t// out\n        /* \"#utility.yul\":2746:2888   */\n    tag_82:\n        /* \"#utility.yul\":2849:2881   */\n      tag_118\n        /* \"#utility.yul\":2875:2880   */\n      dup2\n        /* \"#utility.yul\":2849:2881   */\n      tag_81\n      jump\t// in\n    tag_118:\n        /* \"#utility.yul\":2844:2847   */\n      dup3\n        /* \"#utility.yul\":2837:2882   */\n      mstore\n        /* \"#utility.yul\":2746:2888   */\n      pop\n      pop\n      jump\t// out\n        /* \"#utility.yul\":2894:4347   */\n    tag_18:\n        /* \"#utility.yul\":3305:3309   */\n      0x00\n        /* \"#utility.yul\":3343:3346   */\n      0x0140\n        /* \"#utility.yul\":3332:3341   */\n      dup3\n        /* \"#utility.yul\":3328:3347   */\n      add\n        /* \"#utility.yul\":3320:3347   */\n      swap1\n      pop\n        /* \"#utility.yul\":3357:3428   */\n      tag_120\n        /* \"#utility.yul\":3425:3426   */\n      0x00\n        /* \"#utility.yul\":3414:3423   */\n      dup4\n        /* \"#utility.yul\":3410:3427   */\n      add\n        /* \"#utility.yul\":3401:3407   */\n      dup14\n        /* \"#utility.yul\":3357:3428   */\n      tag_67\n      jump\t// in\n    tag_120:\n        /* \"#utility.yul\":3438:3510   */\n      tag_121\n        /* \"#utility.yul\":3506:3508   */\n      0x20\n        /* \"#utility.yul\":3495:3504   */\n      dup4\n        /* \"#utility.yul\":3491:3509   */\n      add\n        /* \"#utility.yul\":3482:3488   */\n      dup13\n        /* \"#utility.yul\":3438:3510   */\n      tag_67\n      jump\t// in\n    tag_121:\n        /* \"#utility.yul\":3557:3566   */\n      dup2\n        /* \"#utility.yul\":3551:3555   */\n      dup2\n        /* \"#utility.yul\":3547:3567   */\n      sub\n        /* \"#utility.yul\":3542:3544   */\n      0x40\n        /* \"#utility.yul\":3531:3540   */\n      dup4\n        /* \"#utility.yul\":3527:3545   */\n      add\n        /* \"#utility.yul\":3520:3568   */\n      mstore\n        /* \"#utility.yul\":3585:3663   */\n      tag_122\n        /* \"#utility.yul\":3658:3662   */\n      dup2\n        /* \"#utility.yul\":3649:3655   */\n      dup12\n        /* \"#utility.yul\":3585:3663   */\n      tag_77\n      jump\t// in\n    tag_122:\n        /* \"#utility.yul\":3577:3663   */\n      swap1\n      pop\n        /* \"#utility.yul\":3710:3719   */\n      dup2\n        /* \"#utility.yul\":3704:3708   */\n      dup2\n        /* \"#utility.yul\":3700:3720   */\n      sub\n        /* \"#utility.yul\":3695:3697   */\n      0x60\n        /* \"#utility.yul\":3684:3693   */\n      dup4\n        /* \"#utility.yul\":3680:3698   */\n      add\n        /* \"#utility.yul\":3673:3721   */\n      mstore\n        /* \"#utility.yul\":3738:3816   */\n      tag_123\n        /* \"#utility.yul\":3811:3815   */\n      dup2\n        /* \"#utility.yul\":3802:3808   */\n      dup11\n        /* \"#utility.yul\":3738:3816   */\n      tag_77\n      jump\t// in\n    tag_123:\n        /* \"#utility.yul\":3730:3816   */\n      swap1\n      pop\n        /* \"#utility.yul\":3826:3899   */\n      tag_124\n        /* \"#utility.yul\":3894:3897   */\n      0x80\n        /* \"#utility.yul\":3883:3892   */\n      dup4\n        /* \"#utility.yul\":3879:3898   */\n      add\n        /* \"#utility.yul\":3870:3876   */\n      dup10\n        /* \"#utility.yul\":3826:3899   */\n      tag_67\n      jump\t// in\n    tag_124:\n        /* \"#utility.yul\":3909:3982   */\n      tag_125\n        /* \"#utility.yul\":3977:3980   */\n      0xa0\n        /* \"#utility.yul\":3966:3975   */\n      dup4\n        /* \"#utility.yul\":3962:3981   */\n      add\n        /* \"#utility.yul\":3953:3959   */\n      dup9\n        /* \"#utility.yul\":3909:3982   */\n      tag_67\n      jump\t// in\n    tag_125:\n        /* \"#utility.yul\":3992:4065   */\n      tag_126\n        /* \"#utility.yul\":4060:4063   */\n      0xc0\n        /* \"#utility.yul\":4049:4058   */\n      dup4\n        /* \"#utility.yul\":4045:4064   */\n      add\n        /* \"#utility.yul\":4036:4042   */\n      dup8\n        /* \"#utility.yul\":3992:4065   */\n      tag_67\n      jump\t// in\n    tag_126:\n        /* \"#utility.yul\":4075:4142   */\n      tag_127\n        /* \"#utility.yul\":4137:4140   */\n      0xe0\n        /* \"#utility.yul\":4126:4135   */\n      dup4\n        /* \"#utility.yul\":4122:4141   */\n      add\n        /* \"#utility.yul\":4113:4119   */\n      dup7\n        /* \"#utility.yul\":4075:4142   */\n      tag_79\n      jump\t// in\n    tag_127:\n        /* \"#utility.yul\":4152:4241   */\n      tag_128\n        /* \"#utility.yul\":4236:4239   */\n      0x0100\n        /* \"#utility.yul\":4225:4234   */\n      dup4\n        /* \"#utility.yul\":4221:4240   */\n      add\n        /* \"#utility.yul\":4212:4218   */\n      dup6\n        /* \"#utility.yul\":4152:4241   */\n      tag_82\n      jump\t// in\n    tag_128:\n        /* \"#utility.yul\":4251:4340   */\n      tag_129\n        /* \"#utility.yul\":4335:4338   */\n      0x0120\n        /* \"#utility.yul\":4324:4333   */\n      dup4\n        /* \"#utility.yul\":4320:4339   */\n      add\n        /* \"#utility.yul\":4311:4317   */\n      dup5\n        /* \"#utility.yul\":4251:4340   */\n      tag_82\n      jump\t// in\n    tag_129:\n        /* \"#utility.yul\":2894:4347   */\n      swap12\n      swap11\n      pop\n      pop\n      pop\n      pop\n      pop\n      pop\n      pop\n      pop\n      pop\n      pop\n      pop\n      jump\t// out\n        /* \"#utility.yul\":4353:5818   */\n    tag_29:\n        /* \"#utility.yul\":4770:4774   */\n      0x00\n        /* \"#utility.yul\":4808:4811   */\n      0x0140\n        /* \"#utility.yul\":4797:4806   */\n      dup3\n        /* \"#utility.yul\":4793:4812   */\n      add\n        /* \"#utility.yul\":4785:4812   */\n      swap1\n      pop\n        /* \"#utility.yul\":4822:4893   */\n      tag_131\n        /* \"#utility.yul\":4890:4891   */\n      0x00\n        /* \"#utility.yul\":4879:4888   */\n      dup4\n        /* \"#utility.yul\":4875:4892   */\n      add\n        /* \"#utility.yul\":4866:4872   */\n      dup14\n        /* \"#utility.yul\":4822:4893   */\n      tag_67\n      jump\t// in\n    tag_131:\n        /* \"#utility.yul\":4903:4975   */\n      tag_132\n        /* \"#utility.yul\":4971:4973   */\n      0x20\n        /* \"#utility.yul\":4960:4969   */\n      dup4\n        /* \"#utility.yul\":4956:4974   */\n      add\n        /* \"#utility.yul\":4947:4953   */\n      dup13\n        /* \"#utility.yul\":4903:4975   */\n      tag_67\n      jump\t// in\n    tag_132:\n        /* \"#utility.yul\":5022:5031   */\n      dup2\n        /* \"#utility.yul\":5016:5020   */\n      dup2\n        /* \"#utility.yul\":5012:5032   */\n      sub\n        /* \"#utility.yul\":5007:5009   */\n      0x40\n        /* \"#utility.yul\":4996:5005   */\n      dup4\n        /* \"#utility.yul\":4992:5010   */\n      add\n        /* \"#utility.yul\":4985:5033   */\n      mstore\n        /* \"#utility.yul\":5050:5128   */\n      tag_133\n        /* \"#utility.yul\":5123:5127   */\n      dup2\n        /* \"#utility.yul\":5114:5120   */\n      dup12\n        /* \"#utility.yul\":5050:5128   */\n      tag_77\n      jump\t// in\n    tag_133:\n        /* \"#utility.yul\":5042:5128   */\n      swap1\n      pop\n        /* \"#utility.yul\":5175:5184   */\n      dup2\n        /* \"#utility.yul\":5169:5173   */\n      dup2\n        /* \"#utility.yul\":5165:5185   */\n      sub\n        /* \"#utility.yul\":5160:5162   */\n      0x60\n        /* \"#utility.yul\":5149:5158   */\n      dup4\n        /* \"#utility.yul\":5145:5163   */\n      add\n        /* \"#utility.yul\":5138:5186   */\n      mstore\n        /* \"#utility.yul\":5203:5281   */\n      tag_134\n        /* \"#utility.yul\":5276:5280   */\n      dup2\n        /* \"#utility.yul\":5267:5273   */\n      dup11\n        /* \"#utility.yul\":5203:5281   */\n      tag_77\n      jump\t// in\n    tag_134:\n        /* \"#utility.yul\":5195:5281   */\n      swap1\n      pop\n        /* \"#utility.yul\":5291:5364   */\n      tag_135\n        /* \"#utility.yul\":5359:5362   */\n      0x80\n        /* \"#utility.yul\":5348:5357   */\n      dup4\n        /* \"#utility.yul\":5344:5363   */\n      add\n        /* \"#utility.yul\":5335:5341   */\n      dup10\n        /* \"#utility.yul\":5291:5364   */\n      tag_67\n      jump\t// in\n    tag_135:\n        /* \"#utility.yul\":5374:5447   */\n      tag_136\n        /* \"#utility.yul\":5442:5445   */\n      0xa0\n        /* \"#utility.yul\":5431:5440   */\n      dup4\n        /* \"#utility.yul\":5427:5446   */\n      add\n        /* \"#utility.yul\":5418:5424   */\n      dup9\n        /* \"#utility.yul\":5374:5447   */\n      tag_67\n      jump\t// in\n    tag_136:\n        /* \"#utility.yul\":5457:5530   */\n      tag_137\n        /* \"#utility.yul\":5525:5528   */\n      0xc0\n        /* \"#utility.yul\":5514:5523   */\n      dup4\n        /* \"#utility.yul\":5510:5529   */\n      add\n        /* \"#utility.yul\":5501:5507   */\n      dup8\n        /* \"#utility.yul\":5457:5530   */\n      tag_67\n      jump\t// in\n    tag_137:\n        /* \"#utility.yul\":5540:5613   */\n      tag_138\n        /* \"#utility.yul\":5608:5611   */\n      0xe0\n        /* \"#utility.yul\":5597:5606   */\n      dup4\n        /* \"#utility.yul\":5593:5612   */\n      add\n        /* \"#utility.yul\":5584:5590   */\n      dup7\n        /* \"#utility.yul\":5540:5613   */\n      tag_67\n      jump\t// in\n    tag_138:\n        /* \"#utility.yul\":5623:5712   */\n      tag_139\n        /* \"#utility.yul\":5707:5710   */\n      0x0100\n        /* \"#utility.yul\":5696:5705   */\n      dup4\n        /* \"#utility.yul\":5692:5711   */\n      add\n        /* \"#utility.yul\":5683:5689   */\n      dup6\n        /* \"#utility.yul\":5623:5712   */\n      tag_82\n      jump\t// in\n    tag_139:\n        /* \"#utility.yul\":5722:5811   */\n      tag_140\n        /* \"#utility.yul\":5806:5809   */\n      0x0120\n        /* \"#utility.yul\":5795:5804   */\n      dup4\n        /* \"#utility.yul\":5791:5810   */\n      add\n        /* \"#utility.yul\":5782:5788   */\n      dup5\n        /* \"#utility.yul\":5722:5811   */\n      tag_82\n      jump\t// in\n    tag_140:\n        /* \"#utility.yul\":4353:5818   */\n      swap12\n      swap11\n      pop\n      pop\n      pop\n      pop\n      pop\n      pop\n      pop\n      pop\n      pop\n      pop\n      pop\n      jump\t// out\n        /* \"#utility.yul\":5824:7178   */\n    tag_34:\n        /* \"#utility.yul\":6213:6217   */\n      0x00\n        /* \"#utility.yul\":6251:6254   */\n      0x0120\n        /* \"#utility.yul\":6240:6249   */\n      dup3\n        /* \"#utility.yul\":6236:6255   */\n      add\n        /* \"#utility.yul\":6228:6255   */\n      swap1\n      pop\n        /* \"#utility.yul\":6265:6336   */\n      tag_142\n        /* \"#utility.yul\":6333:6334   */\n      0x00\n        /* \"#utility.yul\":6322:6331   */\n      dup4\n        /* \"#utility.yul\":6318:6335   */\n      add\n        /* \"#utility.yul\":6309:6315   */\n      dup13\n        /* \"#utility.yul\":6265:6336   */\n      tag_67\n      jump\t// in\n    tag_142:\n        /* \"#utility.yul\":6346:6418   */\n      tag_143\n        /* \"#utility.yul\":6414:6416   */\n      0x20\n        /* \"#utility.yul\":6403:6412   */\n      dup4\n        /* \"#utility.yul\":6399:6417   */\n      add\n        /* \"#utility.yul\":6390:6396   */\n      dup12\n        /* \"#utility.yul\":6346:6418   */\n      tag_67\n      jump\t// in\n    tag_143:\n        /* \"#utility.yul\":6428:6500   */\n      tag_144\n        /* \"#utility.yul\":6496:6498   */\n      0x40\n        /* \"#utility.yul\":6485:6494   */\n      dup4\n        /* \"#utility.yul\":6481:6499   */\n      add\n        /* \"#utility.yul\":6472:6478   */\n      dup11\n        /* \"#utility.yul\":6428:6500   */\n      tag_67\n      jump\t// in\n    tag_144:\n        /* \"#utility.yul\":6547:6556   */\n      dup2\n        /* \"#utility.yul\":6541:6545   */\n      dup2\n        /* \"#utility.yul\":6537:6557   */\n      sub\n        /* \"#utility.yul\":6532:6534   */\n      0x60\n        /* \"#utility.yul\":6521:6530   */\n      dup4\n        /* \"#utility.yul\":6517:6535   */\n      add\n        /* \"#utility.yul\":6510:6558   */\n      mstore\n        /* \"#utility.yul\":6575:6653   */\n      tag_145\n        /* \"#utility.yul\":6648:6652   */\n      dup2\n        /* \"#utility.yul\":6639:6645   */\n      dup10\n        /* \"#utility.yul\":6575:6653   */\n      tag_77\n      jump\t// in\n    tag_145:\n        /* \"#utility.yul\":6567:6653   */\n      swap1\n      pop\n        /* \"#utility.yul\":6701:6710   */\n      dup2\n        /* \"#utility.yul\":6695:6699   */\n      dup2\n        /* \"#utility.yul\":6691:6711   */\n      sub\n        /* \"#utility.yul\":6685:6688   */\n      0x80\n        /* \"#utility.yul\":6674:6683   */\n      dup4\n        /* \"#utility.yul\":6670:6689   */\n      add\n        /* \"#utility.yul\":6663:6712   */\n      mstore\n        /* \"#utility.yul\":6729:6807   */\n      tag_146\n        /* \"#utility.yul\":6802:6806   */\n      dup2\n        /* \"#utility.yul\":6793:6799   */\n      dup9\n        /* \"#utility.yul\":6729:6807   */\n      tag_77\n      jump\t// in\n    tag_146:\n        /* \"#utility.yul\":6721:6807   */\n      swap1\n      pop\n        /* \"#utility.yul\":6817:6890   */\n      tag_147\n        /* \"#utility.yul\":6885:6888   */\n      0xa0\n        /* \"#utility.yul\":6874:6883   */\n      dup4\n        /* \"#utility.yul\":6870:6889   */\n      add\n        /* \"#utility.yul\":6861:6867   */\n      dup8\n        /* \"#utility.yul\":6817:6890   */\n      tag_67\n      jump\t// in\n    tag_147:\n        /* \"#utility.yul\":6900:6973   */\n      tag_148\n        /* \"#utility.yul\":6968:6971   */\n      0xc0\n        /* \"#utility.yul\":6957:6966   */\n      dup4\n        /* \"#utility.yul\":6953:6972   */\n      add\n        /* \"#utility.yul\":6944:6950   */\n      dup7\n        /* \"#utility.yul\":6900:6973   */\n      tag_67\n      jump\t// in\n    tag_148:\n        /* \"#utility.yul\":6983:7072   */\n      tag_149\n        /* \"#utility.yul\":7067:7070   */\n      0xe0\n        /* \"#utility.yul\":7056:7065   */\n      dup4\n        /* \"#utility.yul\":7052:7071   */\n      add\n        /* \"#utility.yul\":7043:7049   */\n      dup6\n        /* \"#utility.yul\":6983:7072   */\n      tag_82\n      jump\t// in\n    tag_149:\n        /* \"#utility.yul\":7082:7171   */\n      tag_150\n        /* \"#utility.yul\":7166:7169   */\n      0x0100\n        /* \"#utility.yul\":7155:7164   */\n      dup4\n        /* \"#utility.yul\":7151:7170   */\n      add\n        /* \"#utility.yul\":7142:7148   */\n      dup5\n        /* \"#utility.yul\":7082:7171   */\n      tag_82\n      jump\t// in\n    tag_150:\n        /* \"#utility.yul\":5824:7178   */\n      swap11\n      swap10\n      pop\n      pop\n      pop\n      pop\n      pop\n      pop\n      pop\n      pop\n      pop\n      pop\n      jump\t// out\n        /* \"#utility.yul\":7184:7364   */\n    tag_83:\n        /* \"#utility.yul\":7232:7309   */\n      0x4e487b7100000000000000000000000000000000000000000000000000000000\n        /* \"#utility.yul\":7229:7230   */\n      0x00\n        /* \"#utility.yul\":7222:7310   */\n      mstore\n        /* \"#utility.yul\":7329:7333   */\n      0x22\n        /* \"#utility.yul\":7326:7327   */\n      0x04\n        /* \"#utility.yul\":7319:7334   */\n      mstore\n        /* \"#utility.yul\":7353:7357   */\n      0x24\n        /* \"#utility.yul\":7350:7351   */\n      0x00\n        /* \"#utility.yul\":7343:7358   */\n      revert\n        /* \"#utility.yul\":7370:7690   */\n    tag_36:\n        /* \"#utility.yul\":7414:7420   */\n      0x00\n        /* \"#utility.yul\":7451:7452   */\n      0x02\n        /* \"#utility.yul\":7445:7449   */\n      dup3\n        /* \"#utility.yul\":7441:7453   */\n      div\n        /* \"#utility.yul\":7431:7453   */\n      swap1\n      pop\n        /* \"#utility.yul\":7498:7499   */\n      0x01\n        /* \"#utility.yul\":7492:7496   */\n      dup3\n        /* \"#utility.yul\":7488:7500   */\n      and\n        /* \"#utility.yul\":7519:7537   */\n      dup1\n        /* \"#utility.yul\":7509:7590   */\n      tag_153\n      jumpi\n        /* \"#utility.yul\":7575:7579   */\n      0x7f\n        /* \"#utility.yul\":7567:7573   */\n      dup3\n        /* \"#utility.yul\":7563:7580   */\n      and\n        /* \"#utility.yul\":7553:7580   */\n      swap2\n      pop\n        /* \"#utility.yul\":7509:7590   */\n    tag_153:\n        /* \"#utility.yul\":7637:7639   */\n      0x20\n        /* \"#utility.yul\":7629:7635   */\n      dup3\n        /* \"#utility.yul\":7626:7640   */\n      lt\n        /* \"#utility.yul\":7606:7624   */\n      dup2\n        /* \"#utility.yul\":7603:7641   */\n      sub\n        /* \"#utility.yul\":7600:7684   */\n      tag_154\n      jumpi\n        /* \"#utility.yul\":7656:7674   */\n      tag_155\n      tag_83\n      jump\t// in\n    tag_155:\n        /* \"#utility.yul\":7600:7684   */\n    tag_154:\n        /* \"#utility.yul\":7421:7690   */\n      pop\n        /* \"#utility.yul\":7370:7690   */\n      swap2\n      swap1\n      pop\n      jump\t// out\n\n    auxdata: 0xa26469706673582212206a618d0e34cae7c062d0f7b4b038bafddf6478cb1783b606aa8a61f4e184dd3464736f6c634300081a0033\n}\n",
				"bytecode": {
					"linkReferences": {},
					"object": "60806040525f6002555f6003555f600455348015601a575f80fd5b50610a1e806100285f395ff3fe608060405234801561000f575f80fd5b5060043610610060575f3560e01c806359e2cbec14610064578063646fc1001461008257806375eb9ef6146100bb578063900b3b53146100d9578063ccc3e83a146100f7578063f5b46a6514610130575b5f80fd5b61006c610168565b6040516100799190610667565b60405180910390f35b61009c600480360381019061009791906106ae565b61016e565b6040516100b29a999897969594939291906107a2565b60405180910390f35b6100c3610315565b6040516100d09190610667565b60405180910390f35b6100e161031b565b6040516100ee9190610667565b60405180910390f35b610111600480360381019061010c91906106ae565b610321565b6040516101279a9998979695949392919061084a565b60405180910390f35b61014a600480360381019061014591906106ae565b6104bb565b60405161015f999897969594939291906108f2565b60405180910390f35b60025481565b6005602052805f5260405f205f91509050805f015490806001015490806002018054610199906109b8565b80601f01602080910402602001604051908101604052809291908181526020018280546101c5906109b8565b80156102105780601f106101e757610100808354040283529160200191610210565b820191905f5260205f20905b8154815290600101906020018083116101f357829003601f168201915b505050505090806003018054610225906109b8565b80601f0160208091040260200160405190810160405280929190818152602001828054610251906109b8565b801561029c5780601f106102735761010080835404028352916020019161029c565b820191905f5260205f20905b81548152906001019060200180831161027f57829003601f168201915b505050505090806004015490806005015490806006015490806007015f9054906101000a900460ff16908060070160019054906101000a900473ffffffffffffffffffffffffffffffffffffffff1690806008015f9054906101000a900473ffffffffffffffffffffffffffffffffffffffff1690508a565b60045481565b60035481565b6006602052805f5260405f205f91509050805f01549080600101549080600201805461034c906109b8565b80601f0160208091040260200160405190810160405280929190818152602001828054610378906109b8565b80156103c35780601f1061039a576101008083540402835291602001916103c3565b820191905f5260205f20905b8154815290600101906020018083116103a657829003601f168201915b5050505050908060030180546103d8906109b8565b80601f0160208091040260200160405190810160405280929190818152602001828054610404906109b8565b801561044f5780601f106104265761010080835404028352916020019161044f565b820191905f5260205f20905b81548152906001019060200180831161043257829003601f168201915b505050505090806004015490806005015490806006015490806007015490806008015f9054906101000a900473ffffffffffffffffffffffffffffffffffffffff1690806009015f9054906101000a900473ffffffffffffffffffffffffffffffffffffffff1690508a565b6007602052805f5260405f205f91509050805f0154908060010154908060020154908060030180546104ec906109b8565b80601f0160208091040260200160405190810160405280929190818152602001828054610518906109b8565b80156105635780601f1061053a57610100808354040283529160200191610563565b820191905f5260205f20905b81548152906001019060200180831161054657829003601f168201915b505050505090806004018054610578906109b8565b80601f01602080910402602001604051908101604052809291908181526020018280546105a4906109b8565b80156105ef5780601f106105c6576101008083540402835291602001916105ef565b820191905f5260205f20905b8154815290600101906020018083116105d257829003601f168201915b505050505090806005015490806006015490806007015f9054906101000a900473ffffffffffffffffffffffffffffffffffffffff1690806008015f9054906101000a900473ffffffffffffffffffffffffffffffffffffffff16905089565b5f819050919050565b6106618161064f565b82525050565b5f60208201905061067a5f830184610658565b92915050565b5f80fd5b61068d8161064f565b8114610697575f80fd5b50565b5f813590506106a881610684565b92915050565b5f602082840312156106c3576106c2610680565b5b5f6106d08482850161069a565b91505092915050565b5f81519050919050565b5f82825260208201905092915050565b8281835e5f83830152505050565b5f601f19601f8301169050919050565b5f61071b826106d9565b61072581856106e3565b93506107358185602086016106f3565b61073e81610701565b840191505092915050565b5f8115159050919050565b61075d81610749565b82525050565b5f73ffffffffffffffffffffffffffffffffffffffff82169050919050565b5f61078c82610763565b9050919050565b61079c81610782565b82525050565b5f610140820190506107b65f83018d610658565b6107c3602083018c610658565b81810360408301526107d5818b610711565b905081810360608301526107e9818a610711565b90506107f86080830189610658565b61080560a0830188610658565b61081260c0830187610658565b61081f60e0830186610754565b61082d610100830185610793565b61083b610120830184610793565b9b9a5050505050505050505050565b5f6101408201905061085e5f83018d610658565b61086b602083018c610658565b818103604083015261087d818b610711565b90508181036060830152610891818a610711565b90506108a06080830189610658565b6108ad60a0830188610658565b6108ba60c0830187610658565b6108c760e0830186610658565b6108d5610100830185610793565b6108e3610120830184610793565b9b9a5050505050505050505050565b5f610120820190506109065f83018c610658565b610913602083018b610658565b610920604083018a610658565b81810360608301526109328189610711565b905081810360808301526109468188610711565b905061095560a0830187610658565b61096260c0830186610658565b61096f60e0830185610793565b61097d610100830184610793565b9a9950505050505050505050565b7f4e487b71000000000000000000000000000000000000000000000000000000005f52602260045260245ffd5b5f60028204905060018216806109cf57607f821691505b6020821081036109e2576109e161098b565b5b5091905056fea26469706673582212206a618d0e34cae7c062d0f7b4b038bafddf6478cb1783b606aa8a61f4e184dd3464736f6c634300081a0033",
					"opcodes": "PUSH1 0x80 PUSH1 0x40 MSTORE PUSH0 PUSH1 0x2 SSTORE PUSH0 PUSH1 0x3 SSTORE PUSH0 PUSH1 0x4 SSTORE CALLVALUE DUP1 ISZERO PUSH1 0x1A JUMPI PUSH0 DUP1 REVERT JUMPDEST POP PUSH2 0xA1E DUP1 PUSH2 0x28 PUSH0 CODECOPY PUSH0 RETURN INVALID PUSH1 0x80 PUSH1 0x40 MSTORE CALLVALUE DUP1 ISZERO PUSH2 0xF JUMPI PUSH0 DUP1 REVERT JUMPDEST POP PUSH1 0x4 CALLDATASIZE LT PUSH2 0x60 JUMPI PUSH0 CALLDATALOAD PUSH1 0xE0 SHR DUP1 PUSH4 0x59E2CBEC EQ PUSH2 0x64 JUMPI DUP1 PUSH4 0x646FC100 EQ PUSH2 0x82 JUMPI DUP1 PUSH4 0x75EB9EF6 EQ PUSH2 0xBB JUMPI DUP1 PUSH4 0x900B3B53 EQ PUSH2 0xD9 JUMPI DUP1 PUSH4 0xCCC3E83A EQ PUSH2 0xF7 JUMPI DUP1 PUSH4 0xF5B46A65 EQ PUSH2 0x130 JUMPI JUMPDEST PUSH0 DUP1 REVERT JUMPDEST PUSH2 0x6C PUSH2 0x168 JUMP JUMPDEST PUSH1 0x40 MLOAD PUSH2 0x79 SWAP2 SWAP1 PUSH2 0x667 JUMP JUMPDEST PUSH1 0x40 MLOAD DUP1 SWAP2 SUB SWAP1 RETURN JUMPDEST PUSH2 0x9C PUSH1 0x4 DUP1 CALLDATASIZE SUB DUP2 ADD SWAP1 PUSH2 0x97 SWAP2 SWAP1 PUSH2 0x6AE JUMP JUMPDEST PUSH2 0x16E JUMP JUMPDEST PUSH1 0x40 MLOAD PUSH2 0xB2 SWAP11 SWAP10 SWAP9 SWAP8 SWAP7 SWAP6 SWAP5 SWAP4 SWAP3 SWAP2 SWAP1 PUSH2 0x7A2 JUMP JUMPDEST PUSH1 0x40 MLOAD DUP1 SWAP2 SUB SWAP1 RETURN JUMPDEST PUSH2 0xC3 PUSH2 0x315 JUMP JUMPDEST PUSH1 0x40 MLOAD PUSH2 0xD0 SWAP2 SWAP1 PUSH2 0x667 JUMP JUMPDEST PUSH1 0x40 MLOAD DUP1 SWAP2 SUB SWAP1 RETURN JUMPDEST PUSH2 0xE1 PUSH2 0x31B JUMP JUMPDEST PUSH1 0x40 MLOAD PUSH2 0xEE SWAP2 SWAP1 PUSH2 0x667 JUMP JUMPDEST PUSH1 0x40 MLOAD DUP1 SWAP2 SUB SWAP1 RETURN JUMPDEST PUSH2 0x111 PUSH1 0x4 DUP1 CALLDATASIZE SUB DUP2 ADD SWAP1 PUSH2 0x10C SWAP2 SWAP1 PUSH2 0x6AE JUMP JUMPDEST PUSH2 0x321 JUMP JUMPDEST PUSH1 0x40 MLOAD PUSH2 0x127 SWAP11 SWAP10 SWAP9 SWAP8 SWAP7 SWAP6 SWAP5 SWAP4 SWAP3 SWAP2 SWAP1 PUSH2 0x84A JUMP JUMPDEST PUSH1 0x40 MLOAD DUP1 SWAP2 SUB SWAP1 RETURN JUMPDEST PUSH2 0x14A PUSH1 0x4 DUP1 CALLDATASIZE SUB DUP2 ADD SWAP1 PUSH2 0x145 SWAP2 SWAP1 PUSH2 0x6AE JUMP JUMPDEST PUSH2 0x4BB JUMP JUMPDEST PUSH1 0x40 MLOAD PUSH2 0x15F SWAP10 SWAP9 SWAP8 SWAP7 SWAP6 SWAP5 SWAP4 SWAP3 SWAP2 SWAP1 PUSH2 0x8F2 JUMP JUMPDEST PUSH1 0x40 MLOAD DUP1 SWAP2 SUB SWAP1 RETURN JUMPDEST PUSH1 0x2 SLOAD DUP2 JUMP JUMPDEST PUSH1 0x5 PUSH1 0x20 MSTORE DUP1 PUSH0 MSTORE PUSH1 0x40 PUSH0 KECCAK256 PUSH0 SWAP2 POP SWAP1 POP DUP1 PUSH0 ADD SLOAD SWAP1 DUP1 PUSH1 0x1 ADD SLOAD SWAP1 DUP1 PUSH1 0x2 ADD DUP1 SLOAD PUSH2 0x199 SWAP1 PUSH2 0x9B8 JUMP JUMPDEST DUP1 PUSH1 0x1F ADD PUSH1 0x20 DUP1 SWAP2 DIV MUL PUSH1 0x20 ADD PUSH1 0x40 MLOAD SWAP1 DUP2 ADD PUSH1 0x40 MSTORE DUP1 SWAP3 SWAP2 SWAP1 DUP2 DUP2 MSTORE PUSH1 0x20 ADD DUP3 DUP1 SLOAD PUSH2 0x1C5 SWAP1 PUSH2 0x9B8 JUMP JUMPDEST DUP1 ISZERO PUSH2 0x210 JUMPI DUP1 PUSH1 0x1F LT PUSH2 0x1E7 JUMPI PUSH2 0x100 DUP1 DUP4 SLOAD DIV MUL DUP4 MSTORE SWAP2 PUSH1 0x20 ADD SWAP2 PUSH2 0x210 JUMP JUMPDEST DUP3 ADD SWAP2 SWAP1 PUSH0 MSTORE PUSH1 0x20 PUSH0 KECCAK256 SWAP1 JUMPDEST DUP2 SLOAD DUP2 MSTORE SWAP1 PUSH1 0x1 ADD SWAP1 PUSH1 0x20 ADD DUP1 DUP4 GT PUSH2 0x1F3 JUMPI DUP3 SWAP1 SUB PUSH1 0x1F AND DUP3 ADD SWAP2 JUMPDEST POP POP POP POP POP SWAP1 DUP1 PUSH1 0x3 ADD DUP1 SLOAD PUSH2 0x225 SWAP1 PUSH2 0x9B8 JUMP JUMPDEST DUP1 PUSH1 0x1F ADD PUSH1 0x20 DUP1 SWAP2 DIV MUL PUSH1 0x20 ADD PUSH1 0x40 MLOAD SWAP1 DUP2 ADD PUSH1 0x40 MSTORE DUP1 SWAP3 SWAP2 SWAP1 DUP2 DUP2 MSTORE PUSH1 0x20 ADD DUP3 DUP1 SLOAD PUSH2 0x251 SWAP1 PUSH2 0x9B8 JUMP JUMPDEST DUP1 ISZERO PUSH2 0x29C JUMPI DUP1 PUSH1 0x1F LT PUSH2 0x273 JUMPI PUSH2 0x100 DUP1 DUP4 SLOAD DIV MUL DUP4 MSTORE SWAP2 PUSH1 0x20 ADD SWAP2 PUSH2 0x29C JUMP JUMPDEST DUP3 ADD SWAP2 SWAP1 PUSH0 MSTORE PUSH1 0x20 PUSH0 KECCAK256 SWAP1 JUMPDEST DUP2 SLOAD DUP2 MSTORE SWAP1 PUSH1 0x1 ADD SWAP1 PUSH1 0x20 ADD DUP1 DUP4 GT PUSH2 0x27F JUMPI DUP3 SWAP1 SUB PUSH1 0x1F AND DUP3 ADD SWAP2 JUMPDEST POP POP POP POP POP SWAP1 DUP1 PUSH1 0x4 ADD SLOAD SWAP1 DUP1 PUSH1 0x5 ADD SLOAD SWAP1 DUP1 PUSH1 0x6 ADD SLOAD SWAP1 DUP1 PUSH1 0x7 ADD PUSH0 SWAP1 SLOAD SWAP1 PUSH2 0x100 EXP SWAP1 DIV PUSH1 0xFF AND SWAP1 DUP1 PUSH1 0x7 ADD PUSH1 0x1 SWAP1 SLOAD SWAP1 PUSH2 0x100 EXP SWAP1 DIV PUSH20 0xFFFFFFFFFFFFFFFFFFFFFFFFFFFFFFFFFFFFFFFF AND SWAP1 DUP1 PUSH1 0x8 ADD PUSH0 SWAP1 SLOAD SWAP1 PUSH2 0x100 EXP SWAP1 DIV PUSH20 0xFFFFFFFFFFFFFFFFFFFFFFFFFFFFFFFFFFFFFFFF AND SWAP1 POP DUP11 JUMP JUMPDEST PUSH1 0x4 SLOAD DUP2 JUMP JUMPDEST PUSH1 0x3 SLOAD DUP2 JUMP JUMPDEST PUSH1 0x6 PUSH1 0x20 MSTORE DUP1 PUSH0 MSTORE PUSH1 0x40 PUSH0 KECCAK256 PUSH0 SWAP2 POP SWAP1 POP DUP1 PUSH0 ADD SLOAD SWAP1 DUP1 PUSH1 0x1 ADD SLOAD SWAP1 DUP1 PUSH1 0x2 ADD DUP1 SLOAD PUSH2 0x34C SWAP1 PUSH2 0x9B8 JUMP JUMPDEST DUP1 PUSH1 0x1F ADD PUSH1 0x20 DUP1 SWAP2 DIV MUL PUSH1 0x20 ADD PUSH1 0x40 MLOAD SWAP1 DUP2 ADD PUSH1 0x40 MSTORE DUP1 SWAP3 SWAP2 SWAP1 DUP2 DUP2 MSTORE PUSH1 0x20 ADD DUP3 DUP1 SLOAD PUSH2 0x378 SWAP1 PUSH2 0x9B8 JUMP JUMPDEST DUP1 ISZERO PUSH2 0x3C3 JUMPI DUP1 PUSH1 0x1F LT PUSH2 0x39A JUMPI PUSH2 0x100 DUP1 DUP4 SLOAD DIV MUL DUP4 MSTORE SWAP2 PUSH1 0x20 ADD SWAP2 PUSH2 0x3C3 JUMP JUMPDEST DUP3 ADD SWAP2 SWAP1 PUSH0 MSTORE PUSH1 0x20 PUSH0 KECCAK256 SWAP1 JUMPDEST DUP2 SLOAD DUP2 MSTORE SWAP1 PUSH1 0x1 ADD SWAP1 PUSH1 0x20 ADD DUP1 DUP4 GT PUSH2 0x3A6 JUMPI DUP3 SWAP1 SUB PUSH1 0x1F AND DUP3 ADD SWAP2 JUMPDEST POP POP POP POP POP SWAP1 DUP1 PUSH1 0x3 ADD DUP1 SLOAD PUSH2 0x3D8 SWAP1 PUSH2 0x9B8 JUMP JUMPDEST DUP1 PUSH1 0x1F ADD PUSH1 0x20 DUP1 SWAP2 DIV MUL PUSH1 0x20 ADD PUSH1 0x40 MLOAD SWAP1 DUP2 ADD PUSH1 0x40 MSTORE DUP1 SWAP3 SWAP2 SWAP1 DUP2 DUP2 MSTORE PUSH1 0x20 ADD DUP3 DUP1 SLOAD PUSH2 0x404 SWAP1 PUSH2 0x9B8 JUMP JUMPDEST DUP1 ISZERO PUSH2 0x44F JUMPI DUP1 PUSH1 0x1F LT PUSH2 0x426 JUMPI PUSH2 0x100 DUP1 DUP4 SLOAD DIV MUL DUP4 MSTORE SWAP2 PUSH1 0x20 ADD SWAP2 PUSH2 0x44F JUMP JUMPDEST DUP3 ADD SWAP2 SWAP1 PUSH0 MSTORE PUSH1 0x20 PUSH0 KECCAK256 SWAP1 JUMPDEST DUP2 SLOAD DUP2 MSTORE SWAP1 PUSH1 0x1 ADD SWAP1 PUSH1 0x20 ADD DUP1 DUP4 GT PUSH2 0x432 JUMPI DUP3 SWAP1 SUB PUSH1 0x1F AND DUP3 ADD SWAP2 JUMPDEST POP POP POP POP POP SWAP1 DUP1 PUSH1 0x4 ADD SLOAD SWAP1 DUP1 PUSH1 0x5 ADD SLOAD SWAP1 DUP1 PUSH1 0x6 ADD SLOAD SWAP1 DUP1 PUSH1 0x7 ADD SLOAD SWAP1 DUP1 PUSH1 0x8 ADD PUSH0 SWAP1 SLOAD SWAP1 PUSH2 0x100 EXP SWAP1 DIV PUSH20 0xFFFFFFFFFFFFFFFFFFFFFFFFFFFFFFFFFFFFFFFF AND SWAP1 DUP1 PUSH1 0x9 ADD PUSH0 SWAP1 SLOAD SWAP1 PUSH2 0x100 EXP SWAP1 DIV PUSH20 0xFFFFFFFFFFFFFFFFFFFFFFFFFFFFFFFFFFFFFFFF AND SWAP1 POP DUP11 JUMP JUMPDEST PUSH1 0x7 PUSH1 0x20 MSTORE DUP1 PUSH0 MSTORE PUSH1 0x40 PUSH0 KECCAK256 PUSH0 SWAP2 POP SWAP1 POP DUP1 PUSH0 ADD SLOAD SWAP1 DUP1 PUSH1 0x1 ADD SLOAD SWAP1 DUP1 PUSH1 0x2 ADD SLOAD SWAP1 DUP1 PUSH1 0x3 ADD DUP1 SLOAD PUSH2 0x4EC SWAP1 PUSH2 0x9B8 JUMP JUMPDEST DUP1 PUSH1 0x1F ADD PUSH1 0x20 DUP1 SWAP2 DIV MUL PUSH1 0x20 ADD PUSH1 0x40 MLOAD SWAP1 DUP2 ADD PUSH1 0x40 MSTORE DUP1 SWAP3 SWAP2 SWAP1 DUP2 DUP2 MSTORE PUSH1 0x20 ADD DUP3 DUP1 SLOAD PUSH2 0x518 SWAP1 PUSH2 0x9B8 JUMP JUMPDEST DUP1 ISZERO PUSH2 0x563 JUMPI DUP1 PUSH1 0x1F LT PUSH2 0x53A JUMPI PUSH2 0x100 DUP1 DUP4 SLOAD DIV MUL DUP4 MSTORE SWAP2 PUSH1 0x20 ADD SWAP2 PUSH2 0x563 JUMP JUMPDEST DUP3 ADD SWAP2 SWAP1 PUSH0 MSTORE PUSH1 0x20 PUSH0 KECCAK256 SWAP1 JUMPDEST DUP2 SLOAD DUP2 MSTORE SWAP1 PUSH1 0x1 ADD SWAP1 PUSH1 0x20 ADD DUP1 DUP4 GT PUSH2 0x546 JUMPI DUP3 SWAP1 SUB PUSH1 0x1F AND DUP3 ADD SWAP2 JUMPDEST POP POP POP POP POP SWAP1 DUP1 PUSH1 0x4 ADD DUP1 SLOAD PUSH2 0x578 SWAP1 PUSH2 0x9B8 JUMP JUMPDEST DUP1 PUSH1 0x1F ADD PUSH1 0x20 DUP1 SWAP2 DIV MUL PUSH1 0x20 ADD PUSH1 0x40 MLOAD SWAP1 DUP2 ADD PUSH1 0x40 MSTORE DUP1 SWAP3 SWAP2 SWAP1 DUP2 DUP2 MSTORE PUSH1 0x20 ADD DUP3 DUP1 SLOAD PUSH2 0x5A4 SWAP1 PUSH2 0x9B8 JUMP JUMPDEST DUP1 ISZERO PUSH2 0x5EF JUMPI DUP1 PUSH1 0x1F LT PUSH2 0x5C6 JUMPI PUSH2 0x100 DUP1 DUP4 SLOAD DIV MUL DUP4 MSTORE SWAP2 PUSH1 0x20 ADD SWAP2 PUSH2 0x5EF JUMP JUMPDEST DUP3 ADD SWAP2 SWAP1 PUSH0 MSTORE PUSH1 0x20 PUSH0 KECCAK256 SWAP1 JUMPDEST DUP2 SLOAD DUP2 MSTORE SWAP1 PUSH1 0x1 ADD SWAP1 PUSH1 0x20 ADD DUP1 DUP4 GT PUSH2 0x5D2 JUMPI DUP3 SWAP1 SUB PUSH1 0x1F AND DUP3 ADD SWAP2 JUMPDEST POP POP POP POP POP SWAP1 DUP1 PUSH1 0x5 ADD SLOAD SWAP1 DUP1 PUSH1 0x6 ADD SLOAD SWAP1 DUP1 PUSH1 0x7 ADD PUSH0 SWAP1 SLOAD SWAP1 PUSH2 0x100 EXP SWAP1 DIV PUSH20 0xFFFFFFFFFFFFFFFFFFFFFFFFFFFFFFFFFFFFFFFF AND SWAP1 DUP1 PUSH1 0x8 ADD PUSH0 SWAP1 SLOAD SWAP1 PUSH2 0x100 EXP SWAP1 DIV PUSH20 0xFFFFFFFFFFFFFFFFFFFFFFFFFFFFFFFFFFFFFFFF AND SWAP1 POP DUP10 JUMP JUMPDEST PUSH0 DUP2 SWAP1 POP SWAP2 SWAP1 POP JUMP JUMPDEST PUSH2 0x661 DUP2 PUSH2 0x64F JUMP JUMPDEST DUP3 MSTORE POP POP JUMP JUMPDEST PUSH0 PUSH1 0x20 DUP3 ADD SWAP1 POP PUSH2 0x67A PUSH0 DUP4 ADD DUP5 PUSH2 0x658 JUMP JUMPDEST SWAP3 SWAP2 POP POP JUMP JUMPDEST PUSH0 DUP1 REVERT JUMPDEST PUSH2 0x68D DUP2 PUSH2 0x64F JUMP JUMPDEST DUP2 EQ PUSH2 0x697 JUMPI PUSH0 DUP1 REVERT JUMPDEST POP JUMP JUMPDEST PUSH0 DUP2 CALLDATALOAD SWAP1 POP PUSH2 0x6A8 DUP2 PUSH2 0x684 JUMP JUMPDEST SWAP3 SWAP2 POP POP JUMP JUMPDEST PUSH0 PUSH1 0x20 DUP3 DUP5 SUB SLT ISZERO PUSH2 0x6C3 JUMPI PUSH2 0x6C2 PUSH2 0x680 JUMP JUMPDEST JUMPDEST PUSH0 PUSH2 0x6D0 DUP5 DUP3 DUP6 ADD PUSH2 0x69A JUMP JUMPDEST SWAP2 POP POP SWAP3 SWAP2 POP POP JUMP JUMPDEST PUSH0 DUP2 MLOAD SWAP1 POP SWAP2 SWAP1 POP JUMP JUMPDEST PUSH0 DUP3 DUP3 MSTORE PUSH1 0x20 DUP3 ADD SWAP1 POP SWAP3 SWAP2 POP POP JUMP JUMPDEST DUP3 DUP2 DUP4 MCOPY PUSH0 DUP4 DUP4 ADD MSTORE POP POP POP JUMP JUMPDEST PUSH0 PUSH1 0x1F NOT PUSH1 0x1F DUP4 ADD AND SWAP1 POP SWAP2 SWAP1 POP JUMP JUMPDEST PUSH0 PUSH2 0x71B DUP3 PUSH2 0x6D9 JUMP JUMPDEST PUSH2 0x725 DUP2 DUP6 PUSH2 0x6E3 JUMP JUMPDEST SWAP4 POP PUSH2 0x735 DUP2 DUP6 PUSH1 0x20 DUP7 ADD PUSH2 0x6F3 JUMP JUMPDEST PUSH2 0x73E DUP2 PUSH2 0x701 JUMP JUMPDEST DUP5 ADD SWAP2 POP POP SWAP3 SWAP2 POP POP JUMP JUMPDEST PUSH0 DUP2 ISZERO ISZERO SWAP1 POP SWAP2 SWAP1 POP JUMP JUMPDEST PUSH2 0x75D DUP2 PUSH2 0x749 JUMP JUMPDEST DUP3 MSTORE POP POP JUMP JUMPDEST PUSH0 PUSH20 0xFFFFFFFFFFFFFFFFFFFFFFFFFFFFFFFFFFFFFFFF DUP3 AND SWAP1 POP SWAP2 SWAP1 POP JUMP JUMPDEST PUSH0 PUSH2 0x78C DUP3 PUSH2 0x763 JUMP JUMPDEST SWAP1 POP SWAP2 SWAP1 POP JUMP JUMPDEST PUSH2 0x79C DUP2 PUSH2 0x782 JUMP JUMPDEST DUP3 MSTORE POP POP JUMP JUMPDEST PUSH0 PUSH2 0x140 DUP3 ADD SWAP1 POP PUSH2 0x7B6 PUSH0 DUP4 ADD DUP14 PUSH2 0x658 JUMP JUMPDEST PUSH2 0x7C3 PUSH1 0x20 DUP4 ADD DUP13 PUSH2 0x658 JUMP JUMPDEST DUP2 DUP2 SUB PUSH1 0x40 DUP4 ADD MSTORE PUSH2 0x7D5 DUP2 DUP12 PUSH2 0x711 JUMP JUMPDEST SWAP1 POP DUP2 DUP2 SUB PUSH1 0x60 DUP4 ADD MSTORE PUSH2 0x7E9 DUP2 DUP11 PUSH2 0x711 JUMP JUMPDEST SWAP1 POP PUSH2 0x7F8 PUSH1 0x80 DUP4 ADD DUP10 PUSH2 0x658 JUMP JUMPDEST PUSH2 0x805 PUSH1 0xA0 DUP4 ADD DUP9 PUSH2 0x658 JUMP JUMPDEST PUSH2 0x812 PUSH1 0xC0 DUP4 ADD DUP8 PUSH2 0x658 JUMP JUMPDEST PUSH2 0x81F PUSH1 0xE0 DUP4 ADD DUP7 PUSH2 0x754 JUMP JUMPDEST PUSH2 0x82D PUSH2 0x100 DUP4 ADD DUP6 PUSH2 0x793 JUMP JUMPDEST PUSH2 0x83B PUSH2 0x120 DUP4 ADD DUP5 PUSH2 0x793 JUMP JUMPDEST SWAP12 SWAP11 POP POP POP POP POP POP POP POP POP POP POP JUMP JUMPDEST PUSH0 PUSH2 0x140 DUP3 ADD SWAP1 POP PUSH2 0x85E PUSH0 DUP4 ADD DUP14 PUSH2 0x658 JUMP JUMPDEST PUSH2 0x86B PUSH1 0x20 DUP4 ADD DUP13 PUSH2 0x658 JUMP JUMPDEST DUP2 DUP2 SUB PUSH1 0x40 DUP4 ADD MSTORE PUSH2 0x87D DUP2 DUP12 PUSH2 0x711 JUMP JUMPDEST SWAP1 POP DUP2 DUP2 SUB PUSH1 0x60 DUP4 ADD MSTORE PUSH2 0x891 DUP2 DUP11 PUSH2 0x711 JUMP JUMPDEST SWAP1 POP PUSH2 0x8A0 PUSH1 0x80 DUP4 ADD DUP10 PUSH2 0x658 JUMP JUMPDEST PUSH2 0x8AD PUSH1 0xA0 DUP4 ADD DUP9 PUSH2 0x658 JUMP JUMPDEST PUSH2 0x8BA PUSH1 0xC0 DUP4 ADD DUP8 PUSH2 0x658 JUMP JUMPDEST PUSH2 0x8C7 PUSH1 0xE0 DUP4 ADD DUP7 PUSH2 0x658 JUMP JUMPDEST PUSH2 0x8D5 PUSH2 0x100 DUP4 ADD DUP6 PUSH2 0x793 JUMP JUMPDEST PUSH2 0x8E3 PUSH2 0x120 DUP4 ADD DUP5 PUSH2 0x793 JUMP JUMPDEST SWAP12 SWAP11 POP POP POP POP POP POP POP POP POP POP POP JUMP JUMPDEST PUSH0 PUSH2 0x120 DUP3 ADD SWAP1 POP PUSH2 0x906 PUSH0 DUP4 ADD DUP13 PUSH2 0x658 JUMP JUMPDEST PUSH2 0x913 PUSH1 0x20 DUP4 ADD DUP12 PUSH2 0x658 JUMP JUMPDEST PUSH2 0x920 PUSH1 0x40 DUP4 ADD DUP11 PUSH2 0x658 JUMP JUMPDEST DUP2 DUP2 SUB PUSH1 0x60 DUP4 ADD MSTORE PUSH2 0x932 DUP2 DUP10 PUSH2 0x711 JUMP JUMPDEST SWAP1 POP DUP2 DUP2 SUB PUSH1 0x80 DUP4 ADD MSTORE PUSH2 0x946 DUP2 DUP9 PUSH2 0x711 JUMP JUMPDEST SWAP1 POP PUSH2 0x955 PUSH1 0xA0 DUP4 ADD DUP8 PUSH2 0x658 JUMP JUMPDEST PUSH2 0x962 PUSH1 0xC0 DUP4 ADD DUP7 PUSH2 0x658 JUMP JUMPDEST PUSH2 0x96F PUSH1 0xE0 DUP4 ADD DUP6 PUSH2 0x793 JUMP JUMPDEST PUSH2 0x97D PUSH2 0x100 DUP4 ADD DUP5 PUSH2 0x793 JUMP JUMPDEST SWAP11 SWAP10 POP POP POP POP POP POP POP POP POP POP JUMP JUMPDEST PUSH32 0x4E487B7100000000000000000000000000000000000000000000000000000000 PUSH0 MSTORE PUSH1 0x22 PUSH1 0x4 MSTORE PUSH1 0x24 PUSH0 REVERT JUMPDEST PUSH0 PUSH1 0x2 DUP3 DIV SWAP1 POP PUSH1 0x1 DUP3 AND DUP1 PUSH2 0x9CF JUMPI PUSH1 0x7F DUP3 AND SWAP2 POP JUMPDEST PUSH1 0x20 DUP3 LT DUP2 SUB PUSH2 0x9E2 JUMPI PUSH2 0x9E1 PUSH2 0x98B JUMP JUMPDEST JUMPDEST POP SWAP2 SWAP1 POP JUMP INVALID LOG2 PUSH5 0x6970667358 0x22 SLT KECCAK256 PUSH11 0x618D0E34CAE7C062D0F7B4 0xB0 CODESIZE 0xBA REVERT 0xDF PUSH5 0x78CB1783B6 MOD 0xAA DUP11 PUSH2 0xF4E1 DUP5 0xDD CALLVALUE PUSH5 0x736F6C6343 STOP ADDMOD BYTE STOP CALLER "
				},
				"gasEstimates": {
					"creation": {
						"codeDepositCost": "518000",
						"executionCost": "15562",
						"totalCost": "533562"
					},
					"external": {
						"no_of_aggrement()": "2469",
						"no_of_rent()": "2447",
						"no_of_rooms()": "2403",
						"rent_by_no(uint256)": "infinite",
						"room_agreement_by_no(uint256)": "infinite",
						"room_by_no(uint256)": "infinite"
					}
				},
				"methodIdentifiers": {
					"no_of_aggrement()": "900b3b53",
					"no_of_rent()": "75eb9ef6",
					"no_of_rooms()": "59e2cbec",
					"rent_by_no(uint256)": "f5b46a65",
					"room_agreement_by_no(uint256)": "ccc3e83a",
					"room_by_no(uint256)": "646fc100"
				}
			},
			"storageLayout": {
				"storage": [
					{
						"astId": 3,
						"contract": "hotel_amangement_contract.sol:Hotel",
						"label": "tenant",
						"offset": 0,
						"slot": "0",
						"type": "t_address_payable"
					},
					{
						"astId": 5,
						"contract": "hotel_amangement_contract.sol:Hotel",
						"label": "landlord",
						"offset": 0,
						"slot": "1",
						"type": "t_address_payable"
					},
					{
						"astId": 8,
						"contract": "hotel_amangement_contract.sol:Hotel",
						"label": "no_of_rooms",
						"offset": 0,
						"slot": "2",
						"type": "t_uint256"
					},
					{
						"astId": 11,
						"contract": "hotel_amangement_contract.sol:Hotel",
						"label": "no_of_aggrement",
						"offset": 0,
						"slot": "3",
						"type": "t_uint256"
					},
					{
						"astId": 14,
						"contract": "hotel_amangement_contract.sol:Hotel",
						"label": "no_of_rent",
						"offset": 0,
						"slot": "4",
						"type": "t_uint256"
					},
					{
						"astId": 40,
						"contract": "hotel_amangement_contract.sol:Hotel",
						"label": "room_by_no",
						"offset": 0,
						"slot": "5",
						"type": "t_mapping(t_uint256,t_struct(Room)35_storage)"
					},
					{
						"astId": 66,
						"contract": "hotel_amangement_contract.sol:Hotel",
						"label": "room_agreement_by_no",
						"offset": 0,
						"slot": "6",
						"type": "t_mapping(t_uint256,t_struct(RoomAgreement)61_storage)"
					},
					{
						"astId": 90,
						"contract": "hotel_amangement_contract.sol:Hotel",
						"label": "rent_by_no",
						"offset": 0,
						"slot": "7",
						"type": "t_mapping(t_uint256,t_struct(Rent)85_storage)"
					}
				],
				"types": {
					"t_address_payable": {
						"encoding": "inplace",
						"label": "address payable",
						"numberOfBytes": "20"
					},
					"t_bool": {
						"encoding": "inplace",
						"label": "bool",
						"numberOfBytes": "1"
					},
					"t_mapping(t_uint256,t_struct(Rent)85_storage)": {
						"encoding": "mapping",
						"key": "t_uint256",
						"label": "mapping(uint256 => struct Hotel.Rent)",
						"numberOfBytes": "32",
						"value": "t_struct(Rent)85_storage"
					},
					"t_mapping(t_uint256,t_struct(Room)35_storage)": {
						"encoding": "mapping",
						"key": "t_uint256",
						"label": "mapping(uint256 => struct Hotel.Room)",
						"numberOfBytes": "32",
						"value": "t_struct(Room)35_storage"
					},
					"t_mapping(t_uint256,t_struct(RoomAgreement)61_storage)": {
						"encoding": "mapping",
						"key": "t_uint256",
						"label": "mapping(uint256 => struct Hotel.RoomAgreement)",
						"numberOfBytes": "32",
						"value": "t_struct(RoomAgreement)61_storage"
					},
					"t_string_storage": {
						"encoding": "bytes",
						"label": "string",
						"numberOfBytes": "32"
					},
					"t_struct(Rent)85_storage": {
						"encoding": "inplace",
						"label": "struct Hotel.Rent",
						"members": [
							{
								"astId": 68,
								"contract": "hotel_amangement_contract.sol:Hotel",
								"label": "rent_no",
								"offset": 0,
								"slot": "0",
								"type": "t_uint256"
							},
							{
								"astId": 70,
								"contract": "hotel_amangement_contract.sol:Hotel",
								"label": "room_id",
								"offset": 0,
								"slot": "1",
								"type": "t_uint256"
							},
							{
								"astId": 72,
								"contract": "hotel_amangement_contract.sol:Hotel",
								"label": "agreement_id",
								"offset": 0,
								"slot": "2",
								"type": "t_uint256"
							},
							{
								"astId": 74,
								"contract": "hotel_amangement_contract.sol:Hotel",
								"label": "room_name",
								"offset": 0,
								"slot": "3",
								"type": "t_string_storage"
							},
							{
								"astId": 76,
								"contract": "hotel_amangement_contract.sol:Hotel",
								"label": "room_address",
								"offset": 0,
								"slot": "4",
								"type": "t_string_storage"
							},
							{
								"astId": 78,
								"contract": "hotel_amangement_contract.sol:Hotel",
								"label": "rent_per_month",
								"offset": 0,
								"slot": "5",
								"type": "t_uint256"
							},
							{
								"astId": 80,
								"contract": "hotel_amangement_contract.sol:Hotel",
								"label": "timestamp",
								"offset": 0,
								"slot": "6",
								"type": "t_uint256"
							},
							{
								"astId": 82,
								"contract": "hotel_amangement_contract.sol:Hotel",
								"label": "tenant_address",
								"offset": 0,
								"slot": "7",
								"type": "t_address_payable"
							},
							{
								"astId": 84,
								"contract": "hotel_amangement_contract.sol:Hotel",
								"label": "landlord_address",
								"offset": 0,
								"slot": "8",
								"type": "t_address_payable"
							}
						],
						"numberOfBytes": "288"
					},
					"t_struct(Room)35_storage": {
						"encoding": "inplace",
						"label": "struct Hotel.Room",
						"members": [
							{
								"astId": 16,
								"contract": "hotel_amangement_contract.sol:Hotel",
								"label": "room_id",
								"offset": 0,
								"slot": "0",
								"type": "t_uint256"
							},
							{
								"astId": 18,
								"contract": "hotel_amangement_contract.sol:Hotel",
								"label": "agreement_id",
								"offset": 0,
								"slot": "1",
								"type": "t_uint256"
							},
							{
								"astId": 20,
								"contract": "hotel_amangement_contract.sol:Hotel",
								"label": "room_name",
								"offset": 0,
								"slot": "2",
								"type": "t_string_storage"
							},
							{
								"astId": 22,
								"contract": "hotel_amangement_contract.sol:Hotel",
								"label": "room_address",
								"offset": 0,
								"slot": "3",
								"type": "t_string_storage"
							},
							{
								"astId": 24,
								"contract": "hotel_amangement_contract.sol:Hotel",
								"label": "rent_per_month",
								"offset": 0,
								"slot": "4",
								"type": "t_uint256"
							},
							{
								"astId": 26,
								"contract": "hotel_amangement_contract.sol:Hotel",
								"label": "security_deposit",
								"offset": 0,
								"slot": "5",
								"type": "t_uint256"
							},
							{
								"astId": 28,
								"contract": "hotel_amangement_contract.sol:Hotel",
								"label": "time_stamp",
								"offset": 0,
								"slot": "6",
								"type": "t_uint256"
							},
							{
								"astId": 30,
								"contract": "hotel_amangement_contract.sol:Hotel",
								"label": "vacant",
								"offset": 0,
								"slot": "7",
								"type": "t_bool"
							},
							{
								"astId": 32,
								"contract": "hotel_amangement_contract.sol:Hotel",
								"label": "landlord",
								"offset": 1,
								"slot": "7",
								"type": "t_address_payable"
							},
							{
								"astId": 34,
								"contract": "hotel_amangement_contract.sol:Hotel",
								"label": "current_tenant",
								"offset": 0,
								"slot": "8",
								"type": "t_address_payable"
							}
						],
						"numberOfBytes": "288"
					},
					"t_struct(RoomAgreement)61_storage": {
						"encoding": "inplace",
						"label": "struct Hotel.RoomAgreement",
						"members": [
							{
								"astId": 42,
								"contract": "hotel_amangement_contract.sol:Hotel",
								"label": "room_id",
								"offset": 0,
								"slot": "0",
								"type": "t_uint256"
							},
							{
								"astId": 44,
								"contract": "hotel_amangement_contract.sol:Hotel",
								"label": "agreement_id",
								"offset": 0,
								"slot": "1",
								"type": "t_uint256"
							},
							{
								"astId": 46,
								"contract": "hotel_amangement_contract.sol:Hotel",
								"label": "room_name",
								"offset": 0,
								"slot": "2",
								"type": "t_string_storage"
							},
							{
								"astId": 48,
								"contract": "hotel_amangement_contract.sol:Hotel",
								"label": "room_address",
								"offset": 0,
								"slot": "3",
								"type": "t_string_storage"
							},
							{
								"astId": 50,
								"contract": "hotel_amangement_contract.sol:Hotel",
								"label": "rent_per_month",
								"offset": 0,
								"slot": "4",
								"type": "t_uint256"
							},
							{
								"astId": 52,
								"contract": "hotel_amangement_contract.sol:Hotel",
								"label": "security_deposit",
								"offset": 0,
								"slot": "5",
								"type": "t_uint256"
							},
							{
								"astId": 54,
								"contract": "hotel_amangement_contract.sol:Hotel",
								"label": "lock_in_period",
								"offset": 0,
								"slot": "6",
								"type": "t_uint256"
							},
							{
								"astId": 56,
								"contract": "hotel_amangement_contract.sol:Hotel",
								"label": "time_stamp",
								"offset": 0,
								"slot": "7",
								"type": "t_uint256"
							},
							{
								"astId": 58,
								"contract": "hotel_amangement_contract.sol:Hotel",
								"label": "tenant_address",
								"offset": 0,
								"slot": "8",
								"type": "t_address_payable"
							},
							{
								"astId": 60,
								"contract": "hotel_amangement_contract.sol:Hotel",
								"label": "landlord_address",
								"offset": 0,
								"slot": "9",
								"type": "t_address_payable"
							}
						],
						"numberOfBytes": "320"
					},
					"t_uint256": {
						"encoding": "inplace",
						"label": "uint256",
						"numberOfBytes": "32"
					}
				}
			},
			"userdoc": {
				"kind": "user",
				"methods": {},
				"version": 1
			}
		}
	}
}