{
	"hotel_mangement_contract.sol": {
		"Hotel": {
			"abi": [
				{
					"inputs": [
						{
							"internalType": "string",
							"name": "_roomname",
							"type": "string"
						},
						{
							"internalType": "string",
							"name": "_roomaddress",
							"type": "string"
						},
						{
							"internalType": "uint256",
							"name": "_rentcost",
							"type": "uint256"
						},
						{
							"internalType": "uint256",
							"name": "_security",
							"type": "uint256"
						}
					],
					"name": "add_room",
					"outputs": [],
					"stateMutability": "nonpayable",
					"type": "function"
				},
				{
					"inputs": [
						{
							"internalType": "uint256",
							"name": "_index",
							"type": "uint256"
						}
					],
					"name": "agreementCompleted",
					"outputs": [],
					"stateMutability": "payable",
					"type": "function"
				},
				{
					"inputs": [
						{
							"internalType": "uint256",
							"name": "_index",
							"type": "uint256"
						}
					],
					"name": "agreement_terminated",
					"outputs": [],
					"stateMutability": "nonpayable",
					"type": "function"
				},
				{
					"inputs": [],
					"name": "no_of_aggrement",
					"outputs": [
						{
							"internalType": "uint256",
							"name": "",
							"type": "uint256"
						}
					],
					"stateMutability": "view",
					"type": "function"
				},
				{
					"inputs": [],
					"name": "no_of_rent",
					"outputs": [
						{
							"internalType": "uint256",
							"name": "",
							"type": "uint256"
						}
					],
					"stateMutability": "view",
					"type": "function"
				},
				{
					"inputs": [],
					"name": "no_of_rooms",
					"outputs": [
						{
							"internalType": "uint256",
							"name": "",
							"type": "uint256"
						}
					],
					"stateMutability": "view",
					"type": "function"
				},
				{
					"inputs": [
						{
							"internalType": "uint256",
							"name": "_index",
							"type": "uint256"
						}
					],
					"name": "payRent",
					"outputs": [],
					"stateMutability": "payable",
					"type": "function"
				},
				{
					"inputs": [
						{
							"internalType": "uint256",
							"name": "",
							"type": "uint256"
						}
					],
					"name": "rent_by_no",
					"outputs": [
						{
							"internalType": "uint256",
							"name": "rent_no",
							"type": "uint256"
						},
						{
							"internalType": "uint256",
							"name": "room_id",
							"type": "uint256"
						},
						{
							"internalType": "uint256",
							"name": "agreement_id",
							"type": "uint256"
						},
						{
							"internalType": "string",
							"name": "room_name",
							"type": "string"
						},
						{
							"internalType": "string",
							"name": "room_address",
							"type": "string"
						},
						{
							"internalType": "uint256",
							"name": "rent_per_month",
							"type": "uint256"
						},
						{
							"internalType": "uint256",
							"name": "timestamp",
							"type": "uint256"
						},
						{
							"internalType": "address payable",
							"name": "tenant_address",
							"type": "address"
						},
						{
							"internalType": "address payable",
							"name": "landlord_address",
							"type": "address"
						}
					],
					"stateMutability": "view",
					"type": "function"
				},
				{
					"inputs": [
						{
							"internalType": "uint256",
							"name": "",
							"type": "uint256"
						}
					],
					"name": "room_agreement_by_no",
					"outputs": [
						{
							"internalType": "uint256",
							"name": "room_id",
							"type": "uint256"
						},
						{
							"internalType": "uint256",
							"name": "agreement_id",
							"type": "uint256"
						},
						{
							"internalType": "string",
							"name": "room_name",
							"type": "string"
						},
						{
							"internalType": "string",
							"name": "room_address",
							"type": "string"
						},
						{
							"internalType": "uint256",
							"name": "rent_per_month",
							"type": "uint256"
						},
						{
							"internalType": "uint256",
							"name": "security_deposit",
							"type": "uint256"
						},
						{
							"internalType": "uint256",
							"name": "lock_in_period",
							"type": "uint256"
						},
						{
							"internalType": "uint256",
							"name": "timestamp",
							"type": "uint256"
						},
						{
							"internalType": "address payable",
							"name": "tenant_address",
							"type": "address"
						},
						{
							"internalType": "address payable",
							"name": "landlord_address",
							"type": "address"
						}
					],
					"stateMutability": "view",
					"type": "function"
				},
				{
					"inputs": [
						{
							"internalType": "uint256",
							"name": "",
							"type": "uint256"
						}
					],
					"name": "room_by_no",
					"outputs": [
						{
							"internalType": "uint256",
							"name": "room_id",
							"type": "uint256"
						},
						{
							"internalType": "uint256",
							"name": "agreement_id",
							"type": "uint256"
						},
						{
							"internalType": "string",
							"name": "room_name",
							"type": "string"
						},
						{
							"internalType": "string",
							"name": "room_address",
							"type": "string"
						},
						{
							"internalType": "uint256",
							"name": "rent_per_month",
							"type": "uint256"
						},
						{
							"internalType": "uint256",
							"name": "security_deposit",
							"type": "uint256"
						},
						{
							"internalType": "uint256",
							"name": "timestamp",
							"type": "uint256"
						},
						{
							"internalType": "bool",
							"name": "vacant",
							"type": "bool"
						},
						{
							"internalType": "address payable",
							"name": "landlord",
							"type": "address"
						},
						{
							"internalType": "address payable",
							"name": "current_tenant",
							"type": "address"
						}
					],
					"stateMutability": "view",
					"type": "function"
				},
				{
					"inputs": [
						{
							"internalType": "uint256",
							"name": "_index",
							"type": "uint256"
						},
						{
							"internalType": "uint256",
							"name": "_duration",
							"type": "uint256"
						}
					],
					"name": "signAgreement",
					"outputs": [],
					"stateMutability": "payable",
					"type": "function"
				}
			],
			"devdoc": {
				"kind": "dev",
				"methods": {},
				"version": 1
			},
			"evm": {
				"assembly": "    /* \"hotel_mangement_contract.sol\":62:6379  contract Hotel{... */\n  mstore(0x40, 0x80)\n    /* \"hotel_mangement_contract.sol\":173:174  0 */\n  0x00\n    /* \"hotel_mangement_contract.sol\":147:174  uint public no_of_rooms = 0 */\n  0x02\n  sstore\n    /* \"hotel_mangement_contract.sol\":211:212  0 */\n  0x00\n    /* \"hotel_mangement_contract.sol\":181:212  uint public no_of_aggrement = 0 */\n  0x03\n  sstore\n    /* \"hotel_mangement_contract.sol\":244:245  0 */\n  0x00\n    /* \"hotel_mangement_contract.sol\":219:245  uint public no_of_rent = 0 */\n  0x04\n  sstore\n    /* \"hotel_mangement_contract.sol\":62:6379  contract Hotel{... */\n  callvalue\n  dup1\n  iszero\n  tag_1\n  jumpi\n  0x00\n  dup1\n  revert\ntag_1:\n  pop\n  dataSize(sub_0)\n  dup1\n  dataOffset(sub_0)\n  0x00\n  codecopy\n  0x00\n  return\nstop\n\nsub_0: assembly {\n        /* \"hotel_mangement_contract.sol\":62:6379  contract Hotel{... */\n      mstore(0x40, 0x80)\n      jumpi(tag_1, lt(calldatasize, 0x04))\n      shr(0xe0, calldataload(0x00))\n      dup1\n      0x7681466c\n      gt\n      tag_13\n      jumpi\n      dup1\n      0x7681466c\n      eq\n      tag_7\n      jumpi\n      dup1\n      0x900b3b53\n      eq\n      tag_8\n      jumpi\n      dup1\n      0xccc3e83a\n      eq\n      tag_9\n      jumpi\n      dup1\n      0xd9e8843f\n      eq\n      tag_10\n      jumpi\n      dup1\n      0xe1590cb6\n      eq\n      tag_11\n      jumpi\n      dup1\n      0xf5b46a65\n      eq\n      tag_12\n      jumpi\n      jump(tag_1)\n    tag_13:\n      dup1\n      0x16abb8a1\n      eq\n      tag_2\n      jumpi\n      dup1\n      0x1f261a82\n      eq\n      tag_3\n      jumpi\n      dup1\n      0x59e2cbec\n      eq\n      tag_4\n      jumpi\n      dup1\n      0x646fc100\n      eq\n      tag_5\n      jumpi\n      dup1\n      0x75eb9ef6\n      eq\n      tag_6\n      jumpi\n    tag_1:\n      0x00\n      dup1\n      revert\n        /* \"hotel_mangement_contract.sol\":5629:6172  function agreementCompleted(uint _index) public payable only_landlord(_index) agreement_time_up(_index) {... */\n    tag_2:\n      tag_14\n      0x04\n      dup1\n      calldatasize\n      sub\n      dup2\n      add\n      swap1\n      tag_15\n      swap2\n      swap1\n      tag_16\n      jump\t// in\n    tag_15:\n      tag_17\n      jump\t// in\n    tag_14:\n      stop\n        /* \"hotel_mangement_contract.sol\":3240:3582  function add_room(string memory _roomname, string memory _roomaddress, uint _rentcost, uint _security) public {... */\n    tag_3:\n      callvalue\n      dup1\n      iszero\n      tag_18\n      jumpi\n      0x00\n      dup1\n      revert\n    tag_18:\n      pop\n      tag_19\n      0x04\n      dup1\n      calldatasize\n      sub\n      dup2\n      add\n      swap1\n      tag_20\n      swap2\n      swap1\n      tag_21\n      jump\t// in\n    tag_20:\n      tag_22\n      jump\t// in\n    tag_19:\n      stop\n        /* \"hotel_mangement_contract.sol\":147:174  uint public no_of_rooms = 0 */\n    tag_4:\n      callvalue\n      dup1\n      iszero\n      tag_23\n      jumpi\n      0x00\n      dup1\n      revert\n    tag_23:\n      pop\n      tag_24\n      tag_25\n      jump\t// in\n    tag_24:\n      mload(0x40)\n      tag_26\n      swap2\n      swap1\n      tag_27\n      jump\t// in\n    tag_26:\n      mload(0x40)\n      dup1\n      swap2\n      sub\n      swap1\n      return\n        /* \"hotel_mangement_contract.sol\":574:613  mapping(uint => Room) public room_by_no */\n    tag_5:\n      callvalue\n      dup1\n      iszero\n      tag_28\n      jumpi\n      0x00\n      dup1\n      revert\n    tag_28:\n      pop\n      tag_29\n      0x04\n      dup1\n      calldatasize\n      sub\n      dup2\n      add\n      swap1\n      tag_30\n      swap2\n      swap1\n      tag_16\n      jump\t// in\n    tag_30:\n      tag_31\n      jump\t// in\n    tag_29:\n      mload(0x40)\n      tag_32\n      swap11\n      swap10\n      swap9\n      swap8\n      swap7\n      swap6\n      swap5\n      swap4\n      swap3\n      swap2\n      swap1\n      tag_33\n      jump\t// in\n    tag_32:\n      mload(0x40)\n      dup1\n      swap2\n      sub\n      swap1\n      return\n        /* \"hotel_mangement_contract.sol\":219:245  uint public no_of_rent = 0 */\n    tag_6:\n      callvalue\n      dup1\n      iszero\n      tag_34\n      jumpi\n      0x00\n      dup1\n      revert\n    tag_34:\n      pop\n      tag_35\n      tag_36\n      jump\t// in\n    tag_35:\n      mload(0x40)\n      tag_37\n      swap2\n      swap1\n      tag_27\n      jump\t// in\n    tag_37:\n      mload(0x40)\n      dup1\n      swap2\n      sub\n      swap1\n      return\n        /* \"hotel_mangement_contract.sol\":6180:6374  function agreement_terminated(uint _index) public only_landlord(_index) agreement_time_left(_index){... */\n    tag_7:\n      callvalue\n      dup1\n      iszero\n      tag_38\n      jumpi\n      0x00\n      dup1\n      revert\n    tag_38:\n      pop\n      tag_39\n      0x04\n      dup1\n      calldatasize\n      sub\n      dup2\n      add\n      swap1\n      tag_40\n      swap2\n      swap1\n      tag_16\n      jump\t// in\n    tag_40:\n      tag_41\n      jump\t// in\n    tag_39:\n      stop\n        /* \"hotel_mangement_contract.sol\":181:212  uint public no_of_aggrement = 0 */\n    tag_8:\n      callvalue\n      dup1\n      iszero\n      tag_42\n      jumpi\n      0x00\n      dup1\n      revert\n    tag_42:\n      pop\n      tag_43\n      tag_44\n      jump\t// in\n    tag_43:\n      mload(0x40)\n      tag_45\n      swap2\n      swap1\n      tag_27\n      jump\t// in\n    tag_45:\n      mload(0x40)\n      dup1\n      swap2\n      sub\n      swap1\n      return\n        /* \"hotel_mangement_contract.sol\":967:1025  mapping(uint => RoomAgreement) public room_agreement_by_no */\n    tag_9:\n      callvalue\n      dup1\n      iszero\n      tag_46\n      jumpi\n      0x00\n      dup1\n      revert\n    tag_46:\n      pop\n      tag_47\n      0x04\n      dup1\n      calldatasize\n      sub\n      dup2\n      add\n      swap1\n      tag_48\n      swap2\n      swap1\n      tag_16\n      jump\t// in\n    tag_48:\n      tag_49\n      jump\t// in\n    tag_47:\n      mload(0x40)\n      tag_50\n      swap11\n      swap10\n      swap9\n      swap8\n      swap7\n      swap6\n      swap5\n      swap4\n      swap3\n      swap2\n      swap1\n      tag_51\n      jump\t// in\n    tag_50:\n      mload(0x40)\n      dup1\n      swap2\n      sub\n      swap1\n      return\n        /* \"hotel_mangement_contract.sol\":4878:5621  function payRent(uint _index) public payable same_tenant(_index) rent_time_up(_index) enough_rent(_index) {... */\n    tag_10:\n      tag_52\n      0x04\n      dup1\n      calldatasize\n      sub\n      dup2\n      add\n      swap1\n      tag_53\n      swap2\n      swap1\n      tag_16\n      jump\t// in\n    tag_53:\n      tag_54\n      jump\t// in\n    tag_52:\n      stop\n        /* \"hotel_mangement_contract.sol\":3593:4870  function signAgreement(uint _index, uint _duration) public payable not_landlord(_index) enough_agreement_fee(_index) only_while_vacant(_index){... */\n    tag_11:\n      tag_55\n      0x04\n      dup1\n      calldatasize\n      sub\n      dup2\n      add\n      swap1\n      tag_56\n      swap2\n      swap1\n      tag_57\n      jump\t// in\n    tag_56:\n      tag_58\n      jump\t// in\n    tag_55:\n      stop\n        /* \"hotel_mangement_contract.sol\":1331:1371  mapping (uint => Rent) public rent_by_no */\n    tag_12:\n      callvalue\n      dup1\n      iszero\n      tag_59\n      jumpi\n      0x00\n      dup1\n      revert\n    tag_59:\n      pop\n      tag_60\n      0x04\n      dup1\n      calldatasize\n      sub\n      dup2\n      add\n      swap1\n      tag_61\n      swap2\n      swap1\n      tag_16\n      jump\t// in\n    tag_61:\n      tag_62\n      jump\t// in\n    tag_60:\n      mload(0x40)\n      tag_63\n      swap10\n      swap9\n      swap8\n      swap7\n      swap6\n      swap5\n      swap4\n      swap3\n      swap2\n      swap1\n      tag_64\n      jump\t// in\n    tag_63:\n      mload(0x40)\n      dup1\n      swap2\n      sub\n      swap1\n      return\n        /* \"hotel_mangement_contract.sol\":5629:6172  function agreementCompleted(uint _index) public payable only_landlord(_index) agreement_time_up(_index) {... */\n    tag_17:\n        /* \"hotel_mangement_contract.sol\":5699:5705  _index */\n      dup1\n        /* \"hotel_mangement_contract.sol\":1449:1459  room_by_no */\n      0x05\n        /* \"hotel_mangement_contract.sol\":1449:1467  room_by_no[_index] */\n      0x00\n        /* \"hotel_mangement_contract.sol\":1460:1466  _index */\n      dup3\n        /* \"hotel_mangement_contract.sol\":1449:1467  room_by_no[_index] */\n      dup2\n      mstore\n      0x20\n      add\n      swap1\n      dup2\n      mstore\n      0x20\n      add\n      0x00\n      keccak256\n        /* \"hotel_mangement_contract.sol\":1449:1476  room_by_no[_index].landlord */\n      0x07\n      add\n      0x01\n      swap1\n      sload\n      swap1\n      0x0100\n      exp\n      swap1\n      div\n      0xffffffffffffffffffffffffffffffffffffffff\n      and\n        /* \"hotel_mangement_contract.sol\":1435:1476  msg.sender == room_by_no[_index].landlord */\n      0xffffffffffffffffffffffffffffffffffffffff\n      and\n        /* \"hotel_mangement_contract.sol\":1435:1445  msg.sender */\n      caller\n        /* \"hotel_mangement_contract.sol\":1435:1476  msg.sender == room_by_no[_index].landlord */\n      0xffffffffffffffffffffffffffffffffffffffff\n      and\n      eq\n        /* \"hotel_mangement_contract.sol\":1426:1510  require (msg.sender == room_by_no[_index].landlord, \"Only landlord can access this\") */\n      tag_66\n      jumpi\n      mload(0x40)\n      0x08c379a000000000000000000000000000000000000000000000000000000000\n      dup2\n      mstore\n      0x04\n      add\n      tag_67\n      swap1\n      tag_68\n      jump\t// in\n    tag_67:\n      mload(0x40)\n      dup1\n      swap2\n      sub\n      swap1\n      revert\n    tag_66:\n        /* \"hotel_mangement_contract.sol\":5725:5731  _index */\n      dup2\n        /* \"hotel_mangement_contract.sol\":2693:2702  uint time */\n      0x00\n        /* \"hotel_mangement_contract.sol\":2771:2791  room_agreement_by_no */\n      0x06\n        /* \"hotel_mangement_contract.sol\":2771:2824  room_agreement_by_no[room_by_no[_index].agreement_id] */\n      0x00\n        /* \"hotel_mangement_contract.sol\":2792:2802  room_by_no */\n      0x05\n        /* \"hotel_mangement_contract.sol\":2792:2810  room_by_no[_index] */\n      0x00\n        /* \"hotel_mangement_contract.sol\":2803:2809  _index */\n      dup6\n        /* \"hotel_mangement_contract.sol\":2792:2810  room_by_no[_index] */\n      dup2\n      mstore\n      0x20\n      add\n      swap1\n      dup2\n      mstore\n      0x20\n      add\n      0x00\n      keccak256\n        /* \"hotel_mangement_contract.sol\":2792:2823  room_by_no[_index].agreement_id */\n      0x01\n      add\n      sload\n        /* \"hotel_mangement_contract.sol\":2771:2824  room_agreement_by_no[room_by_no[_index].agreement_id] */\n      dup2\n      mstore\n      0x20\n      add\n      swap1\n      dup2\n      mstore\n      0x20\n      add\n      0x00\n      keccak256\n        /* \"hotel_mangement_contract.sol\":2771:2839  room_agreement_by_no[room_by_no[_index].agreement_id].lock_in_period */\n      0x06\n      add\n      sload\n        /* \"hotel_mangement_contract.sol\":2705:2725  room_agreement_by_no */\n      0x06\n        /* \"hotel_mangement_contract.sol\":2705:2758  room_agreement_by_no[room_by_no[_index].agreement_id] */\n      0x00\n        /* \"hotel_mangement_contract.sol\":2726:2736  room_by_no */\n      0x05\n        /* \"hotel_mangement_contract.sol\":2726:2744  room_by_no[_index] */\n      0x00\n        /* \"hotel_mangement_contract.sol\":2737:2743  _index */\n      dup7\n        /* \"hotel_mangement_contract.sol\":2726:2744  room_by_no[_index] */\n      dup2\n      mstore\n      0x20\n      add\n      swap1\n      dup2\n      mstore\n      0x20\n      add\n      0x00\n      keccak256\n        /* \"hotel_mangement_contract.sol\":2726:2757  room_by_no[_index].agreement_id */\n      0x01\n      add\n      sload\n        /* \"hotel_mangement_contract.sol\":2705:2758  room_agreement_by_no[room_by_no[_index].agreement_id] */\n      dup2\n      mstore\n      0x20\n      add\n      swap1\n      dup2\n      mstore\n      0x20\n      add\n      0x00\n      keccak256\n        /* \"hotel_mangement_contract.sol\":2705:2768  room_agreement_by_no[room_by_no[_index].agreement_id].timestamp */\n      0x07\n      add\n      sload\n        /* \"hotel_mangement_contract.sol\":2705:2839  room_agreement_by_no[room_by_no[_index].agreement_id].timestamp + room_agreement_by_no[room_by_no[_index].agreement_id].lock_in_period */\n      tag_70\n      swap2\n      swap1\n      tag_71\n      jump\t// in\n    tag_70:\n        /* \"hotel_mangement_contract.sol\":2693:2839  uint time = room_agreement_by_no[room_by_no[_index].agreement_id].timestamp + room_agreement_by_no[room_by_no[_index].agreement_id].lock_in_period */\n      swap1\n      pop\n        /* \"hotel_mangement_contract.sol\":2877:2881  time */\n      dup1\n        /* \"hotel_mangement_contract.sol\":2859:2874  block.timestamp */\n      timestamp\n        /* \"hotel_mangement_contract.sol\":2859:2881  block.timestamp > time */\n      gt\n        /* \"hotel_mangement_contract.sol\":2850:2915  require (block.timestamp > time, \"Agreement has not yet expired\") */\n      tag_72\n      jumpi\n      mload(0x40)\n      0x08c379a000000000000000000000000000000000000000000000000000000000\n      dup2\n      mstore\n      0x04\n      add\n      tag_73\n      swap1\n      tag_74\n      jump\t// in\n    tag_73:\n      mload(0x40)\n      dup1\n      swap2\n      sub\n      swap1\n      revert\n    tag_72:\n        /* \"hotel_mangement_contract.sol\":5774:5775  0 */\n      0x00\n        /* \"hotel_mangement_contract.sol\":5752:5776  msg.sender != address(0) */\n      0xffffffffffffffffffffffffffffffffffffffff\n      and\n        /* \"hotel_mangement_contract.sol\":5752:5762  msg.sender */\n      caller\n        /* \"hotel_mangement_contract.sol\":5752:5776  msg.sender != address(0) */\n      0xffffffffffffffffffffffffffffffffffffffff\n      and\n      sub\n        /* \"hotel_mangement_contract.sol\":5744:5777  require(msg.sender != address(0)) */\n      tag_76\n      jumpi\n      0x00\n      dup1\n      revert\n    tag_76:\n        /* \"hotel_mangement_contract.sol\":5825:5830  false */\n      0x00\n        /* \"hotel_mangement_contract.sol\":5796:5830  room_by_no[_index].vacant == false */\n      iszero\n      iszero\n        /* \"hotel_mangement_contract.sol\":5796:5806  room_by_no */\n      0x05\n        /* \"hotel_mangement_contract.sol\":5796:5814  room_by_no[_index] */\n      0x00\n        /* \"hotel_mangement_contract.sol\":5807:5813  _index */\n      dup7\n        /* \"hotel_mangement_contract.sol\":5796:5814  room_by_no[_index] */\n      dup2\n      mstore\n      0x20\n      add\n      swap1\n      dup2\n      mstore\n      0x20\n      add\n      0x00\n      keccak256\n        /* \"hotel_mangement_contract.sol\":5796:5821  room_by_no[_index].vacant */\n      0x07\n      add\n      0x00\n      swap1\n      sload\n      swap1\n      0x0100\n      exp\n      swap1\n      div\n      0xff\n      and\n        /* \"hotel_mangement_contract.sol\":5796:5830  room_by_no[_index].vacant == false */\n      iszero\n      iszero\n      eq\n        /* \"hotel_mangement_contract.sol\":5788:5858  require(room_by_no[_index].vacant == false, \"Room is already vacant!\") */\n      tag_77\n      jumpi\n      mload(0x40)\n      0x08c379a000000000000000000000000000000000000000000000000000000000\n      dup2\n      mstore\n      0x04\n      add\n      tag_78\n      swap1\n      tag_79\n      jump\t// in\n    tag_78:\n      mload(0x40)\n      dup1\n      swap2\n      sub\n      swap1\n      revert\n    tag_77:\n        /* \"hotel_mangement_contract.sol\":5897:5901  true */\n      0x01\n        /* \"hotel_mangement_contract.sol\":5869:5879  room_by_no */\n      0x05\n        /* \"hotel_mangement_contract.sol\":5869:5887  room_by_no[_index] */\n      0x00\n        /* \"hotel_mangement_contract.sol\":5880:5886  _index */\n      dup7\n        /* \"hotel_mangement_contract.sol\":5869:5887  room_by_no[_index] */\n      dup2\n      mstore\n      0x20\n      add\n      swap1\n      dup2\n      mstore\n      0x20\n      add\n      0x00\n      keccak256\n        /* \"hotel_mangement_contract.sol\":5869:5894  room_by_no[_index].vacant */\n      0x07\n      add\n      0x00\n        /* \"hotel_mangement_contract.sol\":5869:5901  room_by_no[_index].vacant = true */\n      0x0100\n      exp\n      dup2\n      sload\n      dup2\n      0xff\n      mul\n      not\n      and\n      swap1\n      dup4\n      iszero\n      iszero\n      mul\n      or\n      swap1\n      sstore\n      pop\n        /* \"hotel_mangement_contract.sol\":5912:5935  address payable _tenant */\n      0x00\n        /* \"hotel_mangement_contract.sol\":5938:5948  room_by_no */\n      0x05\n        /* \"hotel_mangement_contract.sol\":5938:5956  room_by_no[_index] */\n      0x00\n        /* \"hotel_mangement_contract.sol\":5949:5955  _index */\n      dup7\n        /* \"hotel_mangement_contract.sol\":5938:5956  room_by_no[_index] */\n      dup2\n      mstore\n      0x20\n      add\n      swap1\n      dup2\n      mstore\n      0x20\n      add\n      0x00\n      keccak256\n        /* \"hotel_mangement_contract.sol\":5938:5971  room_by_no[_index].current_tenant */\n      0x08\n      add\n      0x00\n      swap1\n      sload\n      swap1\n      0x0100\n      exp\n      swap1\n      div\n      0xffffffffffffffffffffffffffffffffffffffff\n      and\n        /* \"hotel_mangement_contract.sol\":5912:5971  address payable _tenant = room_by_no[_index].current_tenant */\n      swap1\n      pop\n        /* \"hotel_mangement_contract.sol\":5982:6003  uint security_deposit */\n      0x00\n        /* \"hotel_mangement_contract.sol\":6006:6016  room_by_no */\n      0x05\n        /* \"hotel_mangement_contract.sol\":6006:6024  room_by_no[_index] */\n      0x00\n        /* \"hotel_mangement_contract.sol\":6017:6023  _index */\n      dup8\n        /* \"hotel_mangement_contract.sol\":6006:6024  room_by_no[_index] */\n      dup2\n      mstore\n      0x20\n      add\n      swap1\n      dup2\n      mstore\n      0x20\n      add\n      0x00\n      keccak256\n        /* \"hotel_mangement_contract.sol\":6006:6041  room_by_no[_index].security_deposit */\n      0x05\n      add\n      sload\n        /* \"hotel_mangement_contract.sol\":5982:6041  uint security_deposit = room_by_no[_index].security_deposit */\n      swap1\n      pop\n        /* \"hotel_mangement_contract.sol\":6053:6061  bool res */\n      0x00\n        /* \"hotel_mangement_contract.sol\":6067:6074  _tenant */\n      dup3\n        /* \"hotel_mangement_contract.sol\":6067:6079  _tenant.call */\n      0xffffffffffffffffffffffffffffffffffffffff\n      and\n        /* \"hotel_mangement_contract.sol\":6088:6104  security_deposit */\n      dup3\n        /* \"hotel_mangement_contract.sol\":6067:6109  _tenant.call{value : security_deposit}(\"\") */\n      mload(0x40)\n      tag_80\n      swap1\n      tag_81\n      jump\t// in\n    tag_80:\n      0x00\n      mload(0x40)\n      dup1\n      dup4\n      sub\n      dup2\n      dup6\n      dup8\n      gas\n      call\n      swap3\n      pop\n      pop\n      pop\n      returndatasize\n      dup1\n      0x00\n      dup2\n      eq\n      tag_84\n      jumpi\n      mload(0x40)\n      swap2\n      pop\n      and(add(returndatasize, 0x3f), not(0x1f))\n      dup3\n      add\n      0x40\n      mstore\n      returndatasize\n      dup3\n      mstore\n      returndatasize\n      0x00\n      0x20\n      dup5\n      add\n      returndatacopy\n      jump(tag_83)\n    tag_84:\n      0x60\n      swap2\n      pop\n    tag_83:\n      pop\n        /* \"hotel_mangement_contract.sol\":6052:6109  (bool res, ) = _tenant.call{value : security_deposit}(\"\") */\n      pop\n      swap1\n      pop\n        /* \"hotel_mangement_contract.sol\":6128:6131  res */\n      dup1\n        /* \"hotel_mangement_contract.sol\":6120:6164  require(res, \"Agreement Completion Failed!\") */\n      tag_85\n      jumpi\n      mload(0x40)\n      0x08c379a000000000000000000000000000000000000000000000000000000000\n      dup2\n      mstore\n      0x04\n      add\n      tag_86\n      swap1\n      tag_87\n      jump\t// in\n    tag_86:\n      mload(0x40)\n      dup1\n      swap2\n      sub\n      swap1\n      revert\n    tag_85:\n        /* \"hotel_mangement_contract.sol\":5733:6172  {... */\n      pop\n      pop\n      pop\n        /* \"hotel_mangement_contract.sol\":2682:2936  {... */\n      pop\n        /* \"hotel_mangement_contract.sol\":1521:1522  _ */\n      pop\n        /* \"hotel_mangement_contract.sol\":5629:6172  function agreementCompleted(uint _index) public payable only_landlord(_index) agreement_time_up(_index) {... */\n      pop\n      pop\n      jump\t// out\n        /* \"hotel_mangement_contract.sol\":3240:3582  function add_room(string memory _roomname, string memory _roomaddress, uint _rentcost, uint _security) public {... */\n    tag_22:\n        /* \"hotel_mangement_contract.sol\":3392:3393  0 */\n      0x00\n        /* \"hotel_mangement_contract.sol\":3370:3394  msg.sender != address(0) */\n      0xffffffffffffffffffffffffffffffffffffffff\n      and\n        /* \"hotel_mangement_contract.sol\":3370:3380  msg.sender */\n      caller\n        /* \"hotel_mangement_contract.sol\":3370:3394  msg.sender != address(0) */\n      0xffffffffffffffffffffffffffffffffffffffff\n      and\n      sub\n        /* \"hotel_mangement_contract.sol\":3361:3395  require (msg.sender != address(0)) */\n      tag_89\n      jumpi\n      0x00\n      dup1\n      revert\n    tag_89:\n        /* \"hotel_mangement_contract.sol\":3406:3417  no_of_rooms */\n      0x02\n      0x00\n        /* \"hotel_mangement_contract.sol\":3406:3419  no_of_rooms++ */\n      dup2\n      sload\n      dup1\n      swap3\n      swap2\n      swap1\n      tag_90\n      swap1\n      tag_91\n      jump\t// in\n    tag_90:\n      swap2\n      swap1\n      pop\n      sstore\n      pop\n        /* \"hotel_mangement_contract.sol\":3456:3574  Room(no_of_rooms, 0, _roomname, _roomaddress, _rentcost, _security, 0, true, payable(msg.sender), payable(address(0))) */\n      mload(0x40)\n      dup1\n      0x0140\n      add\n      0x40\n      mstore\n      dup1\n        /* \"hotel_mangement_contract.sol\":3461:3472  no_of_rooms */\n      sload(0x02)\n        /* \"hotel_mangement_contract.sol\":3456:3574  Room(no_of_rooms, 0, _roomname, _roomaddress, _rentcost, _security, 0, true, payable(msg.sender), payable(address(0))) */\n      dup2\n      mstore\n      0x20\n      add\n        /* \"hotel_mangement_contract.sol\":3474:3475  0 */\n      0x00\n        /* \"hotel_mangement_contract.sol\":3456:3574  Room(no_of_rooms, 0, _roomname, _roomaddress, _rentcost, _security, 0, true, payable(msg.sender), payable(address(0))) */\n      dup2\n      mstore\n      0x20\n      add\n        /* \"hotel_mangement_contract.sol\":3477:3486  _roomname */\n      dup6\n        /* \"hotel_mangement_contract.sol\":3456:3574  Room(no_of_rooms, 0, _roomname, _roomaddress, _rentcost, _security, 0, true, payable(msg.sender), payable(address(0))) */\n      dup2\n      mstore\n      0x20\n      add\n        /* \"hotel_mangement_contract.sol\":3488:3500  _roomaddress */\n      dup5\n        /* \"hotel_mangement_contract.sol\":3456:3574  Room(no_of_rooms, 0, _roomname, _roomaddress, _rentcost, _security, 0, true, payable(msg.sender), payable(address(0))) */\n      dup2\n      mstore\n      0x20\n      add\n        /* \"hotel_mangement_contract.sol\":3502:3511  _rentcost */\n      dup4\n        /* \"hotel_mangement_contract.sol\":3456:3574  Room(no_of_rooms, 0, _roomname, _roomaddress, _rentcost, _security, 0, true, payable(msg.sender), payable(address(0))) */\n      dup2\n      mstore\n      0x20\n      add\n        /* \"hotel_mangement_contract.sol\":3513:3522  _security */\n      dup3\n        /* \"hotel_mangement_contract.sol\":3456:3574  Room(no_of_rooms, 0, _roomname, _roomaddress, _rentcost, _security, 0, true, payable(msg.sender), payable(address(0))) */\n      dup2\n      mstore\n      0x20\n      add\n        /* \"hotel_mangement_contract.sol\":3524:3525  0 */\n      0x00\n        /* \"hotel_mangement_contract.sol\":3456:3574  Room(no_of_rooms, 0, _roomname, _roomaddress, _rentcost, _security, 0, true, payable(msg.sender), payable(address(0))) */\n      dup2\n      mstore\n      0x20\n      add\n        /* \"hotel_mangement_contract.sol\":3527:3531  true */\n      0x01\n        /* \"hotel_mangement_contract.sol\":3456:3574  Room(no_of_rooms, 0, _roomname, _roomaddress, _rentcost, _security, 0, true, payable(msg.sender), payable(address(0))) */\n      iszero\n      iszero\n      dup2\n      mstore\n      0x20\n      add\n        /* \"hotel_mangement_contract.sol\":3541:3551  msg.sender */\n      caller\n        /* \"hotel_mangement_contract.sol\":3456:3574  Room(no_of_rooms, 0, _roomname, _roomaddress, _rentcost, _security, 0, true, payable(msg.sender), payable(address(0))) */\n      0xffffffffffffffffffffffffffffffffffffffff\n      and\n      dup2\n      mstore\n      0x20\n      add\n        /* \"hotel_mangement_contract.sol\":3570:3571  0 */\n      0x00\n        /* \"hotel_mangement_contract.sol\":3456:3574  Room(no_of_rooms, 0, _roomname, _roomaddress, _rentcost, _security, 0, true, payable(msg.sender), payable(address(0))) */\n      0xffffffffffffffffffffffffffffffffffffffff\n      and\n      dup2\n      mstore\n      pop\n        /* \"hotel_mangement_contract.sol\":3430:3440  room_by_no */\n      0x05\n        /* \"hotel_mangement_contract.sol\":3430:3453  room_by_no[no_of_rooms] */\n      0x00\n        /* \"hotel_mangement_contract.sol\":3441:3452  no_of_rooms */\n      sload(0x02)\n        /* \"hotel_mangement_contract.sol\":3430:3453  room_by_no[no_of_rooms] */\n      dup2\n      mstore\n      0x20\n      add\n      swap1\n      dup2\n      mstore\n      0x20\n      add\n      0x00\n      keccak256\n        /* \"hotel_mangement_contract.sol\":3430:3574  room_by_no[no_of_rooms] = Room(no_of_rooms, 0, _roomname, _roomaddress, _rentcost, _security, 0, true, payable(msg.sender), payable(address(0))) */\n      0x00\n      dup3\n      add\n      mload\n      dup2\n      0x00\n      add\n      sstore\n      0x20\n      dup3\n      add\n      mload\n      dup2\n      0x01\n      add\n      sstore\n      0x40\n      dup3\n      add\n      mload\n      dup2\n      0x02\n      add\n      swap1\n      dup2\n      tag_92\n      swap2\n      swap1\n      tag_93\n      jump\t// in\n    tag_92:\n      pop\n      0x60\n      dup3\n      add\n      mload\n      dup2\n      0x03\n      add\n      swap1\n      dup2\n      tag_94\n      swap2\n      swap1\n      tag_93\n      jump\t// in\n    tag_94:\n      pop\n      0x80\n      dup3\n      add\n      mload\n      dup2\n      0x04\n      add\n      sstore\n      0xa0\n      dup3\n      add\n      mload\n      dup2\n      0x05\n      add\n      sstore\n      0xc0\n      dup3\n      add\n      mload\n      dup2\n      0x06\n      add\n      sstore\n      0xe0\n      dup3\n      add\n      mload\n      dup2\n      0x07\n      add\n      exp(0x0100, 0x00)\n      dup2\n      sload\n      dup2\n      0xff\n      mul\n      not\n      and\n      swap1\n      dup4\n      iszero\n      iszero\n      mul\n      or\n      swap1\n      sstore\n      pop\n      0x0100\n      dup3\n      add\n      mload\n      dup2\n      0x07\n      add\n      exp(0x0100, 0x01)\n      dup2\n      sload\n      dup2\n      0xffffffffffffffffffffffffffffffffffffffff\n      mul\n      not\n      and\n      swap1\n      dup4\n      0xffffffffffffffffffffffffffffffffffffffff\n      and\n      mul\n      or\n      swap1\n      sstore\n      pop\n      0x0120\n      dup3\n      add\n      mload\n      dup2\n      0x08\n      add\n      exp(0x0100, 0x00)\n      dup2\n      sload\n      dup2\n      0xffffffffffffffffffffffffffffffffffffffff\n      mul\n      not\n      and\n      swap1\n      dup4\n      0xffffffffffffffffffffffffffffffffffffffff\n      and\n      mul\n      or\n      swap1\n      sstore\n      pop\n      swap1\n      pop\n      pop\n        /* \"hotel_mangement_contract.sol\":3240:3582  function add_room(string memory _roomname, string memory _roomaddress, uint _rentcost, uint _security) public {... */\n      pop\n      pop\n      pop\n      pop\n      jump\t// out\n        /* \"hotel_mangement_contract.sol\":147:174  uint public no_of_rooms = 0 */\n    tag_25:\n      sload(0x02)\n      dup2\n      jump\t// out\n        /* \"hotel_mangement_contract.sol\":574:613  mapping(uint => Room) public room_by_no */\n    tag_31:\n      mstore(0x20, 0x05)\n      dup1\n      0x00\n      mstore\n      keccak256(0x00, 0x40)\n      0x00\n      swap2\n      pop\n      swap1\n      pop\n      dup1\n      0x00\n      add\n      sload\n      swap1\n      dup1\n      0x01\n      add\n      sload\n      swap1\n      dup1\n      0x02\n      add\n      dup1\n      sload\n      tag_95\n      swap1\n      tag_96\n      jump\t// in\n    tag_95:\n      dup1\n      0x1f\n      add\n      0x20\n      dup1\n      swap2\n      div\n      mul\n      0x20\n      add\n      mload(0x40)\n      swap1\n      dup2\n      add\n      0x40\n      mstore\n      dup1\n      swap3\n      swap2\n      swap1\n      dup2\n      dup2\n      mstore\n      0x20\n      add\n      dup3\n      dup1\n      sload\n      tag_97\n      swap1\n      tag_96\n      jump\t// in\n    tag_97:\n      dup1\n      iszero\n      tag_98\n      jumpi\n      dup1\n      0x1f\n      lt\n      tag_99\n      jumpi\n      0x0100\n      dup1\n      dup4\n      sload\n      div\n      mul\n      dup4\n      mstore\n      swap2\n      0x20\n      add\n      swap2\n      jump(tag_98)\n    tag_99:\n      dup3\n      add\n      swap2\n      swap1\n      0x00\n      mstore\n      keccak256(0x00, 0x20)\n      swap1\n    tag_100:\n      dup2\n      sload\n      dup2\n      mstore\n      swap1\n      0x01\n      add\n      swap1\n      0x20\n      add\n      dup1\n      dup4\n      gt\n      tag_100\n      jumpi\n      dup3\n      swap1\n      sub\n      0x1f\n      and\n      dup3\n      add\n      swap2\n    tag_98:\n      pop\n      pop\n      pop\n      pop\n      pop\n      swap1\n      dup1\n      0x03\n      add\n      dup1\n      sload\n      tag_101\n      swap1\n      tag_96\n      jump\t// in\n    tag_101:\n      dup1\n      0x1f\n      add\n      0x20\n      dup1\n      swap2\n      div\n      mul\n      0x20\n      add\n      mload(0x40)\n      swap1\n      dup2\n      add\n      0x40\n      mstore\n      dup1\n      swap3\n      swap2\n      swap1\n      dup2\n      dup2\n      mstore\n      0x20\n      add\n      dup3\n      dup1\n      sload\n      tag_102\n      swap1\n      tag_96\n      jump\t// in\n    tag_102:\n      dup1\n      iszero\n      tag_103\n      jumpi\n      dup1\n      0x1f\n      lt\n      tag_104\n      jumpi\n      0x0100\n      dup1\n      dup4\n      sload\n      div\n      mul\n      dup4\n      mstore\n      swap2\n      0x20\n      add\n      swap2\n      jump(tag_103)\n    tag_104:\n      dup3\n      add\n      swap2\n      swap1\n      0x00\n      mstore\n      keccak256(0x00, 0x20)\n      swap1\n    tag_105:\n      dup2\n      sload\n      dup2\n      mstore\n      swap1\n      0x01\n      add\n      swap1\n      0x20\n      add\n      dup1\n      dup4\n      gt\n      tag_105\n      jumpi\n      dup3\n      swap1\n      sub\n      0x1f\n      and\n      dup3\n      add\n      swap2\n    tag_103:\n      pop\n      pop\n      pop\n      pop\n      pop\n      swap1\n      dup1\n      0x04\n      add\n      sload\n      swap1\n      dup1\n      0x05\n      add\n      sload\n      swap1\n      dup1\n      0x06\n      add\n      sload\n      swap1\n      dup1\n      0x07\n      add\n      0x00\n      swap1\n      sload\n      swap1\n      0x0100\n      exp\n      swap1\n      div\n      0xff\n      and\n      swap1\n      dup1\n      0x07\n      add\n      0x01\n      swap1\n      sload\n      swap1\n      0x0100\n      exp\n      swap1\n      div\n      0xffffffffffffffffffffffffffffffffffffffff\n      and\n      swap1\n      dup1\n      0x08\n      add\n      0x00\n      swap1\n      sload\n      swap1\n      0x0100\n      exp\n      swap1\n      div\n      0xffffffffffffffffffffffffffffffffffffffff\n      and\n      swap1\n      pop\n      dup11\n      jump\t// out\n        /* \"hotel_mangement_contract.sol\":219:245  uint public no_of_rent = 0 */\n    tag_36:\n      sload(0x04)\n      dup2\n      jump\t// out\n        /* \"hotel_mangement_contract.sol\":6180:6374  function agreement_terminated(uint _index) public only_landlord(_index) agreement_time_left(_index){... */\n    tag_41:\n        /* \"hotel_mangement_contract.sol\":6244:6250  _index */\n      dup1\n        /* \"hotel_mangement_contract.sol\":1449:1459  room_by_no */\n      0x05\n        /* \"hotel_mangement_contract.sol\":1449:1467  room_by_no[_index] */\n      0x00\n        /* \"hotel_mangement_contract.sol\":1460:1466  _index */\n      dup3\n        /* \"hotel_mangement_contract.sol\":1449:1467  room_by_no[_index] */\n      dup2\n      mstore\n      0x20\n      add\n      swap1\n      dup2\n      mstore\n      0x20\n      add\n      0x00\n      keccak256\n        /* \"hotel_mangement_contract.sol\":1449:1476  room_by_no[_index].landlord */\n      0x07\n      add\n      0x01\n      swap1\n      sload\n      swap1\n      0x0100\n      exp\n      swap1\n      div\n      0xffffffffffffffffffffffffffffffffffffffff\n      and\n        /* \"hotel_mangement_contract.sol\":1435:1476  msg.sender == room_by_no[_index].landlord */\n      0xffffffffffffffffffffffffffffffffffffffff\n      and\n        /* \"hotel_mangement_contract.sol\":1435:1445  msg.sender */\n      caller\n        /* \"hotel_mangement_contract.sol\":1435:1476  msg.sender == room_by_no[_index].landlord */\n      0xffffffffffffffffffffffffffffffffffffffff\n      and\n      eq\n        /* \"hotel_mangement_contract.sol\":1426:1510  require (msg.sender == room_by_no[_index].landlord, \"Only landlord can access this\") */\n      tag_107\n      jumpi\n      mload(0x40)\n      0x08c379a000000000000000000000000000000000000000000000000000000000\n      dup2\n      mstore\n      0x04\n      add\n      tag_108\n      swap1\n      tag_68\n      jump\t// in\n    tag_108:\n      mload(0x40)\n      dup1\n      swap2\n      sub\n      swap1\n      revert\n    tag_107:\n        /* \"hotel_mangement_contract.sol\":6272:6278  _index */\n      dup2\n        /* \"hotel_mangement_contract.sol\":2395:2404  uint time */\n      0x00\n        /* \"hotel_mangement_contract.sol\":2473:2493  room_agreement_by_no */\n      0x06\n        /* \"hotel_mangement_contract.sol\":2473:2526  room_agreement_by_no[room_by_no[_index].agreement_id] */\n      0x00\n        /* \"hotel_mangement_contract.sol\":2494:2504  room_by_no */\n      0x05\n        /* \"hotel_mangement_contract.sol\":2494:2512  room_by_no[_index] */\n      0x00\n        /* \"hotel_mangement_contract.sol\":2505:2511  _index */\n      dup6\n        /* \"hotel_mangement_contract.sol\":2494:2512  room_by_no[_index] */\n      dup2\n      mstore\n      0x20\n      add\n      swap1\n      dup2\n      mstore\n      0x20\n      add\n      0x00\n      keccak256\n        /* \"hotel_mangement_contract.sol\":2494:2525  room_by_no[_index].agreement_id */\n      0x01\n      add\n      sload\n        /* \"hotel_mangement_contract.sol\":2473:2526  room_agreement_by_no[room_by_no[_index].agreement_id] */\n      dup2\n      mstore\n      0x20\n      add\n      swap1\n      dup2\n      mstore\n      0x20\n      add\n      0x00\n      keccak256\n        /* \"hotel_mangement_contract.sol\":2473:2541  room_agreement_by_no[room_by_no[_index].agreement_id].lock_in_period */\n      0x06\n      add\n      sload\n        /* \"hotel_mangement_contract.sol\":2407:2427  room_agreement_by_no */\n      0x06\n        /* \"hotel_mangement_contract.sol\":2407:2460  room_agreement_by_no[room_by_no[_index].agreement_id] */\n      0x00\n        /* \"hotel_mangement_contract.sol\":2428:2438  room_by_no */\n      0x05\n        /* \"hotel_mangement_contract.sol\":2428:2446  room_by_no[_index] */\n      0x00\n        /* \"hotel_mangement_contract.sol\":2439:2445  _index */\n      dup7\n        /* \"hotel_mangement_contract.sol\":2428:2446  room_by_no[_index] */\n      dup2\n      mstore\n      0x20\n      add\n      swap1\n      dup2\n      mstore\n      0x20\n      add\n      0x00\n      keccak256\n        /* \"hotel_mangement_contract.sol\":2428:2459  room_by_no[_index].agreement_id */\n      0x01\n      add\n      sload\n        /* \"hotel_mangement_contract.sol\":2407:2460  room_agreement_by_no[room_by_no[_index].agreement_id] */\n      dup2\n      mstore\n      0x20\n      add\n      swap1\n      dup2\n      mstore\n      0x20\n      add\n      0x00\n      keccak256\n        /* \"hotel_mangement_contract.sol\":2407:2470  room_agreement_by_no[room_by_no[_index].agreement_id].timestamp */\n      0x07\n      add\n      sload\n        /* \"hotel_mangement_contract.sol\":2407:2541  room_agreement_by_no[room_by_no[_index].agreement_id].timestamp + room_agreement_by_no[room_by_no[_index].agreement_id].lock_in_period */\n      tag_110\n      swap2\n      swap1\n      tag_71\n      jump\t// in\n    tag_110:\n        /* \"hotel_mangement_contract.sol\":2395:2541  uint time = room_agreement_by_no[room_by_no[_index].agreement_id].timestamp + room_agreement_by_no[room_by_no[_index].agreement_id].lock_in_period */\n      swap1\n      pop\n        /* \"hotel_mangement_contract.sol\":2580:2584  time */\n      dup1\n        /* \"hotel_mangement_contract.sol\":2561:2576  block.timestamp */\n      timestamp\n        /* \"hotel_mangement_contract.sol\":2561:2584  block.timestamp <= time */\n      gt\n      iszero\n        /* \"hotel_mangement_contract.sol\":2552:2610  require (block.timestamp <= time, \"Agreement has expired\") */\n      tag_111\n      jumpi\n      mload(0x40)\n      0x08c379a000000000000000000000000000000000000000000000000000000000\n      dup2\n      mstore\n      0x04\n      add\n      tag_112\n      swap1\n      tag_113\n      jump\t// in\n    tag_112:\n      mload(0x40)\n      dup1\n      swap2\n      sub\n      swap1\n      revert\n    tag_111:\n        /* \"hotel_mangement_contract.sol\":6320:6321  0 */\n      0x00\n        /* \"hotel_mangement_contract.sol\":6298:6322  msg.sender != address(0) */\n      0xffffffffffffffffffffffffffffffffffffffff\n      and\n        /* \"hotel_mangement_contract.sol\":6298:6308  msg.sender */\n      caller\n        /* \"hotel_mangement_contract.sol\":6298:6322  msg.sender != address(0) */\n      0xffffffffffffffffffffffffffffffffffffffff\n      and\n      sub\n        /* \"hotel_mangement_contract.sol\":6290:6323  require(msg.sender != address(0)) */\n      tag_115\n      jumpi\n      0x00\n      dup1\n      revert\n    tag_115:\n        /* \"hotel_mangement_contract.sol\":6362:6366  true */\n      0x01\n        /* \"hotel_mangement_contract.sol\":6334:6344  room_by_no */\n      0x05\n        /* \"hotel_mangement_contract.sol\":6334:6352  room_by_no[_index] */\n      0x00\n        /* \"hotel_mangement_contract.sol\":6345:6351  _index */\n      dup7\n        /* \"hotel_mangement_contract.sol\":6334:6352  room_by_no[_index] */\n      dup2\n      mstore\n      0x20\n      add\n      swap1\n      dup2\n      mstore\n      0x20\n      add\n      0x00\n      keccak256\n        /* \"hotel_mangement_contract.sol\":6334:6359  room_by_no[_index].vacant */\n      0x07\n      add\n      0x00\n        /* \"hotel_mangement_contract.sol\":6334:6366  room_by_no[_index].vacant = true */\n      0x0100\n      exp\n      dup2\n      sload\n      dup2\n      0xff\n      mul\n      not\n      and\n      swap1\n      dup4\n      iszero\n      iszero\n      mul\n      or\n      swap1\n      sstore\n      pop\n        /* \"hotel_mangement_contract.sol\":2384:2631  {... */\n      pop\n        /* \"hotel_mangement_contract.sol\":1521:1522  _ */\n      pop\n        /* \"hotel_mangement_contract.sol\":6180:6374  function agreement_terminated(uint _index) public only_landlord(_index) agreement_time_left(_index){... */\n      pop\n      pop\n      jump\t// out\n        /* \"hotel_mangement_contract.sol\":181:212  uint public no_of_aggrement = 0 */\n    tag_44:\n      sload(0x03)\n      dup2\n      jump\t// out\n        /* \"hotel_mangement_contract.sol\":967:1025  mapping(uint => RoomAgreement) public room_agreement_by_no */\n    tag_49:\n      mstore(0x20, 0x06)\n      dup1\n      0x00\n      mstore\n      keccak256(0x00, 0x40)\n      0x00\n      swap2\n      pop\n      swap1\n      pop\n      dup1\n      0x00\n      add\n      sload\n      swap1\n      dup1\n      0x01\n      add\n      sload\n      swap1\n      dup1\n      0x02\n      add\n      dup1\n      sload\n      tag_116\n      swap1\n      tag_96\n      jump\t// in\n    tag_116:\n      dup1\n      0x1f\n      add\n      0x20\n      dup1\n      swap2\n      div\n      mul\n      0x20\n      add\n      mload(0x40)\n      swap1\n      dup2\n      add\n      0x40\n      mstore\n      dup1\n      swap3\n      swap2\n      swap1\n      dup2\n      dup2\n      mstore\n      0x20\n      add\n      dup3\n      dup1\n      sload\n      tag_117\n      swap1\n      tag_96\n      jump\t// in\n    tag_117:\n      dup1\n      iszero\n      tag_118\n      jumpi\n      dup1\n      0x1f\n      lt\n      tag_119\n      jumpi\n      0x0100\n      dup1\n      dup4\n      sload\n      div\n      mul\n      dup4\n      mstore\n      swap2\n      0x20\n      add\n      swap2\n      jump(tag_118)\n    tag_119:\n      dup3\n      add\n      swap2\n      swap1\n      0x00\n      mstore\n      keccak256(0x00, 0x20)\n      swap1\n    tag_120:\n      dup2\n      sload\n      dup2\n      mstore\n      swap1\n      0x01\n      add\n      swap1\n      0x20\n      add\n      dup1\n      dup4\n      gt\n      tag_120\n      jumpi\n      dup3\n      swap1\n      sub\n      0x1f\n      and\n      dup3\n      add\n      swap2\n    tag_118:\n      pop\n      pop\n      pop\n      pop\n      pop\n      swap1\n      dup1\n      0x03\n      add\n      dup1\n      sload\n      tag_121\n      swap1\n      tag_96\n      jump\t// in\n    tag_121:\n      dup1\n      0x1f\n      add\n      0x20\n      dup1\n      swap2\n      div\n      mul\n      0x20\n      add\n      mload(0x40)\n      swap1\n      dup2\n      add\n      0x40\n      mstore\n      dup1\n      swap3\n      swap2\n      swap1\n      dup2\n      dup2\n      mstore\n      0x20\n      add\n      dup3\n      dup1\n      sload\n      tag_122\n      swap1\n      tag_96\n      jump\t// in\n    tag_122:\n      dup1\n      iszero\n      tag_123\n      jumpi\n      dup1\n      0x1f\n      lt\n      tag_124\n      jumpi\n      0x0100\n      dup1\n      dup4\n      sload\n      div\n      mul\n      dup4\n      mstore\n      swap2\n      0x20\n      add\n      swap2\n      jump(tag_123)\n    tag_124:\n      dup3\n      add\n      swap2\n      swap1\n      0x00\n      mstore\n      keccak256(0x00, 0x20)\n      swap1\n    tag_125:\n      dup2\n      sload\n      dup2\n      mstore\n      swap1\n      0x01\n      add\n      swap1\n      0x20\n      add\n      dup1\n      dup4\n      gt\n      tag_125\n      jumpi\n      dup3\n      swap1\n      sub\n      0x1f\n      and\n      dup3\n      add\n      swap2\n    tag_123:\n      pop\n      pop\n      pop\n      pop\n      pop\n      swap1\n      dup1\n      0x04\n      add\n      sload\n      swap1\n      dup1\n      0x05\n      add\n      sload\n      swap1\n      dup1\n      0x06\n      add\n      sload\n      swap1\n      dup1\n      0x07\n      add\n      sload\n      swap1\n      dup1\n      0x08\n      add\n      0x00\n      swap1\n      sload\n      swap1\n      0x0100\n      exp\n      swap1\n      div\n      0xffffffffffffffffffffffffffffffffffffffff\n      and\n      swap1\n      dup1\n      0x09\n      add\n      0x00\n      swap1\n      sload\n      swap1\n      0x0100\n      exp\n      swap1\n      div\n      0xffffffffffffffffffffffffffffffffffffffff\n      and\n      swap1\n      pop\n      dup11\n      jump\t// out\n        /* \"hotel_mangement_contract.sol\":4878:5621  function payRent(uint _index) public payable same_tenant(_index) rent_time_up(_index) enough_rent(_index) {... */\n    tag_54:\n        /* \"hotel_mangement_contract.sol\":4935:4941  _index */\n      dup1\n        /* \"hotel_mangement_contract.sol\":2242:2252  room_by_no */\n      0x05\n        /* \"hotel_mangement_contract.sol\":2242:2260  room_by_no[_index] */\n      0x00\n        /* \"hotel_mangement_contract.sol\":2253:2259  _index */\n      dup3\n        /* \"hotel_mangement_contract.sol\":2242:2260  room_by_no[_index] */\n      dup2\n      mstore\n      0x20\n      add\n      swap1\n      dup2\n      mstore\n      0x20\n      add\n      0x00\n      keccak256\n        /* \"hotel_mangement_contract.sol\":2242:2275  room_by_no[_index].current_tenant */\n      0x08\n      add\n      0x00\n      swap1\n      sload\n      swap1\n      0x0100\n      exp\n      swap1\n      div\n      0xffffffffffffffffffffffffffffffffffffffff\n      and\n        /* \"hotel_mangement_contract.sol\":2228:2275  msg.sender == room_by_no[_index].current_tenant */\n      0xffffffffffffffffffffffffffffffffffffffff\n      and\n        /* \"hotel_mangement_contract.sol\":2228:2238  msg.sender */\n      caller\n        /* \"hotel_mangement_contract.sol\":2228:2275  msg.sender == room_by_no[_index].current_tenant */\n      0xffffffffffffffffffffffffffffffffffffffff\n      and\n      eq\n        /* \"hotel_mangement_contract.sol\":2219:2315  require (msg.sender == room_by_no[_index].current_tenant, \"You are not the tenant of this room\") */\n      tag_127\n      jumpi\n      mload(0x40)\n      0x08c379a000000000000000000000000000000000000000000000000000000000\n      dup2\n      mstore\n      0x04\n      add\n      tag_128\n      swap1\n      tag_129\n      jump\t// in\n    tag_128:\n      mload(0x40)\n      dup1\n      swap2\n      sub\n      swap1\n      revert\n    tag_127:\n        /* \"hotel_mangement_contract.sol\":4956:4962  _index */\n      dup2\n        /* \"hotel_mangement_contract.sol\":2990:2999  uint time */\n      0x00\n        /* \"hotel_mangement_contract.sol\":3068:3088  room_agreement_by_no */\n      0x06\n        /* \"hotel_mangement_contract.sol\":3068:3121  room_agreement_by_no[room_by_no[_index].agreement_id] */\n      0x00\n        /* \"hotel_mangement_contract.sol\":3089:3099  room_by_no */\n      0x05\n        /* \"hotel_mangement_contract.sol\":3089:3107  room_by_no[_index] */\n      0x00\n        /* \"hotel_mangement_contract.sol\":3100:3106  _index */\n      dup6\n        /* \"hotel_mangement_contract.sol\":3089:3107  room_by_no[_index] */\n      dup2\n      mstore\n      0x20\n      add\n      swap1\n      dup2\n      mstore\n      0x20\n      add\n      0x00\n      keccak256\n        /* \"hotel_mangement_contract.sol\":3089:3120  room_by_no[_index].agreement_id */\n      0x01\n      add\n      sload\n        /* \"hotel_mangement_contract.sol\":3068:3121  room_agreement_by_no[room_by_no[_index].agreement_id] */\n      dup2\n      mstore\n      0x20\n      add\n      swap1\n      dup2\n      mstore\n      0x20\n      add\n      0x00\n      keccak256\n        /* \"hotel_mangement_contract.sol\":3068:3136  room_agreement_by_no[room_by_no[_index].agreement_id].lock_in_period */\n      0x06\n      add\n      sload\n        /* \"hotel_mangement_contract.sol\":3002:3022  room_agreement_by_no */\n      0x06\n        /* \"hotel_mangement_contract.sol\":3002:3055  room_agreement_by_no[room_by_no[_index].agreement_id] */\n      0x00\n        /* \"hotel_mangement_contract.sol\":3023:3033  room_by_no */\n      0x05\n        /* \"hotel_mangement_contract.sol\":3023:3041  room_by_no[_index] */\n      0x00\n        /* \"hotel_mangement_contract.sol\":3034:3040  _index */\n      dup7\n        /* \"hotel_mangement_contract.sol\":3023:3041  room_by_no[_index] */\n      dup2\n      mstore\n      0x20\n      add\n      swap1\n      dup2\n      mstore\n      0x20\n      add\n      0x00\n      keccak256\n        /* \"hotel_mangement_contract.sol\":3023:3054  room_by_no[_index].agreement_id */\n      0x01\n      add\n      sload\n        /* \"hotel_mangement_contract.sol\":3002:3055  room_agreement_by_no[room_by_no[_index].agreement_id] */\n      dup2\n      mstore\n      0x20\n      add\n      swap1\n      dup2\n      mstore\n      0x20\n      add\n      0x00\n      keccak256\n        /* \"hotel_mangement_contract.sol\":3002:3065  room_agreement_by_no[room_by_no[_index].agreement_id].timestamp */\n      0x07\n      add\n      sload\n        /* \"hotel_mangement_contract.sol\":3002:3136  room_agreement_by_no[room_by_no[_index].agreement_id].timestamp + room_agreement_by_no[room_by_no[_index].agreement_id].lock_in_period */\n      tag_131\n      swap2\n      swap1\n      tag_71\n      jump\t// in\n    tag_131:\n        /* \"hotel_mangement_contract.sol\":2990:3136  uint time = room_agreement_by_no[room_by_no[_index].agreement_id].timestamp + room_agreement_by_no[room_by_no[_index].agreement_id].lock_in_period */\n      swap1\n      pop\n        /* \"hotel_mangement_contract.sol\":3175:3179  time */\n      dup1\n        /* \"hotel_mangement_contract.sol\":3156:3171  block.timestamp */\n      timestamp\n        /* \"hotel_mangement_contract.sol\":3156:3179  block.timestamp >= time */\n      lt\n      iszero\n        /* \"hotel_mangement_contract.sol\":3147:3208  require (block.timestamp >= time, \"Timeleft to pay the rent\") */\n      tag_132\n      jumpi\n      mload(0x40)\n      0x08c379a000000000000000000000000000000000000000000000000000000000\n      dup2\n      mstore\n      0x04\n      add\n      tag_133\n      swap1\n      tag_134\n      jump\t// in\n    tag_133:\n      mload(0x40)\n      dup1\n      swap2\n      sub\n      swap1\n      revert\n    tag_132:\n        /* \"hotel_mangement_contract.sol\":4976:4982  _index */\n      dup4\n        /* \"hotel_mangement_contract.sol\":1903:1913  room_by_no */\n      0x05\n        /* \"hotel_mangement_contract.sol\":1903:1921  room_by_no[_index] */\n      0x00\n        /* \"hotel_mangement_contract.sol\":1914:1920  _index */\n      dup3\n        /* \"hotel_mangement_contract.sol\":1903:1921  room_by_no[_index] */\n      dup2\n      mstore\n      0x20\n      add\n      swap1\n      dup2\n      mstore\n      0x20\n      add\n      0x00\n      keccak256\n        /* \"hotel_mangement_contract.sol\":1903:1936  room_by_no[_index].rent_per_month */\n      0x04\n      add\n      sload\n        /* \"hotel_mangement_contract.sol\":1890:1899  msg.value */\n      callvalue\n        /* \"hotel_mangement_contract.sol\":1890:1936  msg.value >= room_by_no[_index].rent_per_month */\n      lt\n      iszero\n        /* \"hotel_mangement_contract.sol\":1881:1972  require (msg.value >= room_by_no[_index].rent_per_month, \"Not enough ether in your wallet\") */\n      tag_136\n      jumpi\n      mload(0x40)\n      0x08c379a000000000000000000000000000000000000000000000000000000000\n      dup2\n      mstore\n      0x04\n      add\n      tag_137\n      swap1\n      tag_138\n      jump\t// in\n    tag_137:\n      mload(0x40)\n      dup1\n      swap2\n      sub\n      swap1\n      revert\n    tag_136:\n        /* \"hotel_mangement_contract.sol\":5025:5026  0 */\n      0x00\n        /* \"hotel_mangement_contract.sol\":5003:5027  msg.sender != address(0) */\n      0xffffffffffffffffffffffffffffffffffffffff\n      and\n        /* \"hotel_mangement_contract.sol\":5003:5013  msg.sender */\n      caller\n        /* \"hotel_mangement_contract.sol\":5003:5027  msg.sender != address(0) */\n      0xffffffffffffffffffffffffffffffffffffffff\n      and\n      sub\n        /* \"hotel_mangement_contract.sol\":4995:5028  require(msg.sender != address(0)) */\n      tag_140\n      jumpi\n      0x00\n      dup1\n      revert\n    tag_140:\n        /* \"hotel_mangement_contract.sol\":5039:5064  address payable _landlord */\n      0x00\n        /* \"hotel_mangement_contract.sol\":5067:5077  room_by_no */\n      0x05\n        /* \"hotel_mangement_contract.sol\":5067:5085  room_by_no[_index] */\n      0x00\n        /* \"hotel_mangement_contract.sol\":5078:5084  _index */\n      dup8\n        /* \"hotel_mangement_contract.sol\":5067:5085  room_by_no[_index] */\n      dup2\n      mstore\n      0x20\n      add\n      swap1\n      dup2\n      mstore\n      0x20\n      add\n      0x00\n      keccak256\n        /* \"hotel_mangement_contract.sol\":5067:5094  room_by_no[_index].landlord */\n      0x07\n      add\n      0x01\n      swap1\n      sload\n      swap1\n      0x0100\n      exp\n      swap1\n      div\n      0xffffffffffffffffffffffffffffffffffffffff\n      and\n        /* \"hotel_mangement_contract.sol\":5039:5094  address payable _landlord = room_by_no[_index].landlord */\n      swap1\n      pop\n        /* \"hotel_mangement_contract.sol\":5105:5115  uint _rent */\n      0x00\n        /* \"hotel_mangement_contract.sol\":5118:5128  room_by_no */\n      0x05\n        /* \"hotel_mangement_contract.sol\":5118:5136  room_by_no[_index] */\n      0x00\n        /* \"hotel_mangement_contract.sol\":5129:5135  _index */\n      dup9\n        /* \"hotel_mangement_contract.sol\":5118:5136  room_by_no[_index] */\n      dup2\n      mstore\n      0x20\n      add\n      swap1\n      dup2\n      mstore\n      0x20\n      add\n      0x00\n      keccak256\n        /* \"hotel_mangement_contract.sol\":5118:5151  room_by_no[_index].rent_per_month */\n      0x04\n      add\n      sload\n        /* \"hotel_mangement_contract.sol\":5105:5151  uint _rent = room_by_no[_index].rent_per_month */\n      swap1\n      pop\n        /* \"hotel_mangement_contract.sol\":5163:5171  bool res */\n      0x00\n        /* \"hotel_mangement_contract.sol\":5177:5186  _landlord */\n      dup3\n        /* \"hotel_mangement_contract.sol\":5177:5191  _landlord.call */\n      0xffffffffffffffffffffffffffffffffffffffff\n      and\n        /* \"hotel_mangement_contract.sol\":5200:5205  _rent */\n      dup3\n        /* \"hotel_mangement_contract.sol\":5177:5210  _landlord.call{value : _rent}(\"\") */\n      mload(0x40)\n      tag_141\n      swap1\n      tag_81\n      jump\t// in\n    tag_141:\n      0x00\n      mload(0x40)\n      dup1\n      dup4\n      sub\n      dup2\n      dup6\n      dup8\n      gas\n      call\n      swap3\n      pop\n      pop\n      pop\n      returndatasize\n      dup1\n      0x00\n      dup2\n      eq\n      tag_144\n      jumpi\n      mload(0x40)\n      swap2\n      pop\n      and(add(returndatasize, 0x3f), not(0x1f))\n      dup3\n      add\n      0x40\n      mstore\n      returndatasize\n      dup3\n      mstore\n      returndatasize\n      0x00\n      0x20\n      dup5\n      add\n      returndatacopy\n      jump(tag_143)\n    tag_144:\n      0x60\n      swap2\n      pop\n    tag_143:\n      pop\n        /* \"hotel_mangement_contract.sol\":5162:5210  (bool res, ) = _landlord.call{value : _rent}(\"\") */\n      pop\n      swap1\n      pop\n        /* \"hotel_mangement_contract.sol\":5229:5232  res */\n      dup1\n        /* \"hotel_mangement_contract.sol\":5221:5256  require(res, \"Rent payment failed\") */\n      tag_145\n      jumpi\n      mload(0x40)\n      0x08c379a000000000000000000000000000000000000000000000000000000000\n      dup2\n      mstore\n      0x04\n      add\n      tag_146\n      swap1\n      tag_147\n      jump\t// in\n    tag_146:\n      mload(0x40)\n      dup1\n      swap2\n      sub\n      swap1\n      revert\n    tag_145:\n        /* \"hotel_mangement_contract.sol\":5311:5321  msg.sender */\n      caller\n        /* \"hotel_mangement_contract.sol\":5267:5277  room_by_no */\n      0x05\n        /* \"hotel_mangement_contract.sol\":5267:5285  room_by_no[_index] */\n      0x00\n        /* \"hotel_mangement_contract.sol\":5278:5284  _index */\n      dup11\n        /* \"hotel_mangement_contract.sol\":5267:5285  room_by_no[_index] */\n      dup2\n      mstore\n      0x20\n      add\n      swap1\n      dup2\n      mstore\n      0x20\n      add\n      0x00\n      keccak256\n        /* \"hotel_mangement_contract.sol\":5267:5300  room_by_no[_index].current_tenant */\n      0x08\n      add\n      0x00\n        /* \"hotel_mangement_contract.sol\":5267:5322  room_by_no[_index].current_tenant = payable(msg.sender) */\n      0x0100\n      exp\n      dup2\n      sload\n      dup2\n      0xffffffffffffffffffffffffffffffffffffffff\n      mul\n      not\n      and\n      swap1\n      dup4\n      0xffffffffffffffffffffffffffffffffffffffff\n      and\n      mul\n      or\n      swap1\n      sstore\n      pop\n        /* \"hotel_mangement_contract.sol\":5361:5366  false */\n      0x00\n        /* \"hotel_mangement_contract.sol\":5333:5343  room_by_no */\n      0x05\n        /* \"hotel_mangement_contract.sol\":5333:5351  room_by_no[_index] */\n      0x00\n        /* \"hotel_mangement_contract.sol\":5344:5350  _index */\n      dup11\n        /* \"hotel_mangement_contract.sol\":5333:5351  room_by_no[_index] */\n      dup2\n      mstore\n      0x20\n      add\n      swap1\n      dup2\n      mstore\n      0x20\n      add\n      0x00\n      keccak256\n        /* \"hotel_mangement_contract.sol\":5333:5358  room_by_no[_index].vacant */\n      0x07\n      add\n      0x00\n        /* \"hotel_mangement_contract.sol\":5333:5366  room_by_no[_index].vacant = false */\n      0x0100\n      exp\n      dup2\n      sload\n      dup2\n      0xff\n      mul\n      not\n      and\n      swap1\n      dup4\n      iszero\n      iszero\n      mul\n      or\n      swap1\n      sstore\n      pop\n        /* \"hotel_mangement_contract.sol\":5377:5387  no_of_rent */\n      0x04\n      0x00\n        /* \"hotel_mangement_contract.sol\":5377:5389  no_of_rent++ */\n      dup2\n      sload\n      dup1\n      swap3\n      swap2\n      swap1\n      tag_148\n      swap1\n      tag_91\n      jump\t// in\n    tag_148:\n      swap2\n      swap1\n      pop\n      sstore\n      pop\n        /* \"hotel_mangement_contract.sol\":5425:5613  Rent(no_of_rent, _index, no_of_aggrement, room_by_no[_index].room_name, room_by_no[_index].room_address, room_by_no[_index].rent_per_month, block.timestamp, payable(msg.sender), _landlord) */\n      mload(0x40)\n      dup1\n      0x0120\n      add\n      0x40\n      mstore\n      dup1\n        /* \"hotel_mangement_contract.sol\":5430:5440  no_of_rent */\n      sload(0x04)\n        /* \"hotel_mangement_contract.sol\":5425:5613  Rent(no_of_rent, _index, no_of_aggrement, room_by_no[_index].room_name, room_by_no[_index].room_address, room_by_no[_index].rent_per_month, block.timestamp, payable(msg.sender), _landlord) */\n      dup2\n      mstore\n      0x20\n      add\n        /* \"hotel_mangement_contract.sol\":5442:5448  _index */\n      dup10\n        /* \"hotel_mangement_contract.sol\":5425:5613  Rent(no_of_rent, _index, no_of_aggrement, room_by_no[_index].room_name, room_by_no[_index].room_address, room_by_no[_index].rent_per_month, block.timestamp, payable(msg.sender), _landlord) */\n      dup2\n      mstore\n      0x20\n      add\n        /* \"hotel_mangement_contract.sol\":5450:5465  no_of_aggrement */\n      sload(0x03)\n        /* \"hotel_mangement_contract.sol\":5425:5613  Rent(no_of_rent, _index, no_of_aggrement, room_by_no[_index].room_name, room_by_no[_index].room_address, room_by_no[_index].rent_per_month, block.timestamp, payable(msg.sender), _landlord) */\n      dup2\n      mstore\n      0x20\n      add\n        /* \"hotel_mangement_contract.sol\":5467:5477  room_by_no */\n      0x05\n        /* \"hotel_mangement_contract.sol\":5467:5485  room_by_no[_index] */\n      0x00\n        /* \"hotel_mangement_contract.sol\":5478:5484  _index */\n      dup12\n        /* \"hotel_mangement_contract.sol\":5467:5485  room_by_no[_index] */\n      dup2\n      mstore\n      0x20\n      add\n      swap1\n      dup2\n      mstore\n      0x20\n      add\n      0x00\n      keccak256\n        /* \"hotel_mangement_contract.sol\":5467:5495  room_by_no[_index].room_name */\n      0x02\n      add\n        /* \"hotel_mangement_contract.sol\":5425:5613  Rent(no_of_rent, _index, no_of_aggrement, room_by_no[_index].room_name, room_by_no[_index].room_address, room_by_no[_index].rent_per_month, block.timestamp, payable(msg.sender), _landlord) */\n      dup1\n      sload\n      tag_149\n      swap1\n      tag_96\n      jump\t// in\n    tag_149:\n      dup1\n      0x1f\n      add\n      0x20\n      dup1\n      swap2\n      div\n      mul\n      0x20\n      add\n      mload(0x40)\n      swap1\n      dup2\n      add\n      0x40\n      mstore\n      dup1\n      swap3\n      swap2\n      swap1\n      dup2\n      dup2\n      mstore\n      0x20\n      add\n      dup3\n      dup1\n      sload\n      tag_150\n      swap1\n      tag_96\n      jump\t// in\n    tag_150:\n      dup1\n      iszero\n      tag_151\n      jumpi\n      dup1\n      0x1f\n      lt\n      tag_152\n      jumpi\n      0x0100\n      dup1\n      dup4\n      sload\n      div\n      mul\n      dup4\n      mstore\n      swap2\n      0x20\n      add\n      swap2\n      jump(tag_151)\n    tag_152:\n      dup3\n      add\n      swap2\n      swap1\n      0x00\n      mstore\n      keccak256(0x00, 0x20)\n      swap1\n    tag_153:\n      dup2\n      sload\n      dup2\n      mstore\n      swap1\n      0x01\n      add\n      swap1\n      0x20\n      add\n      dup1\n      dup4\n      gt\n      tag_153\n      jumpi\n      dup3\n      swap1\n      sub\n      0x1f\n      and\n      dup3\n      add\n      swap2\n    tag_151:\n      pop\n      pop\n      pop\n      pop\n      pop\n      dup2\n      mstore\n      0x20\n      add\n        /* \"hotel_mangement_contract.sol\":5497:5507  room_by_no */\n      0x05\n        /* \"hotel_mangement_contract.sol\":5497:5515  room_by_no[_index] */\n      0x00\n        /* \"hotel_mangement_contract.sol\":5508:5514  _index */\n      dup12\n        /* \"hotel_mangement_contract.sol\":5497:5515  room_by_no[_index] */\n      dup2\n      mstore\n      0x20\n      add\n      swap1\n      dup2\n      mstore\n      0x20\n      add\n      0x00\n      keccak256\n        /* \"hotel_mangement_contract.sol\":5497:5528  room_by_no[_index].room_address */\n      0x03\n      add\n        /* \"hotel_mangement_contract.sol\":5425:5613  Rent(no_of_rent, _index, no_of_aggrement, room_by_no[_index].room_name, room_by_no[_index].room_address, room_by_no[_index].rent_per_month, block.timestamp, payable(msg.sender), _landlord) */\n      dup1\n      sload\n      tag_154\n      swap1\n      tag_96\n      jump\t// in\n    tag_154:\n      dup1\n      0x1f\n      add\n      0x20\n      dup1\n      swap2\n      div\n      mul\n      0x20\n      add\n      mload(0x40)\n      swap1\n      dup2\n      add\n      0x40\n      mstore\n      dup1\n      swap3\n      swap2\n      swap1\n      dup2\n      dup2\n      mstore\n      0x20\n      add\n      dup3\n      dup1\n      sload\n      tag_155\n      swap1\n      tag_96\n      jump\t// in\n    tag_155:\n      dup1\n      iszero\n      tag_156\n      jumpi\n      dup1\n      0x1f\n      lt\n      tag_157\n      jumpi\n      0x0100\n      dup1\n      dup4\n      sload\n      div\n      mul\n      dup4\n      mstore\n      swap2\n      0x20\n      add\n      swap2\n      jump(tag_156)\n    tag_157:\n      dup3\n      add\n      swap2\n      swap1\n      0x00\n      mstore\n      keccak256(0x00, 0x20)\n      swap1\n    tag_158:\n      dup2\n      sload\n      dup2\n      mstore\n      swap1\n      0x01\n      add\n      swap1\n      0x20\n      add\n      dup1\n      dup4\n      gt\n      tag_158\n      jumpi\n      dup3\n      swap1\n      sub\n      0x1f\n      and\n      dup3\n      add\n      swap2\n    tag_156:\n      pop\n      pop\n      pop\n      pop\n      pop\n      dup2\n      mstore\n      0x20\n      add\n        /* \"hotel_mangement_contract.sol\":5530:5540  room_by_no */\n      0x05\n        /* \"hotel_mangement_contract.sol\":5530:5548  room_by_no[_index] */\n      0x00\n        /* \"hotel_mangement_contract.sol\":5541:5547  _index */\n      dup12\n        /* \"hotel_mangement_contract.sol\":5530:5548  room_by_no[_index] */\n      dup2\n      mstore\n      0x20\n      add\n      swap1\n      dup2\n      mstore\n      0x20\n      add\n      0x00\n      keccak256\n        /* \"hotel_mangement_contract.sol\":5530:5563  room_by_no[_index].rent_per_month */\n      0x04\n      add\n      sload\n        /* \"hotel_mangement_contract.sol\":5425:5613  Rent(no_of_rent, _index, no_of_aggrement, room_by_no[_index].room_name, room_by_no[_index].room_address, room_by_no[_index].rent_per_month, block.timestamp, payable(msg.sender), _landlord) */\n      dup2\n      mstore\n      0x20\n      add\n        /* \"hotel_mangement_contract.sol\":5565:5580  block.timestamp */\n      timestamp\n        /* \"hotel_mangement_contract.sol\":5425:5613  Rent(no_of_rent, _index, no_of_aggrement, room_by_no[_index].room_name, room_by_no[_index].room_address, room_by_no[_index].rent_per_month, block.timestamp, payable(msg.sender), _landlord) */\n      dup2\n      mstore\n      0x20\n      add\n        /* \"hotel_mangement_contract.sol\":5590:5600  msg.sender */\n      caller\n        /* \"hotel_mangement_contract.sol\":5425:5613  Rent(no_of_rent, _index, no_of_aggrement, room_by_no[_index].room_name, room_by_no[_index].room_address, room_by_no[_index].rent_per_month, block.timestamp, payable(msg.sender), _landlord) */\n      0xffffffffffffffffffffffffffffffffffffffff\n      and\n      dup2\n      mstore\n      0x20\n      add\n        /* \"hotel_mangement_contract.sol\":5603:5612  _landlord */\n      dup5\n        /* \"hotel_mangement_contract.sol\":5425:5613  Rent(no_of_rent, _index, no_of_aggrement, room_by_no[_index].room_name, room_by_no[_index].room_address, room_by_no[_index].rent_per_month, block.timestamp, payable(msg.sender), _landlord) */\n      0xffffffffffffffffffffffffffffffffffffffff\n      and\n      dup2\n      mstore\n      pop\n        /* \"hotel_mangement_contract.sol\":5400:5410  rent_by_no */\n      0x07\n        /* \"hotel_mangement_contract.sol\":5400:5422  rent_by_no[no_of_rent] */\n      0x00\n        /* \"hotel_mangement_contract.sol\":5411:5421  no_of_rent */\n      sload(0x04)\n        /* \"hotel_mangement_contract.sol\":5400:5422  rent_by_no[no_of_rent] */\n      dup2\n      mstore\n      0x20\n      add\n      swap1\n      dup2\n      mstore\n      0x20\n      add\n      0x00\n      keccak256\n        /* \"hotel_mangement_contract.sol\":5400:5613  rent_by_no[no_of_rent] = Rent(no_of_rent, _index, no_of_aggrement, room_by_no[_index].room_name, room_by_no[_index].room_address, room_by_no[_index].rent_per_month, block.timestamp, payable(msg.sender), _landlord) */\n      0x00\n      dup3\n      add\n      mload\n      dup2\n      0x00\n      add\n      sstore\n      0x20\n      dup3\n      add\n      mload\n      dup2\n      0x01\n      add\n      sstore\n      0x40\n      dup3\n      add\n      mload\n      dup2\n      0x02\n      add\n      sstore\n      0x60\n      dup3\n      add\n      mload\n      dup2\n      0x03\n      add\n      swap1\n      dup2\n      tag_159\n      swap2\n      swap1\n      tag_93\n      jump\t// in\n    tag_159:\n      pop\n      0x80\n      dup3\n      add\n      mload\n      dup2\n      0x04\n      add\n      swap1\n      dup2\n      tag_160\n      swap2\n      swap1\n      tag_93\n      jump\t// in\n    tag_160:\n      pop\n      0xa0\n      dup3\n      add\n      mload\n      dup2\n      0x05\n      add\n      sstore\n      0xc0\n      dup3\n      add\n      mload\n      dup2\n      0x06\n      add\n      sstore\n      0xe0\n      dup3\n      add\n      mload\n      dup2\n      0x07\n      add\n      exp(0x0100, 0x00)\n      dup2\n      sload\n      dup2\n      0xffffffffffffffffffffffffffffffffffffffff\n      mul\n      not\n      and\n      swap1\n      dup4\n      0xffffffffffffffffffffffffffffffffffffffff\n      and\n      mul\n      or\n      swap1\n      sstore\n      pop\n      0x0100\n      dup3\n      add\n      mload\n      dup2\n      0x08\n      add\n      exp(0x0100, 0x00)\n      dup2\n      sload\n      dup2\n      0xffffffffffffffffffffffffffffffffffffffff\n      mul\n      not\n      and\n      swap1\n      dup4\n      0xffffffffffffffffffffffffffffffffffffffff\n      and\n      mul\n      or\n      swap1\n      sstore\n      pop\n      swap1\n      pop\n      pop\n        /* \"hotel_mangement_contract.sol\":4984:5621  {... */\n      pop\n      pop\n      pop\n        /* \"hotel_mangement_contract.sol\":3219:3220  _ */\n      pop\n        /* \"hotel_mangement_contract.sol\":2979:3229  {... */\n      pop\n        /* \"hotel_mangement_contract.sol\":2326:2327  _ */\n      pop\n        /* \"hotel_mangement_contract.sol\":4878:5621  function payRent(uint _index) public payable same_tenant(_index) rent_time_up(_index) enough_rent(_index) {... */\n      pop\n      pop\n      jump\t// out\n        /* \"hotel_mangement_contract.sol\":3593:4870  function signAgreement(uint _index, uint _duration) public payable not_landlord(_index) enough_agreement_fee(_index) only_while_vacant(_index){... */\n    tag_58:\n        /* \"hotel_mangement_contract.sol\":3673:3679  _index */\n      dup2\n        /* \"hotel_mangement_contract.sol\":1606:1616  room_by_no */\n      0x05\n        /* \"hotel_mangement_contract.sol\":1606:1624  room_by_no[_index] */\n      0x00\n        /* \"hotel_mangement_contract.sol\":1617:1623  _index */\n      dup3\n        /* \"hotel_mangement_contract.sol\":1606:1624  room_by_no[_index] */\n      dup2\n      mstore\n      0x20\n      add\n      swap1\n      dup2\n      mstore\n      0x20\n      add\n      0x00\n      keccak256\n        /* \"hotel_mangement_contract.sol\":1606:1633  room_by_no[_index].landlord */\n      0x07\n      add\n      0x01\n      swap1\n      sload\n      swap1\n      0x0100\n      exp\n      swap1\n      div\n      0xffffffffffffffffffffffffffffffffffffffff\n      and\n        /* \"hotel_mangement_contract.sol\":1592:1633  msg.sender != room_by_no[_index].landlord */\n      0xffffffffffffffffffffffffffffffffffffffff\n      and\n        /* \"hotel_mangement_contract.sol\":1592:1602  msg.sender */\n      caller\n        /* \"hotel_mangement_contract.sol\":1592:1633  msg.sender != room_by_no[_index].landlord */\n      0xffffffffffffffffffffffffffffffffffffffff\n      and\n      sub\n        /* \"hotel_mangement_contract.sol\":1583:1666  require (msg.sender != room_by_no[_index].landlord, \"Only tenants can access this\") */\n      tag_162\n      jumpi\n      mload(0x40)\n      0x08c379a000000000000000000000000000000000000000000000000000000000\n      dup2\n      mstore\n      0x04\n      add\n      tag_163\n      swap1\n      tag_164\n      jump\t// in\n    tag_163:\n      mload(0x40)\n      dup1\n      swap2\n      sub\n      swap1\n      revert\n    tag_162:\n        /* \"hotel_mangement_contract.sol\":3702:3708  _index */\n      dup3\n        /* \"hotel_mangement_contract.sol\":2111:2121  room_by_no */\n      0x05\n        /* \"hotel_mangement_contract.sol\":2111:2129  room_by_no[_index] */\n      0x00\n        /* \"hotel_mangement_contract.sol\":2122:2128  _index */\n      dup3\n        /* \"hotel_mangement_contract.sol\":2111:2129  room_by_no[_index] */\n      dup2\n      mstore\n      0x20\n      add\n      swap1\n      dup2\n      mstore\n      0x20\n      add\n      0x00\n      keccak256\n        /* \"hotel_mangement_contract.sol\":2111:2146  room_by_no[_index].security_deposit */\n      0x05\n      add\n      sload\n        /* \"hotel_mangement_contract.sol\":2075:2085  room_by_no */\n      0x05\n        /* \"hotel_mangement_contract.sol\":2075:2093  room_by_no[_index] */\n      0x00\n        /* \"hotel_mangement_contract.sol\":2086:2092  _index */\n      dup4\n        /* \"hotel_mangement_contract.sol\":2075:2093  room_by_no[_index] */\n      dup2\n      mstore\n      0x20\n      add\n      swap1\n      dup2\n      mstore\n      0x20\n      add\n      0x00\n      keccak256\n        /* \"hotel_mangement_contract.sol\":2075:2108  room_by_no[_index].rent_per_month */\n      0x04\n      add\n      sload\n        /* \"hotel_mangement_contract.sol\":2075:2146  room_by_no[_index].rent_per_month + room_by_no[_index].security_deposit */\n      tag_166\n      swap2\n      swap1\n      tag_71\n      jump\t// in\n    tag_166:\n        /* \"hotel_mangement_contract.sol\":2062:2071  msg.value */\n      callvalue\n        /* \"hotel_mangement_contract.sol\":2062:2146  msg.value >= room_by_no[_index].rent_per_month + room_by_no[_index].security_deposit */\n      lt\n      iszero\n        /* \"hotel_mangement_contract.sol\":2053:2147  require (msg.value >= room_by_no[_index].rent_per_month + room_by_no[_index].security_deposit) */\n      tag_167\n      jumpi\n      0x00\n      dup1\n      revert\n    tag_167:\n        /* \"hotel_mangement_contract.sol\":3728:3734  _index */\n      dup4\n        /* \"hotel_mangement_contract.sol\":1782:1786  true */\n      0x01\n        /* \"hotel_mangement_contract.sol\":1753:1786  room_by_no[_index].vacant == true */\n      iszero\n      iszero\n        /* \"hotel_mangement_contract.sol\":1753:1763  room_by_no */\n      0x05\n        /* \"hotel_mangement_contract.sol\":1753:1771  room_by_no[_index] */\n      0x00\n        /* \"hotel_mangement_contract.sol\":1764:1770  _index */\n      dup4\n        /* \"hotel_mangement_contract.sol\":1753:1771  room_by_no[_index] */\n      dup2\n      mstore\n      0x20\n      add\n      swap1\n      dup2\n      mstore\n      0x20\n      add\n      0x00\n      keccak256\n        /* \"hotel_mangement_contract.sol\":1753:1778  room_by_no[_index].vacant */\n      0x07\n      add\n      0x00\n      swap1\n      sload\n      swap1\n      0x0100\n      exp\n      swap1\n      div\n      0xff\n      and\n        /* \"hotel_mangement_contract.sol\":1753:1786  room_by_no[_index].vacant == true */\n      iszero\n      iszero\n      eq\n        /* \"hotel_mangement_contract.sol\":1744:1809  require (room_by_no[_index].vacant == true, \"Room is not vacant\") */\n      tag_169\n      jumpi\n      mload(0x40)\n      0x08c379a000000000000000000000000000000000000000000000000000000000\n      dup2\n      mstore\n      0x04\n      add\n      tag_170\n      swap1\n      tag_171\n      jump\t// in\n    tag_170:\n      mload(0x40)\n      dup1\n      swap2\n      sub\n      swap1\n      revert\n    tag_169:\n        /* \"hotel_mangement_contract.sol\":3776:3777  0 */\n      0x00\n        /* \"hotel_mangement_contract.sol\":3754:3778  msg.sender != address(0) */\n      0xffffffffffffffffffffffffffffffffffffffff\n      and\n        /* \"hotel_mangement_contract.sol\":3754:3764  msg.sender */\n      caller\n        /* \"hotel_mangement_contract.sol\":3754:3778  msg.sender != address(0) */\n      0xffffffffffffffffffffffffffffffffffffffff\n      and\n      sub\n        /* \"hotel_mangement_contract.sol\":3746:3779  require(msg.sender != address(0)) */\n      tag_173\n      jumpi\n      0x00\n      dup1\n      revert\n    tag_173:\n        /* \"hotel_mangement_contract.sol\":3790:3815  address payable _landlord */\n      0x00\n        /* \"hotel_mangement_contract.sol\":3818:3828  room_by_no */\n      0x05\n        /* \"hotel_mangement_contract.sol\":3818:3836  room_by_no[_index] */\n      0x00\n        /* \"hotel_mangement_contract.sol\":3829:3835  _index */\n      dup8\n        /* \"hotel_mangement_contract.sol\":3818:3836  room_by_no[_index] */\n      dup2\n      mstore\n      0x20\n      add\n      swap1\n      dup2\n      mstore\n      0x20\n      add\n      0x00\n      keccak256\n        /* \"hotel_mangement_contract.sol\":3818:3845  room_by_no[_index].landlord */\n      0x07\n      add\n      0x01\n      swap1\n      sload\n      swap1\n      0x0100\n      exp\n      swap1\n      div\n      0xffffffffffffffffffffffffffffffffffffffff\n      and\n        /* \"hotel_mangement_contract.sol\":3790:3845  address payable _landlord = room_by_no[_index].landlord */\n      swap1\n      pop\n        /* \"hotel_mangement_contract.sol\":3856:3870  uint total_fee */\n      0x00\n        /* \"hotel_mangement_contract.sol\":3909:3919  room_by_no */\n      0x05\n        /* \"hotel_mangement_contract.sol\":3909:3927  room_by_no[_index] */\n      0x00\n        /* \"hotel_mangement_contract.sol\":3920:3926  _index */\n      dup9\n        /* \"hotel_mangement_contract.sol\":3909:3927  room_by_no[_index] */\n      dup2\n      mstore\n      0x20\n      add\n      swap1\n      dup2\n      mstore\n      0x20\n      add\n      0x00\n      keccak256\n        /* \"hotel_mangement_contract.sol\":3909:3944  room_by_no[_index].security_deposit */\n      0x05\n      add\n      sload\n        /* \"hotel_mangement_contract.sol\":3873:3883  room_by_no */\n      0x05\n        /* \"hotel_mangement_contract.sol\":3873:3891  room_by_no[_index] */\n      0x00\n        /* \"hotel_mangement_contract.sol\":3884:3890  _index */\n      dup10\n        /* \"hotel_mangement_contract.sol\":3873:3891  room_by_no[_index] */\n      dup2\n      mstore\n      0x20\n      add\n      swap1\n      dup2\n      mstore\n      0x20\n      add\n      0x00\n      keccak256\n        /* \"hotel_mangement_contract.sol\":3873:3906  room_by_no[_index].rent_per_month */\n      0x04\n      add\n      sload\n        /* \"hotel_mangement_contract.sol\":3873:3944  room_by_no[_index].rent_per_month + room_by_no[_index].security_deposit */\n      tag_174\n      swap2\n      swap1\n      tag_71\n      jump\t// in\n    tag_174:\n        /* \"hotel_mangement_contract.sol\":3856:3944  uint total_fee = room_by_no[_index].rent_per_month + room_by_no[_index].security_deposit */\n      swap1\n      pop\n        /* \"hotel_mangement_contract.sol\":3956:3965  bool sent */\n      0x00\n        /* \"hotel_mangement_contract.sol\":3971:3980  _landlord */\n      dup3\n        /* \"hotel_mangement_contract.sol\":3971:3985  _landlord.call */\n      0xffffffffffffffffffffffffffffffffffffffff\n      and\n        /* \"hotel_mangement_contract.sol\":3994:4003  total_fee */\n      dup3\n        /* \"hotel_mangement_contract.sol\":3971:4008  _landlord.call{value : total_fee}(\"\") */\n      mload(0x40)\n      tag_175\n      swap1\n      tag_81\n      jump\t// in\n    tag_175:\n      0x00\n      mload(0x40)\n      dup1\n      dup4\n      sub\n      dup2\n      dup6\n      dup8\n      gas\n      call\n      swap3\n      pop\n      pop\n      pop\n      returndatasize\n      dup1\n      0x00\n      dup2\n      eq\n      tag_178\n      jumpi\n      mload(0x40)\n      swap2\n      pop\n      and(add(returndatasize, 0x3f), not(0x1f))\n      dup3\n      add\n      0x40\n      mstore\n      returndatasize\n      dup3\n      mstore\n      returndatasize\n      0x00\n      0x20\n      dup5\n      add\n      returndatacopy\n      jump(tag_177)\n    tag_178:\n      0x60\n      swap2\n      pop\n    tag_177:\n      pop\n        /* \"hotel_mangement_contract.sol\":3955:4008  (bool sent, ) = _landlord.call{value : total_fee}(\"\") */\n      pop\n      swap1\n      pop\n        /* \"hotel_mangement_contract.sol\":4027:4031  sent */\n      dup1\n        /* \"hotel_mangement_contract.sol\":4019:4060  require(sent, \"Failed to sign agreement\") */\n      tag_179\n      jumpi\n      mload(0x40)\n      0x08c379a000000000000000000000000000000000000000000000000000000000\n      dup2\n      mstore\n      0x04\n      add\n      tag_180\n      swap1\n      tag_181\n      jump\t// in\n    tag_180:\n      mload(0x40)\n      dup1\n      swap2\n      sub\n      swap1\n      revert\n    tag_179:\n        /* \"hotel_mangement_contract.sol\":4071:4086  no_of_aggrement */\n      0x03\n      0x00\n        /* \"hotel_mangement_contract.sol\":4071:4088  no_of_aggrement++ */\n      dup2\n      sload\n      dup1\n      swap3\n      swap2\n      swap1\n      tag_182\n      swap1\n      tag_91\n      jump\t// in\n    tag_182:\n      swap2\n      swap1\n      pop\n      sstore\n      pop\n        /* \"hotel_mangement_contract.sol\":4143:4153  msg.sender */\n      caller\n        /* \"hotel_mangement_contract.sol\":4099:4109  room_by_no */\n      0x05\n        /* \"hotel_mangement_contract.sol\":4099:4117  room_by_no[_index] */\n      0x00\n        /* \"hotel_mangement_contract.sol\":4110:4116  _index */\n      dup11\n        /* \"hotel_mangement_contract.sol\":4099:4117  room_by_no[_index] */\n      dup2\n      mstore\n      0x20\n      add\n      swap1\n      dup2\n      mstore\n      0x20\n      add\n      0x00\n      keccak256\n        /* \"hotel_mangement_contract.sol\":4099:4132  room_by_no[_index].current_tenant */\n      0x08\n      add\n      0x00\n        /* \"hotel_mangement_contract.sol\":4099:4154  room_by_no[_index].current_tenant = payable(msg.sender) */\n      0x0100\n      exp\n      dup2\n      sload\n      dup2\n      0xffffffffffffffffffffffffffffffffffffffff\n      mul\n      not\n      and\n      swap1\n      dup4\n      0xffffffffffffffffffffffffffffffffffffffff\n      and\n      mul\n      or\n      swap1\n      sstore\n      pop\n        /* \"hotel_mangement_contract.sol\":4196:4211  block.timestamp */\n      timestamp\n        /* \"hotel_mangement_contract.sol\":4165:4175  room_by_no */\n      0x05\n        /* \"hotel_mangement_contract.sol\":4165:4183  room_by_no[_index] */\n      0x00\n        /* \"hotel_mangement_contract.sol\":4176:4182  _index */\n      dup11\n        /* \"hotel_mangement_contract.sol\":4165:4183  room_by_no[_index] */\n      dup2\n      mstore\n      0x20\n      add\n      swap1\n      dup2\n      mstore\n      0x20\n      add\n      0x00\n      keccak256\n        /* \"hotel_mangement_contract.sol\":4165:4193  room_by_no[_index].timestamp */\n      0x06\n      add\n        /* \"hotel_mangement_contract.sol\":4165:4211  room_by_no[_index].timestamp = block.timestamp */\n      dup2\n      swap1\n      sstore\n      pop\n        /* \"hotel_mangement_contract.sol\":4266:4271  false */\n      0x00\n        /* \"hotel_mangement_contract.sol\":4238:4248  room_by_no */\n      0x05\n        /* \"hotel_mangement_contract.sol\":4238:4256  room_by_no[_index] */\n      0x00\n        /* \"hotel_mangement_contract.sol\":4249:4255  _index */\n      dup11\n        /* \"hotel_mangement_contract.sol\":4238:4256  room_by_no[_index] */\n      dup2\n      mstore\n      0x20\n      add\n      swap1\n      dup2\n      mstore\n      0x20\n      add\n      0x00\n      keccak256\n        /* \"hotel_mangement_contract.sol\":4238:4263  room_by_no[_index].vacant */\n      0x07\n      add\n      0x00\n        /* \"hotel_mangement_contract.sol\":4238:4271  room_by_no[_index].vacant = false */\n      0x0100\n      exp\n      dup2\n      sload\n      dup2\n      0xff\n      mul\n      not\n      and\n      swap1\n      dup4\n      iszero\n      iszero\n      mul\n      or\n      swap1\n      sstore\n      pop\n        /* \"hotel_mangement_contract.sol\":4316:4331  no_of_aggrement */\n      sload(0x03)\n        /* \"hotel_mangement_contract.sol\":4282:4292  room_by_no */\n      0x05\n        /* \"hotel_mangement_contract.sol\":4282:4300  room_by_no[_index] */\n      0x00\n        /* \"hotel_mangement_contract.sol\":4293:4299  _index */\n      dup11\n        /* \"hotel_mangement_contract.sol\":4282:4300  room_by_no[_index] */\n      dup2\n      mstore\n      0x20\n      add\n      swap1\n      dup2\n      mstore\n      0x20\n      add\n      0x00\n      keccak256\n        /* \"hotel_mangement_contract.sol\":4282:4313  room_by_no[_index].agreement_id */\n      0x01\n      add\n        /* \"hotel_mangement_contract.sol\":4282:4331  room_by_no[_index].agreement_id = no_of_aggrement */\n      dup2\n      swap1\n      sstore\n      pop\n        /* \"hotel_mangement_contract.sol\":4382:4615  RoomAgreement(_index, no_of_aggrement, room_by_no[_index].room_name, room_by_no[_index].room_address, room_by_no[_index].rent_per_month, room_by_no[_index].security_deposit, _duration, block.timestamp, payable(msg.sender), _landlord) */\n      mload(0x40)\n      dup1\n      0x0140\n      add\n      0x40\n      mstore\n      dup1\n        /* \"hotel_mangement_contract.sol\":4396:4402  _index */\n      dup10\n        /* \"hotel_mangement_contract.sol\":4382:4615  RoomAgreement(_index, no_of_aggrement, room_by_no[_index].room_name, room_by_no[_index].room_address, room_by_no[_index].rent_per_month, room_by_no[_index].security_deposit, _duration, block.timestamp, payable(msg.sender), _landlord) */\n      dup2\n      mstore\n      0x20\n      add\n        /* \"hotel_mangement_contract.sol\":4404:4419  no_of_aggrement */\n      sload(0x03)\n        /* \"hotel_mangement_contract.sol\":4382:4615  RoomAgreement(_index, no_of_aggrement, room_by_no[_index].room_name, room_by_no[_index].room_address, room_by_no[_index].rent_per_month, room_by_no[_index].security_deposit, _duration, block.timestamp, payable(msg.sender), _landlord) */\n      dup2\n      mstore\n      0x20\n      add\n        /* \"hotel_mangement_contract.sol\":4421:4431  room_by_no */\n      0x05\n        /* \"hotel_mangement_contract.sol\":4421:4439  room_by_no[_index] */\n      0x00\n        /* \"hotel_mangement_contract.sol\":4432:4438  _index */\n      dup12\n        /* \"hotel_mangement_contract.sol\":4421:4439  room_by_no[_index] */\n      dup2\n      mstore\n      0x20\n      add\n      swap1\n      dup2\n      mstore\n      0x20\n      add\n      0x00\n      keccak256\n        /* \"hotel_mangement_contract.sol\":4421:4449  room_by_no[_index].room_name */\n      0x02\n      add\n        /* \"hotel_mangement_contract.sol\":4382:4615  RoomAgreement(_index, no_of_aggrement, room_by_no[_index].room_name, room_by_no[_index].room_address, room_by_no[_index].rent_per_month, room_by_no[_index].security_deposit, _duration, block.timestamp, payable(msg.sender), _landlord) */\n      dup1\n      sload\n      tag_183\n      swap1\n      tag_96\n      jump\t// in\n    tag_183:\n      dup1\n      0x1f\n      add\n      0x20\n      dup1\n      swap2\n      div\n      mul\n      0x20\n      add\n      mload(0x40)\n      swap1\n      dup2\n      add\n      0x40\n      mstore\n      dup1\n      swap3\n      swap2\n      swap1\n      dup2\n      dup2\n      mstore\n      0x20\n      add\n      dup3\n      dup1\n      sload\n      tag_184\n      swap1\n      tag_96\n      jump\t// in\n    tag_184:\n      dup1\n      iszero\n      tag_185\n      jumpi\n      dup1\n      0x1f\n      lt\n      tag_186\n      jumpi\n      0x0100\n      dup1\n      dup4\n      sload\n      div\n      mul\n      dup4\n      mstore\n      swap2\n      0x20\n      add\n      swap2\n      jump(tag_185)\n    tag_186:\n      dup3\n      add\n      swap2\n      swap1\n      0x00\n      mstore\n      keccak256(0x00, 0x20)\n      swap1\n    tag_187:\n      dup2\n      sload\n      dup2\n      mstore\n      swap1\n      0x01\n      add\n      swap1\n      0x20\n      add\n      dup1\n      dup4\n      gt\n      tag_187\n      jumpi\n      dup3\n      swap1\n      sub\n      0x1f\n      and\n      dup3\n      add\n      swap2\n    tag_185:\n      pop\n      pop\n      pop\n      pop\n      pop\n      dup2\n      mstore\n      0x20\n      add\n        /* \"hotel_mangement_contract.sol\":4451:4461  room_by_no */\n      0x05\n        /* \"hotel_mangement_contract.sol\":4451:4469  room_by_no[_index] */\n      0x00\n        /* \"hotel_mangement_contract.sol\":4462:4468  _index */\n      dup12\n        /* \"hotel_mangement_contract.sol\":4451:4469  room_by_no[_index] */\n      dup2\n      mstore\n      0x20\n      add\n      swap1\n      dup2\n      mstore\n      0x20\n      add\n      0x00\n      keccak256\n        /* \"hotel_mangement_contract.sol\":4451:4482  room_by_no[_index].room_address */\n      0x03\n      add\n        /* \"hotel_mangement_contract.sol\":4382:4615  RoomAgreement(_index, no_of_aggrement, room_by_no[_index].room_name, room_by_no[_index].room_address, room_by_no[_index].rent_per_month, room_by_no[_index].security_deposit, _duration, block.timestamp, payable(msg.sender), _landlord) */\n      dup1\n      sload\n      tag_188\n      swap1\n      tag_96\n      jump\t// in\n    tag_188:\n      dup1\n      0x1f\n      add\n      0x20\n      dup1\n      swap2\n      div\n      mul\n      0x20\n      add\n      mload(0x40)\n      swap1\n      dup2\n      add\n      0x40\n      mstore\n      dup1\n      swap3\n      swap2\n      swap1\n      dup2\n      dup2\n      mstore\n      0x20\n      add\n      dup3\n      dup1\n      sload\n      tag_189\n      swap1\n      tag_96\n      jump\t// in\n    tag_189:\n      dup1\n      iszero\n      tag_190\n      jumpi\n      dup1\n      0x1f\n      lt\n      tag_191\n      jumpi\n      0x0100\n      dup1\n      dup4\n      sload\n      div\n      mul\n      dup4\n      mstore\n      swap2\n      0x20\n      add\n      swap2\n      jump(tag_190)\n    tag_191:\n      dup3\n      add\n      swap2\n      swap1\n      0x00\n      mstore\n      keccak256(0x00, 0x20)\n      swap1\n    tag_192:\n      dup2\n      sload\n      dup2\n      mstore\n      swap1\n      0x01\n      add\n      swap1\n      0x20\n      add\n      dup1\n      dup4\n      gt\n      tag_192\n      jumpi\n      dup3\n      swap1\n      sub\n      0x1f\n      and\n      dup3\n      add\n      swap2\n    tag_190:\n      pop\n      pop\n      pop\n      pop\n      pop\n      dup2\n      mstore\n      0x20\n      add\n        /* \"hotel_mangement_contract.sol\":4484:4494  room_by_no */\n      0x05\n        /* \"hotel_mangement_contract.sol\":4484:4502  room_by_no[_index] */\n      0x00\n        /* \"hotel_mangement_contract.sol\":4495:4501  _index */\n      dup12\n        /* \"hotel_mangement_contract.sol\":4484:4502  room_by_no[_index] */\n      dup2\n      mstore\n      0x20\n      add\n      swap1\n      dup2\n      mstore\n      0x20\n      add\n      0x00\n      keccak256\n        /* \"hotel_mangement_contract.sol\":4484:4517  room_by_no[_index].rent_per_month */\n      0x04\n      add\n      sload\n        /* \"hotel_mangement_contract.sol\":4382:4615  RoomAgreement(_index, no_of_aggrement, room_by_no[_index].room_name, room_by_no[_index].room_address, room_by_no[_index].rent_per_month, room_by_no[_index].security_deposit, _duration, block.timestamp, payable(msg.sender), _landlord) */\n      dup2\n      mstore\n      0x20\n      add\n        /* \"hotel_mangement_contract.sol\":4519:4529  room_by_no */\n      0x05\n        /* \"hotel_mangement_contract.sol\":4519:4537  room_by_no[_index] */\n      0x00\n        /* \"hotel_mangement_contract.sol\":4530:4536  _index */\n      dup12\n        /* \"hotel_mangement_contract.sol\":4519:4537  room_by_no[_index] */\n      dup2\n      mstore\n      0x20\n      add\n      swap1\n      dup2\n      mstore\n      0x20\n      add\n      0x00\n      keccak256\n        /* \"hotel_mangement_contract.sol\":4519:4554  room_by_no[_index].security_deposit */\n      0x05\n      add\n      sload\n        /* \"hotel_mangement_contract.sol\":4382:4615  RoomAgreement(_index, no_of_aggrement, room_by_no[_index].room_name, room_by_no[_index].room_address, room_by_no[_index].rent_per_month, room_by_no[_index].security_deposit, _duration, block.timestamp, payable(msg.sender), _landlord) */\n      dup2\n      mstore\n      0x20\n      add\n        /* \"hotel_mangement_contract.sol\":4556:4565  _duration */\n      dup9\n        /* \"hotel_mangement_contract.sol\":4382:4615  RoomAgreement(_index, no_of_aggrement, room_by_no[_index].room_name, room_by_no[_index].room_address, room_by_no[_index].rent_per_month, room_by_no[_index].security_deposit, _duration, block.timestamp, payable(msg.sender), _landlord) */\n      dup2\n      mstore\n      0x20\n      add\n        /* \"hotel_mangement_contract.sol\":4567:4582  block.timestamp */\n      timestamp\n        /* \"hotel_mangement_contract.sol\":4382:4615  RoomAgreement(_index, no_of_aggrement, room_by_no[_index].room_name, room_by_no[_index].room_address, room_by_no[_index].rent_per_month, room_by_no[_index].security_deposit, _duration, block.timestamp, payable(msg.sender), _landlord) */\n      dup2\n      mstore\n      0x20\n      add\n        /* \"hotel_mangement_contract.sol\":4592:4602  msg.sender */\n      caller\n        /* \"hotel_mangement_contract.sol\":4382:4615  RoomAgreement(_index, no_of_aggrement, room_by_no[_index].room_name, room_by_no[_index].room_address, room_by_no[_index].rent_per_month, room_by_no[_index].security_deposit, _duration, block.timestamp, payable(msg.sender), _landlord) */\n      0xffffffffffffffffffffffffffffffffffffffff\n      and\n      dup2\n      mstore\n      0x20\n      add\n        /* \"hotel_mangement_contract.sol\":4605:4614  _landlord */\n      dup5\n        /* \"hotel_mangement_contract.sol\":4382:4615  RoomAgreement(_index, no_of_aggrement, room_by_no[_index].room_name, room_by_no[_index].room_address, room_by_no[_index].rent_per_month, room_by_no[_index].security_deposit, _duration, block.timestamp, payable(msg.sender), _landlord) */\n      0xffffffffffffffffffffffffffffffffffffffff\n      and\n      dup2\n      mstore\n      pop\n        /* \"hotel_mangement_contract.sol\":4342:4362  room_agreement_by_no */\n      0x06\n        /* \"hotel_mangement_contract.sol\":4342:4379  room_agreement_by_no[no_of_aggrement] */\n      0x00\n        /* \"hotel_mangement_contract.sol\":4363:4378  no_of_aggrement */\n      sload(0x03)\n        /* \"hotel_mangement_contract.sol\":4342:4379  room_agreement_by_no[no_of_aggrement] */\n      dup2\n      mstore\n      0x20\n      add\n      swap1\n      dup2\n      mstore\n      0x20\n      add\n      0x00\n      keccak256\n        /* \"hotel_mangement_contract.sol\":4342:4615  room_agreement_by_no[no_of_aggrement] = RoomAgreement(_index, no_of_aggrement, room_by_no[_index].room_name, room_by_no[_index].room_address, room_by_no[_index].rent_per_month, room_by_no[_index].security_deposit, _duration, block.timestamp, payable(msg.sender), _landlord) */\n      0x00\n      dup3\n      add\n      mload\n      dup2\n      0x00\n      add\n      sstore\n      0x20\n      dup3\n      add\n      mload\n      dup2\n      0x01\n      add\n      sstore\n      0x40\n      dup3\n      add\n      mload\n      dup2\n      0x02\n      add\n      swap1\n      dup2\n      tag_193\n      swap2\n      swap1\n      tag_93\n      jump\t// in\n    tag_193:\n      pop\n      0x60\n      dup3\n      add\n      mload\n      dup2\n      0x03\n      add\n      swap1\n      dup2\n      tag_194\n      swap2\n      swap1\n      tag_93\n      jump\t// in\n    tag_194:\n      pop\n      0x80\n      dup3\n      add\n      mload\n      dup2\n      0x04\n      add\n      sstore\n      0xa0\n      dup3\n      add\n      mload\n      dup2\n      0x05\n      add\n      sstore\n      0xc0\n      dup3\n      add\n      mload\n      dup2\n      0x06\n      add\n      sstore\n      0xe0\n      dup3\n      add\n      mload\n      dup2\n      0x07\n      add\n      sstore\n      0x0100\n      dup3\n      add\n      mload\n      dup2\n      0x08\n      add\n      exp(0x0100, 0x00)\n      dup2\n      sload\n      dup2\n      0xffffffffffffffffffffffffffffffffffffffff\n      mul\n      not\n      and\n      swap1\n      dup4\n      0xffffffffffffffffffffffffffffffffffffffff\n      and\n      mul\n      or\n      swap1\n      sstore\n      pop\n      0x0120\n      dup3\n      add\n      mload\n      dup2\n      0x09\n      add\n      exp(0x0100, 0x00)\n      dup2\n      sload\n      dup2\n      0xffffffffffffffffffffffffffffffffffffffff\n      mul\n      not\n      and\n      swap1\n      dup4\n      0xffffffffffffffffffffffffffffffffffffffff\n      and\n      mul\n      or\n      swap1\n      sstore\n      pop\n      swap1\n      pop\n      pop\n        /* \"hotel_mangement_contract.sol\":4626:4636  no_of_rent */\n      0x04\n      0x00\n        /* \"hotel_mangement_contract.sol\":4626:4638  no_of_rent++ */\n      dup2\n      sload\n      dup1\n      swap3\n      swap2\n      swap1\n      tag_195\n      swap1\n      tag_91\n      jump\t// in\n    tag_195:\n      swap2\n      swap1\n      pop\n      sstore\n      pop\n        /* \"hotel_mangement_contract.sol\":4674:4862  Rent(no_of_rent, _index, no_of_aggrement, room_by_no[_index].room_name, room_by_no[_index].room_address, room_by_no[_index].rent_per_month, block.timestamp, payable(msg.sender), _landlord) */\n      mload(0x40)\n      dup1\n      0x0120\n      add\n      0x40\n      mstore\n      dup1\n        /* \"hotel_mangement_contract.sol\":4679:4689  no_of_rent */\n      sload(0x04)\n        /* \"hotel_mangement_contract.sol\":4674:4862  Rent(no_of_rent, _index, no_of_aggrement, room_by_no[_index].room_name, room_by_no[_index].room_address, room_by_no[_index].rent_per_month, block.timestamp, payable(msg.sender), _landlord) */\n      dup2\n      mstore\n      0x20\n      add\n        /* \"hotel_mangement_contract.sol\":4691:4697  _index */\n      dup10\n        /* \"hotel_mangement_contract.sol\":4674:4862  Rent(no_of_rent, _index, no_of_aggrement, room_by_no[_index].room_name, room_by_no[_index].room_address, room_by_no[_index].rent_per_month, block.timestamp, payable(msg.sender), _landlord) */\n      dup2\n      mstore\n      0x20\n      add\n        /* \"hotel_mangement_contract.sol\":4699:4714  no_of_aggrement */\n      sload(0x03)\n        /* \"hotel_mangement_contract.sol\":4674:4862  Rent(no_of_rent, _index, no_of_aggrement, room_by_no[_index].room_name, room_by_no[_index].room_address, room_by_no[_index].rent_per_month, block.timestamp, payable(msg.sender), _landlord) */\n      dup2\n      mstore\n      0x20\n      add\n        /* \"hotel_mangement_contract.sol\":4716:4726  room_by_no */\n      0x05\n        /* \"hotel_mangement_contract.sol\":4716:4734  room_by_no[_index] */\n      0x00\n        /* \"hotel_mangement_contract.sol\":4727:4733  _index */\n      dup12\n        /* \"hotel_mangement_contract.sol\":4716:4734  room_by_no[_index] */\n      dup2\n      mstore\n      0x20\n      add\n      swap1\n      dup2\n      mstore\n      0x20\n      add\n      0x00\n      keccak256\n        /* \"hotel_mangement_contract.sol\":4716:4744  room_by_no[_index].room_name */\n      0x02\n      add\n        /* \"hotel_mangement_contract.sol\":4674:4862  Rent(no_of_rent, _index, no_of_aggrement, room_by_no[_index].room_name, room_by_no[_index].room_address, room_by_no[_index].rent_per_month, block.timestamp, payable(msg.sender), _landlord) */\n      dup1\n      sload\n      tag_196\n      swap1\n      tag_96\n      jump\t// in\n    tag_196:\n      dup1\n      0x1f\n      add\n      0x20\n      dup1\n      swap2\n      div\n      mul\n      0x20\n      add\n      mload(0x40)\n      swap1\n      dup2\n      add\n      0x40\n      mstore\n      dup1\n      swap3\n      swap2\n      swap1\n      dup2\n      dup2\n      mstore\n      0x20\n      add\n      dup3\n      dup1\n      sload\n      tag_197\n      swap1\n      tag_96\n      jump\t// in\n    tag_197:\n      dup1\n      iszero\n      tag_198\n      jumpi\n      dup1\n      0x1f\n      lt\n      tag_199\n      jumpi\n      0x0100\n      dup1\n      dup4\n      sload\n      div\n      mul\n      dup4\n      mstore\n      swap2\n      0x20\n      add\n      swap2\n      jump(tag_198)\n    tag_199:\n      dup3\n      add\n      swap2\n      swap1\n      0x00\n      mstore\n      keccak256(0x00, 0x20)\n      swap1\n    tag_200:\n      dup2\n      sload\n      dup2\n      mstore\n      swap1\n      0x01\n      add\n      swap1\n      0x20\n      add\n      dup1\n      dup4\n      gt\n      tag_200\n      jumpi\n      dup3\n      swap1\n      sub\n      0x1f\n      and\n      dup3\n      add\n      swap2\n    tag_198:\n      pop\n      pop\n      pop\n      pop\n      pop\n      dup2\n      mstore\n      0x20\n      add\n        /* \"hotel_mangement_contract.sol\":4746:4756  room_by_no */\n      0x05\n        /* \"hotel_mangement_contract.sol\":4746:4764  room_by_no[_index] */\n      0x00\n        /* \"hotel_mangement_contract.sol\":4757:4763  _index */\n      dup12\n        /* \"hotel_mangement_contract.sol\":4746:4764  room_by_no[_index] */\n      dup2\n      mstore\n      0x20\n      add\n      swap1\n      dup2\n      mstore\n      0x20\n      add\n      0x00\n      keccak256\n        /* \"hotel_mangement_contract.sol\":4746:4777  room_by_no[_index].room_address */\n      0x03\n      add\n        /* \"hotel_mangement_contract.sol\":4674:4862  Rent(no_of_rent, _index, no_of_aggrement, room_by_no[_index].room_name, room_by_no[_index].room_address, room_by_no[_index].rent_per_month, block.timestamp, payable(msg.sender), _landlord) */\n      dup1\n      sload\n      tag_201\n      swap1\n      tag_96\n      jump\t// in\n    tag_201:\n      dup1\n      0x1f\n      add\n      0x20\n      dup1\n      swap2\n      div\n      mul\n      0x20\n      add\n      mload(0x40)\n      swap1\n      dup2\n      add\n      0x40\n      mstore\n      dup1\n      swap3\n      swap2\n      swap1\n      dup2\n      dup2\n      mstore\n      0x20\n      add\n      dup3\n      dup1\n      sload\n      tag_202\n      swap1\n      tag_96\n      jump\t// in\n    tag_202:\n      dup1\n      iszero\n      tag_203\n      jumpi\n      dup1\n      0x1f\n      lt\n      tag_204\n      jumpi\n      0x0100\n      dup1\n      dup4\n      sload\n      div\n      mul\n      dup4\n      mstore\n      swap2\n      0x20\n      add\n      swap2\n      jump(tag_203)\n    tag_204:\n      dup3\n      add\n      swap2\n      swap1\n      0x00\n      mstore\n      keccak256(0x00, 0x20)\n      swap1\n    tag_205:\n      dup2\n      sload\n      dup2\n      mstore\n      swap1\n      0x01\n      add\n      swap1\n      0x20\n      add\n      dup1\n      dup4\n      gt\n      tag_205\n      jumpi\n      dup3\n      swap1\n      sub\n      0x1f\n      and\n      dup3\n      add\n      swap2\n    tag_203:\n      pop\n      pop\n      pop\n      pop\n      pop\n      dup2\n      mstore\n      0x20\n      add\n        /* \"hotel_mangement_contract.sol\":4779:4789  room_by_no */\n      0x05\n        /* \"hotel_mangement_contract.sol\":4779:4797  room_by_no[_index] */\n      0x00\n        /* \"hotel_mangement_contract.sol\":4790:4796  _index */\n      dup12\n        /* \"hotel_mangement_contract.sol\":4779:4797  room_by_no[_index] */\n      dup2\n      mstore\n      0x20\n      add\n      swap1\n      dup2\n      mstore\n      0x20\n      add\n      0x00\n      keccak256\n        /* \"hotel_mangement_contract.sol\":4779:4812  room_by_no[_index].rent_per_month */\n      0x04\n      add\n      sload\n        /* \"hotel_mangement_contract.sol\":4674:4862  Rent(no_of_rent, _index, no_of_aggrement, room_by_no[_index].room_name, room_by_no[_index].room_address, room_by_no[_index].rent_per_month, block.timestamp, payable(msg.sender), _landlord) */\n      dup2\n      mstore\n      0x20\n      add\n        /* \"hotel_mangement_contract.sol\":4814:4829  block.timestamp */\n      timestamp\n        /* \"hotel_mangement_contract.sol\":4674:4862  Rent(no_of_rent, _index, no_of_aggrement, room_by_no[_index].room_name, room_by_no[_index].room_address, room_by_no[_index].rent_per_month, block.timestamp, payable(msg.sender), _landlord) */\n      dup2\n      mstore\n      0x20\n      add\n        /* \"hotel_mangement_contract.sol\":4839:4849  msg.sender */\n      caller\n        /* \"hotel_mangement_contract.sol\":4674:4862  Rent(no_of_rent, _index, no_of_aggrement, room_by_no[_index].room_name, room_by_no[_index].room_address, room_by_no[_index].rent_per_month, block.timestamp, payable(msg.sender), _landlord) */\n      0xffffffffffffffffffffffffffffffffffffffff\n      and\n      dup2\n      mstore\n      0x20\n      add\n        /* \"hotel_mangement_contract.sol\":4852:4861  _landlord */\n      dup5\n        /* \"hotel_mangement_contract.sol\":4674:4862  Rent(no_of_rent, _index, no_of_aggrement, room_by_no[_index].room_name, room_by_no[_index].room_address, room_by_no[_index].rent_per_month, block.timestamp, payable(msg.sender), _landlord) */\n      0xffffffffffffffffffffffffffffffffffffffff\n      and\n      dup2\n      mstore\n      pop\n        /* \"hotel_mangement_contract.sol\":4649:4659  rent_by_no */\n      0x07\n        /* \"hotel_mangement_contract.sol\":4649:4671  rent_by_no[no_of_rent] */\n      0x00\n        /* \"hotel_mangement_contract.sol\":4660:4670  no_of_rent */\n      sload(0x04)\n        /* \"hotel_mangement_contract.sol\":4649:4671  rent_by_no[no_of_rent] */\n      dup2\n      mstore\n      0x20\n      add\n      swap1\n      dup2\n      mstore\n      0x20\n      add\n      0x00\n      keccak256\n        /* \"hotel_mangement_contract.sol\":4649:4862  rent_by_no[no_of_rent] = Rent(no_of_rent, _index, no_of_aggrement, room_by_no[_index].room_name, room_by_no[_index].room_address, room_by_no[_index].rent_per_month, block.timestamp, payable(msg.sender), _landlord) */\n      0x00\n      dup3\n      add\n      mload\n      dup2\n      0x00\n      add\n      sstore\n      0x20\n      dup3\n      add\n      mload\n      dup2\n      0x01\n      add\n      sstore\n      0x40\n      dup3\n      add\n      mload\n      dup2\n      0x02\n      add\n      sstore\n      0x60\n      dup3\n      add\n      mload\n      dup2\n      0x03\n      add\n      swap1\n      dup2\n      tag_206\n      swap2\n      swap1\n      tag_93\n      jump\t// in\n    tag_206:\n      pop\n      0x80\n      dup3\n      add\n      mload\n      dup2\n      0x04\n      add\n      swap1\n      dup2\n      tag_207\n      swap2\n      swap1\n      tag_93\n      jump\t// in\n    tag_207:\n      pop\n      0xa0\n      dup3\n      add\n      mload\n      dup2\n      0x05\n      add\n      sstore\n      0xc0\n      dup3\n      add\n      mload\n      dup2\n      0x06\n      add\n      sstore\n      0xe0\n      dup3\n      add\n      mload\n      dup2\n      0x07\n      add\n      exp(0x0100, 0x00)\n      dup2\n      sload\n      dup2\n      0xffffffffffffffffffffffffffffffffffffffff\n      mul\n      not\n      and\n      swap1\n      dup4\n      0xffffffffffffffffffffffffffffffffffffffff\n      and\n      mul\n      or\n      swap1\n      sstore\n      pop\n      0x0100\n      dup3\n      add\n      mload\n      dup2\n      0x08\n      add\n      exp(0x0100, 0x00)\n      dup2\n      sload\n      dup2\n      0xffffffffffffffffffffffffffffffffffffffff\n      mul\n      not\n      and\n      swap1\n      dup4\n      0xffffffffffffffffffffffffffffffffffffffff\n      and\n      mul\n      or\n      swap1\n      sstore\n      pop\n      swap1\n      pop\n      pop\n        /* \"hotel_mangement_contract.sol\":3735:4870  {... */\n      pop\n      pop\n      pop\n        /* \"hotel_mangement_contract.sol\":2158:2159  _ */\n      pop\n        /* \"hotel_mangement_contract.sol\":1677:1678  _ */\n      pop\n        /* \"hotel_mangement_contract.sol\":3593:4870  function signAgreement(uint _index, uint _duration) public payable not_landlord(_index) enough_agreement_fee(_index) only_while_vacant(_index){... */\n      pop\n      pop\n      pop\n      jump\t// out\n        /* \"hotel_mangement_contract.sol\":1331:1371  mapping (uint => Rent) public rent_by_no */\n    tag_62:\n      mstore(0x20, 0x07)\n      dup1\n      0x00\n      mstore\n      keccak256(0x00, 0x40)\n      0x00\n      swap2\n      pop\n      swap1\n      pop\n      dup1\n      0x00\n      add\n      sload\n      swap1\n      dup1\n      0x01\n      add\n      sload\n      swap1\n      dup1\n      0x02\n      add\n      sload\n      swap1\n      dup1\n      0x03\n      add\n      dup1\n      sload\n      tag_208\n      swap1\n      tag_96\n      jump\t// in\n    tag_208:\n      dup1\n      0x1f\n      add\n      0x20\n      dup1\n      swap2\n      div\n      mul\n      0x20\n      add\n      mload(0x40)\n      swap1\n      dup2\n      add\n      0x40\n      mstore\n      dup1\n      swap3\n      swap2\n      swap1\n      dup2\n      dup2\n      mstore\n      0x20\n      add\n      dup3\n      dup1\n      sload\n      tag_209\n      swap1\n      tag_96\n      jump\t// in\n    tag_209:\n      dup1\n      iszero\n      tag_210\n      jumpi\n      dup1\n      0x1f\n      lt\n      tag_211\n      jumpi\n      0x0100\n      dup1\n      dup4\n      sload\n      div\n      mul\n      dup4\n      mstore\n      swap2\n      0x20\n      add\n      swap2\n      jump(tag_210)\n    tag_211:\n      dup3\n      add\n      swap2\n      swap1\n      0x00\n      mstore\n      keccak256(0x00, 0x20)\n      swap1\n    tag_212:\n      dup2\n      sload\n      dup2\n      mstore\n      swap1\n      0x01\n      add\n      swap1\n      0x20\n      add\n      dup1\n      dup4\n      gt\n      tag_212\n      jumpi\n      dup3\n      swap1\n      sub\n      0x1f\n      and\n      dup3\n      add\n      swap2\n    tag_210:\n      pop\n      pop\n      pop\n      pop\n      pop\n      swap1\n      dup1\n      0x04\n      add\n      dup1\n      sload\n      tag_213\n      swap1\n      tag_96\n      jump\t// in\n    tag_213:\n      dup1\n      0x1f\n      add\n      0x20\n      dup1\n      swap2\n      div\n      mul\n      0x20\n      add\n      mload(0x40)\n      swap1\n      dup2\n      add\n      0x40\n      mstore\n      dup1\n      swap3\n      swap2\n      swap1\n      dup2\n      dup2\n      mstore\n      0x20\n      add\n      dup3\n      dup1\n      sload\n      tag_214\n      swap1\n      tag_96\n      jump\t// in\n    tag_214:\n      dup1\n      iszero\n      tag_215\n      jumpi\n      dup1\n      0x1f\n      lt\n      tag_216\n      jumpi\n      0x0100\n      dup1\n      dup4\n      sload\n      div\n      mul\n      dup4\n      mstore\n      swap2\n      0x20\n      add\n      swap2\n      jump(tag_215)\n    tag_216:\n      dup3\n      add\n      swap2\n      swap1\n      0x00\n      mstore\n      keccak256(0x00, 0x20)\n      swap1\n    tag_217:\n      dup2\n      sload\n      dup2\n      mstore\n      swap1\n      0x01\n      add\n      swap1\n      0x20\n      add\n      dup1\n      dup4\n      gt\n      tag_217\n      jumpi\n      dup3\n      swap1\n      sub\n      0x1f\n      and\n      dup3\n      add\n      swap2\n    tag_215:\n      pop\n      pop\n      pop\n      pop\n      pop\n      swap1\n      dup1\n      0x05\n      add\n      sload\n      swap1\n      dup1\n      0x06\n      add\n      sload\n      swap1\n      dup1\n      0x07\n      add\n      0x00\n      swap1\n      sload\n      swap1\n      0x0100\n      exp\n      swap1\n      div\n      0xffffffffffffffffffffffffffffffffffffffff\n      and\n      swap1\n      dup1\n      0x08\n      add\n      0x00\n      swap1\n      sload\n      swap1\n      0x0100\n      exp\n      swap1\n      div\n      0xffffffffffffffffffffffffffffffffffffffff\n      and\n      swap1\n      pop\n      dup10\n      jump\t// out\n        /* \"#utility.yul\":7:82   */\n    tag_218:\n        /* \"#utility.yul\":40:46   */\n      0x00\n        /* \"#utility.yul\":73:75   */\n      0x40\n        /* \"#utility.yul\":67:76   */\n      mload\n        /* \"#utility.yul\":57:76   */\n      swap1\n      pop\n        /* \"#utility.yul\":7:82   */\n      swap1\n      jump\t// out\n        /* \"#utility.yul\":88:205   */\n    tag_219:\n        /* \"#utility.yul\":197:198   */\n      0x00\n        /* \"#utility.yul\":194:195   */\n      dup1\n        /* \"#utility.yul\":187:199   */\n      revert\n        /* \"#utility.yul\":211:328   */\n    tag_220:\n        /* \"#utility.yul\":320:321   */\n      0x00\n        /* \"#utility.yul\":317:318   */\n      dup1\n        /* \"#utility.yul\":310:322   */\n      revert\n        /* \"#utility.yul\":334:411   */\n    tag_221:\n        /* \"#utility.yul\":371:378   */\n      0x00\n        /* \"#utility.yul\":400:405   */\n      dup2\n        /* \"#utility.yul\":389:405   */\n      swap1\n      pop\n        /* \"#utility.yul\":334:411   */\n      swap2\n      swap1\n      pop\n      jump\t// out\n        /* \"#utility.yul\":417:539   */\n    tag_222:\n        /* \"#utility.yul\":490:514   */\n      tag_294\n        /* \"#utility.yul\":508:513   */\n      dup2\n        /* \"#utility.yul\":490:514   */\n      tag_221\n      jump\t// in\n    tag_294:\n        /* \"#utility.yul\":483:488   */\n      dup2\n        /* \"#utility.yul\":480:515   */\n      eq\n        /* \"#utility.yul\":470:533   */\n      tag_295\n      jumpi\n        /* \"#utility.yul\":529:530   */\n      0x00\n        /* \"#utility.yul\":526:527   */\n      dup1\n        /* \"#utility.yul\":519:531   */\n      revert\n        /* \"#utility.yul\":470:533   */\n    tag_295:\n        /* \"#utility.yul\":417:539   */\n      pop\n      jump\t// out\n        /* \"#utility.yul\":545:684   */\n    tag_223:\n        /* \"#utility.yul\":591:596   */\n      0x00\n        /* \"#utility.yul\":629:635   */\n      dup2\n        /* \"#utility.yul\":616:636   */\n      calldataload\n        /* \"#utility.yul\":607:636   */\n      swap1\n      pop\n        /* \"#utility.yul\":645:678   */\n      tag_297\n        /* \"#utility.yul\":672:677   */\n      dup2\n        /* \"#utility.yul\":645:678   */\n      tag_222\n      jump\t// in\n    tag_297:\n        /* \"#utility.yul\":545:684   */\n      swap3\n      swap2\n      pop\n      pop\n      jump\t// out\n        /* \"#utility.yul\":690:1019   */\n    tag_16:\n        /* \"#utility.yul\":749:755   */\n      0x00\n        /* \"#utility.yul\":798:800   */\n      0x20\n        /* \"#utility.yul\":786:795   */\n      dup3\n        /* \"#utility.yul\":777:784   */\n      dup5\n        /* \"#utility.yul\":773:796   */\n      sub\n        /* \"#utility.yul\":769:801   */\n      slt\n        /* \"#utility.yul\":766:885   */\n      iszero\n      tag_299\n      jumpi\n        /* \"#utility.yul\":804:883   */\n      tag_300\n      tag_219\n      jump\t// in\n    tag_300:\n        /* \"#utility.yul\":766:885   */\n    tag_299:\n        /* \"#utility.yul\":924:925   */\n      0x00\n        /* \"#utility.yul\":949:1002   */\n      tag_301\n        /* \"#utility.yul\":994:1001   */\n      dup5\n        /* \"#utility.yul\":985:991   */\n      dup3\n        /* \"#utility.yul\":974:983   */\n      dup6\n        /* \"#utility.yul\":970:992   */\n      add\n        /* \"#utility.yul\":949:1002   */\n      tag_223\n      jump\t// in\n    tag_301:\n        /* \"#utility.yul\":939:1002   */\n      swap2\n      pop\n        /* \"#utility.yul\":895:1012   */\n      pop\n        /* \"#utility.yul\":690:1019   */\n      swap3\n      swap2\n      pop\n      pop\n      jump\t// out\n        /* \"#utility.yul\":1025:1142   */\n    tag_224:\n        /* \"#utility.yul\":1134:1135   */\n      0x00\n        /* \"#utility.yul\":1131:1132   */\n      dup1\n        /* \"#utility.yul\":1124:1136   */\n      revert\n        /* \"#utility.yul\":1148:1265   */\n    tag_225:\n        /* \"#utility.yul\":1257:1258   */\n      0x00\n        /* \"#utility.yul\":1254:1255   */\n      dup1\n        /* \"#utility.yul\":1247:1259   */\n      revert\n        /* \"#utility.yul\":1271:1373   */\n    tag_226:\n        /* \"#utility.yul\":1312:1318   */\n      0x00\n        /* \"#utility.yul\":1363:1365   */\n      0x1f\n        /* \"#utility.yul\":1359:1366   */\n      not\n        /* \"#utility.yul\":1354:1356   */\n      0x1f\n        /* \"#utility.yul\":1347:1352   */\n      dup4\n        /* \"#utility.yul\":1343:1357   */\n      add\n        /* \"#utility.yul\":1339:1367   */\n      and\n        /* \"#utility.yul\":1329:1367   */\n      swap1\n      pop\n        /* \"#utility.yul\":1271:1373   */\n      swap2\n      swap1\n      pop\n      jump\t// out\n        /* \"#utility.yul\":1379:1559   */\n    tag_227:\n        /* \"#utility.yul\":1427:1504   */\n      0x4e487b7100000000000000000000000000000000000000000000000000000000\n        /* \"#utility.yul\":1424:1425   */\n      0x00\n        /* \"#utility.yul\":1417:1505   */\n      mstore\n        /* \"#utility.yul\":1524:1528   */\n      0x41\n        /* \"#utility.yul\":1521:1522   */\n      0x04\n        /* \"#utility.yul\":1514:1529   */\n      mstore\n        /* \"#utility.yul\":1548:1552   */\n      0x24\n        /* \"#utility.yul\":1545:1546   */\n      0x00\n        /* \"#utility.yul\":1538:1553   */\n      revert\n        /* \"#utility.yul\":1565:1846   */\n    tag_228:\n        /* \"#utility.yul\":1648:1675   */\n      tag_307\n        /* \"#utility.yul\":1670:1674   */\n      dup3\n        /* \"#utility.yul\":1648:1675   */\n      tag_226\n      jump\t// in\n    tag_307:\n        /* \"#utility.yul\":1640:1646   */\n      dup2\n        /* \"#utility.yul\":1636:1676   */\n      add\n        /* \"#utility.yul\":1778:1784   */\n      dup2\n        /* \"#utility.yul\":1766:1776   */\n      dup2\n        /* \"#utility.yul\":1763:1785   */\n      lt\n        /* \"#utility.yul\":1742:1760   */\n      0xffffffffffffffff\n        /* \"#utility.yul\":1730:1740   */\n      dup3\n        /* \"#utility.yul\":1727:1761   */\n      gt\n        /* \"#utility.yul\":1724:1786   */\n      or\n        /* \"#utility.yul\":1721:1809   */\n      iszero\n      tag_308\n      jumpi\n        /* \"#utility.yul\":1789:1807   */\n      tag_309\n      tag_227\n      jump\t// in\n    tag_309:\n        /* \"#utility.yul\":1721:1809   */\n    tag_308:\n        /* \"#utility.yul\":1829:1839   */\n      dup1\n        /* \"#utility.yul\":1825:1827   */\n      0x40\n        /* \"#utility.yul\":1818:1840   */\n      mstore\n        /* \"#utility.yul\":1608:1846   */\n      pop\n        /* \"#utility.yul\":1565:1846   */\n      pop\n      pop\n      jump\t// out\n        /* \"#utility.yul\":1852:1981   */\n    tag_229:\n        /* \"#utility.yul\":1886:1892   */\n      0x00\n        /* \"#utility.yul\":1913:1933   */\n      tag_311\n      tag_218\n      jump\t// in\n    tag_311:\n        /* \"#utility.yul\":1903:1933   */\n      swap1\n      pop\n        /* \"#utility.yul\":1942:1975   */\n      tag_312\n        /* \"#utility.yul\":1970:1974   */\n      dup3\n        /* \"#utility.yul\":1962:1968   */\n      dup3\n        /* \"#utility.yul\":1942:1975   */\n      tag_228\n      jump\t// in\n    tag_312:\n        /* \"#utility.yul\":1852:1981   */\n      swap2\n      swap1\n      pop\n      jump\t// out\n        /* \"#utility.yul\":1987:2295   */\n    tag_230:\n        /* \"#utility.yul\":2049:2053   */\n      0x00\n        /* \"#utility.yul\":2139:2157   */\n      0xffffffffffffffff\n        /* \"#utility.yul\":2131:2137   */\n      dup3\n        /* \"#utility.yul\":2128:2158   */\n      gt\n        /* \"#utility.yul\":2125:2181   */\n      iszero\n      tag_314\n      jumpi\n        /* \"#utility.yul\":2161:2179   */\n      tag_315\n      tag_227\n      jump\t// in\n    tag_315:\n        /* \"#utility.yul\":2125:2181   */\n    tag_314:\n        /* \"#utility.yul\":2199:2228   */\n      tag_316\n        /* \"#utility.yul\":2221:2227   */\n      dup3\n        /* \"#utility.yul\":2199:2228   */\n      tag_226\n      jump\t// in\n    tag_316:\n        /* \"#utility.yul\":2191:2228   */\n      swap1\n      pop\n        /* \"#utility.yul\":2283:2287   */\n      0x20\n        /* \"#utility.yul\":2277:2281   */\n      dup2\n        /* \"#utility.yul\":2273:2288   */\n      add\n        /* \"#utility.yul\":2265:2288   */\n      swap1\n      pop\n        /* \"#utility.yul\":1987:2295   */\n      swap2\n      swap1\n      pop\n      jump\t// out\n        /* \"#utility.yul\":2301:2449   */\n    tag_231:\n        /* \"#utility.yul\":2399:2405   */\n      dup3\n        /* \"#utility.yul\":2394:2397   */\n      dup2\n        /* \"#utility.yul\":2389:2392   */\n      dup4\n        /* \"#utility.yul\":2376:2406   */\n      calldatacopy\n        /* \"#utility.yul\":2440:2441   */\n      0x00\n        /* \"#utility.yul\":2431:2437   */\n      dup4\n        /* \"#utility.yul\":2426:2429   */\n      dup4\n        /* \"#utility.yul\":2422:2438   */\n      add\n        /* \"#utility.yul\":2415:2442   */\n      mstore\n        /* \"#utility.yul\":2301:2449   */\n      pop\n      pop\n      pop\n      jump\t// out\n        /* \"#utility.yul\":2455:2880   */\n    tag_232:\n        /* \"#utility.yul\":2533:2538   */\n      0x00\n        /* \"#utility.yul\":2558:2624   */\n      tag_319\n        /* \"#utility.yul\":2574:2623   */\n      tag_320\n        /* \"#utility.yul\":2616:2622   */\n      dup5\n        /* \"#utility.yul\":2574:2623   */\n      tag_230\n      jump\t// in\n    tag_320:\n        /* \"#utility.yul\":2558:2624   */\n      tag_229\n      jump\t// in\n    tag_319:\n        /* \"#utility.yul\":2549:2624   */\n      swap1\n      pop\n        /* \"#utility.yul\":2647:2653   */\n      dup3\n        /* \"#utility.yul\":2640:2645   */\n      dup2\n        /* \"#utility.yul\":2633:2654   */\n      mstore\n        /* \"#utility.yul\":2685:2689   */\n      0x20\n        /* \"#utility.yul\":2678:2683   */\n      dup2\n        /* \"#utility.yul\":2674:2690   */\n      add\n        /* \"#utility.yul\":2723:2726   */\n      dup5\n        /* \"#utility.yul\":2714:2720   */\n      dup5\n        /* \"#utility.yul\":2709:2712   */\n      dup5\n        /* \"#utility.yul\":2705:2721   */\n      add\n        /* \"#utility.yul\":2702:2727   */\n      gt\n        /* \"#utility.yul\":2699:2811   */\n      iszero\n      tag_321\n      jumpi\n        /* \"#utility.yul\":2730:2809   */\n      tag_322\n      tag_225\n      jump\t// in\n    tag_322:\n        /* \"#utility.yul\":2699:2811   */\n    tag_321:\n        /* \"#utility.yul\":2820:2874   */\n      tag_323\n        /* \"#utility.yul\":2867:2873   */\n      dup5\n        /* \"#utility.yul\":2862:2865   */\n      dup3\n        /* \"#utility.yul\":2857:2860   */\n      dup6\n        /* \"#utility.yul\":2820:2874   */\n      tag_231\n      jump\t// in\n    tag_323:\n        /* \"#utility.yul\":2539:2880   */\n      pop\n        /* \"#utility.yul\":2455:2880   */\n      swap4\n      swap3\n      pop\n      pop\n      pop\n      jump\t// out\n        /* \"#utility.yul\":2900:3240   */\n    tag_233:\n        /* \"#utility.yul\":2956:2961   */\n      0x00\n        /* \"#utility.yul\":3005:3008   */\n      dup3\n        /* \"#utility.yul\":2998:3002   */\n      0x1f\n        /* \"#utility.yul\":2990:2996   */\n      dup4\n        /* \"#utility.yul\":2986:3003   */\n      add\n        /* \"#utility.yul\":2982:3009   */\n      slt\n        /* \"#utility.yul\":2972:3094   */\n      tag_325\n      jumpi\n        /* \"#utility.yul\":3013:3092   */\n      tag_326\n      tag_224\n      jump\t// in\n    tag_326:\n        /* \"#utility.yul\":2972:3094   */\n    tag_325:\n        /* \"#utility.yul\":3130:3136   */\n      dup2\n        /* \"#utility.yul\":3117:3137   */\n      calldataload\n        /* \"#utility.yul\":3155:3234   */\n      tag_327\n        /* \"#utility.yul\":3230:3233   */\n      dup5\n        /* \"#utility.yul\":3222:3228   */\n      dup3\n        /* \"#utility.yul\":3215:3219   */\n      0x20\n        /* \"#utility.yul\":3207:3213   */\n      dup7\n        /* \"#utility.yul\":3203:3220   */\n      add\n        /* \"#utility.yul\":3155:3234   */\n      tag_232\n      jump\t// in\n    tag_327:\n        /* \"#utility.yul\":3146:3234   */\n      swap2\n      pop\n        /* \"#utility.yul\":2962:3240   */\n      pop\n        /* \"#utility.yul\":2900:3240   */\n      swap3\n      swap2\n      pop\n      pop\n      jump\t// out\n        /* \"#utility.yul\":3246:4371   */\n    tag_21:\n        /* \"#utility.yul\":3352:3358   */\n      0x00\n        /* \"#utility.yul\":3360:3366   */\n      dup1\n        /* \"#utility.yul\":3368:3374   */\n      0x00\n        /* \"#utility.yul\":3376:3382   */\n      dup1\n        /* \"#utility.yul\":3425:3428   */\n      0x80\n        /* \"#utility.yul\":3413:3422   */\n      dup6\n        /* \"#utility.yul\":3404:3411   */\n      dup8\n        /* \"#utility.yul\":3400:3423   */\n      sub\n        /* \"#utility.yul\":3396:3429   */\n      slt\n        /* \"#utility.yul\":3393:3513   */\n      iszero\n      tag_329\n      jumpi\n        /* \"#utility.yul\":3432:3511   */\n      tag_330\n      tag_219\n      jump\t// in\n    tag_330:\n        /* \"#utility.yul\":3393:3513   */\n    tag_329:\n        /* \"#utility.yul\":3580:3581   */\n      0x00\n        /* \"#utility.yul\":3569:3578   */\n      dup6\n        /* \"#utility.yul\":3565:3582   */\n      add\n        /* \"#utility.yul\":3552:3583   */\n      calldataload\n        /* \"#utility.yul\":3610:3628   */\n      0xffffffffffffffff\n        /* \"#utility.yul\":3602:3608   */\n      dup2\n        /* \"#utility.yul\":3599:3629   */\n      gt\n        /* \"#utility.yul\":3596:3713   */\n      iszero\n      tag_331\n      jumpi\n        /* \"#utility.yul\":3632:3711   */\n      tag_332\n      tag_220\n      jump\t// in\n    tag_332:\n        /* \"#utility.yul\":3596:3713   */\n    tag_331:\n        /* \"#utility.yul\":3737:3800   */\n      tag_333\n        /* \"#utility.yul\":3792:3799   */\n      dup8\n        /* \"#utility.yul\":3783:3789   */\n      dup3\n        /* \"#utility.yul\":3772:3781   */\n      dup9\n        /* \"#utility.yul\":3768:3790   */\n      add\n        /* \"#utility.yul\":3737:3800   */\n      tag_233\n      jump\t// in\n    tag_333:\n        /* \"#utility.yul\":3727:3800   */\n      swap5\n      pop\n        /* \"#utility.yul\":3523:3810   */\n      pop\n        /* \"#utility.yul\":3877:3879   */\n      0x20\n        /* \"#utility.yul\":3866:3875   */\n      dup6\n        /* \"#utility.yul\":3862:3880   */\n      add\n        /* \"#utility.yul\":3849:3881   */\n      calldataload\n        /* \"#utility.yul\":3908:3926   */\n      0xffffffffffffffff\n        /* \"#utility.yul\":3900:3906   */\n      dup2\n        /* \"#utility.yul\":3897:3927   */\n      gt\n        /* \"#utility.yul\":3894:4011   */\n      iszero\n      tag_334\n      jumpi\n        /* \"#utility.yul\":3930:4009   */\n      tag_335\n      tag_220\n      jump\t// in\n    tag_335:\n        /* \"#utility.yul\":3894:4011   */\n    tag_334:\n        /* \"#utility.yul\":4035:4098   */\n      tag_336\n        /* \"#utility.yul\":4090:4097   */\n      dup8\n        /* \"#utility.yul\":4081:4087   */\n      dup3\n        /* \"#utility.yul\":4070:4079   */\n      dup9\n        /* \"#utility.yul\":4066:4088   */\n      add\n        /* \"#utility.yul\":4035:4098   */\n      tag_233\n      jump\t// in\n    tag_336:\n        /* \"#utility.yul\":4025:4098   */\n      swap4\n      pop\n        /* \"#utility.yul\":3820:4108   */\n      pop\n        /* \"#utility.yul\":4147:4149   */\n      0x40\n        /* \"#utility.yul\":4173:4226   */\n      tag_337\n        /* \"#utility.yul\":4218:4225   */\n      dup8\n        /* \"#utility.yul\":4209:4215   */\n      dup3\n        /* \"#utility.yul\":4198:4207   */\n      dup9\n        /* \"#utility.yul\":4194:4216   */\n      add\n        /* \"#utility.yul\":4173:4226   */\n      tag_223\n      jump\t// in\n    tag_337:\n        /* \"#utility.yul\":4163:4226   */\n      swap3\n      pop\n        /* \"#utility.yul\":4118:4236   */\n      pop\n        /* \"#utility.yul\":4275:4277   */\n      0x60\n        /* \"#utility.yul\":4301:4354   */\n      tag_338\n        /* \"#utility.yul\":4346:4353   */\n      dup8\n        /* \"#utility.yul\":4337:4343   */\n      dup3\n        /* \"#utility.yul\":4326:4335   */\n      dup9\n        /* \"#utility.yul\":4322:4344   */\n      add\n        /* \"#utility.yul\":4301:4354   */\n      tag_223\n      jump\t// in\n    tag_338:\n        /* \"#utility.yul\":4291:4354   */\n      swap2\n      pop\n        /* \"#utility.yul\":4246:4364   */\n      pop\n        /* \"#utility.yul\":3246:4371   */\n      swap3\n      swap6\n      swap2\n      swap5\n      pop\n      swap3\n      pop\n      jump\t// out\n        /* \"#utility.yul\":4377:4495   */\n    tag_234:\n        /* \"#utility.yul\":4464:4488   */\n      tag_340\n        /* \"#utility.yul\":4482:4487   */\n      dup2\n        /* \"#utility.yul\":4464:4488   */\n      tag_221\n      jump\t// in\n    tag_340:\n        /* \"#utility.yul\":4459:4462   */\n      dup3\n        /* \"#utility.yul\":4452:4489   */\n      mstore\n        /* \"#utility.yul\":4377:4495   */\n      pop\n      pop\n      jump\t// out\n        /* \"#utility.yul\":4501:4723   */\n    tag_27:\n        /* \"#utility.yul\":4594:4598   */\n      0x00\n        /* \"#utility.yul\":4632:4634   */\n      0x20\n        /* \"#utility.yul\":4621:4630   */\n      dup3\n        /* \"#utility.yul\":4617:4635   */\n      add\n        /* \"#utility.yul\":4609:4635   */\n      swap1\n      pop\n        /* \"#utility.yul\":4645:4716   */\n      tag_342\n        /* \"#utility.yul\":4713:4714   */\n      0x00\n        /* \"#utility.yul\":4702:4711   */\n      dup4\n        /* \"#utility.yul\":4698:4715   */\n      add\n        /* \"#utility.yul\":4689:4695   */\n      dup5\n        /* \"#utility.yul\":4645:4716   */\n      tag_234\n      jump\t// in\n    tag_342:\n        /* \"#utility.yul\":4501:4723   */\n      swap3\n      swap2\n      pop\n      pop\n      jump\t// out\n        /* \"#utility.yul\":4729:4828   */\n    tag_235:\n        /* \"#utility.yul\":4781:4787   */\n      0x00\n        /* \"#utility.yul\":4815:4820   */\n      dup2\n        /* \"#utility.yul\":4809:4821   */\n      mload\n        /* \"#utility.yul\":4799:4821   */\n      swap1\n      pop\n        /* \"#utility.yul\":4729:4828   */\n      swap2\n      swap1\n      pop\n      jump\t// out\n        /* \"#utility.yul\":4834:5003   */\n    tag_236:\n        /* \"#utility.yul\":4918:4929   */\n      0x00\n        /* \"#utility.yul\":4952:4958   */\n      dup3\n        /* \"#utility.yul\":4947:4950   */\n      dup3\n        /* \"#utility.yul\":4940:4959   */\n      mstore\n        /* \"#utility.yul\":4992:4996   */\n      0x20\n        /* \"#utility.yul\":4987:4990   */\n      dup3\n        /* \"#utility.yul\":4983:4997   */\n      add\n        /* \"#utility.yul\":4968:4997   */\n      swap1\n      pop\n        /* \"#utility.yul\":4834:5003   */\n      swap3\n      swap2\n      pop\n      pop\n      jump\t// out\n        /* \"#utility.yul\":5009:5148   */\n    tag_237:\n        /* \"#utility.yul\":5098:5104   */\n      dup3\n        /* \"#utility.yul\":5093:5096   */\n      dup2\n        /* \"#utility.yul\":5088:5091   */\n      dup4\n        /* \"#utility.yul\":5082:5105   */\n      mcopy\n        /* \"#utility.yul\":5139:5140   */\n      0x00\n        /* \"#utility.yul\":5130:5136   */\n      dup4\n        /* \"#utility.yul\":5125:5128   */\n      dup4\n        /* \"#utility.yul\":5121:5137   */\n      add\n        /* \"#utility.yul\":5114:5141   */\n      mstore\n        /* \"#utility.yul\":5009:5148   */\n      pop\n      pop\n      pop\n      jump\t// out\n        /* \"#utility.yul\":5154:5531   */\n    tag_238:\n        /* \"#utility.yul\":5242:5245   */\n      0x00\n        /* \"#utility.yul\":5270:5309   */\n      tag_347\n        /* \"#utility.yul\":5303:5308   */\n      dup3\n        /* \"#utility.yul\":5270:5309   */\n      tag_235\n      jump\t// in\n    tag_347:\n        /* \"#utility.yul\":5325:5396   */\n      tag_348\n        /* \"#utility.yul\":5389:5395   */\n      dup2\n        /* \"#utility.yul\":5384:5387   */\n      dup6\n        /* \"#utility.yul\":5325:5396   */\n      tag_236\n      jump\t// in\n    tag_348:\n        /* \"#utility.yul\":5318:5396   */\n      swap4\n      pop\n        /* \"#utility.yul\":5405:5470   */\n      tag_349\n        /* \"#utility.yul\":5463:5469   */\n      dup2\n        /* \"#utility.yul\":5458:5461   */\n      dup6\n        /* \"#utility.yul\":5451:5455   */\n      0x20\n        /* \"#utility.yul\":5444:5449   */\n      dup7\n        /* \"#utility.yul\":5440:5456   */\n      add\n        /* \"#utility.yul\":5405:5470   */\n      tag_237\n      jump\t// in\n    tag_349:\n        /* \"#utility.yul\":5495:5524   */\n      tag_350\n        /* \"#utility.yul\":5517:5523   */\n      dup2\n        /* \"#utility.yul\":5495:5524   */\n      tag_226\n      jump\t// in\n    tag_350:\n        /* \"#utility.yul\":5490:5493   */\n      dup5\n        /* \"#utility.yul\":5486:5525   */\n      add\n        /* \"#utility.yul\":5479:5525   */\n      swap2\n      pop\n        /* \"#utility.yul\":5246:5531   */\n      pop\n        /* \"#utility.yul\":5154:5531   */\n      swap3\n      swap2\n      pop\n      pop\n      jump\t// out\n        /* \"#utility.yul\":5537:5627   */\n    tag_239:\n        /* \"#utility.yul\":5571:5578   */\n      0x00\n        /* \"#utility.yul\":5614:5619   */\n      dup2\n        /* \"#utility.yul\":5607:5620   */\n      iszero\n        /* \"#utility.yul\":5600:5621   */\n      iszero\n        /* \"#utility.yul\":5589:5621   */\n      swap1\n      pop\n        /* \"#utility.yul\":5537:5627   */\n      swap2\n      swap1\n      pop\n      jump\t// out\n        /* \"#utility.yul\":5633:5742   */\n    tag_240:\n        /* \"#utility.yul\":5714:5735   */\n      tag_353\n        /* \"#utility.yul\":5729:5734   */\n      dup2\n        /* \"#utility.yul\":5714:5735   */\n      tag_239\n      jump\t// in\n    tag_353:\n        /* \"#utility.yul\":5709:5712   */\n      dup3\n        /* \"#utility.yul\":5702:5736   */\n      mstore\n        /* \"#utility.yul\":5633:5742   */\n      pop\n      pop\n      jump\t// out\n        /* \"#utility.yul\":5748:5874   */\n    tag_241:\n        /* \"#utility.yul\":5785:5792   */\n      0x00\n        /* \"#utility.yul\":5825:5867   */\n      0xffffffffffffffffffffffffffffffffffffffff\n        /* \"#utility.yul\":5818:5823   */\n      dup3\n        /* \"#utility.yul\":5814:5868   */\n      and\n        /* \"#utility.yul\":5803:5868   */\n      swap1\n      pop\n        /* \"#utility.yul\":5748:5874   */\n      swap2\n      swap1\n      pop\n      jump\t// out\n        /* \"#utility.yul\":5880:5984   */\n    tag_242:\n        /* \"#utility.yul\":5925:5932   */\n      0x00\n        /* \"#utility.yul\":5954:5978   */\n      tag_356\n        /* \"#utility.yul\":5972:5977   */\n      dup3\n        /* \"#utility.yul\":5954:5978   */\n      tag_241\n      jump\t// in\n    tag_356:\n        /* \"#utility.yul\":5943:5978   */\n      swap1\n      pop\n        /* \"#utility.yul\":5880:5984   */\n      swap2\n      swap1\n      pop\n      jump\t// out\n        /* \"#utility.yul\":5990:6132   */\n    tag_243:\n        /* \"#utility.yul\":6093:6125   */\n      tag_358\n        /* \"#utility.yul\":6119:6124   */\n      dup2\n        /* \"#utility.yul\":6093:6125   */\n      tag_242\n      jump\t// in\n    tag_358:\n        /* \"#utility.yul\":6088:6091   */\n      dup3\n        /* \"#utility.yul\":6081:6126   */\n      mstore\n        /* \"#utility.yul\":5990:6132   */\n      pop\n      pop\n      jump\t// out\n        /* \"#utility.yul\":6138:7591   */\n    tag_33:\n        /* \"#utility.yul\":6549:6553   */\n      0x00\n        /* \"#utility.yul\":6587:6590   */\n      0x0140\n        /* \"#utility.yul\":6576:6585   */\n      dup3\n        /* \"#utility.yul\":6572:6591   */\n      add\n        /* \"#utility.yul\":6564:6591   */\n      swap1\n      pop\n        /* \"#utility.yul\":6601:6672   */\n      tag_360\n        /* \"#utility.yul\":6669:6670   */\n      0x00\n        /* \"#utility.yul\":6658:6667   */\n      dup4\n        /* \"#utility.yul\":6654:6671   */\n      add\n        /* \"#utility.yul\":6645:6651   */\n      dup14\n        /* \"#utility.yul\":6601:6672   */\n      tag_234\n      jump\t// in\n    tag_360:\n        /* \"#utility.yul\":6682:6754   */\n      tag_361\n        /* \"#utility.yul\":6750:6752   */\n      0x20\n        /* \"#utility.yul\":6739:6748   */\n      dup4\n        /* \"#utility.yul\":6735:6753   */\n      add\n        /* \"#utility.yul\":6726:6732   */\n      dup13\n        /* \"#utility.yul\":6682:6754   */\n      tag_234\n      jump\t// in\n    tag_361:\n        /* \"#utility.yul\":6801:6810   */\n      dup2\n        /* \"#utility.yul\":6795:6799   */\n      dup2\n        /* \"#utility.yul\":6791:6811   */\n      sub\n        /* \"#utility.yul\":6786:6788   */\n      0x40\n        /* \"#utility.yul\":6775:6784   */\n      dup4\n        /* \"#utility.yul\":6771:6789   */\n      add\n        /* \"#utility.yul\":6764:6812   */\n      mstore\n        /* \"#utility.yul\":6829:6907   */\n      tag_362\n        /* \"#utility.yul\":6902:6906   */\n      dup2\n        /* \"#utility.yul\":6893:6899   */\n      dup12\n        /* \"#utility.yul\":6829:6907   */\n      tag_238\n      jump\t// in\n    tag_362:\n        /* \"#utility.yul\":6821:6907   */\n      swap1\n      pop\n        /* \"#utility.yul\":6954:6963   */\n      dup2\n        /* \"#utility.yul\":6948:6952   */\n      dup2\n        /* \"#utility.yul\":6944:6964   */\n      sub\n        /* \"#utility.yul\":6939:6941   */\n      0x60\n        /* \"#utility.yul\":6928:6937   */\n      dup4\n        /* \"#utility.yul\":6924:6942   */\n      add\n        /* \"#utility.yul\":6917:6965   */\n      mstore\n        /* \"#utility.yul\":6982:7060   */\n      tag_363\n        /* \"#utility.yul\":7055:7059   */\n      dup2\n        /* \"#utility.yul\":7046:7052   */\n      dup11\n        /* \"#utility.yul\":6982:7060   */\n      tag_238\n      jump\t// in\n    tag_363:\n        /* \"#utility.yul\":6974:7060   */\n      swap1\n      pop\n        /* \"#utility.yul\":7070:7143   */\n      tag_364\n        /* \"#utility.yul\":7138:7141   */\n      0x80\n        /* \"#utility.yul\":7127:7136   */\n      dup4\n        /* \"#utility.yul\":7123:7142   */\n      add\n        /* \"#utility.yul\":7114:7120   */\n      dup10\n        /* \"#utility.yul\":7070:7143   */\n      tag_234\n      jump\t// in\n    tag_364:\n        /* \"#utility.yul\":7153:7226   */\n      tag_365\n        /* \"#utility.yul\":7221:7224   */\n      0xa0\n        /* \"#utility.yul\":7210:7219   */\n      dup4\n        /* \"#utility.yul\":7206:7225   */\n      add\n        /* \"#utility.yul\":7197:7203   */\n      dup9\n        /* \"#utility.yul\":7153:7226   */\n      tag_234\n      jump\t// in\n    tag_365:\n        /* \"#utility.yul\":7236:7309   */\n      tag_366\n        /* \"#utility.yul\":7304:7307   */\n      0xc0\n        /* \"#utility.yul\":7293:7302   */\n      dup4\n        /* \"#utility.yul\":7289:7308   */\n      add\n        /* \"#utility.yul\":7280:7286   */\n      dup8\n        /* \"#utility.yul\":7236:7309   */\n      tag_234\n      jump\t// in\n    tag_366:\n        /* \"#utility.yul\":7319:7386   */\n      tag_367\n        /* \"#utility.yul\":7381:7384   */\n      0xe0\n        /* \"#utility.yul\":7370:7379   */\n      dup4\n        /* \"#utility.yul\":7366:7385   */\n      add\n        /* \"#utility.yul\":7357:7363   */\n      dup7\n        /* \"#utility.yul\":7319:7386   */\n      tag_240\n      jump\t// in\n    tag_367:\n        /* \"#utility.yul\":7396:7485   */\n      tag_368\n        /* \"#utility.yul\":7480:7483   */\n      0x0100\n        /* \"#utility.yul\":7469:7478   */\n      dup4\n        /* \"#utility.yul\":7465:7484   */\n      add\n        /* \"#utility.yul\":7456:7462   */\n      dup6\n        /* \"#utility.yul\":7396:7485   */\n      tag_243\n      jump\t// in\n    tag_368:\n        /* \"#utility.yul\":7495:7584   */\n      tag_369\n        /* \"#utility.yul\":7579:7582   */\n      0x0120\n        /* \"#utility.yul\":7568:7577   */\n      dup4\n        /* \"#utility.yul\":7564:7583   */\n      add\n        /* \"#utility.yul\":7555:7561   */\n      dup5\n        /* \"#utility.yul\":7495:7584   */\n      tag_243\n      jump\t// in\n    tag_369:\n        /* \"#utility.yul\":6138:7591   */\n      swap12\n      swap11\n      pop\n      pop\n      pop\n      pop\n      pop\n      pop\n      pop\n      pop\n      pop\n      pop\n      pop\n      jump\t// out\n        /* \"#utility.yul\":7597:9062   */\n    tag_51:\n        /* \"#utility.yul\":8014:8018   */\n      0x00\n        /* \"#utility.yul\":8052:8055   */\n      0x0140\n        /* \"#utility.yul\":8041:8050   */\n      dup3\n        /* \"#utility.yul\":8037:8056   */\n      add\n        /* \"#utility.yul\":8029:8056   */\n      swap1\n      pop\n        /* \"#utility.yul\":8066:8137   */\n      tag_371\n        /* \"#utility.yul\":8134:8135   */\n      0x00\n        /* \"#utility.yul\":8123:8132   */\n      dup4\n        /* \"#utility.yul\":8119:8136   */\n      add\n        /* \"#utility.yul\":8110:8116   */\n      dup14\n        /* \"#utility.yul\":8066:8137   */\n      tag_234\n      jump\t// in\n    tag_371:\n        /* \"#utility.yul\":8147:8219   */\n      tag_372\n        /* \"#utility.yul\":8215:8217   */\n      0x20\n        /* \"#utility.yul\":8204:8213   */\n      dup4\n        /* \"#utility.yul\":8200:8218   */\n      add\n        /* \"#utility.yul\":8191:8197   */\n      dup13\n        /* \"#utility.yul\":8147:8219   */\n      tag_234\n      jump\t// in\n    tag_372:\n        /* \"#utility.yul\":8266:8275   */\n      dup2\n        /* \"#utility.yul\":8260:8264   */\n      dup2\n        /* \"#utility.yul\":8256:8276   */\n      sub\n        /* \"#utility.yul\":8251:8253   */\n      0x40\n        /* \"#utility.yul\":8240:8249   */\n      dup4\n        /* \"#utility.yul\":8236:8254   */\n      add\n        /* \"#utility.yul\":8229:8277   */\n      mstore\n        /* \"#utility.yul\":8294:8372   */\n      tag_373\n        /* \"#utility.yul\":8367:8371   */\n      dup2\n        /* \"#utility.yul\":8358:8364   */\n      dup12\n        /* \"#utility.yul\":8294:8372   */\n      tag_238\n      jump\t// in\n    tag_373:\n        /* \"#utility.yul\":8286:8372   */\n      swap1\n      pop\n        /* \"#utility.yul\":8419:8428   */\n      dup2\n        /* \"#utility.yul\":8413:8417   */\n      dup2\n        /* \"#utility.yul\":8409:8429   */\n      sub\n        /* \"#utility.yul\":8404:8406   */\n      0x60\n        /* \"#utility.yul\":8393:8402   */\n      dup4\n        /* \"#utility.yul\":8389:8407   */\n      add\n        /* \"#utility.yul\":8382:8430   */\n      mstore\n        /* \"#utility.yul\":8447:8525   */\n      tag_374\n        /* \"#utility.yul\":8520:8524   */\n      dup2\n        /* \"#utility.yul\":8511:8517   */\n      dup11\n        /* \"#utility.yul\":8447:8525   */\n      tag_238\n      jump\t// in\n    tag_374:\n        /* \"#utility.yul\":8439:8525   */\n      swap1\n      pop\n        /* \"#utility.yul\":8535:8608   */\n      tag_375\n        /* \"#utility.yul\":8603:8606   */\n      0x80\n        /* \"#utility.yul\":8592:8601   */\n      dup4\n        /* \"#utility.yul\":8588:8607   */\n      add\n        /* \"#utility.yul\":8579:8585   */\n      dup10\n        /* \"#utility.yul\":8535:8608   */\n      tag_234\n      jump\t// in\n    tag_375:\n        /* \"#utility.yul\":8618:8691   */\n      tag_376\n        /* \"#utility.yul\":8686:8689   */\n      0xa0\n        /* \"#utility.yul\":8675:8684   */\n      dup4\n        /* \"#utility.yul\":8671:8690   */\n      add\n        /* \"#utility.yul\":8662:8668   */\n      dup9\n        /* \"#utility.yul\":8618:8691   */\n      tag_234\n      jump\t// in\n    tag_376:\n        /* \"#utility.yul\":8701:8774   */\n      tag_377\n        /* \"#utility.yul\":8769:8772   */\n      0xc0\n        /* \"#utility.yul\":8758:8767   */\n      dup4\n        /* \"#utility.yul\":8754:8773   */\n      add\n        /* \"#utility.yul\":8745:8751   */\n      dup8\n        /* \"#utility.yul\":8701:8774   */\n      tag_234\n      jump\t// in\n    tag_377:\n        /* \"#utility.yul\":8784:8857   */\n      tag_378\n        /* \"#utility.yul\":8852:8855   */\n      0xe0\n        /* \"#utility.yul\":8841:8850   */\n      dup4\n        /* \"#utility.yul\":8837:8856   */\n      add\n        /* \"#utility.yul\":8828:8834   */\n      dup7\n        /* \"#utility.yul\":8784:8857   */\n      tag_234\n      jump\t// in\n    tag_378:\n        /* \"#utility.yul\":8867:8956   */\n      tag_379\n        /* \"#utility.yul\":8951:8954   */\n      0x0100\n        /* \"#utility.yul\":8940:8949   */\n      dup4\n        /* \"#utility.yul\":8936:8955   */\n      add\n        /* \"#utility.yul\":8927:8933   */\n      dup6\n        /* \"#utility.yul\":8867:8956   */\n      tag_243\n      jump\t// in\n    tag_379:\n        /* \"#utility.yul\":8966:9055   */\n      tag_380\n        /* \"#utility.yul\":9050:9053   */\n      0x0120\n        /* \"#utility.yul\":9039:9048   */\n      dup4\n        /* \"#utility.yul\":9035:9054   */\n      add\n        /* \"#utility.yul\":9026:9032   */\n      dup5\n        /* \"#utility.yul\":8966:9055   */\n      tag_243\n      jump\t// in\n    tag_380:\n        /* \"#utility.yul\":7597:9062   */\n      swap12\n      swap11\n      pop\n      pop\n      pop\n      pop\n      pop\n      pop\n      pop\n      pop\n      pop\n      pop\n      pop\n      jump\t// out\n        /* \"#utility.yul\":9068:9542   */\n    tag_57:\n        /* \"#utility.yul\":9136:9142   */\n      0x00\n        /* \"#utility.yul\":9144:9150   */\n      dup1\n        /* \"#utility.yul\":9193:9195   */\n      0x40\n        /* \"#utility.yul\":9181:9190   */\n      dup4\n        /* \"#utility.yul\":9172:9179   */\n      dup6\n        /* \"#utility.yul\":9168:9191   */\n      sub\n        /* \"#utility.yul\":9164:9196   */\n      slt\n        /* \"#utility.yul\":9161:9280   */\n      iszero\n      tag_382\n      jumpi\n        /* \"#utility.yul\":9199:9278   */\n      tag_383\n      tag_219\n      jump\t// in\n    tag_383:\n        /* \"#utility.yul\":9161:9280   */\n    tag_382:\n        /* \"#utility.yul\":9319:9320   */\n      0x00\n        /* \"#utility.yul\":9344:9397   */\n      tag_384\n        /* \"#utility.yul\":9389:9396   */\n      dup6\n        /* \"#utility.yul\":9380:9386   */\n      dup3\n        /* \"#utility.yul\":9369:9378   */\n      dup7\n        /* \"#utility.yul\":9365:9387   */\n      add\n        /* \"#utility.yul\":9344:9397   */\n      tag_223\n      jump\t// in\n    tag_384:\n        /* \"#utility.yul\":9334:9397   */\n      swap3\n      pop\n        /* \"#utility.yul\":9290:9407   */\n      pop\n        /* \"#utility.yul\":9446:9448   */\n      0x20\n        /* \"#utility.yul\":9472:9525   */\n      tag_385\n        /* \"#utility.yul\":9517:9524   */\n      dup6\n        /* \"#utility.yul\":9508:9514   */\n      dup3\n        /* \"#utility.yul\":9497:9506   */\n      dup7\n        /* \"#utility.yul\":9493:9515   */\n      add\n        /* \"#utility.yul\":9472:9525   */\n      tag_223\n      jump\t// in\n    tag_385:\n        /* \"#utility.yul\":9462:9525   */\n      swap2\n      pop\n        /* \"#utility.yul\":9417:9535   */\n      pop\n        /* \"#utility.yul\":9068:9542   */\n      swap3\n      pop\n      swap3\n      swap1\n      pop\n      jump\t// out\n        /* \"#utility.yul\":9548:10902   */\n    tag_64:\n        /* \"#utility.yul\":9937:9941   */\n      0x00\n        /* \"#utility.yul\":9975:9978   */\n      0x0120\n        /* \"#utility.yul\":9964:9973   */\n      dup3\n        /* \"#utility.yul\":9960:9979   */\n      add\n        /* \"#utility.yul\":9952:9979   */\n      swap1\n      pop\n        /* \"#utility.yul\":9989:10060   */\n      tag_387\n        /* \"#utility.yul\":10057:10058   */\n      0x00\n        /* \"#utility.yul\":10046:10055   */\n      dup4\n        /* \"#utility.yul\":10042:10059   */\n      add\n        /* \"#utility.yul\":10033:10039   */\n      dup13\n        /* \"#utility.yul\":9989:10060   */\n      tag_234\n      jump\t// in\n    tag_387:\n        /* \"#utility.yul\":10070:10142   */\n      tag_388\n        /* \"#utility.yul\":10138:10140   */\n      0x20\n        /* \"#utility.yul\":10127:10136   */\n      dup4\n        /* \"#utility.yul\":10123:10141   */\n      add\n        /* \"#utility.yul\":10114:10120   */\n      dup12\n        /* \"#utility.yul\":10070:10142   */\n      tag_234\n      jump\t// in\n    tag_388:\n        /* \"#utility.yul\":10152:10224   */\n      tag_389\n        /* \"#utility.yul\":10220:10222   */\n      0x40\n        /* \"#utility.yul\":10209:10218   */\n      dup4\n        /* \"#utility.yul\":10205:10223   */\n      add\n        /* \"#utility.yul\":10196:10202   */\n      dup11\n        /* \"#utility.yul\":10152:10224   */\n      tag_234\n      jump\t// in\n    tag_389:\n        /* \"#utility.yul\":10271:10280   */\n      dup2\n        /* \"#utility.yul\":10265:10269   */\n      dup2\n        /* \"#utility.yul\":10261:10281   */\n      sub\n        /* \"#utility.yul\":10256:10258   */\n      0x60\n        /* \"#utility.yul\":10245:10254   */\n      dup4\n        /* \"#utility.yul\":10241:10259   */\n      add\n        /* \"#utility.yul\":10234:10282   */\n      mstore\n        /* \"#utility.yul\":10299:10377   */\n      tag_390\n        /* \"#utility.yul\":10372:10376   */\n      dup2\n        /* \"#utility.yul\":10363:10369   */\n      dup10\n        /* \"#utility.yul\":10299:10377   */\n      tag_238\n      jump\t// in\n    tag_390:\n        /* \"#utility.yul\":10291:10377   */\n      swap1\n      pop\n        /* \"#utility.yul\":10425:10434   */\n      dup2\n        /* \"#utility.yul\":10419:10423   */\n      dup2\n        /* \"#utility.yul\":10415:10435   */\n      sub\n        /* \"#utility.yul\":10409:10412   */\n      0x80\n        /* \"#utility.yul\":10398:10407   */\n      dup4\n        /* \"#utility.yul\":10394:10413   */\n      add\n        /* \"#utility.yul\":10387:10436   */\n      mstore\n        /* \"#utility.yul\":10453:10531   */\n      tag_391\n        /* \"#utility.yul\":10526:10530   */\n      dup2\n        /* \"#utility.yul\":10517:10523   */\n      dup9\n        /* \"#utility.yul\":10453:10531   */\n      tag_238\n      jump\t// in\n    tag_391:\n        /* \"#utility.yul\":10445:10531   */\n      swap1\n      pop\n        /* \"#utility.yul\":10541:10614   */\n      tag_392\n        /* \"#utility.yul\":10609:10612   */\n      0xa0\n        /* \"#utility.yul\":10598:10607   */\n      dup4\n        /* \"#utility.yul\":10594:10613   */\n      add\n        /* \"#utility.yul\":10585:10591   */\n      dup8\n        /* \"#utility.yul\":10541:10614   */\n      tag_234\n      jump\t// in\n    tag_392:\n        /* \"#utility.yul\":10624:10697   */\n      tag_393\n        /* \"#utility.yul\":10692:10695   */\n      0xc0\n        /* \"#utility.yul\":10681:10690   */\n      dup4\n        /* \"#utility.yul\":10677:10696   */\n      add\n        /* \"#utility.yul\":10668:10674   */\n      dup7\n        /* \"#utility.yul\":10624:10697   */\n      tag_234\n      jump\t// in\n    tag_393:\n        /* \"#utility.yul\":10707:10796   */\n      tag_394\n        /* \"#utility.yul\":10791:10794   */\n      0xe0\n        /* \"#utility.yul\":10780:10789   */\n      dup4\n        /* \"#utility.yul\":10776:10795   */\n      add\n        /* \"#utility.yul\":10767:10773   */\n      dup6\n        /* \"#utility.yul\":10707:10796   */\n      tag_243\n      jump\t// in\n    tag_394:\n        /* \"#utility.yul\":10806:10895   */\n      tag_395\n        /* \"#utility.yul\":10890:10893   */\n      0x0100\n        /* \"#utility.yul\":10879:10888   */\n      dup4\n        /* \"#utility.yul\":10875:10894   */\n      add\n        /* \"#utility.yul\":10866:10872   */\n      dup5\n        /* \"#utility.yul\":10806:10895   */\n      tag_243\n      jump\t// in\n    tag_395:\n        /* \"#utility.yul\":9548:10902   */\n      swap11\n      swap10\n      pop\n      pop\n      pop\n      pop\n      pop\n      pop\n      pop\n      pop\n      pop\n      pop\n      jump\t// out\n        /* \"#utility.yul\":10908:11087   */\n    tag_244:\n        /* \"#utility.yul\":11048:11079   */\n      0x4f6e6c79206c616e646c6f72642063616e206163636573732074686973000000\n        /* \"#utility.yul\":11044:11045   */\n      0x00\n        /* \"#utility.yul\":11036:11042   */\n      dup3\n        /* \"#utility.yul\":11032:11046   */\n      add\n        /* \"#utility.yul\":11025:11080   */\n      mstore\n        /* \"#utility.yul\":10908:11087   */\n      pop\n      jump\t// out\n        /* \"#utility.yul\":11093:11459   */\n    tag_245:\n        /* \"#utility.yul\":11235:11238   */\n      0x00\n        /* \"#utility.yul\":11256:11323   */\n      tag_398\n        /* \"#utility.yul\":11320:11322   */\n      0x1d\n        /* \"#utility.yul\":11315:11318   */\n      dup4\n        /* \"#utility.yul\":11256:11323   */\n      tag_236\n      jump\t// in\n    tag_398:\n        /* \"#utility.yul\":11249:11323   */\n      swap2\n      pop\n        /* \"#utility.yul\":11332:11425   */\n      tag_399\n        /* \"#utility.yul\":11421:11424   */\n      dup3\n        /* \"#utility.yul\":11332:11425   */\n      tag_244\n      jump\t// in\n    tag_399:\n        /* \"#utility.yul\":11450:11452   */\n      0x20\n        /* \"#utility.yul\":11445:11448   */\n      dup3\n        /* \"#utility.yul\":11441:11453   */\n      add\n        /* \"#utility.yul\":11434:11453   */\n      swap1\n      pop\n        /* \"#utility.yul\":11093:11459   */\n      swap2\n      swap1\n      pop\n      jump\t// out\n        /* \"#utility.yul\":11465:11884   */\n    tag_68:\n        /* \"#utility.yul\":11631:11635   */\n      0x00\n        /* \"#utility.yul\":11669:11671   */\n      0x20\n        /* \"#utility.yul\":11658:11667   */\n      dup3\n        /* \"#utility.yul\":11654:11672   */\n      add\n        /* \"#utility.yul\":11646:11672   */\n      swap1\n      pop\n        /* \"#utility.yul\":11718:11727   */\n      dup2\n        /* \"#utility.yul\":11712:11716   */\n      dup2\n        /* \"#utility.yul\":11708:11728   */\n      sub\n        /* \"#utility.yul\":11704:11705   */\n      0x00\n        /* \"#utility.yul\":11693:11702   */\n      dup4\n        /* \"#utility.yul\":11689:11706   */\n      add\n        /* \"#utility.yul\":11682:11729   */\n      mstore\n        /* \"#utility.yul\":11746:11877   */\n      tag_401\n        /* \"#utility.yul\":11872:11876   */\n      dup2\n        /* \"#utility.yul\":11746:11877   */\n      tag_245\n      jump\t// in\n    tag_401:\n        /* \"#utility.yul\":11738:11877   */\n      swap1\n      pop\n        /* \"#utility.yul\":11465:11884   */\n      swap2\n      swap1\n      pop\n      jump\t// out\n        /* \"#utility.yul\":11890:12070   */\n    tag_246:\n        /* \"#utility.yul\":11938:12015   */\n      0x4e487b7100000000000000000000000000000000000000000000000000000000\n        /* \"#utility.yul\":11935:11936   */\n      0x00\n        /* \"#utility.yul\":11928:12016   */\n      mstore\n        /* \"#utility.yul\":12035:12039   */\n      0x11\n        /* \"#utility.yul\":12032:12033   */\n      0x04\n        /* \"#utility.yul\":12025:12040   */\n      mstore\n        /* \"#utility.yul\":12059:12063   */\n      0x24\n        /* \"#utility.yul\":12056:12057   */\n      0x00\n        /* \"#utility.yul\":12049:12064   */\n      revert\n        /* \"#utility.yul\":12076:12267   */\n    tag_71:\n        /* \"#utility.yul\":12116:12119   */\n      0x00\n        /* \"#utility.yul\":12135:12155   */\n      tag_404\n        /* \"#utility.yul\":12153:12154   */\n      dup3\n        /* \"#utility.yul\":12135:12155   */\n      tag_221\n      jump\t// in\n    tag_404:\n        /* \"#utility.yul\":12130:12155   */\n      swap2\n      pop\n        /* \"#utility.yul\":12169:12189   */\n      tag_405\n        /* \"#utility.yul\":12187:12188   */\n      dup4\n        /* \"#utility.yul\":12169:12189   */\n      tag_221\n      jump\t// in\n    tag_405:\n        /* \"#utility.yul\":12164:12189   */\n      swap3\n      pop\n        /* \"#utility.yul\":12212:12213   */\n      dup3\n        /* \"#utility.yul\":12209:12210   */\n      dup3\n        /* \"#utility.yul\":12205:12214   */\n      add\n        /* \"#utility.yul\":12198:12214   */\n      swap1\n      pop\n        /* \"#utility.yul\":12233:12236   */\n      dup1\n        /* \"#utility.yul\":12230:12231   */\n      dup3\n        /* \"#utility.yul\":12227:12237   */\n      gt\n        /* \"#utility.yul\":12224:12260   */\n      iszero\n      tag_406\n      jumpi\n        /* \"#utility.yul\":12240:12258   */\n      tag_407\n      tag_246\n      jump\t// in\n    tag_407:\n        /* \"#utility.yul\":12224:12260   */\n    tag_406:\n        /* \"#utility.yul\":12076:12267   */\n      swap3\n      swap2\n      pop\n      pop\n      jump\t// out\n        /* \"#utility.yul\":12273:12452   */\n    tag_247:\n        /* \"#utility.yul\":12413:12444   */\n      0x41677265656d656e7420686173206e6f74207965742065787069726564000000\n        /* \"#utility.yul\":12409:12410   */\n      0x00\n        /* \"#utility.yul\":12401:12407   */\n      dup3\n        /* \"#utility.yul\":12397:12411   */\n      add\n        /* \"#utility.yul\":12390:12445   */\n      mstore\n        /* \"#utility.yul\":12273:12452   */\n      pop\n      jump\t// out\n        /* \"#utility.yul\":12458:12824   */\n    tag_248:\n        /* \"#utility.yul\":12600:12603   */\n      0x00\n        /* \"#utility.yul\":12621:12688   */\n      tag_410\n        /* \"#utility.yul\":12685:12687   */\n      0x1d\n        /* \"#utility.yul\":12680:12683   */\n      dup4\n        /* \"#utility.yul\":12621:12688   */\n      tag_236\n      jump\t// in\n    tag_410:\n        /* \"#utility.yul\":12614:12688   */\n      swap2\n      pop\n        /* \"#utility.yul\":12697:12790   */\n      tag_411\n        /* \"#utility.yul\":12786:12789   */\n      dup3\n        /* \"#utility.yul\":12697:12790   */\n      tag_247\n      jump\t// in\n    tag_411:\n        /* \"#utility.yul\":12815:12817   */\n      0x20\n        /* \"#utility.yul\":12810:12813   */\n      dup3\n        /* \"#utility.yul\":12806:12818   */\n      add\n        /* \"#utility.yul\":12799:12818   */\n      swap1\n      pop\n        /* \"#utility.yul\":12458:12824   */\n      swap2\n      swap1\n      pop\n      jump\t// out\n        /* \"#utility.yul\":12830:13249   */\n    tag_74:\n        /* \"#utility.yul\":12996:13000   */\n      0x00\n        /* \"#utility.yul\":13034:13036   */\n      0x20\n        /* \"#utility.yul\":13023:13032   */\n      dup3\n        /* \"#utility.yul\":13019:13037   */\n      add\n        /* \"#utility.yul\":13011:13037   */\n      swap1\n      pop\n        /* \"#utility.yul\":13083:13092   */\n      dup2\n        /* \"#utility.yul\":13077:13081   */\n      dup2\n        /* \"#utility.yul\":13073:13093   */\n      sub\n        /* \"#utility.yul\":13069:13070   */\n      0x00\n        /* \"#utility.yul\":13058:13067   */\n      dup4\n        /* \"#utility.yul\":13054:13071   */\n      add\n        /* \"#utility.yul\":13047:13094   */\n      mstore\n        /* \"#utility.yul\":13111:13242   */\n      tag_413\n        /* \"#utility.yul\":13237:13241   */\n      dup2\n        /* \"#utility.yul\":13111:13242   */\n      tag_248\n      jump\t// in\n    tag_413:\n        /* \"#utility.yul\":13103:13242   */\n      swap1\n      pop\n        /* \"#utility.yul\":12830:13249   */\n      swap2\n      swap1\n      pop\n      jump\t// out\n        /* \"#utility.yul\":13255:13428   */\n    tag_249:\n        /* \"#utility.yul\":13395:13420   */\n      0x526f6f6d20697320616c726561647920766163616e7421000000000000000000\n        /* \"#utility.yul\":13391:13392   */\n      0x00\n        /* \"#utility.yul\":13383:13389   */\n      dup3\n        /* \"#utility.yul\":13379:13393   */\n      add\n        /* \"#utility.yul\":13372:13421   */\n      mstore\n        /* \"#utility.yul\":13255:13428   */\n      pop\n      jump\t// out\n        /* \"#utility.yul\":13434:13800   */\n    tag_250:\n        /* \"#utility.yul\":13576:13579   */\n      0x00\n        /* \"#utility.yul\":13597:13664   */\n      tag_416\n        /* \"#utility.yul\":13661:13663   */\n      0x17\n        /* \"#utility.yul\":13656:13659   */\n      dup4\n        /* \"#utility.yul\":13597:13664   */\n      tag_236\n      jump\t// in\n    tag_416:\n        /* \"#utility.yul\":13590:13664   */\n      swap2\n      pop\n        /* \"#utility.yul\":13673:13766   */\n      tag_417\n        /* \"#utility.yul\":13762:13765   */\n      dup3\n        /* \"#utility.yul\":13673:13766   */\n      tag_249\n      jump\t// in\n    tag_417:\n        /* \"#utility.yul\":13791:13793   */\n      0x20\n        /* \"#utility.yul\":13786:13789   */\n      dup3\n        /* \"#utility.yul\":13782:13794   */\n      add\n        /* \"#utility.yul\":13775:13794   */\n      swap1\n      pop\n        /* \"#utility.yul\":13434:13800   */\n      swap2\n      swap1\n      pop\n      jump\t// out\n        /* \"#utility.yul\":13806:14225   */\n    tag_79:\n        /* \"#utility.yul\":13972:13976   */\n      0x00\n        /* \"#utility.yul\":14010:14012   */\n      0x20\n        /* \"#utility.yul\":13999:14008   */\n      dup3\n        /* \"#utility.yul\":13995:14013   */\n      add\n        /* \"#utility.yul\":13987:14013   */\n      swap1\n      pop\n        /* \"#utility.yul\":14059:14068   */\n      dup2\n        /* \"#utility.yul\":14053:14057   */\n      dup2\n        /* \"#utility.yul\":14049:14069   */\n      sub\n        /* \"#utility.yul\":14045:14046   */\n      0x00\n        /* \"#utility.yul\":14034:14043   */\n      dup4\n        /* \"#utility.yul\":14030:14047   */\n      add\n        /* \"#utility.yul\":14023:14070   */\n      mstore\n        /* \"#utility.yul\":14087:14218   */\n      tag_419\n        /* \"#utility.yul\":14213:14217   */\n      dup2\n        /* \"#utility.yul\":14087:14218   */\n      tag_250\n      jump\t// in\n    tag_419:\n        /* \"#utility.yul\":14079:14218   */\n      swap1\n      pop\n        /* \"#utility.yul\":13806:14225   */\n      swap2\n      swap1\n      pop\n      jump\t// out\n        /* \"#utility.yul\":14231:14378   */\n    tag_251:\n        /* \"#utility.yul\":14332:14343   */\n      0x00\n        /* \"#utility.yul\":14369:14372   */\n      dup2\n        /* \"#utility.yul\":14354:14372   */\n      swap1\n      pop\n        /* \"#utility.yul\":14231:14378   */\n      swap3\n      swap2\n      pop\n      pop\n      jump\t// out\n        /* \"#utility.yul\":14384:14498   */\n    tag_252:\n      pop\n      jump\t// out\n        /* \"#utility.yul\":14504:14902   */\n    tag_253:\n        /* \"#utility.yul\":14663:14666   */\n      0x00\n        /* \"#utility.yul\":14684:14767   */\n      tag_423\n        /* \"#utility.yul\":14765:14766   */\n      0x00\n        /* \"#utility.yul\":14760:14763   */\n      dup4\n        /* \"#utility.yul\":14684:14767   */\n      tag_251\n      jump\t// in\n    tag_423:\n        /* \"#utility.yul\":14677:14767   */\n      swap2\n      pop\n        /* \"#utility.yul\":14776:14869   */\n      tag_424\n        /* \"#utility.yul\":14865:14868   */\n      dup3\n        /* \"#utility.yul\":14776:14869   */\n      tag_252\n      jump\t// in\n    tag_424:\n        /* \"#utility.yul\":14894:14895   */\n      0x00\n        /* \"#utility.yul\":14889:14892   */\n      dup3\n        /* \"#utility.yul\":14885:14896   */\n      add\n        /* \"#utility.yul\":14878:14896   */\n      swap1\n      pop\n        /* \"#utility.yul\":14504:14902   */\n      swap2\n      swap1\n      pop\n      jump\t// out\n        /* \"#utility.yul\":14908:15287   */\n    tag_81:\n        /* \"#utility.yul\":15092:15095   */\n      0x00\n        /* \"#utility.yul\":15114:15261   */\n      tag_426\n        /* \"#utility.yul\":15257:15260   */\n      dup3\n        /* \"#utility.yul\":15114:15261   */\n      tag_253\n      jump\t// in\n    tag_426:\n        /* \"#utility.yul\":15107:15261   */\n      swap2\n      pop\n        /* \"#utility.yul\":15278:15281   */\n      dup2\n        /* \"#utility.yul\":15271:15281   */\n      swap1\n      pop\n        /* \"#utility.yul\":14908:15287   */\n      swap2\n      swap1\n      pop\n      jump\t// out\n        /* \"#utility.yul\":15293:15471   */\n    tag_254:\n        /* \"#utility.yul\":15433:15463   */\n      0x41677265656d656e7420436f6d706c6574696f6e204661696c65642100000000\n        /* \"#utility.yul\":15429:15430   */\n      0x00\n        /* \"#utility.yul\":15421:15427   */\n      dup3\n        /* \"#utility.yul\":15417:15431   */\n      add\n        /* \"#utility.yul\":15410:15464   */\n      mstore\n        /* \"#utility.yul\":15293:15471   */\n      pop\n      jump\t// out\n        /* \"#utility.yul\":15477:15843   */\n    tag_255:\n        /* \"#utility.yul\":15619:15622   */\n      0x00\n        /* \"#utility.yul\":15640:15707   */\n      tag_429\n        /* \"#utility.yul\":15704:15706   */\n      0x1c\n        /* \"#utility.yul\":15699:15702   */\n      dup4\n        /* \"#utility.yul\":15640:15707   */\n      tag_236\n      jump\t// in\n    tag_429:\n        /* \"#utility.yul\":15633:15707   */\n      swap2\n      pop\n        /* \"#utility.yul\":15716:15809   */\n      tag_430\n        /* \"#utility.yul\":15805:15808   */\n      dup3\n        /* \"#utility.yul\":15716:15809   */\n      tag_254\n      jump\t// in\n    tag_430:\n        /* \"#utility.yul\":15834:15836   */\n      0x20\n        /* \"#utility.yul\":15829:15832   */\n      dup3\n        /* \"#utility.yul\":15825:15837   */\n      add\n        /* \"#utility.yul\":15818:15837   */\n      swap1\n      pop\n        /* \"#utility.yul\":15477:15843   */\n      swap2\n      swap1\n      pop\n      jump\t// out\n        /* \"#utility.yul\":15849:16268   */\n    tag_87:\n        /* \"#utility.yul\":16015:16019   */\n      0x00\n        /* \"#utility.yul\":16053:16055   */\n      0x20\n        /* \"#utility.yul\":16042:16051   */\n      dup3\n        /* \"#utility.yul\":16038:16056   */\n      add\n        /* \"#utility.yul\":16030:16056   */\n      swap1\n      pop\n        /* \"#utility.yul\":16102:16111   */\n      dup2\n        /* \"#utility.yul\":16096:16100   */\n      dup2\n        /* \"#utility.yul\":16092:16112   */\n      sub\n        /* \"#utility.yul\":16088:16089   */\n      0x00\n        /* \"#utility.yul\":16077:16086   */\n      dup4\n        /* \"#utility.yul\":16073:16090   */\n      add\n        /* \"#utility.yul\":16066:16113   */\n      mstore\n        /* \"#utility.yul\":16130:16261   */\n      tag_432\n        /* \"#utility.yul\":16256:16260   */\n      dup2\n        /* \"#utility.yul\":16130:16261   */\n      tag_255\n      jump\t// in\n    tag_432:\n        /* \"#utility.yul\":16122:16261   */\n      swap1\n      pop\n        /* \"#utility.yul\":15849:16268   */\n      swap2\n      swap1\n      pop\n      jump\t// out\n        /* \"#utility.yul\":16274:16507   */\n    tag_91:\n        /* \"#utility.yul\":16313:16316   */\n      0x00\n        /* \"#utility.yul\":16336:16360   */\n      tag_434\n        /* \"#utility.yul\":16354:16359   */\n      dup3\n        /* \"#utility.yul\":16336:16360   */\n      tag_221\n      jump\t// in\n    tag_434:\n        /* \"#utility.yul\":16327:16360   */\n      swap2\n      pop\n        /* \"#utility.yul\":16382:16448   */\n      0xffffffffffffffffffffffffffffffffffffffffffffffffffffffffffffffff\n        /* \"#utility.yul\":16375:16380   */\n      dup3\n        /* \"#utility.yul\":16372:16449   */\n      sub\n        /* \"#utility.yul\":16369:16472   */\n      tag_435\n      jumpi\n        /* \"#utility.yul\":16452:16470   */\n      tag_436\n      tag_246\n      jump\t// in\n    tag_436:\n        /* \"#utility.yul\":16369:16472   */\n    tag_435:\n        /* \"#utility.yul\":16499:16500   */\n      0x01\n        /* \"#utility.yul\":16492:16497   */\n      dup3\n        /* \"#utility.yul\":16488:16501   */\n      add\n        /* \"#utility.yul\":16481:16501   */\n      swap1\n      pop\n        /* \"#utility.yul\":16274:16507   */\n      swap2\n      swap1\n      pop\n      jump\t// out\n        /* \"#utility.yul\":16513:16693   */\n    tag_256:\n        /* \"#utility.yul\":16561:16638   */\n      0x4e487b7100000000000000000000000000000000000000000000000000000000\n        /* \"#utility.yul\":16558:16559   */\n      0x00\n        /* \"#utility.yul\":16551:16639   */\n      mstore\n        /* \"#utility.yul\":16658:16662   */\n      0x22\n        /* \"#utility.yul\":16655:16656   */\n      0x04\n        /* \"#utility.yul\":16648:16663   */\n      mstore\n        /* \"#utility.yul\":16682:16686   */\n      0x24\n        /* \"#utility.yul\":16679:16680   */\n      0x00\n        /* \"#utility.yul\":16672:16687   */\n      revert\n        /* \"#utility.yul\":16699:17019   */\n    tag_96:\n        /* \"#utility.yul\":16743:16749   */\n      0x00\n        /* \"#utility.yul\":16780:16781   */\n      0x02\n        /* \"#utility.yul\":16774:16778   */\n      dup3\n        /* \"#utility.yul\":16770:16782   */\n      div\n        /* \"#utility.yul\":16760:16782   */\n      swap1\n      pop\n        /* \"#utility.yul\":16827:16828   */\n      0x01\n        /* \"#utility.yul\":16821:16825   */\n      dup3\n        /* \"#utility.yul\":16817:16829   */\n      and\n        /* \"#utility.yul\":16848:16866   */\n      dup1\n        /* \"#utility.yul\":16838:16919   */\n      tag_439\n      jumpi\n        /* \"#utility.yul\":16904:16908   */\n      0x7f\n        /* \"#utility.yul\":16896:16902   */\n      dup3\n        /* \"#utility.yul\":16892:16909   */\n      and\n        /* \"#utility.yul\":16882:16909   */\n      swap2\n      pop\n        /* \"#utility.yul\":16838:16919   */\n    tag_439:\n        /* \"#utility.yul\":16966:16968   */\n      0x20\n        /* \"#utility.yul\":16958:16964   */\n      dup3\n        /* \"#utility.yul\":16955:16969   */\n      lt\n        /* \"#utility.yul\":16935:16953   */\n      dup2\n        /* \"#utility.yul\":16932:16970   */\n      sub\n        /* \"#utility.yul\":16929:17013   */\n      tag_440\n      jumpi\n        /* \"#utility.yul\":16985:17003   */\n      tag_441\n      tag_256\n      jump\t// in\n    tag_441:\n        /* \"#utility.yul\":16929:17013   */\n    tag_440:\n        /* \"#utility.yul\":16750:17019   */\n      pop\n        /* \"#utility.yul\":16699:17019   */\n      swap2\n      swap1\n      pop\n      jump\t// out\n        /* \"#utility.yul\":17025:17166   */\n    tag_257:\n        /* \"#utility.yul\":17074:17078   */\n      0x00\n        /* \"#utility.yul\":17097:17100   */\n      dup2\n        /* \"#utility.yul\":17089:17100   */\n      swap1\n      pop\n        /* \"#utility.yul\":17120:17123   */\n      dup2\n        /* \"#utility.yul\":17117:17118   */\n      0x00\n        /* \"#utility.yul\":17110:17124   */\n      mstore\n        /* \"#utility.yul\":17154:17158   */\n      0x20\n        /* \"#utility.yul\":17151:17152   */\n      0x00\n        /* \"#utility.yul\":17141:17159   */\n      keccak256\n        /* \"#utility.yul\":17133:17159   */\n      swap1\n      pop\n        /* \"#utility.yul\":17025:17166   */\n      swap2\n      swap1\n      pop\n      jump\t// out\n        /* \"#utility.yul\":17172:17265   */\n    tag_258:\n        /* \"#utility.yul\":17209:17215   */\n      0x00\n        /* \"#utility.yul\":17256:17258   */\n      0x20\n        /* \"#utility.yul\":17251:17253   */\n      0x1f\n        /* \"#utility.yul\":17244:17249   */\n      dup4\n        /* \"#utility.yul\":17240:17254   */\n      add\n        /* \"#utility.yul\":17236:17259   */\n      div\n        /* \"#utility.yul\":17226:17259   */\n      swap1\n      pop\n        /* \"#utility.yul\":17172:17265   */\n      swap2\n      swap1\n      pop\n      jump\t// out\n        /* \"#utility.yul\":17271:17378   */\n    tag_259:\n        /* \"#utility.yul\":17315:17323   */\n      0x00\n        /* \"#utility.yul\":17365:17370   */\n      dup3\n        /* \"#utility.yul\":17359:17363   */\n      dup3\n        /* \"#utility.yul\":17355:17371   */\n      shl\n        /* \"#utility.yul\":17334:17371   */\n      swap1\n      pop\n        /* \"#utility.yul\":17271:17378   */\n      swap3\n      swap2\n      pop\n      pop\n      jump\t// out\n        /* \"#utility.yul\":17384:17777   */\n    tag_260:\n        /* \"#utility.yul\":17453:17459   */\n      0x00\n        /* \"#utility.yul\":17503:17504   */\n      0x08\n        /* \"#utility.yul\":17491:17501   */\n      dup4\n        /* \"#utility.yul\":17487:17505   */\n      mul\n        /* \"#utility.yul\":17526:17623   */\n      tag_446\n        /* \"#utility.yul\":17556:17622   */\n      0xffffffffffffffffffffffffffffffffffffffffffffffffffffffffffffffff\n        /* \"#utility.yul\":17545:17554   */\n      dup3\n        /* \"#utility.yul\":17526:17623   */\n      tag_259\n      jump\t// in\n    tag_446:\n        /* \"#utility.yul\":17644:17683   */\n      tag_447\n        /* \"#utility.yul\":17674:17682   */\n      dup7\n        /* \"#utility.yul\":17663:17672   */\n      dup4\n        /* \"#utility.yul\":17644:17683   */\n      tag_259\n      jump\t// in\n    tag_447:\n        /* \"#utility.yul\":17632:17683   */\n      swap6\n      pop\n        /* \"#utility.yul\":17716:17720   */\n      dup1\n        /* \"#utility.yul\":17712:17721   */\n      not\n        /* \"#utility.yul\":17705:17710   */\n      dup5\n        /* \"#utility.yul\":17701:17722   */\n      and\n        /* \"#utility.yul\":17692:17722   */\n      swap4\n      pop\n        /* \"#utility.yul\":17765:17769   */\n      dup1\n        /* \"#utility.yul\":17755:17763   */\n      dup7\n        /* \"#utility.yul\":17751:17770   */\n      and\n        /* \"#utility.yul\":17744:17749   */\n      dup5\n        /* \"#utility.yul\":17741:17771   */\n      or\n        /* \"#utility.yul\":17731:17771   */\n      swap3\n      pop\n        /* \"#utility.yul\":17460:17777   */\n      pop\n      pop\n        /* \"#utility.yul\":17384:17777   */\n      swap4\n      swap3\n      pop\n      pop\n      pop\n      jump\t// out\n        /* \"#utility.yul\":17783:17843   */\n    tag_261:\n        /* \"#utility.yul\":17811:17814   */\n      0x00\n        /* \"#utility.yul\":17832:17837   */\n      dup2\n        /* \"#utility.yul\":17825:17837   */\n      swap1\n      pop\n        /* \"#utility.yul\":17783:17843   */\n      swap2\n      swap1\n      pop\n      jump\t// out\n        /* \"#utility.yul\":17849:17991   */\n    tag_262:\n        /* \"#utility.yul\":17899:17908   */\n      0x00\n        /* \"#utility.yul\":17932:17985   */\n      tag_450\n        /* \"#utility.yul\":17950:17984   */\n      tag_451\n        /* \"#utility.yul\":17959:17983   */\n      tag_452\n        /* \"#utility.yul\":17977:17982   */\n      dup5\n        /* \"#utility.yul\":17959:17983   */\n      tag_221\n      jump\t// in\n    tag_452:\n        /* \"#utility.yul\":17950:17984   */\n      tag_261\n      jump\t// in\n    tag_451:\n        /* \"#utility.yul\":17932:17985   */\n      tag_221\n      jump\t// in\n    tag_450:\n        /* \"#utility.yul\":17919:17985   */\n      swap1\n      pop\n        /* \"#utility.yul\":17849:17991   */\n      swap2\n      swap1\n      pop\n      jump\t// out\n        /* \"#utility.yul\":17997:18072   */\n    tag_263:\n        /* \"#utility.yul\":18040:18043   */\n      0x00\n        /* \"#utility.yul\":18061:18066   */\n      dup2\n        /* \"#utility.yul\":18054:18066   */\n      swap1\n      pop\n        /* \"#utility.yul\":17997:18072   */\n      swap2\n      swap1\n      pop\n      jump\t// out\n        /* \"#utility.yul\":18078:18347   */\n    tag_264:\n        /* \"#utility.yul\":18188:18227   */\n      tag_455\n        /* \"#utility.yul\":18219:18226   */\n      dup4\n        /* \"#utility.yul\":18188:18227   */\n      tag_262\n      jump\t// in\n    tag_455:\n        /* \"#utility.yul\":18249:18340   */\n      tag_456\n        /* \"#utility.yul\":18298:18339   */\n      tag_457\n        /* \"#utility.yul\":18322:18338   */\n      dup3\n        /* \"#utility.yul\":18298:18339   */\n      tag_263\n      jump\t// in\n    tag_457:\n        /* \"#utility.yul\":18290:18296   */\n      dup5\n        /* \"#utility.yul\":18283:18287   */\n      dup5\n        /* \"#utility.yul\":18277:18288   */\n      sload\n        /* \"#utility.yul\":18249:18340   */\n      tag_260\n      jump\t// in\n    tag_456:\n        /* \"#utility.yul\":18243:18247   */\n      dup3\n        /* \"#utility.yul\":18236:18341   */\n      sstore\n        /* \"#utility.yul\":18154:18347   */\n      pop\n        /* \"#utility.yul\":18078:18347   */\n      pop\n      pop\n      pop\n      jump\t// out\n        /* \"#utility.yul\":18353:18426   */\n    tag_265:\n        /* \"#utility.yul\":18398:18401   */\n      0x00\n        /* \"#utility.yul\":18353:18426   */\n      swap1\n      jump\t// out\n        /* \"#utility.yul\":18432:18621   */\n    tag_266:\n        /* \"#utility.yul\":18509:18541   */\n      tag_460\n      tag_265\n      jump\t// in\n    tag_460:\n        /* \"#utility.yul\":18550:18615   */\n      tag_461\n        /* \"#utility.yul\":18608:18614   */\n      dup2\n        /* \"#utility.yul\":18600:18606   */\n      dup5\n        /* \"#utility.yul\":18594:18598   */\n      dup5\n        /* \"#utility.yul\":18550:18615   */\n      tag_264\n      jump\t// in\n    tag_461:\n        /* \"#utility.yul\":18485:18621   */\n      pop\n        /* \"#utility.yul\":18432:18621   */\n      pop\n      pop\n      jump\t// out\n        /* \"#utility.yul\":18627:18813   */\n    tag_267:\n        /* \"#utility.yul\":18687:18807   */\n    tag_463:\n        /* \"#utility.yul\":18704:18707   */\n      dup2\n        /* \"#utility.yul\":18697:18702   */\n      dup2\n        /* \"#utility.yul\":18694:18708   */\n      lt\n        /* \"#utility.yul\":18687:18807   */\n      iszero\n      tag_465\n      jumpi\n        /* \"#utility.yul\":18758:18797   */\n      tag_466\n        /* \"#utility.yul\":18795:18796   */\n      0x00\n        /* \"#utility.yul\":18788:18793   */\n      dup3\n        /* \"#utility.yul\":18758:18797   */\n      tag_266\n      jump\t// in\n    tag_466:\n        /* \"#utility.yul\":18731:18732   */\n      0x01\n        /* \"#utility.yul\":18724:18729   */\n      dup2\n        /* \"#utility.yul\":18720:18733   */\n      add\n        /* \"#utility.yul\":18711:18733   */\n      swap1\n      pop\n        /* \"#utility.yul\":18687:18807   */\n      jump(tag_463)\n    tag_465:\n        /* \"#utility.yul\":18627:18813   */\n      pop\n      pop\n      jump\t// out\n        /* \"#utility.yul\":18819:19362   */\n    tag_268:\n        /* \"#utility.yul\":18920:18922   */\n      0x1f\n        /* \"#utility.yul\":18915:18918   */\n      dup3\n        /* \"#utility.yul\":18912:18923   */\n      gt\n        /* \"#utility.yul\":18909:19355   */\n      iszero\n      tag_468\n      jumpi\n        /* \"#utility.yul\":18954:18992   */\n      tag_469\n        /* \"#utility.yul\":18986:18991   */\n      dup2\n        /* \"#utility.yul\":18954:18992   */\n      tag_257\n      jump\t// in\n    tag_469:\n        /* \"#utility.yul\":19038:19067   */\n      tag_470\n        /* \"#utility.yul\":19056:19066   */\n      dup5\n        /* \"#utility.yul\":19038:19067   */\n      tag_258\n      jump\t// in\n    tag_470:\n        /* \"#utility.yul\":19028:19036   */\n      dup2\n        /* \"#utility.yul\":19024:19068   */\n      add\n        /* \"#utility.yul\":19221:19223   */\n      0x20\n        /* \"#utility.yul\":19209:19219   */\n      dup6\n        /* \"#utility.yul\":19206:19224   */\n      lt\n        /* \"#utility.yul\":19203:19252   */\n      iszero\n      tag_471\n      jumpi\n        /* \"#utility.yul\":19242:19250   */\n      dup2\n        /* \"#utility.yul\":19227:19250   */\n      swap1\n      pop\n        /* \"#utility.yul\":19203:19252   */\n    tag_471:\n        /* \"#utility.yul\":19265:19345   */\n      tag_472\n        /* \"#utility.yul\":19321:19343   */\n      tag_473\n        /* \"#utility.yul\":19339:19342   */\n      dup6\n        /* \"#utility.yul\":19321:19343   */\n      tag_258\n      jump\t// in\n    tag_473:\n        /* \"#utility.yul\":19311:19319   */\n      dup4\n        /* \"#utility.yul\":19307:19344   */\n      add\n        /* \"#utility.yul\":19294:19305   */\n      dup3\n        /* \"#utility.yul\":19265:19345   */\n      tag_267\n      jump\t// in\n    tag_472:\n        /* \"#utility.yul\":18924:19355   */\n      pop\n      pop\n        /* \"#utility.yul\":18909:19355   */\n    tag_468:\n        /* \"#utility.yul\":18819:19362   */\n      pop\n      pop\n      pop\n      jump\t// out\n        /* \"#utility.yul\":19368:19485   */\n    tag_269:\n        /* \"#utility.yul\":19422:19430   */\n      0x00\n        /* \"#utility.yul\":19472:19477   */\n      dup3\n        /* \"#utility.yul\":19466:19470   */\n      dup3\n        /* \"#utility.yul\":19462:19478   */\n      shr\n        /* \"#utility.yul\":19441:19478   */\n      swap1\n      pop\n        /* \"#utility.yul\":19368:19485   */\n      swap3\n      swap2\n      pop\n      pop\n      jump\t// out\n        /* \"#utility.yul\":19491:19660   */\n    tag_270:\n        /* \"#utility.yul\":19535:19541   */\n      0x00\n        /* \"#utility.yul\":19568:19619   */\n      tag_476\n        /* \"#utility.yul\":19616:19617   */\n      0x00\n        /* \"#utility.yul\":19612:19618   */\n      not\n        /* \"#utility.yul\":19604:19609   */\n      dup5\n        /* \"#utility.yul\":19601:19602   */\n      0x08\n        /* \"#utility.yul\":19597:19610   */\n      mul\n        /* \"#utility.yul\":19568:19619   */\n      tag_269\n      jump\t// in\n    tag_476:\n        /* \"#utility.yul\":19564:19620   */\n      not\n        /* \"#utility.yul\":19649:19653   */\n      dup1\n        /* \"#utility.yul\":19643:19647   */\n      dup4\n        /* \"#utility.yul\":19639:19654   */\n      and\n        /* \"#utility.yul\":19629:19654   */\n      swap2\n      pop\n        /* \"#utility.yul\":19542:19660   */\n      pop\n        /* \"#utility.yul\":19491:19660   */\n      swap3\n      swap2\n      pop\n      pop\n      jump\t// out\n        /* \"#utility.yul\":19665:19960   */\n    tag_271:\n        /* \"#utility.yul\":19741:19745   */\n      0x00\n        /* \"#utility.yul\":19887:19916   */\n      tag_478\n        /* \"#utility.yul\":19912:19915   */\n      dup4\n        /* \"#utility.yul\":19906:19910   */\n      dup4\n        /* \"#utility.yul\":19887:19916   */\n      tag_270\n      jump\t// in\n    tag_478:\n        /* \"#utility.yul\":19879:19916   */\n      swap2\n      pop\n        /* \"#utility.yul\":19949:19952   */\n      dup3\n        /* \"#utility.yul\":19946:19947   */\n      0x02\n        /* \"#utility.yul\":19942:19953   */\n      mul\n        /* \"#utility.yul\":19936:19940   */\n      dup3\n        /* \"#utility.yul\":19933:19954   */\n      or\n        /* \"#utility.yul\":19925:19954   */\n      swap1\n      pop\n        /* \"#utility.yul\":19665:19960   */\n      swap3\n      swap2\n      pop\n      pop\n      jump\t// out\n        /* \"#utility.yul\":19965:21360   */\n    tag_93:\n        /* \"#utility.yul\":20082:20119   */\n      tag_480\n        /* \"#utility.yul\":20115:20118   */\n      dup3\n        /* \"#utility.yul\":20082:20119   */\n      tag_235\n      jump\t// in\n    tag_480:\n        /* \"#utility.yul\":20184:20202   */\n      0xffffffffffffffff\n        /* \"#utility.yul\":20176:20182   */\n      dup2\n        /* \"#utility.yul\":20173:20203   */\n      gt\n        /* \"#utility.yul\":20170:20226   */\n      iszero\n      tag_481\n      jumpi\n        /* \"#utility.yul\":20206:20224   */\n      tag_482\n      tag_227\n      jump\t// in\n    tag_482:\n        /* \"#utility.yul\":20170:20226   */\n    tag_481:\n        /* \"#utility.yul\":20250:20288   */\n      tag_483\n        /* \"#utility.yul\":20282:20286   */\n      dup3\n        /* \"#utility.yul\":20276:20287   */\n      sload\n        /* \"#utility.yul\":20250:20288   */\n      tag_96\n      jump\t// in\n    tag_483:\n        /* \"#utility.yul\":20335:20402   */\n      tag_484\n        /* \"#utility.yul\":20395:20401   */\n      dup3\n        /* \"#utility.yul\":20387:20393   */\n      dup3\n        /* \"#utility.yul\":20381:20385   */\n      dup6\n        /* \"#utility.yul\":20335:20402   */\n      tag_268\n      jump\t// in\n    tag_484:\n        /* \"#utility.yul\":20429:20430   */\n      0x00\n        /* \"#utility.yul\":20453:20457   */\n      0x20\n        /* \"#utility.yul\":20440:20457   */\n      swap1\n      pop\n        /* \"#utility.yul\":20485:20487   */\n      0x1f\n        /* \"#utility.yul\":20477:20483   */\n      dup4\n        /* \"#utility.yul\":20474:20488   */\n      gt\n        /* \"#utility.yul\":20502:20503   */\n      0x01\n        /* \"#utility.yul\":20497:21115   */\n      dup2\n      eq\n      tag_486\n      jumpi\n        /* \"#utility.yul\":21159:21160   */\n      0x00\n        /* \"#utility.yul\":21176:21182   */\n      dup5\n        /* \"#utility.yul\":21173:21250   */\n      iszero\n      tag_487\n      jumpi\n        /* \"#utility.yul\":21225:21234   */\n      dup3\n        /* \"#utility.yul\":21220:21223   */\n      dup8\n        /* \"#utility.yul\":21216:21235   */\n      add\n        /* \"#utility.yul\":21210:21236   */\n      mload\n        /* \"#utility.yul\":21201:21236   */\n      swap1\n      pop\n        /* \"#utility.yul\":21173:21250   */\n    tag_487:\n        /* \"#utility.yul\":21276:21343   */\n      tag_488\n        /* \"#utility.yul\":21336:21342   */\n      dup6\n        /* \"#utility.yul\":21329:21334   */\n      dup3\n        /* \"#utility.yul\":21276:21343   */\n      tag_271\n      jump\t// in\n    tag_488:\n        /* \"#utility.yul\":21270:21274   */\n      dup7\n        /* \"#utility.yul\":21263:21344   */\n      sstore\n        /* \"#utility.yul\":21132:21354   */\n      pop\n        /* \"#utility.yul\":20467:21354   */\n      jump(tag_485)\n        /* \"#utility.yul\":20497:21115   */\n    tag_486:\n        /* \"#utility.yul\":20549:20553   */\n      0x1f\n        /* \"#utility.yul\":20545:20554   */\n      not\n        /* \"#utility.yul\":20537:20543   */\n      dup5\n        /* \"#utility.yul\":20533:20555   */\n      and\n        /* \"#utility.yul\":20583:20620   */\n      tag_489\n        /* \"#utility.yul\":20615:20619   */\n      dup7\n        /* \"#utility.yul\":20583:20620   */\n      tag_257\n      jump\t// in\n    tag_489:\n        /* \"#utility.yul\":20642:20643   */\n      0x00\n        /* \"#utility.yul\":20656:20864   */\n    tag_490:\n        /* \"#utility.yul\":20670:20677   */\n      dup3\n        /* \"#utility.yul\":20667:20668   */\n      dup2\n        /* \"#utility.yul\":20664:20678   */\n      lt\n        /* \"#utility.yul\":20656:20864   */\n      iszero\n      tag_492\n      jumpi\n        /* \"#utility.yul\":20749:20758   */\n      dup5\n        /* \"#utility.yul\":20744:20747   */\n      dup10\n        /* \"#utility.yul\":20740:20759   */\n      add\n        /* \"#utility.yul\":20734:20760   */\n      mload\n        /* \"#utility.yul\":20726:20732   */\n      dup3\n        /* \"#utility.yul\":20719:20761   */\n      sstore\n        /* \"#utility.yul\":20800:20801   */\n      0x01\n        /* \"#utility.yul\":20792:20798   */\n      dup3\n        /* \"#utility.yul\":20788:20802   */\n      add\n        /* \"#utility.yul\":20778:20802   */\n      swap2\n      pop\n        /* \"#utility.yul\":20847:20849   */\n      0x20\n        /* \"#utility.yul\":20836:20845   */\n      dup6\n        /* \"#utility.yul\":20832:20850   */\n      add\n        /* \"#utility.yul\":20819:20850   */\n      swap5\n      pop\n        /* \"#utility.yul\":20693:20697   */\n      0x20\n        /* \"#utility.yul\":20690:20691   */\n      dup2\n        /* \"#utility.yul\":20686:20698   */\n      add\n        /* \"#utility.yul\":20681:20698   */\n      swap1\n      pop\n        /* \"#utility.yul\":20656:20864   */\n      jump(tag_490)\n    tag_492:\n        /* \"#utility.yul\":20892:20898   */\n      dup7\n        /* \"#utility.yul\":20883:20890   */\n      dup4\n        /* \"#utility.yul\":20880:20899   */\n      lt\n        /* \"#utility.yul\":20877:21056   */\n      iszero\n      tag_493\n      jumpi\n        /* \"#utility.yul\":20950:20959   */\n      dup5\n        /* \"#utility.yul\":20945:20948   */\n      dup10\n        /* \"#utility.yul\":20941:20960   */\n      add\n        /* \"#utility.yul\":20935:20961   */\n      mload\n        /* \"#utility.yul\":20993:21041   */\n      tag_494\n        /* \"#utility.yul\":21035:21039   */\n      0x1f\n        /* \"#utility.yul\":21027:21033   */\n      dup10\n        /* \"#utility.yul\":21023:21040   */\n      and\n        /* \"#utility.yul\":21012:21021   */\n      dup3\n        /* \"#utility.yul\":20993:21041   */\n      tag_270\n      jump\t// in\n    tag_494:\n        /* \"#utility.yul\":20985:20991   */\n      dup4\n        /* \"#utility.yul\":20978:21042   */\n      sstore\n        /* \"#utility.yul\":20900:21056   */\n      pop\n        /* \"#utility.yul\":20877:21056   */\n    tag_493:\n        /* \"#utility.yul\":21102:21103   */\n      0x01\n        /* \"#utility.yul\":21098:21099   */\n      0x02\n        /* \"#utility.yul\":21090:21096   */\n      dup9\n        /* \"#utility.yul\":21086:21100   */\n      mul\n        /* \"#utility.yul\":21082:21104   */\n      add\n        /* \"#utility.yul\":21076:21080   */\n      dup9\n        /* \"#utility.yul\":21069:21105   */\n      sstore\n        /* \"#utility.yul\":20504:21115   */\n      pop\n      pop\n      pop\n        /* \"#utility.yul\":20467:21354   */\n    tag_485:\n      pop\n        /* \"#utility.yul\":20057:21360   */\n      pop\n      pop\n      pop\n        /* \"#utility.yul\":19965:21360   */\n      pop\n      pop\n      jump\t// out\n        /* \"#utility.yul\":21366:21537   */\n    tag_272:\n        /* \"#utility.yul\":21506:21529   */\n      0x41677265656d656e742068617320657870697265640000000000000000000000\n        /* \"#utility.yul\":21502:21503   */\n      0x00\n        /* \"#utility.yul\":21494:21500   */\n      dup3\n        /* \"#utility.yul\":21490:21504   */\n      add\n        /* \"#utility.yul\":21483:21530   */\n      mstore\n        /* \"#utility.yul\":21366:21537   */\n      pop\n      jump\t// out\n        /* \"#utility.yul\":21543:21909   */\n    tag_273:\n        /* \"#utility.yul\":21685:21688   */\n      0x00\n        /* \"#utility.yul\":21706:21773   */\n      tag_497\n        /* \"#utility.yul\":21770:21772   */\n      0x15\n        /* \"#utility.yul\":21765:21768   */\n      dup4\n        /* \"#utility.yul\":21706:21773   */\n      tag_236\n      jump\t// in\n    tag_497:\n        /* \"#utility.yul\":21699:21773   */\n      swap2\n      pop\n        /* \"#utility.yul\":21782:21875   */\n      tag_498\n        /* \"#utility.yul\":21871:21874   */\n      dup3\n        /* \"#utility.yul\":21782:21875   */\n      tag_272\n      jump\t// in\n    tag_498:\n        /* \"#utility.yul\":21900:21902   */\n      0x20\n        /* \"#utility.yul\":21895:21898   */\n      dup3\n        /* \"#utility.yul\":21891:21903   */\n      add\n        /* \"#utility.yul\":21884:21903   */\n      swap1\n      pop\n        /* \"#utility.yul\":21543:21909   */\n      swap2\n      swap1\n      pop\n      jump\t// out\n        /* \"#utility.yul\":21915:22334   */\n    tag_113:\n        /* \"#utility.yul\":22081:22085   */\n      0x00\n        /* \"#utility.yul\":22119:22121   */\n      0x20\n        /* \"#utility.yul\":22108:22117   */\n      dup3\n        /* \"#utility.yul\":22104:22122   */\n      add\n        /* \"#utility.yul\":22096:22122   */\n      swap1\n      pop\n        /* \"#utility.yul\":22168:22177   */\n      dup2\n        /* \"#utility.yul\":22162:22166   */\n      dup2\n        /* \"#utility.yul\":22158:22178   */\n      sub\n        /* \"#utility.yul\":22154:22155   */\n      0x00\n        /* \"#utility.yul\":22143:22152   */\n      dup4\n        /* \"#utility.yul\":22139:22156   */\n      add\n        /* \"#utility.yul\":22132:22179   */\n      mstore\n        /* \"#utility.yul\":22196:22327   */\n      tag_500\n        /* \"#utility.yul\":22322:22326   */\n      dup2\n        /* \"#utility.yul\":22196:22327   */\n      tag_273\n      jump\t// in\n    tag_500:\n        /* \"#utility.yul\":22188:22327   */\n      swap1\n      pop\n        /* \"#utility.yul\":21915:22334   */\n      swap2\n      swap1\n      pop\n      jump\t// out\n        /* \"#utility.yul\":22340:22562   */\n    tag_274:\n        /* \"#utility.yul\":22480:22514   */\n      0x596f7520617265206e6f74207468652074656e616e74206f6620746869732072\n        /* \"#utility.yul\":22476:22477   */\n      0x00\n        /* \"#utility.yul\":22468:22474   */\n      dup3\n        /* \"#utility.yul\":22464:22478   */\n      add\n        /* \"#utility.yul\":22457:22515   */\n      mstore\n        /* \"#utility.yul\":22549:22554   */\n      0x6f6f6d0000000000000000000000000000000000000000000000000000000000\n        /* \"#utility.yul\":22544:22546   */\n      0x20\n        /* \"#utility.yul\":22536:22542   */\n      dup3\n        /* \"#utility.yul\":22532:22547   */\n      add\n        /* \"#utility.yul\":22525:22555   */\n      mstore\n        /* \"#utility.yul\":22340:22562   */\n      pop\n      jump\t// out\n        /* \"#utility.yul\":22568:22934   */\n    tag_275:\n        /* \"#utility.yul\":22710:22713   */\n      0x00\n        /* \"#utility.yul\":22731:22798   */\n      tag_503\n        /* \"#utility.yul\":22795:22797   */\n      0x23\n        /* \"#utility.yul\":22790:22793   */\n      dup4\n        /* \"#utility.yul\":22731:22798   */\n      tag_236\n      jump\t// in\n    tag_503:\n        /* \"#utility.yul\":22724:22798   */\n      swap2\n      pop\n        /* \"#utility.yul\":22807:22900   */\n      tag_504\n        /* \"#utility.yul\":22896:22899   */\n      dup3\n        /* \"#utility.yul\":22807:22900   */\n      tag_274\n      jump\t// in\n    tag_504:\n        /* \"#utility.yul\":22925:22927   */\n      0x40\n        /* \"#utility.yul\":22920:22923   */\n      dup3\n        /* \"#utility.yul\":22916:22928   */\n      add\n        /* \"#utility.yul\":22909:22928   */\n      swap1\n      pop\n        /* \"#utility.yul\":22568:22934   */\n      swap2\n      swap1\n      pop\n      jump\t// out\n        /* \"#utility.yul\":22940:23359   */\n    tag_129:\n        /* \"#utility.yul\":23106:23110   */\n      0x00\n        /* \"#utility.yul\":23144:23146   */\n      0x20\n        /* \"#utility.yul\":23133:23142   */\n      dup3\n        /* \"#utility.yul\":23129:23147   */\n      add\n        /* \"#utility.yul\":23121:23147   */\n      swap1\n      pop\n        /* \"#utility.yul\":23193:23202   */\n      dup2\n        /* \"#utility.yul\":23187:23191   */\n      dup2\n        /* \"#utility.yul\":23183:23203   */\n      sub\n        /* \"#utility.yul\":23179:23180   */\n      0x00\n        /* \"#utility.yul\":23168:23177   */\n      dup4\n        /* \"#utility.yul\":23164:23181   */\n      add\n        /* \"#utility.yul\":23157:23204   */\n      mstore\n        /* \"#utility.yul\":23221:23352   */\n      tag_506\n        /* \"#utility.yul\":23347:23351   */\n      dup2\n        /* \"#utility.yul\":23221:23352   */\n      tag_275\n      jump\t// in\n    tag_506:\n        /* \"#utility.yul\":23213:23352   */\n      swap1\n      pop\n        /* \"#utility.yul\":22940:23359   */\n      swap2\n      swap1\n      pop\n      jump\t// out\n        /* \"#utility.yul\":23365:23539   */\n    tag_276:\n        /* \"#utility.yul\":23505:23531   */\n      0x54696d656c65667420746f20706179207468652072656e740000000000000000\n        /* \"#utility.yul\":23501:23502   */\n      0x00\n        /* \"#utility.yul\":23493:23499   */\n      dup3\n        /* \"#utility.yul\":23489:23503   */\n      add\n        /* \"#utility.yul\":23482:23532   */\n      mstore\n        /* \"#utility.yul\":23365:23539   */\n      pop\n      jump\t// out\n        /* \"#utility.yul\":23545:23911   */\n    tag_277:\n        /* \"#utility.yul\":23687:23690   */\n      0x00\n        /* \"#utility.yul\":23708:23775   */\n      tag_509\n        /* \"#utility.yul\":23772:23774   */\n      0x18\n        /* \"#utility.yul\":23767:23770   */\n      dup4\n        /* \"#utility.yul\":23708:23775   */\n      tag_236\n      jump\t// in\n    tag_509:\n        /* \"#utility.yul\":23701:23775   */\n      swap2\n      pop\n        /* \"#utility.yul\":23784:23877   */\n      tag_510\n        /* \"#utility.yul\":23873:23876   */\n      dup3\n        /* \"#utility.yul\":23784:23877   */\n      tag_276\n      jump\t// in\n    tag_510:\n        /* \"#utility.yul\":23902:23904   */\n      0x20\n        /* \"#utility.yul\":23897:23900   */\n      dup3\n        /* \"#utility.yul\":23893:23905   */\n      add\n        /* \"#utility.yul\":23886:23905   */\n      swap1\n      pop\n        /* \"#utility.yul\":23545:23911   */\n      swap2\n      swap1\n      pop\n      jump\t// out\n        /* \"#utility.yul\":23917:24336   */\n    tag_134:\n        /* \"#utility.yul\":24083:24087   */\n      0x00\n        /* \"#utility.yul\":24121:24123   */\n      0x20\n        /* \"#utility.yul\":24110:24119   */\n      dup3\n        /* \"#utility.yul\":24106:24124   */\n      add\n        /* \"#utility.yul\":24098:24124   */\n      swap1\n      pop\n        /* \"#utility.yul\":24170:24179   */\n      dup2\n        /* \"#utility.yul\":24164:24168   */\n      dup2\n        /* \"#utility.yul\":24160:24180   */\n      sub\n        /* \"#utility.yul\":24156:24157   */\n      0x00\n        /* \"#utility.yul\":24145:24154   */\n      dup4\n        /* \"#utility.yul\":24141:24158   */\n      add\n        /* \"#utility.yul\":24134:24181   */\n      mstore\n        /* \"#utility.yul\":24198:24329   */\n      tag_512\n        /* \"#utility.yul\":24324:24328   */\n      dup2\n        /* \"#utility.yul\":24198:24329   */\n      tag_277\n      jump\t// in\n    tag_512:\n        /* \"#utility.yul\":24190:24329   */\n      swap1\n      pop\n        /* \"#utility.yul\":23917:24336   */\n      swap2\n      swap1\n      pop\n      jump\t// out\n        /* \"#utility.yul\":24342:24523   */\n    tag_278:\n        /* \"#utility.yul\":24482:24515   */\n      0x4e6f7420656e6f75676820657468657220696e20796f75722077616c6c657400\n        /* \"#utility.yul\":24478:24479   */\n      0x00\n        /* \"#utility.yul\":24470:24476   */\n      dup3\n        /* \"#utility.yul\":24466:24480   */\n      add\n        /* \"#utility.yul\":24459:24516   */\n      mstore\n        /* \"#utility.yul\":24342:24523   */\n      pop\n      jump\t// out\n        /* \"#utility.yul\":24529:24895   */\n    tag_279:\n        /* \"#utility.yul\":24671:24674   */\n      0x00\n        /* \"#utility.yul\":24692:24759   */\n      tag_515\n        /* \"#utility.yul\":24756:24758   */\n      0x1f\n        /* \"#utility.yul\":24751:24754   */\n      dup4\n        /* \"#utility.yul\":24692:24759   */\n      tag_236\n      jump\t// in\n    tag_515:\n        /* \"#utility.yul\":24685:24759   */\n      swap2\n      pop\n        /* \"#utility.yul\":24768:24861   */\n      tag_516\n        /* \"#utility.yul\":24857:24860   */\n      dup3\n        /* \"#utility.yul\":24768:24861   */\n      tag_278\n      jump\t// in\n    tag_516:\n        /* \"#utility.yul\":24886:24888   */\n      0x20\n        /* \"#utility.yul\":24881:24884   */\n      dup3\n        /* \"#utility.yul\":24877:24889   */\n      add\n        /* \"#utility.yul\":24870:24889   */\n      swap1\n      pop\n        /* \"#utility.yul\":24529:24895   */\n      swap2\n      swap1\n      pop\n      jump\t// out\n        /* \"#utility.yul\":24901:25320   */\n    tag_138:\n        /* \"#utility.yul\":25067:25071   */\n      0x00\n        /* \"#utility.yul\":25105:25107   */\n      0x20\n        /* \"#utility.yul\":25094:25103   */\n      dup3\n        /* \"#utility.yul\":25090:25108   */\n      add\n        /* \"#utility.yul\":25082:25108   */\n      swap1\n      pop\n        /* \"#utility.yul\":25154:25163   */\n      dup2\n        /* \"#utility.yul\":25148:25152   */\n      dup2\n        /* \"#utility.yul\":25144:25164   */\n      sub\n        /* \"#utility.yul\":25140:25141   */\n      0x00\n        /* \"#utility.yul\":25129:25138   */\n      dup4\n        /* \"#utility.yul\":25125:25142   */\n      add\n        /* \"#utility.yul\":25118:25165   */\n      mstore\n        /* \"#utility.yul\":25182:25313   */\n      tag_518\n        /* \"#utility.yul\":25308:25312   */\n      dup2\n        /* \"#utility.yul\":25182:25313   */\n      tag_279\n      jump\t// in\n    tag_518:\n        /* \"#utility.yul\":25174:25313   */\n      swap1\n      pop\n        /* \"#utility.yul\":24901:25320   */\n      swap2\n      swap1\n      pop\n      jump\t// out\n        /* \"#utility.yul\":25326:25495   */\n    tag_280:\n        /* \"#utility.yul\":25466:25487   */\n      0x52656e74207061796d656e74206661696c656400000000000000000000000000\n        /* \"#utility.yul\":25462:25463   */\n      0x00\n        /* \"#utility.yul\":25454:25460   */\n      dup3\n        /* \"#utility.yul\":25450:25464   */\n      add\n        /* \"#utility.yul\":25443:25488   */\n      mstore\n        /* \"#utility.yul\":25326:25495   */\n      pop\n      jump\t// out\n        /* \"#utility.yul\":25501:25867   */\n    tag_281:\n        /* \"#utility.yul\":25643:25646   */\n      0x00\n        /* \"#utility.yul\":25664:25731   */\n      tag_521\n        /* \"#utility.yul\":25728:25730   */\n      0x13\n        /* \"#utility.yul\":25723:25726   */\n      dup4\n        /* \"#utility.yul\":25664:25731   */\n      tag_236\n      jump\t// in\n    tag_521:\n        /* \"#utility.yul\":25657:25731   */\n      swap2\n      pop\n        /* \"#utility.yul\":25740:25833   */\n      tag_522\n        /* \"#utility.yul\":25829:25832   */\n      dup3\n        /* \"#utility.yul\":25740:25833   */\n      tag_280\n      jump\t// in\n    tag_522:\n        /* \"#utility.yul\":25858:25860   */\n      0x20\n        /* \"#utility.yul\":25853:25856   */\n      dup3\n        /* \"#utility.yul\":25849:25861   */\n      add\n        /* \"#utility.yul\":25842:25861   */\n      swap1\n      pop\n        /* \"#utility.yul\":25501:25867   */\n      swap2\n      swap1\n      pop\n      jump\t// out\n        /* \"#utility.yul\":25873:26292   */\n    tag_147:\n        /* \"#utility.yul\":26039:26043   */\n      0x00\n        /* \"#utility.yul\":26077:26079   */\n      0x20\n        /* \"#utility.yul\":26066:26075   */\n      dup3\n        /* \"#utility.yul\":26062:26080   */\n      add\n        /* \"#utility.yul\":26054:26080   */\n      swap1\n      pop\n        /* \"#utility.yul\":26126:26135   */\n      dup2\n        /* \"#utility.yul\":26120:26124   */\n      dup2\n        /* \"#utility.yul\":26116:26136   */\n      sub\n        /* \"#utility.yul\":26112:26113   */\n      0x00\n        /* \"#utility.yul\":26101:26110   */\n      dup4\n        /* \"#utility.yul\":26097:26114   */\n      add\n        /* \"#utility.yul\":26090:26137   */\n      mstore\n        /* \"#utility.yul\":26154:26285   */\n      tag_524\n        /* \"#utility.yul\":26280:26284   */\n      dup2\n        /* \"#utility.yul\":26154:26285   */\n      tag_281\n      jump\t// in\n    tag_524:\n        /* \"#utility.yul\":26146:26285   */\n      swap1\n      pop\n        /* \"#utility.yul\":25873:26292   */\n      swap2\n      swap1\n      pop\n      jump\t// out\n        /* \"#utility.yul\":26298:26476   */\n    tag_282:\n        /* \"#utility.yul\":26438:26468   */\n      0x4f6e6c792074656e616e74732063616e20616363657373207468697300000000\n        /* \"#utility.yul\":26434:26435   */\n      0x00\n        /* \"#utility.yul\":26426:26432   */\n      dup3\n        /* \"#utility.yul\":26422:26436   */\n      add\n        /* \"#utility.yul\":26415:26469   */\n      mstore\n        /* \"#utility.yul\":26298:26476   */\n      pop\n      jump\t// out\n        /* \"#utility.yul\":26482:26848   */\n    tag_283:\n        /* \"#utility.yul\":26624:26627   */\n      0x00\n        /* \"#utility.yul\":26645:26712   */\n      tag_527\n        /* \"#utility.yul\":26709:26711   */\n      0x1c\n        /* \"#utility.yul\":26704:26707   */\n      dup4\n        /* \"#utility.yul\":26645:26712   */\n      tag_236\n      jump\t// in\n    tag_527:\n        /* \"#utility.yul\":26638:26712   */\n      swap2\n      pop\n        /* \"#utility.yul\":26721:26814   */\n      tag_528\n        /* \"#utility.yul\":26810:26813   */\n      dup3\n        /* \"#utility.yul\":26721:26814   */\n      tag_282\n      jump\t// in\n    tag_528:\n        /* \"#utility.yul\":26839:26841   */\n      0x20\n        /* \"#utility.yul\":26834:26837   */\n      dup3\n        /* \"#utility.yul\":26830:26842   */\n      add\n        /* \"#utility.yul\":26823:26842   */\n      swap1\n      pop\n        /* \"#utility.yul\":26482:26848   */\n      swap2\n      swap1\n      pop\n      jump\t// out\n        /* \"#utility.yul\":26854:27273   */\n    tag_164:\n        /* \"#utility.yul\":27020:27024   */\n      0x00\n        /* \"#utility.yul\":27058:27060   */\n      0x20\n        /* \"#utility.yul\":27047:27056   */\n      dup3\n        /* \"#utility.yul\":27043:27061   */\n      add\n        /* \"#utility.yul\":27035:27061   */\n      swap1\n      pop\n        /* \"#utility.yul\":27107:27116   */\n      dup2\n        /* \"#utility.yul\":27101:27105   */\n      dup2\n        /* \"#utility.yul\":27097:27117   */\n      sub\n        /* \"#utility.yul\":27093:27094   */\n      0x00\n        /* \"#utility.yul\":27082:27091   */\n      dup4\n        /* \"#utility.yul\":27078:27095   */\n      add\n        /* \"#utility.yul\":27071:27118   */\n      mstore\n        /* \"#utility.yul\":27135:27266   */\n      tag_530\n        /* \"#utility.yul\":27261:27265   */\n      dup2\n        /* \"#utility.yul\":27135:27266   */\n      tag_283\n      jump\t// in\n    tag_530:\n        /* \"#utility.yul\":27127:27266   */\n      swap1\n      pop\n        /* \"#utility.yul\":26854:27273   */\n      swap2\n      swap1\n      pop\n      jump\t// out\n        /* \"#utility.yul\":27279:27447   */\n    tag_284:\n        /* \"#utility.yul\":27419:27439   */\n      0x526f6f6d206973206e6f7420766163616e740000000000000000000000000000\n        /* \"#utility.yul\":27415:27416   */\n      0x00\n        /* \"#utility.yul\":27407:27413   */\n      dup3\n        /* \"#utility.yul\":27403:27417   */\n      add\n        /* \"#utility.yul\":27396:27440   */\n      mstore\n        /* \"#utility.yul\":27279:27447   */\n      pop\n      jump\t// out\n        /* \"#utility.yul\":27453:27819   */\n    tag_285:\n        /* \"#utility.yul\":27595:27598   */\n      0x00\n        /* \"#utility.yul\":27616:27683   */\n      tag_533\n        /* \"#utility.yul\":27680:27682   */\n      0x12\n        /* \"#utility.yul\":27675:27678   */\n      dup4\n        /* \"#utility.yul\":27616:27683   */\n      tag_236\n      jump\t// in\n    tag_533:\n        /* \"#utility.yul\":27609:27683   */\n      swap2\n      pop\n        /* \"#utility.yul\":27692:27785   */\n      tag_534\n        /* \"#utility.yul\":27781:27784   */\n      dup3\n        /* \"#utility.yul\":27692:27785   */\n      tag_284\n      jump\t// in\n    tag_534:\n        /* \"#utility.yul\":27810:27812   */\n      0x20\n        /* \"#utility.yul\":27805:27808   */\n      dup3\n        /* \"#utility.yul\":27801:27813   */\n      add\n        /* \"#utility.yul\":27794:27813   */\n      swap1\n      pop\n        /* \"#utility.yul\":27453:27819   */\n      swap2\n      swap1\n      pop\n      jump\t// out\n        /* \"#utility.yul\":27825:28244   */\n    tag_171:\n        /* \"#utility.yul\":27991:27995   */\n      0x00\n        /* \"#utility.yul\":28029:28031   */\n      0x20\n        /* \"#utility.yul\":28018:28027   */\n      dup3\n        /* \"#utility.yul\":28014:28032   */\n      add\n        /* \"#utility.yul\":28006:28032   */\n      swap1\n      pop\n        /* \"#utility.yul\":28078:28087   */\n      dup2\n        /* \"#utility.yul\":28072:28076   */\n      dup2\n        /* \"#utility.yul\":28068:28088   */\n      sub\n        /* \"#utility.yul\":28064:28065   */\n      0x00\n        /* \"#utility.yul\":28053:28062   */\n      dup4\n        /* \"#utility.yul\":28049:28066   */\n      add\n        /* \"#utility.yul\":28042:28089   */\n      mstore\n        /* \"#utility.yul\":28106:28237   */\n      tag_536\n        /* \"#utility.yul\":28232:28236   */\n      dup2\n        /* \"#utility.yul\":28106:28237   */\n      tag_285\n      jump\t// in\n    tag_536:\n        /* \"#utility.yul\":28098:28237   */\n      swap1\n      pop\n        /* \"#utility.yul\":27825:28244   */\n      swap2\n      swap1\n      pop\n      jump\t// out\n        /* \"#utility.yul\":28250:28424   */\n    tag_286:\n        /* \"#utility.yul\":28390:28416   */\n      0x4661696c656420746f207369676e2061677265656d656e740000000000000000\n        /* \"#utility.yul\":28386:28387   */\n      0x00\n        /* \"#utility.yul\":28378:28384   */\n      dup3\n        /* \"#utility.yul\":28374:28388   */\n      add\n        /* \"#utility.yul\":28367:28417   */\n      mstore\n        /* \"#utility.yul\":28250:28424   */\n      pop\n      jump\t// out\n        /* \"#utility.yul\":28430:28796   */\n    tag_287:\n        /* \"#utility.yul\":28572:28575   */\n      0x00\n        /* \"#utility.yul\":28593:28660   */\n      tag_539\n        /* \"#utility.yul\":28657:28659   */\n      0x18\n        /* \"#utility.yul\":28652:28655   */\n      dup4\n        /* \"#utility.yul\":28593:28660   */\n      tag_236\n      jump\t// in\n    tag_539:\n        /* \"#utility.yul\":28586:28660   */\n      swap2\n      pop\n        /* \"#utility.yul\":28669:28762   */\n      tag_540\n        /* \"#utility.yul\":28758:28761   */\n      dup3\n        /* \"#utility.yul\":28669:28762   */\n      tag_286\n      jump\t// in\n    tag_540:\n        /* \"#utility.yul\":28787:28789   */\n      0x20\n        /* \"#utility.yul\":28782:28785   */\n      dup3\n        /* \"#utility.yul\":28778:28790   */\n      add\n        /* \"#utility.yul\":28771:28790   */\n      swap1\n      pop\n        /* \"#utility.yul\":28430:28796   */\n      swap2\n      swap1\n      pop\n      jump\t// out\n        /* \"#utility.yul\":28802:29221   */\n    tag_181:\n        /* \"#utility.yul\":28968:28972   */\n      0x00\n        /* \"#utility.yul\":29006:29008   */\n      0x20\n        /* \"#utility.yul\":28995:29004   */\n      dup3\n        /* \"#utility.yul\":28991:29009   */\n      add\n        /* \"#utility.yul\":28983:29009   */\n      swap1\n      pop\n        /* \"#utility.yul\":29055:29064   */\n      dup2\n        /* \"#utility.yul\":29049:29053   */\n      dup2\n        /* \"#utility.yul\":29045:29065   */\n      sub\n        /* \"#utility.yul\":29041:29042   */\n      0x00\n        /* \"#utility.yul\":29030:29039   */\n      dup4\n        /* \"#utility.yul\":29026:29043   */\n      add\n        /* \"#utility.yul\":29019:29066   */\n      mstore\n        /* \"#utility.yul\":29083:29214   */\n      tag_542\n        /* \"#utility.yul\":29209:29213   */\n      dup2\n        /* \"#utility.yul\":29083:29214   */\n      tag_287\n      jump\t// in\n    tag_542:\n        /* \"#utility.yul\":29075:29214   */\n      swap1\n      pop\n        /* \"#utility.yul\":28802:29221   */\n      swap2\n      swap1\n      pop\n      jump\t// out\n\n    auxdata: 0xa264697066735822122087168b1fb4a4adc33c84f0e0d1a27e0b05dcd0cab9d6008c73bfb05a3835f9e564736f6c634300081a0033\n}\n",
				"bytecode": {
					"linkReferences": {},
					"object": "60806040525f6002555f6003555f600455348015601a575f80fd5b50612b8e806100285f395ff3fe60806040526004361061009b575f3560e01c80637681466c116100635780637681466c1461017c578063900b3b53146101a4578063ccc3e83a146101ce578063d9e8843f14610213578063e1590cb61461022f578063f5b46a651461024b5761009b565b806316abb8a11461009f5780631f261a82146100bb57806359e2cbec146100e3578063646fc1001461010d57806375eb9ef614610152575b5f80fd5b6100b960048036038101906100b49190611d96565b61028f565b005b3480156100c6575f80fd5b506100e160048036038101906100dc9190611efd565b61059d565b005b3480156100ee575f80fd5b506100f7610788565b6040516101049190611fa8565b60405180910390f35b348015610118575f80fd5b50610133600480360381019061012e9190611d96565b61078e565b6040516101499a9998979695949392919061207a565b60405180910390f35b34801561015d575f80fd5b50610166610935565b6040516101739190611fa8565b60405180910390f35b348015610187575f80fd5b506101a2600480360381019061019d9190611d96565b61093b565b005b3480156101af575f80fd5b506101b8610aea565b6040516101c59190611fa8565b60405180910390f35b3480156101d9575f80fd5b506101f460048036038101906101ef9190611d96565b610af0565b60405161020a9a99989796959493929190612122565b60405180910390f35b61022d60048036038101906102289190611d96565b610c8a565b005b610249600480360381019061024491906121ca565b6112ab565b005b348015610256575f80fd5b50610271600480360381019061026c9190611d96565b611bbe565b60405161028699989796959493929190612208565b60405180910390f35b8060055f8281526020019081526020015f2060070160019054906101000a900473ffffffffffffffffffffffffffffffffffffffff1673ffffffffffffffffffffffffffffffffffffffff163373ffffffffffffffffffffffffffffffffffffffff1614610332576040517f08c379a0000000000000000000000000000000000000000000000000000000008152600401610329906122eb565b60405180910390fd5b815f60065f60055f8581526020019081526020015f206001015481526020019081526020015f206006015460065f60055f8681526020019081526020015f206001015481526020019081526020015f20600701546103909190612336565b90508042116103d4576040517f08c379a00000000000000000000000000000000000000000000000000000000081526004016103cb906123b3565b60405180910390fd5b5f73ffffffffffffffffffffffffffffffffffffffff163373ffffffffffffffffffffffffffffffffffffffff160361040b575f80fd5b5f151560055f8681526020019081526020015f206007015f9054906101000a900460ff16151514610471576040517f08c379a00000000000000000000000000000000000000000000000000000000081526004016104689061241b565b60405180910390fd5b600160055f8681526020019081526020015f206007015f6101000a81548160ff0219169083151502179055505f60055f8681526020019081526020015f206008015f9054906101000a900473ffffffffffffffffffffffffffffffffffffffff1690505f60055f8781526020019081526020015f206005015490505f8273ffffffffffffffffffffffffffffffffffffffff168260405161051190612466565b5f6040518083038185875af1925050503d805f811461054b576040519150601f19603f3d011682016040523d82523d5f602084013e610550565b606091505b5050905080610594576040517f08c379a000000000000000000000000000000000000000000000000000000000815260040161058b906124c4565b60405180910390fd5b50505050505050565b5f73ffffffffffffffffffffffffffffffffffffffff163373ffffffffffffffffffffffffffffffffffffffff16036105d4575f80fd5b60025f8154809291906105e6906124e2565b919050555060405180610140016040528060025481526020015f81526020018581526020018481526020018381526020018281526020015f81526020016001151581526020013373ffffffffffffffffffffffffffffffffffffffff1681526020015f73ffffffffffffffffffffffffffffffffffffffff1681525060055f60025481526020019081526020015f205f820151815f015560208201518160010155604082015181600201908161069c9190612723565b5060608201518160030190816106b29190612723565b506080820151816004015560a0820151816005015560c0820151816006015560e0820151816007015f6101000a81548160ff0219169083151502179055506101008201518160070160016101000a81548173ffffffffffffffffffffffffffffffffffffffff021916908373ffffffffffffffffffffffffffffffffffffffff160217905550610120820151816008015f6101000a81548173ffffffffffffffffffffffffffffffffffffffff021916908373ffffffffffffffffffffffffffffffffffffffff16021790555090505050505050565b60025481565b6005602052805f5260405f205f91509050805f0154908060010154908060020180546107b990612556565b80601f01602080910402602001604051908101604052809291908181526020018280546107e590612556565b80156108305780601f1061080757610100808354040283529160200191610830565b820191905f5260205f20905b81548152906001019060200180831161081357829003601f168201915b50505050509080600301805461084590612556565b80601f016020809104026020016040519081016040528092919081815260200182805461087190612556565b80156108bc5780601f10610893576101008083540402835291602001916108bc565b820191905f5260205f20905b81548152906001019060200180831161089f57829003601f168201915b505050505090806004015490806005015490806006015490806007015f9054906101000a900460ff16908060070160019054906101000a900473ffffffffffffffffffffffffffffffffffffffff1690806008015f9054906101000a900473ffffffffffffffffffffffffffffffffffffffff1690508a565b60045481565b8060055f8281526020019081526020015f2060070160019054906101000a900473ffffffffffffffffffffffffffffffffffffffff1673ffffffffffffffffffffffffffffffffffffffff163373ffffffffffffffffffffffffffffffffffffffff16146109de576040517f08c379a00000000000000000000000000000000000000000000000000000000081526004016109d5906122eb565b60405180910390fd5b815f60065f60055f8581526020019081526020015f206001015481526020019081526020015f206006015460065f60055f8681526020019081526020015f206001015481526020019081526020015f2060070154610a3c9190612336565b905080421115610a81576040517f08c379a0000000000000000000000000000000000000000000000000000000008152600401610a789061283c565b60405180910390fd5b5f73ffffffffffffffffffffffffffffffffffffffff163373ffffffffffffffffffffffffffffffffffffffff1603610ab8575f80fd5b600160055f8681526020019081526020015f206007015f6101000a81548160ff02191690831515021790555050505050565b60035481565b6006602052805f5260405f205f91509050805f015490806001015490806002018054610b1b90612556565b80601f0160208091040260200160405190810160405280929190818152602001828054610b4790612556565b8015610b925780601f10610b6957610100808354040283529160200191610b92565b820191905f5260205f20905b815481529060010190602001808311610b7557829003601f168201915b505050505090806003018054610ba790612556565b80601f0160208091040260200160405190810160405280929190818152602001828054610bd390612556565b8015610c1e5780601f10610bf557610100808354040283529160200191610c1e565b820191905f5260205f20905b815481529060010190602001808311610c0157829003601f168201915b505050505090806004015490806005015490806006015490806007015490806008015f9054906101000a900473ffffffffffffffffffffffffffffffffffffffff1690806009015f9054906101000a900473ffffffffffffffffffffffffffffffffffffffff1690508a565b8060055f8281526020019081526020015f206008015f9054906101000a900473ffffffffffffffffffffffffffffffffffffffff1673ffffffffffffffffffffffffffffffffffffffff163373ffffffffffffffffffffffffffffffffffffffff1614610d2c576040517f08c379a0000000000000000000000000000000000000000000000000000000008152600401610d23906128ca565b60405180910390fd5b815f60065f60055f8581526020019081526020015f206001015481526020019081526020015f206006015460065f60055f8681526020019081526020015f206001015481526020019081526020015f2060070154610d8a9190612336565b905080421015610dcf576040517f08c379a0000000000000000000000000000000000000000000000000000000008152600401610dc690612932565b60405180910390fd5b8360055f8281526020019081526020015f2060040154341015610e27576040517f08c379a0000000000000000000000000000000000000000000000000000000008152600401610e1e9061299a565b60405180910390fd5b5f73ffffffffffffffffffffffffffffffffffffffff163373ffffffffffffffffffffffffffffffffffffffff1603610e5e575f80fd5b5f60055f8781526020019081526020015f2060070160019054906101000a900473ffffffffffffffffffffffffffffffffffffffff1690505f60055f8881526020019081526020015f206004015490505f8273ffffffffffffffffffffffffffffffffffffffff1682604051610ed390612466565b5f6040518083038185875af1925050503d805f8114610f0d576040519150601f19603f3d011682016040523d82523d5f602084013e610f12565b606091505b5050905080610f56576040517f08c379a0000000000000000000000000000000000000000000000000000000008152600401610f4d90612a02565b60405180910390fd5b3360055f8a81526020019081526020015f206008015f6101000a81548173ffffffffffffffffffffffffffffffffffffffff021916908373ffffffffffffffffffffffffffffffffffffffff1602179055505f60055f8a81526020019081526020015f206007015f6101000a81548160ff02191690831515021790555060045f815480929190610fe5906124e2565b91905055506040518061012001604052806004548152602001898152602001600354815260200160055f8b81526020019081526020015f20600201805461102b90612556565b80601f016020809104026020016040519081016040528092919081815260200182805461105790612556565b80156110a25780601f10611079576101008083540402835291602001916110a2565b820191905f5260205f20905b81548152906001019060200180831161108557829003601f168201915b5050505050815260200160055f8b81526020019081526020015f2060030180546110cb90612556565b80601f01602080910402602001604051908101604052809291908181526020018280546110f790612556565b80156111425780601f1061111957610100808354040283529160200191611142565b820191905f5260205f20905b81548152906001019060200180831161112557829003601f168201915b5050505050815260200160055f8b81526020019081526020015f206004015481526020014281526020013373ffffffffffffffffffffffffffffffffffffffff1681526020018473ffffffffffffffffffffffffffffffffffffffff1681525060075f60045481526020019081526020015f205f820151815f0155602082015181600101556040820151816002015560608201518160030190816111e69190612723565b5060808201518160040190816111fc9190612723565b5060a0820151816005015560c0820151816006015560e0820151816007015f6101000a81548173ffffffffffffffffffffffffffffffffffffffff021916908373ffffffffffffffffffffffffffffffffffffffff160217905550610100820151816008015f6101000a81548173ffffffffffffffffffffffffffffffffffffffff021916908373ffffffffffffffffffffffffffffffffffffffff1602179055509050505050505050505050565b8160055f8281526020019081526020015f2060070160019054906101000a900473ffffffffffffffffffffffffffffffffffffffff1673ffffffffffffffffffffffffffffffffffffffff163373ffffffffffffffffffffffffffffffffffffffff160361134e576040517f08c379a000000000000000000000000000000000000000000000000000000000815260040161134590612a6a565b60405180910390fd5b8260055f8281526020019081526020015f206005015460055f8381526020019081526020015f20600401546113839190612336565b34101561138e575f80fd5b836001151560055f8381526020019081526020015f206007015f9054906101000a900460ff161515146113f6576040517f08c379a00000000000000000000000000000000000000000000000000000000081526004016113ed90612ad2565b60405180910390fd5b5f73ffffffffffffffffffffffffffffffffffffffff163373ffffffffffffffffffffffffffffffffffffffff160361142d575f80fd5b5f60055f8781526020019081526020015f2060070160019054906101000a900473ffffffffffffffffffffffffffffffffffffffff1690505f60055f8881526020019081526020015f206005015460055f8981526020019081526020015f206004015461149a9190612336565b90505f8273ffffffffffffffffffffffffffffffffffffffff16826040516114c190612466565b5f6040518083038185875af1925050503d805f81146114fb576040519150601f19603f3d011682016040523d82523d5f602084013e611500565b606091505b5050905080611544576040517f08c379a000000000000000000000000000000000000000000000000000000000815260040161153b90612b3a565b60405180910390fd5b60035f815480929190611556906124e2565b91905055503360055f8a81526020019081526020015f206008015f6101000a81548173ffffffffffffffffffffffffffffffffffffffff021916908373ffffffffffffffffffffffffffffffffffffffff1602179055504260055f8a81526020019081526020015f20600601819055505f60055f8a81526020019081526020015f206007015f6101000a81548160ff02191690831515021790555060035460055f8a81526020019081526020015f2060010181905550604051806101400160405280898152602001600354815260200160055f8b81526020019081526020015f20600201805461164590612556565b80601f016020809104026020016040519081016040528092919081815260200182805461167190612556565b80156116bc5780601f10611693576101008083540402835291602001916116bc565b820191905f5260205f20905b81548152906001019060200180831161169f57829003601f168201915b5050505050815260200160055f8b81526020019081526020015f2060030180546116e590612556565b80601f016020809104026020016040519081016040528092919081815260200182805461171190612556565b801561175c5780601f106117335761010080835404028352916020019161175c565b820191905f5260205f20905b81548152906001019060200180831161173f57829003601f168201915b5050505050815260200160055f8b81526020019081526020015f2060040154815260200160055f8b81526020019081526020015f206005015481526020018881526020014281526020013373ffffffffffffffffffffffffffffffffffffffff1681526020018473ffffffffffffffffffffffffffffffffffffffff1681525060065f60035481526020019081526020015f205f820151815f01556020820151816001015560408201518160020190816118169190612723565b50606082015181600301908161182c9190612723565b506080820151816004015560a0820151816005015560c0820151816006015560e08201518160070155610100820151816008015f6101000a81548173ffffffffffffffffffffffffffffffffffffffff021916908373ffffffffffffffffffffffffffffffffffffffff160217905550610120820151816009015f6101000a81548173ffffffffffffffffffffffffffffffffffffffff021916908373ffffffffffffffffffffffffffffffffffffffff16021790555090505060045f8154809291906118f8906124e2565b91905055506040518061012001604052806004548152602001898152602001600354815260200160055f8b81526020019081526020015f20600201805461193e90612556565b80601f016020809104026020016040519081016040528092919081815260200182805461196a90612556565b80156119b55780601f1061198c576101008083540402835291602001916119b5565b820191905f5260205f20905b81548152906001019060200180831161199857829003601f168201915b5050505050815260200160055f8b81526020019081526020015f2060030180546119de90612556565b80601f0160208091040260200160405190810160405280929190818152602001828054611a0a90612556565b8015611a555780601f10611a2c57610100808354040283529160200191611a55565b820191905f5260205f20905b815481529060010190602001808311611a3857829003601f168201915b5050505050815260200160055f8b81526020019081526020015f206004015481526020014281526020013373ffffffffffffffffffffffffffffffffffffffff1681526020018473ffffffffffffffffffffffffffffffffffffffff1681525060075f60045481526020019081526020015f205f820151815f015560208201518160010155604082015181600201556060820151816003019081611af99190612723565b506080820151816004019081611b0f9190612723565b5060a0820151816005015560c0820151816006015560e0820151816007015f6101000a81548173ffffffffffffffffffffffffffffffffffffffff021916908373ffffffffffffffffffffffffffffffffffffffff160217905550610100820151816008015f6101000a81548173ffffffffffffffffffffffffffffffffffffffff021916908373ffffffffffffffffffffffffffffffffffffffff1602179055509050505050505050505050565b6007602052805f5260405f205f91509050805f015490806001015490806002015490806003018054611bef90612556565b80601f0160208091040260200160405190810160405280929190818152602001828054611c1b90612556565b8015611c665780601f10611c3d57610100808354040283529160200191611c66565b820191905f5260205f20905b815481529060010190602001808311611c4957829003601f168201915b505050505090806004018054611c7b90612556565b80601f0160208091040260200160405190810160405280929190818152602001828054611ca790612556565b8015611cf25780601f10611cc957610100808354040283529160200191611cf2565b820191905f5260205f20905b815481529060010190602001808311611cd557829003601f168201915b505050505090806005015490806006015490806007015f9054906101000a900473ffffffffffffffffffffffffffffffffffffffff1690806008015f9054906101000a900473ffffffffffffffffffffffffffffffffffffffff16905089565b5f604051905090565b5f80fd5b5f80fd5b5f819050919050565b611d7581611d63565b8114611d7f575f80fd5b50565b5f81359050611d9081611d6c565b92915050565b5f60208284031215611dab57611daa611d5b565b5b5f611db884828501611d82565b91505092915050565b5f80fd5b5f80fd5b5f601f19601f8301169050919050565b7f4e487b71000000000000000000000000000000000000000000000000000000005f52604160045260245ffd5b611e0f82611dc9565b810181811067ffffffffffffffff82111715611e2e57611e2d611dd9565b5b80604052505050565b5f611e40611d52565b9050611e4c8282611e06565b919050565b5f67ffffffffffffffff821115611e6b57611e6a611dd9565b5b611e7482611dc9565b9050602081019050919050565b828183375f83830152505050565b5f611ea1611e9c84611e51565b611e37565b905082815260208101848484011115611ebd57611ebc611dc5565b5b611ec8848285611e81565b509392505050565b5f82601f830112611ee457611ee3611dc1565b5b8135611ef4848260208601611e8f565b91505092915050565b5f805f8060808587031215611f1557611f14611d5b565b5b5f85013567ffffffffffffffff811115611f3257611f31611d5f565b5b611f3e87828801611ed0565b945050602085013567ffffffffffffffff811115611f5f57611f5e611d5f565b5b611f6b87828801611ed0565b9350506040611f7c87828801611d82565b9250506060611f8d87828801611d82565b91505092959194509250565b611fa281611d63565b82525050565b5f602082019050611fbb5f830184611f99565b92915050565b5f81519050919050565b5f82825260208201905092915050565b8281835e5f83830152505050565b5f611ff382611fc1565b611ffd8185611fcb565b935061200d818560208601611fdb565b61201681611dc9565b840191505092915050565b5f8115159050919050565b61203581612021565b82525050565b5f73ffffffffffffffffffffffffffffffffffffffff82169050919050565b5f6120648261203b565b9050919050565b6120748161205a565b82525050565b5f6101408201905061208e5f83018d611f99565b61209b602083018c611f99565b81810360408301526120ad818b611fe9565b905081810360608301526120c1818a611fe9565b90506120d06080830189611f99565b6120dd60a0830188611f99565b6120ea60c0830187611f99565b6120f760e083018661202c565b61210561010083018561206b565b61211361012083018461206b565b9b9a5050505050505050505050565b5f610140820190506121365f83018d611f99565b612143602083018c611f99565b8181036040830152612155818b611fe9565b90508181036060830152612169818a611fe9565b90506121786080830189611f99565b61218560a0830188611f99565b61219260c0830187611f99565b61219f60e0830186611f99565b6121ad61010083018561206b565b6121bb61012083018461206b565b9b9a5050505050505050505050565b5f80604083850312156121e0576121df611d5b565b5b5f6121ed85828601611d82565b92505060206121fe85828601611d82565b9150509250929050565b5f6101208201905061221c5f83018c611f99565b612229602083018b611f99565b612236604083018a611f99565b81810360608301526122488189611fe9565b9050818103608083015261225c8188611fe9565b905061226b60a0830187611f99565b61227860c0830186611f99565b61228560e083018561206b565b61229361010083018461206b565b9a9950505050505050505050565b7f4f6e6c79206c616e646c6f72642063616e2061636365737320746869730000005f82015250565b5f6122d5601d83611fcb565b91506122e0826122a1565b602082019050919050565b5f6020820190508181035f830152612302816122c9565b9050919050565b7f4e487b71000000000000000000000000000000000000000000000000000000005f52601160045260245ffd5b5f61234082611d63565b915061234b83611d63565b925082820190508082111561236357612362612309565b5b92915050565b7f41677265656d656e7420686173206e6f742079657420657870697265640000005f82015250565b5f61239d601d83611fcb565b91506123a882612369565b602082019050919050565b5f6020820190508181035f8301526123ca81612391565b9050919050565b7f526f6f6d20697320616c726561647920766163616e74210000000000000000005f82015250565b5f612405601783611fcb565b9150612410826123d1565b602082019050919050565b5f6020820190508181035f830152612432816123f9565b9050919050565b5f81905092915050565b50565b5f6124515f83612439565b915061245c82612443565b5f82019050919050565b5f61247082612446565b9150819050919050565b7f41677265656d656e7420436f6d706c6574696f6e204661696c656421000000005f82015250565b5f6124ae601c83611fcb565b91506124b98261247a565b602082019050919050565b5f6020820190508181035f8301526124db816124a2565b9050919050565b5f6124ec82611d63565b91507fffffffffffffffffffffffffffffffffffffffffffffffffffffffffffffffff820361251e5761251d612309565b5b600182019050919050565b7f4e487b71000000000000000000000000000000000000000000000000000000005f52602260045260245ffd5b5f600282049050600182168061256d57607f821691505b6020821081036125805761257f612529565b5b50919050565b5f819050815f5260205f209050919050565b5f6020601f8301049050919050565b5f82821b905092915050565b5f600883026125e27fffffffffffffffffffffffffffffffffffffffffffffffffffffffffffffffff826125a7565b6125ec86836125a7565b95508019841693508086168417925050509392505050565b5f819050919050565b5f61262761262261261d84611d63565b612604565b611d63565b9050919050565b5f819050919050565b6126408361260d565b61265461264c8261262e565b8484546125b3565b825550505050565b5f90565b61266861265c565b612673818484612637565b505050565b5b818110156126965761268b5f82612660565b600181019050612679565b5050565b601f8211156126db576126ac81612586565b6126b584612598565b810160208510156126c4578190505b6126d86126d085612598565b830182612678565b50505b505050565b5f82821c905092915050565b5f6126fb5f19846008026126e0565b1980831691505092915050565b5f61271383836126ec565b9150826002028217905092915050565b61272c82611fc1565b67ffffffffffffffff81111561274557612744611dd9565b5b61274f8254612556565b61275a82828561269a565b5f60209050601f83116001811461278b575f8415612779578287015190505b6127838582612708565b8655506127ea565b601f19841661279986612586565b5f5b828110156127c05784890151825560018201915060208501945060208101905061279b565b868310156127dd57848901516127d9601f8916826126ec565b8355505b6001600288020188555050505b505050505050565b7f41677265656d656e7420686173206578706972656400000000000000000000005f82015250565b5f612826601583611fcb565b9150612831826127f2565b602082019050919050565b5f6020820190508181035f8301526128538161281a565b9050919050565b7f596f7520617265206e6f74207468652074656e616e74206f66207468697320725f8201527f6f6f6d0000000000000000000000000000000000000000000000000000000000602082015250565b5f6128b4602383611fcb565b91506128bf8261285a565b604082019050919050565b5f6020820190508181035f8301526128e1816128a8565b9050919050565b7f54696d656c65667420746f20706179207468652072656e7400000000000000005f82015250565b5f61291c601883611fcb565b9150612927826128e8565b602082019050919050565b5f6020820190508181035f83015261294981612910565b9050919050565b7f4e6f7420656e6f75676820657468657220696e20796f75722077616c6c6574005f82015250565b5f612984601f83611fcb565b915061298f82612950565b602082019050919050565b5f6020820190508181035f8301526129b181612978565b9050919050565b7f52656e74207061796d656e74206661696c6564000000000000000000000000005f82015250565b5f6129ec601383611fcb565b91506129f7826129b8565b602082019050919050565b5f6020820190508181035f830152612a19816129e0565b9050919050565b7f4f6e6c792074656e616e74732063616e206163636573732074686973000000005f82015250565b5f612a54601c83611fcb565b9150612a5f82612a20565b602082019050919050565b5f6020820190508181035f830152612a8181612a48565b9050919050565b7f526f6f6d206973206e6f7420766163616e7400000000000000000000000000005f82015250565b5f612abc601283611fcb565b9150612ac782612a88565b602082019050919050565b5f6020820190508181035f830152612ae981612ab0565b9050919050565b7f4661696c656420746f207369676e2061677265656d656e7400000000000000005f82015250565b5f612b24601883611fcb565b9150612b2f82612af0565b602082019050919050565b5f6020820190508181035f830152612b5181612b18565b905091905056fea264697066735822122087168b1fb4a4adc33c84f0e0d1a27e0b05dcd0cab9d6008c73bfb05a3835f9e564736f6c634300081a0033",
					"opcodes": "PUSH1 0x80 PUSH1 0x40 MSTORE PUSH0 PUSH1 0x2 SSTORE PUSH0 PUSH1 0x3 SSTORE PUSH0 PUSH1 0x4 SSTORE CALLVALUE DUP1 ISZERO PUSH1 0x1A JUMPI PUSH0 DUP1 REVERT JUMPDEST POP PUSH2 0x2B8E DUP1 PUSH2 0x28 PUSH0 CODECOPY PUSH0 RETURN INVALID PUSH1 0x80 PUSH1 0x40 MSTORE PUSH1 0x4 CALLDATASIZE LT PUSH2 0x9B JUMPI PUSH0 CALLDATALOAD PUSH1 0xE0 SHR DUP1 PUSH4 0x7681466C GT PUSH2 0x63 JUMPI DUP1 PUSH4 0x7681466C EQ PUSH2 0x17C JUMPI DUP1 PUSH4 0x900B3B53 EQ PUSH2 0x1A4 JUMPI DUP1 PUSH4 0xCCC3E83A EQ PUSH2 0x1CE JUMPI DUP1 PUSH4 0xD9E8843F EQ PUSH2 0x213 JUMPI DUP1 PUSH4 0xE1590CB6 EQ PUSH2 0x22F JUMPI DUP1 PUSH4 0xF5B46A65 EQ PUSH2 0x24B JUMPI PUSH2 0x9B JUMP JUMPDEST DUP1 PUSH4 0x16ABB8A1 EQ PUSH2 0x9F JUMPI DUP1 PUSH4 0x1F261A82 EQ PUSH2 0xBB JUMPI DUP1 PUSH4 0x59E2CBEC EQ PUSH2 0xE3 JUMPI DUP1 PUSH4 0x646FC100 EQ PUSH2 0x10D JUMPI DUP1 PUSH4 0x75EB9EF6 EQ PUSH2 0x152 JUMPI JUMPDEST PUSH0 DUP1 REVERT JUMPDEST PUSH2 0xB9 PUSH1 0x4 DUP1 CALLDATASIZE SUB DUP2 ADD SWAP1 PUSH2 0xB4 SWAP2 SWAP1 PUSH2 0x1D96 JUMP JUMPDEST PUSH2 0x28F JUMP JUMPDEST STOP JUMPDEST CALLVALUE DUP1 ISZERO PUSH2 0xC6 JUMPI PUSH0 DUP1 REVERT JUMPDEST POP PUSH2 0xE1 PUSH1 0x4 DUP1 CALLDATASIZE SUB DUP2 ADD SWAP1 PUSH2 0xDC SWAP2 SWAP1 PUSH2 0x1EFD JUMP JUMPDEST PUSH2 0x59D JUMP JUMPDEST STOP JUMPDEST CALLVALUE DUP1 ISZERO PUSH2 0xEE JUMPI PUSH0 DUP1 REVERT JUMPDEST POP PUSH2 0xF7 PUSH2 0x788 JUMP JUMPDEST PUSH1 0x40 MLOAD PUSH2 0x104 SWAP2 SWAP1 PUSH2 0x1FA8 JUMP JUMPDEST PUSH1 0x40 MLOAD DUP1 SWAP2 SUB SWAP1 RETURN JUMPDEST CALLVALUE DUP1 ISZERO PUSH2 0x118 JUMPI PUSH0 DUP1 REVERT JUMPDEST POP PUSH2 0x133 PUSH1 0x4 DUP1 CALLDATASIZE SUB DUP2 ADD SWAP1 PUSH2 0x12E SWAP2 SWAP1 PUSH2 0x1D96 JUMP JUMPDEST PUSH2 0x78E JUMP JUMPDEST PUSH1 0x40 MLOAD PUSH2 0x149 SWAP11 SWAP10 SWAP9 SWAP8 SWAP7 SWAP6 SWAP5 SWAP4 SWAP3 SWAP2 SWAP1 PUSH2 0x207A JUMP JUMPDEST PUSH1 0x40 MLOAD DUP1 SWAP2 SUB SWAP1 RETURN JUMPDEST CALLVALUE DUP1 ISZERO PUSH2 0x15D JUMPI PUSH0 DUP1 REVERT JUMPDEST POP PUSH2 0x166 PUSH2 0x935 JUMP JUMPDEST PUSH1 0x40 MLOAD PUSH2 0x173 SWAP2 SWAP1 PUSH2 0x1FA8 JUMP JUMPDEST PUSH1 0x40 MLOAD DUP1 SWAP2 SUB SWAP1 RETURN JUMPDEST CALLVALUE DUP1 ISZERO PUSH2 0x187 JUMPI PUSH0 DUP1 REVERT JUMPDEST POP PUSH2 0x1A2 PUSH1 0x4 DUP1 CALLDATASIZE SUB DUP2 ADD SWAP1 PUSH2 0x19D SWAP2 SWAP1 PUSH2 0x1D96 JUMP JUMPDEST PUSH2 0x93B JUMP JUMPDEST STOP JUMPDEST CALLVALUE DUP1 ISZERO PUSH2 0x1AF JUMPI PUSH0 DUP1 REVERT JUMPDEST POP PUSH2 0x1B8 PUSH2 0xAEA JUMP JUMPDEST PUSH1 0x40 MLOAD PUSH2 0x1C5 SWAP2 SWAP1 PUSH2 0x1FA8 JUMP JUMPDEST PUSH1 0x40 MLOAD DUP1 SWAP2 SUB SWAP1 RETURN JUMPDEST CALLVALUE DUP1 ISZERO PUSH2 0x1D9 JUMPI PUSH0 DUP1 REVERT JUMPDEST POP PUSH2 0x1F4 PUSH1 0x4 DUP1 CALLDATASIZE SUB DUP2 ADD SWAP1 PUSH2 0x1EF SWAP2 SWAP1 PUSH2 0x1D96 JUMP JUMPDEST PUSH2 0xAF0 JUMP JUMPDEST PUSH1 0x40 MLOAD PUSH2 0x20A SWAP11 SWAP10 SWAP9 SWAP8 SWAP7 SWAP6 SWAP5 SWAP4 SWAP3 SWAP2 SWAP1 PUSH2 0x2122 JUMP JUMPDEST PUSH1 0x40 MLOAD DUP1 SWAP2 SUB SWAP1 RETURN JUMPDEST PUSH2 0x22D PUSH1 0x4 DUP1 CALLDATASIZE SUB DUP2 ADD SWAP1 PUSH2 0x228 SWAP2 SWAP1 PUSH2 0x1D96 JUMP JUMPDEST PUSH2 0xC8A JUMP JUMPDEST STOP JUMPDEST PUSH2 0x249 PUSH1 0x4 DUP1 CALLDATASIZE SUB DUP2 ADD SWAP1 PUSH2 0x244 SWAP2 SWAP1 PUSH2 0x21CA JUMP JUMPDEST PUSH2 0x12AB JUMP JUMPDEST STOP JUMPDEST CALLVALUE DUP1 ISZERO PUSH2 0x256 JUMPI PUSH0 DUP1 REVERT JUMPDEST POP PUSH2 0x271 PUSH1 0x4 DUP1 CALLDATASIZE SUB DUP2 ADD SWAP1 PUSH2 0x26C SWAP2 SWAP1 PUSH2 0x1D96 JUMP JUMPDEST PUSH2 0x1BBE JUMP JUMPDEST PUSH1 0x40 MLOAD PUSH2 0x286 SWAP10 SWAP9 SWAP8 SWAP7 SWAP6 SWAP5 SWAP4 SWAP3 SWAP2 SWAP1 PUSH2 0x2208 JUMP JUMPDEST PUSH1 0x40 MLOAD DUP1 SWAP2 SUB SWAP1 RETURN JUMPDEST DUP1 PUSH1 0x5 PUSH0 DUP3 DUP2 MSTORE PUSH1 0x20 ADD SWAP1 DUP2 MSTORE PUSH1 0x20 ADD PUSH0 KECCAK256 PUSH1 0x7 ADD PUSH1 0x1 SWAP1 SLOAD SWAP1 PUSH2 0x100 EXP SWAP1 DIV PUSH20 0xFFFFFFFFFFFFFFFFFFFFFFFFFFFFFFFFFFFFFFFF AND PUSH20 0xFFFFFFFFFFFFFFFFFFFFFFFFFFFFFFFFFFFFFFFF AND CALLER PUSH20 0xFFFFFFFFFFFFFFFFFFFFFFFFFFFFFFFFFFFFFFFF AND EQ PUSH2 0x332 JUMPI PUSH1 0x40 MLOAD PUSH32 0x8C379A000000000000000000000000000000000000000000000000000000000 DUP2 MSTORE PUSH1 0x4 ADD PUSH2 0x329 SWAP1 PUSH2 0x22EB JUMP JUMPDEST PUSH1 0x40 MLOAD DUP1 SWAP2 SUB SWAP1 REVERT JUMPDEST DUP2 PUSH0 PUSH1 0x6 PUSH0 PUSH1 0x5 PUSH0 DUP6 DUP2 MSTORE PUSH1 0x20 ADD SWAP1 DUP2 MSTORE PUSH1 0x20 ADD PUSH0 KECCAK256 PUSH1 0x1 ADD SLOAD DUP2 MSTORE PUSH1 0x20 ADD SWAP1 DUP2 MSTORE PUSH1 0x20 ADD PUSH0 KECCAK256 PUSH1 0x6 ADD SLOAD PUSH1 0x6 PUSH0 PUSH1 0x5 PUSH0 DUP7 DUP2 MSTORE PUSH1 0x20 ADD SWAP1 DUP2 MSTORE PUSH1 0x20 ADD PUSH0 KECCAK256 PUSH1 0x1 ADD SLOAD DUP2 MSTORE PUSH1 0x20 ADD SWAP1 DUP2 MSTORE PUSH1 0x20 ADD PUSH0 KECCAK256 PUSH1 0x7 ADD SLOAD PUSH2 0x390 SWAP2 SWAP1 PUSH2 0x2336 JUMP JUMPDEST SWAP1 POP DUP1 TIMESTAMP GT PUSH2 0x3D4 JUMPI PUSH1 0x40 MLOAD PUSH32 0x8C379A000000000000000000000000000000000000000000000000000000000 DUP2 MSTORE PUSH1 0x4 ADD PUSH2 0x3CB SWAP1 PUSH2 0x23B3 JUMP JUMPDEST PUSH1 0x40 MLOAD DUP1 SWAP2 SUB SWAP1 REVERT JUMPDEST PUSH0 PUSH20 0xFFFFFFFFFFFFFFFFFFFFFFFFFFFFFFFFFFFFFFFF AND CALLER PUSH20 0xFFFFFFFFFFFFFFFFFFFFFFFFFFFFFFFFFFFFFFFF AND SUB PUSH2 0x40B JUMPI PUSH0 DUP1 REVERT JUMPDEST PUSH0 ISZERO ISZERO PUSH1 0x5 PUSH0 DUP7 DUP2 MSTORE PUSH1 0x20 ADD SWAP1 DUP2 MSTORE PUSH1 0x20 ADD PUSH0 KECCAK256 PUSH1 0x7 ADD PUSH0 SWAP1 SLOAD SWAP1 PUSH2 0x100 EXP SWAP1 DIV PUSH1 0xFF AND ISZERO ISZERO EQ PUSH2 0x471 JUMPI PUSH1 0x40 MLOAD PUSH32 0x8C379A000000000000000000000000000000000000000000000000000000000 DUP2 MSTORE PUSH1 0x4 ADD PUSH2 0x468 SWAP1 PUSH2 0x241B JUMP JUMPDEST PUSH1 0x40 MLOAD DUP1 SWAP2 SUB SWAP1 REVERT JUMPDEST PUSH1 0x1 PUSH1 0x5 PUSH0 DUP7 DUP2 MSTORE PUSH1 0x20 ADD SWAP1 DUP2 MSTORE PUSH1 0x20 ADD PUSH0 KECCAK256 PUSH1 0x7 ADD PUSH0 PUSH2 0x100 EXP DUP2 SLOAD DUP2 PUSH1 0xFF MUL NOT AND SWAP1 DUP4 ISZERO ISZERO MUL OR SWAP1 SSTORE POP PUSH0 PUSH1 0x5 PUSH0 DUP7 DUP2 MSTORE PUSH1 0x20 ADD SWAP1 DUP2 MSTORE PUSH1 0x20 ADD PUSH0 KECCAK256 PUSH1 0x8 ADD PUSH0 SWAP1 SLOAD SWAP1 PUSH2 0x100 EXP SWAP1 DIV PUSH20 0xFFFFFFFFFFFFFFFFFFFFFFFFFFFFFFFFFFFFFFFF AND SWAP1 POP PUSH0 PUSH1 0x5 PUSH0 DUP8 DUP2 MSTORE PUSH1 0x20 ADD SWAP1 DUP2 MSTORE PUSH1 0x20 ADD PUSH0 KECCAK256 PUSH1 0x5 ADD SLOAD SWAP1 POP PUSH0 DUP3 PUSH20 0xFFFFFFFFFFFFFFFFFFFFFFFFFFFFFFFFFFFFFFFF AND DUP3 PUSH1 0x40 MLOAD PUSH2 0x511 SWAP1 PUSH2 0x2466 JUMP JUMPDEST PUSH0 PUSH1 0x40 MLOAD DUP1 DUP4 SUB DUP2 DUP6 DUP8 GAS CALL SWAP3 POP POP POP RETURNDATASIZE DUP1 PUSH0 DUP2 EQ PUSH2 0x54B JUMPI PUSH1 0x40 MLOAD SWAP2 POP PUSH1 0x1F NOT PUSH1 0x3F RETURNDATASIZE ADD AND DUP3 ADD PUSH1 0x40 MSTORE RETURNDATASIZE DUP3 MSTORE RETURNDATASIZE PUSH0 PUSH1 0x20 DUP5 ADD RETURNDATACOPY PUSH2 0x550 JUMP JUMPDEST PUSH1 0x60 SWAP2 POP JUMPDEST POP POP SWAP1 POP DUP1 PUSH2 0x594 JUMPI PUSH1 0x40 MLOAD PUSH32 0x8C379A000000000000000000000000000000000000000000000000000000000 DUP2 MSTORE PUSH1 0x4 ADD PUSH2 0x58B SWAP1 PUSH2 0x24C4 JUMP JUMPDEST PUSH1 0x40 MLOAD DUP1 SWAP2 SUB SWAP1 REVERT JUMPDEST POP POP POP POP POP POP POP JUMP JUMPDEST PUSH0 PUSH20 0xFFFFFFFFFFFFFFFFFFFFFFFFFFFFFFFFFFFFFFFF AND CALLER PUSH20 0xFFFFFFFFFFFFFFFFFFFFFFFFFFFFFFFFFFFFFFFF AND SUB PUSH2 0x5D4 JUMPI PUSH0 DUP1 REVERT JUMPDEST PUSH1 0x2 PUSH0 DUP2 SLOAD DUP1 SWAP3 SWAP2 SWAP1 PUSH2 0x5E6 SWAP1 PUSH2 0x24E2 JUMP JUMPDEST SWAP2 SWAP1 POP SSTORE POP PUSH1 0x40 MLOAD DUP1 PUSH2 0x140 ADD PUSH1 0x40 MSTORE DUP1 PUSH1 0x2 SLOAD DUP2 MSTORE PUSH1 0x20 ADD PUSH0 DUP2 MSTORE PUSH1 0x20 ADD DUP6 DUP2 MSTORE PUSH1 0x20 ADD DUP5 DUP2 MSTORE PUSH1 0x20 ADD DUP4 DUP2 MSTORE PUSH1 0x20 ADD DUP3 DUP2 MSTORE PUSH1 0x20 ADD PUSH0 DUP2 MSTORE PUSH1 0x20 ADD PUSH1 0x1 ISZERO ISZERO DUP2 MSTORE PUSH1 0x20 ADD CALLER PUSH20 0xFFFFFFFFFFFFFFFFFFFFFFFFFFFFFFFFFFFFFFFF AND DUP2 MSTORE PUSH1 0x20 ADD PUSH0 PUSH20 0xFFFFFFFFFFFFFFFFFFFFFFFFFFFFFFFFFFFFFFFF AND DUP2 MSTORE POP PUSH1 0x5 PUSH0 PUSH1 0x2 SLOAD DUP2 MSTORE PUSH1 0x20 ADD SWAP1 DUP2 MSTORE PUSH1 0x20 ADD PUSH0 KECCAK256 PUSH0 DUP3 ADD MLOAD DUP2 PUSH0 ADD SSTORE PUSH1 0x20 DUP3 ADD MLOAD DUP2 PUSH1 0x1 ADD SSTORE PUSH1 0x40 DUP3 ADD MLOAD DUP2 PUSH1 0x2 ADD SWAP1 DUP2 PUSH2 0x69C SWAP2 SWAP1 PUSH2 0x2723 JUMP JUMPDEST POP PUSH1 0x60 DUP3 ADD MLOAD DUP2 PUSH1 0x3 ADD SWAP1 DUP2 PUSH2 0x6B2 SWAP2 SWAP1 PUSH2 0x2723 JUMP JUMPDEST POP PUSH1 0x80 DUP3 ADD MLOAD DUP2 PUSH1 0x4 ADD SSTORE PUSH1 0xA0 DUP3 ADD MLOAD DUP2 PUSH1 0x5 ADD SSTORE PUSH1 0xC0 DUP3 ADD MLOAD DUP2 PUSH1 0x6 ADD SSTORE PUSH1 0xE0 DUP3 ADD MLOAD DUP2 PUSH1 0x7 ADD PUSH0 PUSH2 0x100 EXP DUP2 SLOAD DUP2 PUSH1 0xFF MUL NOT AND SWAP1 DUP4 ISZERO ISZERO MUL OR SWAP1 SSTORE POP PUSH2 0x100 DUP3 ADD MLOAD DUP2 PUSH1 0x7 ADD PUSH1 0x1 PUSH2 0x100 EXP DUP2 SLOAD DUP2 PUSH20 0xFFFFFFFFFFFFFFFFFFFFFFFFFFFFFFFFFFFFFFFF MUL NOT AND SWAP1 DUP4 PUSH20 0xFFFFFFFFFFFFFFFFFFFFFFFFFFFFFFFFFFFFFFFF AND MUL OR SWAP1 SSTORE POP PUSH2 0x120 DUP3 ADD MLOAD DUP2 PUSH1 0x8 ADD PUSH0 PUSH2 0x100 EXP DUP2 SLOAD DUP2 PUSH20 0xFFFFFFFFFFFFFFFFFFFFFFFFFFFFFFFFFFFFFFFF MUL NOT AND SWAP1 DUP4 PUSH20 0xFFFFFFFFFFFFFFFFFFFFFFFFFFFFFFFFFFFFFFFF AND MUL OR SWAP1 SSTORE POP SWAP1 POP POP POP POP POP POP JUMP JUMPDEST PUSH1 0x2 SLOAD DUP2 JUMP JUMPDEST PUSH1 0x5 PUSH1 0x20 MSTORE DUP1 PUSH0 MSTORE PUSH1 0x40 PUSH0 KECCAK256 PUSH0 SWAP2 POP SWAP1 POP DUP1 PUSH0 ADD SLOAD SWAP1 DUP1 PUSH1 0x1 ADD SLOAD SWAP1 DUP1 PUSH1 0x2 ADD DUP1 SLOAD PUSH2 0x7B9 SWAP1 PUSH2 0x2556 JUMP JUMPDEST DUP1 PUSH1 0x1F ADD PUSH1 0x20 DUP1 SWAP2 DIV MUL PUSH1 0x20 ADD PUSH1 0x40 MLOAD SWAP1 DUP2 ADD PUSH1 0x40 MSTORE DUP1 SWAP3 SWAP2 SWAP1 DUP2 DUP2 MSTORE PUSH1 0x20 ADD DUP3 DUP1 SLOAD PUSH2 0x7E5 SWAP1 PUSH2 0x2556 JUMP JUMPDEST DUP1 ISZERO PUSH2 0x830 JUMPI DUP1 PUSH1 0x1F LT PUSH2 0x807 JUMPI PUSH2 0x100 DUP1 DUP4 SLOAD DIV MUL DUP4 MSTORE SWAP2 PUSH1 0x20 ADD SWAP2 PUSH2 0x830 JUMP JUMPDEST DUP3 ADD SWAP2 SWAP1 PUSH0 MSTORE PUSH1 0x20 PUSH0 KECCAK256 SWAP1 JUMPDEST DUP2 SLOAD DUP2 MSTORE SWAP1 PUSH1 0x1 ADD SWAP1 PUSH1 0x20 ADD DUP1 DUP4 GT PUSH2 0x813 JUMPI DUP3 SWAP1 SUB PUSH1 0x1F AND DUP3 ADD SWAP2 JUMPDEST POP POP POP POP POP SWAP1 DUP1 PUSH1 0x3 ADD DUP1 SLOAD PUSH2 0x845 SWAP1 PUSH2 0x2556 JUMP JUMPDEST DUP1 PUSH1 0x1F ADD PUSH1 0x20 DUP1 SWAP2 DIV MUL PUSH1 0x20 ADD PUSH1 0x40 MLOAD SWAP1 DUP2 ADD PUSH1 0x40 MSTORE DUP1 SWAP3 SWAP2 SWAP1 DUP2 DUP2 MSTORE PUSH1 0x20 ADD DUP3 DUP1 SLOAD PUSH2 0x871 SWAP1 PUSH2 0x2556 JUMP JUMPDEST DUP1 ISZERO PUSH2 0x8BC JUMPI DUP1 PUSH1 0x1F LT PUSH2 0x893 JUMPI PUSH2 0x100 DUP1 DUP4 SLOAD DIV MUL DUP4 MSTORE SWAP2 PUSH1 0x20 ADD SWAP2 PUSH2 0x8BC JUMP JUMPDEST DUP3 ADD SWAP2 SWAP1 PUSH0 MSTORE PUSH1 0x20 PUSH0 KECCAK256 SWAP1 JUMPDEST DUP2 SLOAD DUP2 MSTORE SWAP1 PUSH1 0x1 ADD SWAP1 PUSH1 0x20 ADD DUP1 DUP4 GT PUSH2 0x89F JUMPI DUP3 SWAP1 SUB PUSH1 0x1F AND DUP3 ADD SWAP2 JUMPDEST POP POP POP POP POP SWAP1 DUP1 PUSH1 0x4 ADD SLOAD SWAP1 DUP1 PUSH1 0x5 ADD SLOAD SWAP1 DUP1 PUSH1 0x6 ADD SLOAD SWAP1 DUP1 PUSH1 0x7 ADD PUSH0 SWAP1 SLOAD SWAP1 PUSH2 0x100 EXP SWAP1 DIV PUSH1 0xFF AND SWAP1 DUP1 PUSH1 0x7 ADD PUSH1 0x1 SWAP1 SLOAD SWAP1 PUSH2 0x100 EXP SWAP1 DIV PUSH20 0xFFFFFFFFFFFFFFFFFFFFFFFFFFFFFFFFFFFFFFFF AND SWAP1 DUP1 PUSH1 0x8 ADD PUSH0 SWAP1 SLOAD SWAP1 PUSH2 0x100 EXP SWAP1 DIV PUSH20 0xFFFFFFFFFFFFFFFFFFFFFFFFFFFFFFFFFFFFFFFF AND SWAP1 POP DUP11 JUMP JUMPDEST PUSH1 0x4 SLOAD DUP2 JUMP JUMPDEST DUP1 PUSH1 0x5 PUSH0 DUP3 DUP2 MSTORE PUSH1 0x20 ADD SWAP1 DUP2 MSTORE PUSH1 0x20 ADD PUSH0 KECCAK256 PUSH1 0x7 ADD PUSH1 0x1 SWAP1 SLOAD SWAP1 PUSH2 0x100 EXP SWAP1 DIV PUSH20 0xFFFFFFFFFFFFFFFFFFFFFFFFFFFFFFFFFFFFFFFF AND PUSH20 0xFFFFFFFFFFFFFFFFFFFFFFFFFFFFFFFFFFFFFFFF AND CALLER PUSH20 0xFFFFFFFFFFFFFFFFFFFFFFFFFFFFFFFFFFFFFFFF AND EQ PUSH2 0x9DE JUMPI PUSH1 0x40 MLOAD PUSH32 0x8C379A000000000000000000000000000000000000000000000000000000000 DUP2 MSTORE PUSH1 0x4 ADD PUSH2 0x9D5 SWAP1 PUSH2 0x22EB JUMP JUMPDEST PUSH1 0x40 MLOAD DUP1 SWAP2 SUB SWAP1 REVERT JUMPDEST DUP2 PUSH0 PUSH1 0x6 PUSH0 PUSH1 0x5 PUSH0 DUP6 DUP2 MSTORE PUSH1 0x20 ADD SWAP1 DUP2 MSTORE PUSH1 0x20 ADD PUSH0 KECCAK256 PUSH1 0x1 ADD SLOAD DUP2 MSTORE PUSH1 0x20 ADD SWAP1 DUP2 MSTORE PUSH1 0x20 ADD PUSH0 KECCAK256 PUSH1 0x6 ADD SLOAD PUSH1 0x6 PUSH0 PUSH1 0x5 PUSH0 DUP7 DUP2 MSTORE PUSH1 0x20 ADD SWAP1 DUP2 MSTORE PUSH1 0x20 ADD PUSH0 KECCAK256 PUSH1 0x1 ADD SLOAD DUP2 MSTORE PUSH1 0x20 ADD SWAP1 DUP2 MSTORE PUSH1 0x20 ADD PUSH0 KECCAK256 PUSH1 0x7 ADD SLOAD PUSH2 0xA3C SWAP2 SWAP1 PUSH2 0x2336 JUMP JUMPDEST SWAP1 POP DUP1 TIMESTAMP GT ISZERO PUSH2 0xA81 JUMPI PUSH1 0x40 MLOAD PUSH32 0x8C379A000000000000000000000000000000000000000000000000000000000 DUP2 MSTORE PUSH1 0x4 ADD PUSH2 0xA78 SWAP1 PUSH2 0x283C JUMP JUMPDEST PUSH1 0x40 MLOAD DUP1 SWAP2 SUB SWAP1 REVERT JUMPDEST PUSH0 PUSH20 0xFFFFFFFFFFFFFFFFFFFFFFFFFFFFFFFFFFFFFFFF AND CALLER PUSH20 0xFFFFFFFFFFFFFFFFFFFFFFFFFFFFFFFFFFFFFFFF AND SUB PUSH2 0xAB8 JUMPI PUSH0 DUP1 REVERT JUMPDEST PUSH1 0x1 PUSH1 0x5 PUSH0 DUP7 DUP2 MSTORE PUSH1 0x20 ADD SWAP1 DUP2 MSTORE PUSH1 0x20 ADD PUSH0 KECCAK256 PUSH1 0x7 ADD PUSH0 PUSH2 0x100 EXP DUP2 SLOAD DUP2 PUSH1 0xFF MUL NOT AND SWAP1 DUP4 ISZERO ISZERO MUL OR SWAP1 SSTORE POP POP POP POP POP JUMP JUMPDEST PUSH1 0x3 SLOAD DUP2 JUMP JUMPDEST PUSH1 0x6 PUSH1 0x20 MSTORE DUP1 PUSH0 MSTORE PUSH1 0x40 PUSH0 KECCAK256 PUSH0 SWAP2 POP SWAP1 POP DUP1 PUSH0 ADD SLOAD SWAP1 DUP1 PUSH1 0x1 ADD SLOAD SWAP1 DUP1 PUSH1 0x2 ADD DUP1 SLOAD PUSH2 0xB1B SWAP1 PUSH2 0x2556 JUMP JUMPDEST DUP1 PUSH1 0x1F ADD PUSH1 0x20 DUP1 SWAP2 DIV MUL PUSH1 0x20 ADD PUSH1 0x40 MLOAD SWAP1 DUP2 ADD PUSH1 0x40 MSTORE DUP1 SWAP3 SWAP2 SWAP1 DUP2 DUP2 MSTORE PUSH1 0x20 ADD DUP3 DUP1 SLOAD PUSH2 0xB47 SWAP1 PUSH2 0x2556 JUMP JUMPDEST DUP1 ISZERO PUSH2 0xB92 JUMPI DUP1 PUSH1 0x1F LT PUSH2 0xB69 JUMPI PUSH2 0x100 DUP1 DUP4 SLOAD DIV MUL DUP4 MSTORE SWAP2 PUSH1 0x20 ADD SWAP2 PUSH2 0xB92 JUMP JUMPDEST DUP3 ADD SWAP2 SWAP1 PUSH0 MSTORE PUSH1 0x20 PUSH0 KECCAK256 SWAP1 JUMPDEST DUP2 SLOAD DUP2 MSTORE SWAP1 PUSH1 0x1 ADD SWAP1 PUSH1 0x20 ADD DUP1 DUP4 GT PUSH2 0xB75 JUMPI DUP3 SWAP1 SUB PUSH1 0x1F AND DUP3 ADD SWAP2 JUMPDEST POP POP POP POP POP SWAP1 DUP1 PUSH1 0x3 ADD DUP1 SLOAD PUSH2 0xBA7 SWAP1 PUSH2 0x2556 JUMP JUMPDEST DUP1 PUSH1 0x1F ADD PUSH1 0x20 DUP1 SWAP2 DIV MUL PUSH1 0x20 ADD PUSH1 0x40 MLOAD SWAP1 DUP2 ADD PUSH1 0x40 MSTORE DUP1 SWAP3 SWAP2 SWAP1 DUP2 DUP2 MSTORE PUSH1 0x20 ADD DUP3 DUP1 SLOAD PUSH2 0xBD3 SWAP1 PUSH2 0x2556 JUMP JUMPDEST DUP1 ISZERO PUSH2 0xC1E JUMPI DUP1 PUSH1 0x1F LT PUSH2 0xBF5 JUMPI PUSH2 0x100 DUP1 DUP4 SLOAD DIV MUL DUP4 MSTORE SWAP2 PUSH1 0x20 ADD SWAP2 PUSH2 0xC1E JUMP JUMPDEST DUP3 ADD SWAP2 SWAP1 PUSH0 MSTORE PUSH1 0x20 PUSH0 KECCAK256 SWAP1 JUMPDEST DUP2 SLOAD DUP2 MSTORE SWAP1 PUSH1 0x1 ADD SWAP1 PUSH1 0x20 ADD DUP1 DUP4 GT PUSH2 0xC01 JUMPI DUP3 SWAP1 SUB PUSH1 0x1F AND DUP3 ADD SWAP2 JUMPDEST POP POP POP POP POP SWAP1 DUP1 PUSH1 0x4 ADD SLOAD SWAP1 DUP1 PUSH1 0x5 ADD SLOAD SWAP1 DUP1 PUSH1 0x6 ADD SLOAD SWAP1 DUP1 PUSH1 0x7 ADD SLOAD SWAP1 DUP1 PUSH1 0x8 ADD PUSH0 SWAP1 SLOAD SWAP1 PUSH2 0x100 EXP SWAP1 DIV PUSH20 0xFFFFFFFFFFFFFFFFFFFFFFFFFFFFFFFFFFFFFFFF AND SWAP1 DUP1 PUSH1 0x9 ADD PUSH0 SWAP1 SLOAD SWAP1 PUSH2 0x100 EXP SWAP1 DIV PUSH20 0xFFFFFFFFFFFFFFFFFFFFFFFFFFFFFFFFFFFFFFFF AND SWAP1 POP DUP11 JUMP JUMPDEST DUP1 PUSH1 0x5 PUSH0 DUP3 DUP2 MSTORE PUSH1 0x20 ADD SWAP1 DUP2 MSTORE PUSH1 0x20 ADD PUSH0 KECCAK256 PUSH1 0x8 ADD PUSH0 SWAP1 SLOAD SWAP1 PUSH2 0x100 EXP SWAP1 DIV PUSH20 0xFFFFFFFFFFFFFFFFFFFFFFFFFFFFFFFFFFFFFFFF AND PUSH20 0xFFFFFFFFFFFFFFFFFFFFFFFFFFFFFFFFFFFFFFFF AND CALLER PUSH20 0xFFFFFFFFFFFFFFFFFFFFFFFFFFFFFFFFFFFFFFFF AND EQ PUSH2 0xD2C JUMPI PUSH1 0x40 MLOAD PUSH32 0x8C379A000000000000000000000000000000000000000000000000000000000 DUP2 MSTORE PUSH1 0x4 ADD PUSH2 0xD23 SWAP1 PUSH2 0x28CA JUMP JUMPDEST PUSH1 0x40 MLOAD DUP1 SWAP2 SUB SWAP1 REVERT JUMPDEST DUP2 PUSH0 PUSH1 0x6 PUSH0 PUSH1 0x5 PUSH0 DUP6 DUP2 MSTORE PUSH1 0x20 ADD SWAP1 DUP2 MSTORE PUSH1 0x20 ADD PUSH0 KECCAK256 PUSH1 0x1 ADD SLOAD DUP2 MSTORE PUSH1 0x20 ADD SWAP1 DUP2 MSTORE PUSH1 0x20 ADD PUSH0 KECCAK256 PUSH1 0x6 ADD SLOAD PUSH1 0x6 PUSH0 PUSH1 0x5 PUSH0 DUP7 DUP2 MSTORE PUSH1 0x20 ADD SWAP1 DUP2 MSTORE PUSH1 0x20 ADD PUSH0 KECCAK256 PUSH1 0x1 ADD SLOAD DUP2 MSTORE PUSH1 0x20 ADD SWAP1 DUP2 MSTORE PUSH1 0x20 ADD PUSH0 KECCAK256 PUSH1 0x7 ADD SLOAD PUSH2 0xD8A SWAP2 SWAP1 PUSH2 0x2336 JUMP JUMPDEST SWAP1 POP DUP1 TIMESTAMP LT ISZERO PUSH2 0xDCF JUMPI PUSH1 0x40 MLOAD PUSH32 0x8C379A000000000000000000000000000000000000000000000000000000000 DUP2 MSTORE PUSH1 0x4 ADD PUSH2 0xDC6 SWAP1 PUSH2 0x2932 JUMP JUMPDEST PUSH1 0x40 MLOAD DUP1 SWAP2 SUB SWAP1 REVERT JUMPDEST DUP4 PUSH1 0x5 PUSH0 DUP3 DUP2 MSTORE PUSH1 0x20 ADD SWAP1 DUP2 MSTORE PUSH1 0x20 ADD PUSH0 KECCAK256 PUSH1 0x4 ADD SLOAD CALLVALUE LT ISZERO PUSH2 0xE27 JUMPI PUSH1 0x40 MLOAD PUSH32 0x8C379A000000000000000000000000000000000000000000000000000000000 DUP2 MSTORE PUSH1 0x4 ADD PUSH2 0xE1E SWAP1 PUSH2 0x299A JUMP JUMPDEST PUSH1 0x40 MLOAD DUP1 SWAP2 SUB SWAP1 REVERT JUMPDEST PUSH0 PUSH20 0xFFFFFFFFFFFFFFFFFFFFFFFFFFFFFFFFFFFFFFFF AND CALLER PUSH20 0xFFFFFFFFFFFFFFFFFFFFFFFFFFFFFFFFFFFFFFFF AND SUB PUSH2 0xE5E JUMPI PUSH0 DUP1 REVERT JUMPDEST PUSH0 PUSH1 0x5 PUSH0 DUP8 DUP2 MSTORE PUSH1 0x20 ADD SWAP1 DUP2 MSTORE PUSH1 0x20 ADD PUSH0 KECCAK256 PUSH1 0x7 ADD PUSH1 0x1 SWAP1 SLOAD SWAP1 PUSH2 0x100 EXP SWAP1 DIV PUSH20 0xFFFFFFFFFFFFFFFFFFFFFFFFFFFFFFFFFFFFFFFF AND SWAP1 POP PUSH0 PUSH1 0x5 PUSH0 DUP9 DUP2 MSTORE PUSH1 0x20 ADD SWAP1 DUP2 MSTORE PUSH1 0x20 ADD PUSH0 KECCAK256 PUSH1 0x4 ADD SLOAD SWAP1 POP PUSH0 DUP3 PUSH20 0xFFFFFFFFFFFFFFFFFFFFFFFFFFFFFFFFFFFFFFFF AND DUP3 PUSH1 0x40 MLOAD PUSH2 0xED3 SWAP1 PUSH2 0x2466 JUMP JUMPDEST PUSH0 PUSH1 0x40 MLOAD DUP1 DUP4 SUB DUP2 DUP6 DUP8 GAS CALL SWAP3 POP POP POP RETURNDATASIZE DUP1 PUSH0 DUP2 EQ PUSH2 0xF0D JUMPI PUSH1 0x40 MLOAD SWAP2 POP PUSH1 0x1F NOT PUSH1 0x3F RETURNDATASIZE ADD AND DUP3 ADD PUSH1 0x40 MSTORE RETURNDATASIZE DUP3 MSTORE RETURNDATASIZE PUSH0 PUSH1 0x20 DUP5 ADD RETURNDATACOPY PUSH2 0xF12 JUMP JUMPDEST PUSH1 0x60 SWAP2 POP JUMPDEST POP POP SWAP1 POP DUP1 PUSH2 0xF56 JUMPI PUSH1 0x40 MLOAD PUSH32 0x8C379A000000000000000000000000000000000000000000000000000000000 DUP2 MSTORE PUSH1 0x4 ADD PUSH2 0xF4D SWAP1 PUSH2 0x2A02 JUMP JUMPDEST PUSH1 0x40 MLOAD DUP1 SWAP2 SUB SWAP1 REVERT JUMPDEST CALLER PUSH1 0x5 PUSH0 DUP11 DUP2 MSTORE PUSH1 0x20 ADD SWAP1 DUP2 MSTORE PUSH1 0x20 ADD PUSH0 KECCAK256 PUSH1 0x8 ADD PUSH0 PUSH2 0x100 EXP DUP2 SLOAD DUP2 PUSH20 0xFFFFFFFFFFFFFFFFFFFFFFFFFFFFFFFFFFFFFFFF MUL NOT AND SWAP1 DUP4 PUSH20 0xFFFFFFFFFFFFFFFFFFFFFFFFFFFFFFFFFFFFFFFF AND MUL OR SWAP1 SSTORE POP PUSH0 PUSH1 0x5 PUSH0 DUP11 DUP2 MSTORE PUSH1 0x20 ADD SWAP1 DUP2 MSTORE PUSH1 0x20 ADD PUSH0 KECCAK256 PUSH1 0x7 ADD PUSH0 PUSH2 0x100 EXP DUP2 SLOAD DUP2 PUSH1 0xFF MUL NOT AND SWAP1 DUP4 ISZERO ISZERO MUL OR SWAP1 SSTORE POP PUSH1 0x4 PUSH0 DUP2 SLOAD DUP1 SWAP3 SWAP2 SWAP1 PUSH2 0xFE5 SWAP1 PUSH2 0x24E2 JUMP JUMPDEST SWAP2 SWAP1 POP SSTORE POP PUSH1 0x40 MLOAD DUP1 PUSH2 0x120 ADD PUSH1 0x40 MSTORE DUP1 PUSH1 0x4 SLOAD DUP2 MSTORE PUSH1 0x20 ADD DUP10 DUP2 MSTORE PUSH1 0x20 ADD PUSH1 0x3 SLOAD DUP2 MSTORE PUSH1 0x20 ADD PUSH1 0x5 PUSH0 DUP12 DUP2 MSTORE PUSH1 0x20 ADD SWAP1 DUP2 MSTORE PUSH1 0x20 ADD PUSH0 KECCAK256 PUSH1 0x2 ADD DUP1 SLOAD PUSH2 0x102B SWAP1 PUSH2 0x2556 JUMP JUMPDEST DUP1 PUSH1 0x1F ADD PUSH1 0x20 DUP1 SWAP2 DIV MUL PUSH1 0x20 ADD PUSH1 0x40 MLOAD SWAP1 DUP2 ADD PUSH1 0x40 MSTORE DUP1 SWAP3 SWAP2 SWAP1 DUP2 DUP2 MSTORE PUSH1 0x20 ADD DUP3 DUP1 SLOAD PUSH2 0x1057 SWAP1 PUSH2 0x2556 JUMP JUMPDEST DUP1 ISZERO PUSH2 0x10A2 JUMPI DUP1 PUSH1 0x1F LT PUSH2 0x1079 JUMPI PUSH2 0x100 DUP1 DUP4 SLOAD DIV MUL DUP4 MSTORE SWAP2 PUSH1 0x20 ADD SWAP2 PUSH2 0x10A2 JUMP JUMPDEST DUP3 ADD SWAP2 SWAP1 PUSH0 MSTORE PUSH1 0x20 PUSH0 KECCAK256 SWAP1 JUMPDEST DUP2 SLOAD DUP2 MSTORE SWAP1 PUSH1 0x1 ADD SWAP1 PUSH1 0x20 ADD DUP1 DUP4 GT PUSH2 0x1085 JUMPI DUP3 SWAP1 SUB PUSH1 0x1F AND DUP3 ADD SWAP2 JUMPDEST POP POP POP POP POP DUP2 MSTORE PUSH1 0x20 ADD PUSH1 0x5 PUSH0 DUP12 DUP2 MSTORE PUSH1 0x20 ADD SWAP1 DUP2 MSTORE PUSH1 0x20 ADD PUSH0 KECCAK256 PUSH1 0x3 ADD DUP1 SLOAD PUSH2 0x10CB SWAP1 PUSH2 0x2556 JUMP JUMPDEST DUP1 PUSH1 0x1F ADD PUSH1 0x20 DUP1 SWAP2 DIV MUL PUSH1 0x20 ADD PUSH1 0x40 MLOAD SWAP1 DUP2 ADD PUSH1 0x40 MSTORE DUP1 SWAP3 SWAP2 SWAP1 DUP2 DUP2 MSTORE PUSH1 0x20 ADD DUP3 DUP1 SLOAD PUSH2 0x10F7 SWAP1 PUSH2 0x2556 JUMP JUMPDEST DUP1 ISZERO PUSH2 0x1142 JUMPI DUP1 PUSH1 0x1F LT PUSH2 0x1119 JUMPI PUSH2 0x100 DUP1 DUP4 SLOAD DIV MUL DUP4 MSTORE SWAP2 PUSH1 0x20 ADD SWAP2 PUSH2 0x1142 JUMP JUMPDEST DUP3 ADD SWAP2 SWAP1 PUSH0 MSTORE PUSH1 0x20 PUSH0 KECCAK256 SWAP1 JUMPDEST DUP2 SLOAD DUP2 MSTORE SWAP1 PUSH1 0x1 ADD SWAP1 PUSH1 0x20 ADD DUP1 DUP4 GT PUSH2 0x1125 JUMPI DUP3 SWAP1 SUB PUSH1 0x1F AND DUP3 ADD SWAP2 JUMPDEST POP POP POP POP POP DUP2 MSTORE PUSH1 0x20 ADD PUSH1 0x5 PUSH0 DUP12 DUP2 MSTORE PUSH1 0x20 ADD SWAP1 DUP2 MSTORE PUSH1 0x20 ADD PUSH0 KECCAK256 PUSH1 0x4 ADD SLOAD DUP2 MSTORE PUSH1 0x20 ADD TIMESTAMP DUP2 MSTORE PUSH1 0x20 ADD CALLER PUSH20 0xFFFFFFFFFFFFFFFFFFFFFFFFFFFFFFFFFFFFFFFF AND DUP2 MSTORE PUSH1 0x20 ADD DUP5 PUSH20 0xFFFFFFFFFFFFFFFFFFFFFFFFFFFFFFFFFFFFFFFF AND DUP2 MSTORE POP PUSH1 0x7 PUSH0 PUSH1 0x4 SLOAD DUP2 MSTORE PUSH1 0x20 ADD SWAP1 DUP2 MSTORE PUSH1 0x20 ADD PUSH0 KECCAK256 PUSH0 DUP3 ADD MLOAD DUP2 PUSH0 ADD SSTORE PUSH1 0x20 DUP3 ADD MLOAD DUP2 PUSH1 0x1 ADD SSTORE PUSH1 0x40 DUP3 ADD MLOAD DUP2 PUSH1 0x2 ADD SSTORE PUSH1 0x60 DUP3 ADD MLOAD DUP2 PUSH1 0x3 ADD SWAP1 DUP2 PUSH2 0x11E6 SWAP2 SWAP1 PUSH2 0x2723 JUMP JUMPDEST POP PUSH1 0x80 DUP3 ADD MLOAD DUP2 PUSH1 0x4 ADD SWAP1 DUP2 PUSH2 0x11FC SWAP2 SWAP1 PUSH2 0x2723 JUMP JUMPDEST POP PUSH1 0xA0 DUP3 ADD MLOAD DUP2 PUSH1 0x5 ADD SSTORE PUSH1 0xC0 DUP3 ADD MLOAD DUP2 PUSH1 0x6 ADD SSTORE PUSH1 0xE0 DUP3 ADD MLOAD DUP2 PUSH1 0x7 ADD PUSH0 PUSH2 0x100 EXP DUP2 SLOAD DUP2 PUSH20 0xFFFFFFFFFFFFFFFFFFFFFFFFFFFFFFFFFFFFFFFF MUL NOT AND SWAP1 DUP4 PUSH20 0xFFFFFFFFFFFFFFFFFFFFFFFFFFFFFFFFFFFFFFFF AND MUL OR SWAP1 SSTORE POP PUSH2 0x100 DUP3 ADD MLOAD DUP2 PUSH1 0x8 ADD PUSH0 PUSH2 0x100 EXP DUP2 SLOAD DUP2 PUSH20 0xFFFFFFFFFFFFFFFFFFFFFFFFFFFFFFFFFFFFFFFF MUL NOT AND SWAP1 DUP4 PUSH20 0xFFFFFFFFFFFFFFFFFFFFFFFFFFFFFFFFFFFFFFFF AND MUL OR SWAP1 SSTORE POP SWAP1 POP POP POP POP POP POP POP POP POP POP JUMP JUMPDEST DUP2 PUSH1 0x5 PUSH0 DUP3 DUP2 MSTORE PUSH1 0x20 ADD SWAP1 DUP2 MSTORE PUSH1 0x20 ADD PUSH0 KECCAK256 PUSH1 0x7 ADD PUSH1 0x1 SWAP1 SLOAD SWAP1 PUSH2 0x100 EXP SWAP1 DIV PUSH20 0xFFFFFFFFFFFFFFFFFFFFFFFFFFFFFFFFFFFFFFFF AND PUSH20 0xFFFFFFFFFFFFFFFFFFFFFFFFFFFFFFFFFFFFFFFF AND CALLER PUSH20 0xFFFFFFFFFFFFFFFFFFFFFFFFFFFFFFFFFFFFFFFF AND SUB PUSH2 0x134E JUMPI PUSH1 0x40 MLOAD PUSH32 0x8C379A000000000000000000000000000000000000000000000000000000000 DUP2 MSTORE PUSH1 0x4 ADD PUSH2 0x1345 SWAP1 PUSH2 0x2A6A JUMP JUMPDEST PUSH1 0x40 MLOAD DUP1 SWAP2 SUB SWAP1 REVERT JUMPDEST DUP3 PUSH1 0x5 PUSH0 DUP3 DUP2 MSTORE PUSH1 0x20 ADD SWAP1 DUP2 MSTORE PUSH1 0x20 ADD PUSH0 KECCAK256 PUSH1 0x5 ADD SLOAD PUSH1 0x5 PUSH0 DUP4 DUP2 MSTORE PUSH1 0x20 ADD SWAP1 DUP2 MSTORE PUSH1 0x20 ADD PUSH0 KECCAK256 PUSH1 0x4 ADD SLOAD PUSH2 0x1383 SWAP2 SWAP1 PUSH2 0x2336 JUMP JUMPDEST CALLVALUE LT ISZERO PUSH2 0x138E JUMPI PUSH0 DUP1 REVERT JUMPDEST DUP4 PUSH1 0x1 ISZERO ISZERO PUSH1 0x5 PUSH0 DUP4 DUP2 MSTORE PUSH1 0x20 ADD SWAP1 DUP2 MSTORE PUSH1 0x20 ADD PUSH0 KECCAK256 PUSH1 0x7 ADD PUSH0 SWAP1 SLOAD SWAP1 PUSH2 0x100 EXP SWAP1 DIV PUSH1 0xFF AND ISZERO ISZERO EQ PUSH2 0x13F6 JUMPI PUSH1 0x40 MLOAD PUSH32 0x8C379A000000000000000000000000000000000000000000000000000000000 DUP2 MSTORE PUSH1 0x4 ADD PUSH2 0x13ED SWAP1 PUSH2 0x2AD2 JUMP JUMPDEST PUSH1 0x40 MLOAD DUP1 SWAP2 SUB SWAP1 REVERT JUMPDEST PUSH0 PUSH20 0xFFFFFFFFFFFFFFFFFFFFFFFFFFFFFFFFFFFFFFFF AND CALLER PUSH20 0xFFFFFFFFFFFFFFFFFFFFFFFFFFFFFFFFFFFFFFFF AND SUB PUSH2 0x142D JUMPI PUSH0 DUP1 REVERT JUMPDEST PUSH0 PUSH1 0x5 PUSH0 DUP8 DUP2 MSTORE PUSH1 0x20 ADD SWAP1 DUP2 MSTORE PUSH1 0x20 ADD PUSH0 KECCAK256 PUSH1 0x7 ADD PUSH1 0x1 SWAP1 SLOAD SWAP1 PUSH2 0x100 EXP SWAP1 DIV PUSH20 0xFFFFFFFFFFFFFFFFFFFFFFFFFFFFFFFFFFFFFFFF AND SWAP1 POP PUSH0 PUSH1 0x5 PUSH0 DUP9 DUP2 MSTORE PUSH1 0x20 ADD SWAP1 DUP2 MSTORE PUSH1 0x20 ADD PUSH0 KECCAK256 PUSH1 0x5 ADD SLOAD PUSH1 0x5 PUSH0 DUP10 DUP2 MSTORE PUSH1 0x20 ADD SWAP1 DUP2 MSTORE PUSH1 0x20 ADD PUSH0 KECCAK256 PUSH1 0x4 ADD SLOAD PUSH2 0x149A SWAP2 SWAP1 PUSH2 0x2336 JUMP JUMPDEST SWAP1 POP PUSH0 DUP3 PUSH20 0xFFFFFFFFFFFFFFFFFFFFFFFFFFFFFFFFFFFFFFFF AND DUP3 PUSH1 0x40 MLOAD PUSH2 0x14C1 SWAP1 PUSH2 0x2466 JUMP JUMPDEST PUSH0 PUSH1 0x40 MLOAD DUP1 DUP4 SUB DUP2 DUP6 DUP8 GAS CALL SWAP3 POP POP POP RETURNDATASIZE DUP1 PUSH0 DUP2 EQ PUSH2 0x14FB JUMPI PUSH1 0x40 MLOAD SWAP2 POP PUSH1 0x1F NOT PUSH1 0x3F RETURNDATASIZE ADD AND DUP3 ADD PUSH1 0x40 MSTORE RETURNDATASIZE DUP3 MSTORE RETURNDATASIZE PUSH0 PUSH1 0x20 DUP5 ADD RETURNDATACOPY PUSH2 0x1500 JUMP JUMPDEST PUSH1 0x60 SWAP2 POP JUMPDEST POP POP SWAP1 POP DUP1 PUSH2 0x1544 JUMPI PUSH1 0x40 MLOAD PUSH32 0x8C379A000000000000000000000000000000000000000000000000000000000 DUP2 MSTORE PUSH1 0x4 ADD PUSH2 0x153B SWAP1 PUSH2 0x2B3A JUMP JUMPDEST PUSH1 0x40 MLOAD DUP1 SWAP2 SUB SWAP1 REVERT JUMPDEST PUSH1 0x3 PUSH0 DUP2 SLOAD DUP1 SWAP3 SWAP2 SWAP1 PUSH2 0x1556 SWAP1 PUSH2 0x24E2 JUMP JUMPDEST SWAP2 SWAP1 POP SSTORE POP CALLER PUSH1 0x5 PUSH0 DUP11 DUP2 MSTORE PUSH1 0x20 ADD SWAP1 DUP2 MSTORE PUSH1 0x20 ADD PUSH0 KECCAK256 PUSH1 0x8 ADD PUSH0 PUSH2 0x100 EXP DUP2 SLOAD DUP2 PUSH20 0xFFFFFFFFFFFFFFFFFFFFFFFFFFFFFFFFFFFFFFFF MUL NOT AND SWAP1 DUP4 PUSH20 0xFFFFFFFFFFFFFFFFFFFFFFFFFFFFFFFFFFFFFFFF AND MUL OR SWAP1 SSTORE POP TIMESTAMP PUSH1 0x5 PUSH0 DUP11 DUP2 MSTORE PUSH1 0x20 ADD SWAP1 DUP2 MSTORE PUSH1 0x20 ADD PUSH0 KECCAK256 PUSH1 0x6 ADD DUP2 SWAP1 SSTORE POP PUSH0 PUSH1 0x5 PUSH0 DUP11 DUP2 MSTORE PUSH1 0x20 ADD SWAP1 DUP2 MSTORE PUSH1 0x20 ADD PUSH0 KECCAK256 PUSH1 0x7 ADD PUSH0 PUSH2 0x100 EXP DUP2 SLOAD DUP2 PUSH1 0xFF MUL NOT AND SWAP1 DUP4 ISZERO ISZERO MUL OR SWAP1 SSTORE POP PUSH1 0x3 SLOAD PUSH1 0x5 PUSH0 DUP11 DUP2 MSTORE PUSH1 0x20 ADD SWAP1 DUP2 MSTORE PUSH1 0x20 ADD PUSH0 KECCAK256 PUSH1 0x1 ADD DUP2 SWAP1 SSTORE POP PUSH1 0x40 MLOAD DUP1 PUSH2 0x140 ADD PUSH1 0x40 MSTORE DUP1 DUP10 DUP2 MSTORE PUSH1 0x20 ADD PUSH1 0x3 SLOAD DUP2 MSTORE PUSH1 0x20 ADD PUSH1 0x5 PUSH0 DUP12 DUP2 MSTORE PUSH1 0x20 ADD SWAP1 DUP2 MSTORE PUSH1 0x20 ADD PUSH0 KECCAK256 PUSH1 0x2 ADD DUP1 SLOAD PUSH2 0x1645 SWAP1 PUSH2 0x2556 JUMP JUMPDEST DUP1 PUSH1 0x1F ADD PUSH1 0x20 DUP1 SWAP2 DIV MUL PUSH1 0x20 ADD PUSH1 0x40 MLOAD SWAP1 DUP2 ADD PUSH1 0x40 MSTORE DUP1 SWAP3 SWAP2 SWAP1 DUP2 DUP2 MSTORE PUSH1 0x20 ADD DUP3 DUP1 SLOAD PUSH2 0x1671 SWAP1 PUSH2 0x2556 JUMP JUMPDEST DUP1 ISZERO PUSH2 0x16BC JUMPI DUP1 PUSH1 0x1F LT PUSH2 0x1693 JUMPI PUSH2 0x100 DUP1 DUP4 SLOAD DIV MUL DUP4 MSTORE SWAP2 PUSH1 0x20 ADD SWAP2 PUSH2 0x16BC JUMP JUMPDEST DUP3 ADD SWAP2 SWAP1 PUSH0 MSTORE PUSH1 0x20 PUSH0 KECCAK256 SWAP1 JUMPDEST DUP2 SLOAD DUP2 MSTORE SWAP1 PUSH1 0x1 ADD SWAP1 PUSH1 0x20 ADD DUP1 DUP4 GT PUSH2 0x169F JUMPI DUP3 SWAP1 SUB PUSH1 0x1F AND DUP3 ADD SWAP2 JUMPDEST POP POP POP POP POP DUP2 MSTORE PUSH1 0x20 ADD PUSH1 0x5 PUSH0 DUP12 DUP2 MSTORE PUSH1 0x20 ADD SWAP1 DUP2 MSTORE PUSH1 0x20 ADD PUSH0 KECCAK256 PUSH1 0x3 ADD DUP1 SLOAD PUSH2 0x16E5 SWAP1 PUSH2 0x2556 JUMP JUMPDEST DUP1 PUSH1 0x1F ADD PUSH1 0x20 DUP1 SWAP2 DIV MUL PUSH1 0x20 ADD PUSH1 0x40 MLOAD SWAP1 DUP2 ADD PUSH1 0x40 MSTORE DUP1 SWAP3 SWAP2 SWAP1 DUP2 DUP2 MSTORE PUSH1 0x20 ADD DUP3 DUP1 SLOAD PUSH2 0x1711 SWAP1 PUSH2 0x2556 JUMP JUMPDEST DUP1 ISZERO PUSH2 0x175C JUMPI DUP1 PUSH1 0x1F LT PUSH2 0x1733 JUMPI PUSH2 0x100 DUP1 DUP4 SLOAD DIV MUL DUP4 MSTORE SWAP2 PUSH1 0x20 ADD SWAP2 PUSH2 0x175C JUMP JUMPDEST DUP3 ADD SWAP2 SWAP1 PUSH0 MSTORE PUSH1 0x20 PUSH0 KECCAK256 SWAP1 JUMPDEST DUP2 SLOAD DUP2 MSTORE SWAP1 PUSH1 0x1 ADD SWAP1 PUSH1 0x20 ADD DUP1 DUP4 GT PUSH2 0x173F JUMPI DUP3 SWAP1 SUB PUSH1 0x1F AND DUP3 ADD SWAP2 JUMPDEST POP POP POP POP POP DUP2 MSTORE PUSH1 0x20 ADD PUSH1 0x5 PUSH0 DUP12 DUP2 MSTORE PUSH1 0x20 ADD SWAP1 DUP2 MSTORE PUSH1 0x20 ADD PUSH0 KECCAK256 PUSH1 0x4 ADD SLOAD DUP2 MSTORE PUSH1 0x20 ADD PUSH1 0x5 PUSH0 DUP12 DUP2 MSTORE PUSH1 0x20 ADD SWAP1 DUP2 MSTORE PUSH1 0x20 ADD PUSH0 KECCAK256 PUSH1 0x5 ADD SLOAD DUP2 MSTORE PUSH1 0x20 ADD DUP9 DUP2 MSTORE PUSH1 0x20 ADD TIMESTAMP DUP2 MSTORE PUSH1 0x20 ADD CALLER PUSH20 0xFFFFFFFFFFFFFFFFFFFFFFFFFFFFFFFFFFFFFFFF AND DUP2 MSTORE PUSH1 0x20 ADD DUP5 PUSH20 0xFFFFFFFFFFFFFFFFFFFFFFFFFFFFFFFFFFFFFFFF AND DUP2 MSTORE POP PUSH1 0x6 PUSH0 PUSH1 0x3 SLOAD DUP2 MSTORE PUSH1 0x20 ADD SWAP1 DUP2 MSTORE PUSH1 0x20 ADD PUSH0 KECCAK256 PUSH0 DUP3 ADD MLOAD DUP2 PUSH0 ADD SSTORE PUSH1 0x20 DUP3 ADD MLOAD DUP2 PUSH1 0x1 ADD SSTORE PUSH1 0x40 DUP3 ADD MLOAD DUP2 PUSH1 0x2 ADD SWAP1 DUP2 PUSH2 0x1816 SWAP2 SWAP1 PUSH2 0x2723 JUMP JUMPDEST POP PUSH1 0x60 DUP3 ADD MLOAD DUP2 PUSH1 0x3 ADD SWAP1 DUP2 PUSH2 0x182C SWAP2 SWAP1 PUSH2 0x2723 JUMP JUMPDEST POP PUSH1 0x80 DUP3 ADD MLOAD DUP2 PUSH1 0x4 ADD SSTORE PUSH1 0xA0 DUP3 ADD MLOAD DUP2 PUSH1 0x5 ADD SSTORE PUSH1 0xC0 DUP3 ADD MLOAD DUP2 PUSH1 0x6 ADD SSTORE PUSH1 0xE0 DUP3 ADD MLOAD DUP2 PUSH1 0x7 ADD SSTORE PUSH2 0x100 DUP3 ADD MLOAD DUP2 PUSH1 0x8 ADD PUSH0 PUSH2 0x100 EXP DUP2 SLOAD DUP2 PUSH20 0xFFFFFFFFFFFFFFFFFFFFFFFFFFFFFFFFFFFFFFFF MUL NOT AND SWAP1 DUP4 PUSH20 0xFFFFFFFFFFFFFFFFFFFFFFFFFFFFFFFFFFFFFFFF AND MUL OR SWAP1 SSTORE POP PUSH2 0x120 DUP3 ADD MLOAD DUP2 PUSH1 0x9 ADD PUSH0 PUSH2 0x100 EXP DUP2 SLOAD DUP2 PUSH20 0xFFFFFFFFFFFFFFFFFFFFFFFFFFFFFFFFFFFFFFFF MUL NOT AND SWAP1 DUP4 PUSH20 0xFFFFFFFFFFFFFFFFFFFFFFFFFFFFFFFFFFFFFFFF AND MUL OR SWAP1 SSTORE POP SWAP1 POP POP PUSH1 0x4 PUSH0 DUP2 SLOAD DUP1 SWAP3 SWAP2 SWAP1 PUSH2 0x18F8 SWAP1 PUSH2 0x24E2 JUMP JUMPDEST SWAP2 SWAP1 POP SSTORE POP PUSH1 0x40 MLOAD DUP1 PUSH2 0x120 ADD PUSH1 0x40 MSTORE DUP1 PUSH1 0x4 SLOAD DUP2 MSTORE PUSH1 0x20 ADD DUP10 DUP2 MSTORE PUSH1 0x20 ADD PUSH1 0x3 SLOAD DUP2 MSTORE PUSH1 0x20 ADD PUSH1 0x5 PUSH0 DUP12 DUP2 MSTORE PUSH1 0x20 ADD SWAP1 DUP2 MSTORE PUSH1 0x20 ADD PUSH0 KECCAK256 PUSH1 0x2 ADD DUP1 SLOAD PUSH2 0x193E SWAP1 PUSH2 0x2556 JUMP JUMPDEST DUP1 PUSH1 0x1F ADD PUSH1 0x20 DUP1 SWAP2 DIV MUL PUSH1 0x20 ADD PUSH1 0x40 MLOAD SWAP1 DUP2 ADD PUSH1 0x40 MSTORE DUP1 SWAP3 SWAP2 SWAP1 DUP2 DUP2 MSTORE PUSH1 0x20 ADD DUP3 DUP1 SLOAD PUSH2 0x196A SWAP1 PUSH2 0x2556 JUMP JUMPDEST DUP1 ISZERO PUSH2 0x19B5 JUMPI DUP1 PUSH1 0x1F LT PUSH2 0x198C JUMPI PUSH2 0x100 DUP1 DUP4 SLOAD DIV MUL DUP4 MSTORE SWAP2 PUSH1 0x20 ADD SWAP2 PUSH2 0x19B5 JUMP JUMPDEST DUP3 ADD SWAP2 SWAP1 PUSH0 MSTORE PUSH1 0x20 PUSH0 KECCAK256 SWAP1 JUMPDEST DUP2 SLOAD DUP2 MSTORE SWAP1 PUSH1 0x1 ADD SWAP1 PUSH1 0x20 ADD DUP1 DUP4 GT PUSH2 0x1998 JUMPI DUP3 SWAP1 SUB PUSH1 0x1F AND DUP3 ADD SWAP2 JUMPDEST POP POP POP POP POP DUP2 MSTORE PUSH1 0x20 ADD PUSH1 0x5 PUSH0 DUP12 DUP2 MSTORE PUSH1 0x20 ADD SWAP1 DUP2 MSTORE PUSH1 0x20 ADD PUSH0 KECCAK256 PUSH1 0x3 ADD DUP1 SLOAD PUSH2 0x19DE SWAP1 PUSH2 0x2556 JUMP JUMPDEST DUP1 PUSH1 0x1F ADD PUSH1 0x20 DUP1 SWAP2 DIV MUL PUSH1 0x20 ADD PUSH1 0x40 MLOAD SWAP1 DUP2 ADD PUSH1 0x40 MSTORE DUP1 SWAP3 SWAP2 SWAP1 DUP2 DUP2 MSTORE PUSH1 0x20 ADD DUP3 DUP1 SLOAD PUSH2 0x1A0A SWAP1 PUSH2 0x2556 JUMP JUMPDEST DUP1 ISZERO PUSH2 0x1A55 JUMPI DUP1 PUSH1 0x1F LT PUSH2 0x1A2C JUMPI PUSH2 0x100 DUP1 DUP4 SLOAD DIV MUL DUP4 MSTORE SWAP2 PUSH1 0x20 ADD SWAP2 PUSH2 0x1A55 JUMP JUMPDEST DUP3 ADD SWAP2 SWAP1 PUSH0 MSTORE PUSH1 0x20 PUSH0 KECCAK256 SWAP1 JUMPDEST DUP2 SLOAD DUP2 MSTORE SWAP1 PUSH1 0x1 ADD SWAP1 PUSH1 0x20 ADD DUP1 DUP4 GT PUSH2 0x1A38 JUMPI DUP3 SWAP1 SUB PUSH1 0x1F AND DUP3 ADD SWAP2 JUMPDEST POP POP POP POP POP DUP2 MSTORE PUSH1 0x20 ADD PUSH1 0x5 PUSH0 DUP12 DUP2 MSTORE PUSH1 0x20 ADD SWAP1 DUP2 MSTORE PUSH1 0x20 ADD PUSH0 KECCAK256 PUSH1 0x4 ADD SLOAD DUP2 MSTORE PUSH1 0x20 ADD TIMESTAMP DUP2 MSTORE PUSH1 0x20 ADD CALLER PUSH20 0xFFFFFFFFFFFFFFFFFFFFFFFFFFFFFFFFFFFFFFFF AND DUP2 MSTORE PUSH1 0x20 ADD DUP5 PUSH20 0xFFFFFFFFFFFFFFFFFFFFFFFFFFFFFFFFFFFFFFFF AND DUP2 MSTORE POP PUSH1 0x7 PUSH0 PUSH1 0x4 SLOAD DUP2 MSTORE PUSH1 0x20 ADD SWAP1 DUP2 MSTORE PUSH1 0x20 ADD PUSH0 KECCAK256 PUSH0 DUP3 ADD MLOAD DUP2 PUSH0 ADD SSTORE PUSH1 0x20 DUP3 ADD MLOAD DUP2 PUSH1 0x1 ADD SSTORE PUSH1 0x40 DUP3 ADD MLOAD DUP2 PUSH1 0x2 ADD SSTORE PUSH1 0x60 DUP3 ADD MLOAD DUP2 PUSH1 0x3 ADD SWAP1 DUP2 PUSH2 0x1AF9 SWAP2 SWAP1 PUSH2 0x2723 JUMP JUMPDEST POP PUSH1 0x80 DUP3 ADD MLOAD DUP2 PUSH1 0x4 ADD SWAP1 DUP2 PUSH2 0x1B0F SWAP2 SWAP1 PUSH2 0x2723 JUMP JUMPDEST POP PUSH1 0xA0 DUP3 ADD MLOAD DUP2 PUSH1 0x5 ADD SSTORE PUSH1 0xC0 DUP3 ADD MLOAD DUP2 PUSH1 0x6 ADD SSTORE PUSH1 0xE0 DUP3 ADD MLOAD DUP2 PUSH1 0x7 ADD PUSH0 PUSH2 0x100 EXP DUP2 SLOAD DUP2 PUSH20 0xFFFFFFFFFFFFFFFFFFFFFFFFFFFFFFFFFFFFFFFF MUL NOT AND SWAP1 DUP4 PUSH20 0xFFFFFFFFFFFFFFFFFFFFFFFFFFFFFFFFFFFFFFFF AND MUL OR SWAP1 SSTORE POP PUSH2 0x100 DUP3 ADD MLOAD DUP2 PUSH1 0x8 ADD PUSH0 PUSH2 0x100 EXP DUP2 SLOAD DUP2 PUSH20 0xFFFFFFFFFFFFFFFFFFFFFFFFFFFFFFFFFFFFFFFF MUL NOT AND SWAP1 DUP4 PUSH20 0xFFFFFFFFFFFFFFFFFFFFFFFFFFFFFFFFFFFFFFFF AND MUL OR SWAP1 SSTORE POP SWAP1 POP POP POP POP POP POP POP POP POP POP JUMP JUMPDEST PUSH1 0x7 PUSH1 0x20 MSTORE DUP1 PUSH0 MSTORE PUSH1 0x40 PUSH0 KECCAK256 PUSH0 SWAP2 POP SWAP1 POP DUP1 PUSH0 ADD SLOAD SWAP1 DUP1 PUSH1 0x1 ADD SLOAD SWAP1 DUP1 PUSH1 0x2 ADD SLOAD SWAP1 DUP1 PUSH1 0x3 ADD DUP1 SLOAD PUSH2 0x1BEF SWAP1 PUSH2 0x2556 JUMP JUMPDEST DUP1 PUSH1 0x1F ADD PUSH1 0x20 DUP1 SWAP2 DIV MUL PUSH1 0x20 ADD PUSH1 0x40 MLOAD SWAP1 DUP2 ADD PUSH1 0x40 MSTORE DUP1 SWAP3 SWAP2 SWAP1 DUP2 DUP2 MSTORE PUSH1 0x20 ADD DUP3 DUP1 SLOAD PUSH2 0x1C1B SWAP1 PUSH2 0x2556 JUMP JUMPDEST DUP1 ISZERO PUSH2 0x1C66 JUMPI DUP1 PUSH1 0x1F LT PUSH2 0x1C3D JUMPI PUSH2 0x100 DUP1 DUP4 SLOAD DIV MUL DUP4 MSTORE SWAP2 PUSH1 0x20 ADD SWAP2 PUSH2 0x1C66 JUMP JUMPDEST DUP3 ADD SWAP2 SWAP1 PUSH0 MSTORE PUSH1 0x20 PUSH0 KECCAK256 SWAP1 JUMPDEST DUP2 SLOAD DUP2 MSTORE SWAP1 PUSH1 0x1 ADD SWAP1 PUSH1 0x20 ADD DUP1 DUP4 GT PUSH2 0x1C49 JUMPI DUP3 SWAP1 SUB PUSH1 0x1F AND DUP3 ADD SWAP2 JUMPDEST POP POP POP POP POP SWAP1 DUP1 PUSH1 0x4 ADD DUP1 SLOAD PUSH2 0x1C7B SWAP1 PUSH2 0x2556 JUMP JUMPDEST DUP1 PUSH1 0x1F ADD PUSH1 0x20 DUP1 SWAP2 DIV MUL PUSH1 0x20 ADD PUSH1 0x40 MLOAD SWAP1 DUP2 ADD PUSH1 0x40 MSTORE DUP1 SWAP3 SWAP2 SWAP1 DUP2 DUP2 MSTORE PUSH1 0x20 ADD DUP3 DUP1 SLOAD PUSH2 0x1CA7 SWAP1 PUSH2 0x2556 JUMP JUMPDEST DUP1 ISZERO PUSH2 0x1CF2 JUMPI DUP1 PUSH1 0x1F LT PUSH2 0x1CC9 JUMPI PUSH2 0x100 DUP1 DUP4 SLOAD DIV MUL DUP4 MSTORE SWAP2 PUSH1 0x20 ADD SWAP2 PUSH2 0x1CF2 JUMP JUMPDEST DUP3 ADD SWAP2 SWAP1 PUSH0 MSTORE PUSH1 0x20 PUSH0 KECCAK256 SWAP1 JUMPDEST DUP2 SLOAD DUP2 MSTORE SWAP1 PUSH1 0x1 ADD SWAP1 PUSH1 0x20 ADD DUP1 DUP4 GT PUSH2 0x1CD5 JUMPI DUP3 SWAP1 SUB PUSH1 0x1F AND DUP3 ADD SWAP2 JUMPDEST POP POP POP POP POP SWAP1 DUP1 PUSH1 0x5 ADD SLOAD SWAP1 DUP1 PUSH1 0x6 ADD SLOAD SWAP1 DUP1 PUSH1 0x7 ADD PUSH0 SWAP1 SLOAD SWAP1 PUSH2 0x100 EXP SWAP1 DIV PUSH20 0xFFFFFFFFFFFFFFFFFFFFFFFFFFFFFFFFFFFFFFFF AND SWAP1 DUP1 PUSH1 0x8 ADD PUSH0 SWAP1 SLOAD SWAP1 PUSH2 0x100 EXP SWAP1 DIV PUSH20 0xFFFFFFFFFFFFFFFFFFFFFFFFFFFFFFFFFFFFFFFF AND SWAP1 POP DUP10 JUMP JUMPDEST PUSH0 PUSH1 0x40 MLOAD SWAP1 POP SWAP1 JUMP JUMPDEST PUSH0 DUP1 REVERT JUMPDEST PUSH0 DUP1 REVERT JUMPDEST PUSH0 DUP2 SWAP1 POP SWAP2 SWAP1 POP JUMP JUMPDEST PUSH2 0x1D75 DUP2 PUSH2 0x1D63 JUMP JUMPDEST DUP2 EQ PUSH2 0x1D7F JUMPI PUSH0 DUP1 REVERT JUMPDEST POP JUMP JUMPDEST PUSH0 DUP2 CALLDATALOAD SWAP1 POP PUSH2 0x1D90 DUP2 PUSH2 0x1D6C JUMP JUMPDEST SWAP3 SWAP2 POP POP JUMP JUMPDEST PUSH0 PUSH1 0x20 DUP3 DUP5 SUB SLT ISZERO PUSH2 0x1DAB JUMPI PUSH2 0x1DAA PUSH2 0x1D5B JUMP JUMPDEST JUMPDEST PUSH0 PUSH2 0x1DB8 DUP5 DUP3 DUP6 ADD PUSH2 0x1D82 JUMP JUMPDEST SWAP2 POP POP SWAP3 SWAP2 POP POP JUMP JUMPDEST PUSH0 DUP1 REVERT JUMPDEST PUSH0 DUP1 REVERT JUMPDEST PUSH0 PUSH1 0x1F NOT PUSH1 0x1F DUP4 ADD AND SWAP1 POP SWAP2 SWAP1 POP JUMP JUMPDEST PUSH32 0x4E487B7100000000000000000000000000000000000000000000000000000000 PUSH0 MSTORE PUSH1 0x41 PUSH1 0x4 MSTORE PUSH1 0x24 PUSH0 REVERT JUMPDEST PUSH2 0x1E0F DUP3 PUSH2 0x1DC9 JUMP JUMPDEST DUP2 ADD DUP2 DUP2 LT PUSH8 0xFFFFFFFFFFFFFFFF DUP3 GT OR ISZERO PUSH2 0x1E2E JUMPI PUSH2 0x1E2D PUSH2 0x1DD9 JUMP JUMPDEST JUMPDEST DUP1 PUSH1 0x40 MSTORE POP POP POP JUMP JUMPDEST PUSH0 PUSH2 0x1E40 PUSH2 0x1D52 JUMP JUMPDEST SWAP1 POP PUSH2 0x1E4C DUP3 DUP3 PUSH2 0x1E06 JUMP JUMPDEST SWAP2 SWAP1 POP JUMP JUMPDEST PUSH0 PUSH8 0xFFFFFFFFFFFFFFFF DUP3 GT ISZERO PUSH2 0x1E6B JUMPI PUSH2 0x1E6A PUSH2 0x1DD9 JUMP JUMPDEST JUMPDEST PUSH2 0x1E74 DUP3 PUSH2 0x1DC9 JUMP JUMPDEST SWAP1 POP PUSH1 0x20 DUP2 ADD SWAP1 POP SWAP2 SWAP1 POP JUMP JUMPDEST DUP3 DUP2 DUP4 CALLDATACOPY PUSH0 DUP4 DUP4 ADD MSTORE POP POP POP JUMP JUMPDEST PUSH0 PUSH2 0x1EA1 PUSH2 0x1E9C DUP5 PUSH2 0x1E51 JUMP JUMPDEST PUSH2 0x1E37 JUMP JUMPDEST SWAP1 POP DUP3 DUP2 MSTORE PUSH1 0x20 DUP2 ADD DUP5 DUP5 DUP5 ADD GT ISZERO PUSH2 0x1EBD JUMPI PUSH2 0x1EBC PUSH2 0x1DC5 JUMP JUMPDEST JUMPDEST PUSH2 0x1EC8 DUP5 DUP3 DUP6 PUSH2 0x1E81 JUMP JUMPDEST POP SWAP4 SWAP3 POP POP POP JUMP JUMPDEST PUSH0 DUP3 PUSH1 0x1F DUP4 ADD SLT PUSH2 0x1EE4 JUMPI PUSH2 0x1EE3 PUSH2 0x1DC1 JUMP JUMPDEST JUMPDEST DUP2 CALLDATALOAD PUSH2 0x1EF4 DUP5 DUP3 PUSH1 0x20 DUP7 ADD PUSH2 0x1E8F JUMP JUMPDEST SWAP2 POP POP SWAP3 SWAP2 POP POP JUMP JUMPDEST PUSH0 DUP1 PUSH0 DUP1 PUSH1 0x80 DUP6 DUP8 SUB SLT ISZERO PUSH2 0x1F15 JUMPI PUSH2 0x1F14 PUSH2 0x1D5B JUMP JUMPDEST JUMPDEST PUSH0 DUP6 ADD CALLDATALOAD PUSH8 0xFFFFFFFFFFFFFFFF DUP2 GT ISZERO PUSH2 0x1F32 JUMPI PUSH2 0x1F31 PUSH2 0x1D5F JUMP JUMPDEST JUMPDEST PUSH2 0x1F3E DUP8 DUP3 DUP9 ADD PUSH2 0x1ED0 JUMP JUMPDEST SWAP5 POP POP PUSH1 0x20 DUP6 ADD CALLDATALOAD PUSH8 0xFFFFFFFFFFFFFFFF DUP2 GT ISZERO PUSH2 0x1F5F JUMPI PUSH2 0x1F5E PUSH2 0x1D5F JUMP JUMPDEST JUMPDEST PUSH2 0x1F6B DUP8 DUP3 DUP9 ADD PUSH2 0x1ED0 JUMP JUMPDEST SWAP4 POP POP PUSH1 0x40 PUSH2 0x1F7C DUP8 DUP3 DUP9 ADD PUSH2 0x1D82 JUMP JUMPDEST SWAP3 POP POP PUSH1 0x60 PUSH2 0x1F8D DUP8 DUP3 DUP9 ADD PUSH2 0x1D82 JUMP JUMPDEST SWAP2 POP POP SWAP3 SWAP6 SWAP2 SWAP5 POP SWAP3 POP JUMP JUMPDEST PUSH2 0x1FA2 DUP2 PUSH2 0x1D63 JUMP JUMPDEST DUP3 MSTORE POP POP JUMP JUMPDEST PUSH0 PUSH1 0x20 DUP3 ADD SWAP1 POP PUSH2 0x1FBB PUSH0 DUP4 ADD DUP5 PUSH2 0x1F99 JUMP JUMPDEST SWAP3 SWAP2 POP POP JUMP JUMPDEST PUSH0 DUP2 MLOAD SWAP1 POP SWAP2 SWAP1 POP JUMP JUMPDEST PUSH0 DUP3 DUP3 MSTORE PUSH1 0x20 DUP3 ADD SWAP1 POP SWAP3 SWAP2 POP POP JUMP JUMPDEST DUP3 DUP2 DUP4 MCOPY PUSH0 DUP4 DUP4 ADD MSTORE POP POP POP JUMP JUMPDEST PUSH0 PUSH2 0x1FF3 DUP3 PUSH2 0x1FC1 JUMP JUMPDEST PUSH2 0x1FFD DUP2 DUP6 PUSH2 0x1FCB JUMP JUMPDEST SWAP4 POP PUSH2 0x200D DUP2 DUP6 PUSH1 0x20 DUP7 ADD PUSH2 0x1FDB JUMP JUMPDEST PUSH2 0x2016 DUP2 PUSH2 0x1DC9 JUMP JUMPDEST DUP5 ADD SWAP2 POP POP SWAP3 SWAP2 POP POP JUMP JUMPDEST PUSH0 DUP2 ISZERO ISZERO SWAP1 POP SWAP2 SWAP1 POP JUMP JUMPDEST PUSH2 0x2035 DUP2 PUSH2 0x2021 JUMP JUMPDEST DUP3 MSTORE POP POP JUMP JUMPDEST PUSH0 PUSH20 0xFFFFFFFFFFFFFFFFFFFFFFFFFFFFFFFFFFFFFFFF DUP3 AND SWAP1 POP SWAP2 SWAP1 POP JUMP JUMPDEST PUSH0 PUSH2 0x2064 DUP3 PUSH2 0x203B JUMP JUMPDEST SWAP1 POP SWAP2 SWAP1 POP JUMP JUMPDEST PUSH2 0x2074 DUP2 PUSH2 0x205A JUMP JUMPDEST DUP3 MSTORE POP POP JUMP JUMPDEST PUSH0 PUSH2 0x140 DUP3 ADD SWAP1 POP PUSH2 0x208E PUSH0 DUP4 ADD DUP14 PUSH2 0x1F99 JUMP JUMPDEST PUSH2 0x209B PUSH1 0x20 DUP4 ADD DUP13 PUSH2 0x1F99 JUMP JUMPDEST DUP2 DUP2 SUB PUSH1 0x40 DUP4 ADD MSTORE PUSH2 0x20AD DUP2 DUP12 PUSH2 0x1FE9 JUMP JUMPDEST SWAP1 POP DUP2 DUP2 SUB PUSH1 0x60 DUP4 ADD MSTORE PUSH2 0x20C1 DUP2 DUP11 PUSH2 0x1FE9 JUMP JUMPDEST SWAP1 POP PUSH2 0x20D0 PUSH1 0x80 DUP4 ADD DUP10 PUSH2 0x1F99 JUMP JUMPDEST PUSH2 0x20DD PUSH1 0xA0 DUP4 ADD DUP9 PUSH2 0x1F99 JUMP JUMPDEST PUSH2 0x20EA PUSH1 0xC0 DUP4 ADD DUP8 PUSH2 0x1F99 JUMP JUMPDEST PUSH2 0x20F7 PUSH1 0xE0 DUP4 ADD DUP7 PUSH2 0x202C JUMP JUMPDEST PUSH2 0x2105 PUSH2 0x100 DUP4 ADD DUP6 PUSH2 0x206B JUMP JUMPDEST PUSH2 0x2113 PUSH2 0x120 DUP4 ADD DUP5 PUSH2 0x206B JUMP JUMPDEST SWAP12 SWAP11 POP POP POP POP POP POP POP POP POP POP POP JUMP JUMPDEST PUSH0 PUSH2 0x140 DUP3 ADD SWAP1 POP PUSH2 0x2136 PUSH0 DUP4 ADD DUP14 PUSH2 0x1F99 JUMP JUMPDEST PUSH2 0x2143 PUSH1 0x20 DUP4 ADD DUP13 PUSH2 0x1F99 JUMP JUMPDEST DUP2 DUP2 SUB PUSH1 0x40 DUP4 ADD MSTORE PUSH2 0x2155 DUP2 DUP12 PUSH2 0x1FE9 JUMP JUMPDEST SWAP1 POP DUP2 DUP2 SUB PUSH1 0x60 DUP4 ADD MSTORE PUSH2 0x2169 DUP2 DUP11 PUSH2 0x1FE9 JUMP JUMPDEST SWAP1 POP PUSH2 0x2178 PUSH1 0x80 DUP4 ADD DUP10 PUSH2 0x1F99 JUMP JUMPDEST PUSH2 0x2185 PUSH1 0xA0 DUP4 ADD DUP9 PUSH2 0x1F99 JUMP JUMPDEST PUSH2 0x2192 PUSH1 0xC0 DUP4 ADD DUP8 PUSH2 0x1F99 JUMP JUMPDEST PUSH2 0x219F PUSH1 0xE0 DUP4 ADD DUP7 PUSH2 0x1F99 JUMP JUMPDEST PUSH2 0x21AD PUSH2 0x100 DUP4 ADD DUP6 PUSH2 0x206B JUMP JUMPDEST PUSH2 0x21BB PUSH2 0x120 DUP4 ADD DUP5 PUSH2 0x206B JUMP JUMPDEST SWAP12 SWAP11 POP POP POP POP POP POP POP POP POP POP POP JUMP JUMPDEST PUSH0 DUP1 PUSH1 0x40 DUP4 DUP6 SUB SLT ISZERO PUSH2 0x21E0 JUMPI PUSH2 0x21DF PUSH2 0x1D5B JUMP JUMPDEST JUMPDEST PUSH0 PUSH2 0x21ED DUP6 DUP3 DUP7 ADD PUSH2 0x1D82 JUMP JUMPDEST SWAP3 POP POP PUSH1 0x20 PUSH2 0x21FE DUP6 DUP3 DUP7 ADD PUSH2 0x1D82 JUMP JUMPDEST SWAP2 POP POP SWAP3 POP SWAP3 SWAP1 POP JUMP JUMPDEST PUSH0 PUSH2 0x120 DUP3 ADD SWAP1 POP PUSH2 0x221C PUSH0 DUP4 ADD DUP13 PUSH2 0x1F99 JUMP JUMPDEST PUSH2 0x2229 PUSH1 0x20 DUP4 ADD DUP12 PUSH2 0x1F99 JUMP JUMPDEST PUSH2 0x2236 PUSH1 0x40 DUP4 ADD DUP11 PUSH2 0x1F99 JUMP JUMPDEST DUP2 DUP2 SUB PUSH1 0x60 DUP4 ADD MSTORE PUSH2 0x2248 DUP2 DUP10 PUSH2 0x1FE9 JUMP JUMPDEST SWAP1 POP DUP2 DUP2 SUB PUSH1 0x80 DUP4 ADD MSTORE PUSH2 0x225C DUP2 DUP9 PUSH2 0x1FE9 JUMP JUMPDEST SWAP1 POP PUSH2 0x226B PUSH1 0xA0 DUP4 ADD DUP8 PUSH2 0x1F99 JUMP JUMPDEST PUSH2 0x2278 PUSH1 0xC0 DUP4 ADD DUP7 PUSH2 0x1F99 JUMP JUMPDEST PUSH2 0x2285 PUSH1 0xE0 DUP4 ADD DUP6 PUSH2 0x206B JUMP JUMPDEST PUSH2 0x2293 PUSH2 0x100 DUP4 ADD DUP5 PUSH2 0x206B JUMP JUMPDEST SWAP11 SWAP10 POP POP POP POP POP POP POP POP POP POP JUMP JUMPDEST PUSH32 0x4F6E6C79206C616E646C6F72642063616E206163636573732074686973000000 PUSH0 DUP3 ADD MSTORE POP JUMP JUMPDEST PUSH0 PUSH2 0x22D5 PUSH1 0x1D DUP4 PUSH2 0x1FCB JUMP JUMPDEST SWAP2 POP PUSH2 0x22E0 DUP3 PUSH2 0x22A1 JUMP JUMPDEST PUSH1 0x20 DUP3 ADD SWAP1 POP SWAP2 SWAP1 POP JUMP JUMPDEST PUSH0 PUSH1 0x20 DUP3 ADD SWAP1 POP DUP2 DUP2 SUB PUSH0 DUP4 ADD MSTORE PUSH2 0x2302 DUP2 PUSH2 0x22C9 JUMP JUMPDEST SWAP1 POP SWAP2 SWAP1 POP JUMP JUMPDEST PUSH32 0x4E487B7100000000000000000000000000000000000000000000000000000000 PUSH0 MSTORE PUSH1 0x11 PUSH1 0x4 MSTORE PUSH1 0x24 PUSH0 REVERT JUMPDEST PUSH0 PUSH2 0x2340 DUP3 PUSH2 0x1D63 JUMP JUMPDEST SWAP2 POP PUSH2 0x234B DUP4 PUSH2 0x1D63 JUMP JUMPDEST SWAP3 POP DUP3 DUP3 ADD SWAP1 POP DUP1 DUP3 GT ISZERO PUSH2 0x2363 JUMPI PUSH2 0x2362 PUSH2 0x2309 JUMP JUMPDEST JUMPDEST SWAP3 SWAP2 POP POP JUMP JUMPDEST PUSH32 0x41677265656D656E7420686173206E6F74207965742065787069726564000000 PUSH0 DUP3 ADD MSTORE POP JUMP JUMPDEST PUSH0 PUSH2 0x239D PUSH1 0x1D DUP4 PUSH2 0x1FCB JUMP JUMPDEST SWAP2 POP PUSH2 0x23A8 DUP3 PUSH2 0x2369 JUMP JUMPDEST PUSH1 0x20 DUP3 ADD SWAP1 POP SWAP2 SWAP1 POP JUMP JUMPDEST PUSH0 PUSH1 0x20 DUP3 ADD SWAP1 POP DUP2 DUP2 SUB PUSH0 DUP4 ADD MSTORE PUSH2 0x23CA DUP2 PUSH2 0x2391 JUMP JUMPDEST SWAP1 POP SWAP2 SWAP1 POP JUMP JUMPDEST PUSH32 0x526F6F6D20697320616C726561647920766163616E7421000000000000000000 PUSH0 DUP3 ADD MSTORE POP JUMP JUMPDEST PUSH0 PUSH2 0x2405 PUSH1 0x17 DUP4 PUSH2 0x1FCB JUMP JUMPDEST SWAP2 POP PUSH2 0x2410 DUP3 PUSH2 0x23D1 JUMP JUMPDEST PUSH1 0x20 DUP3 ADD SWAP1 POP SWAP2 SWAP1 POP JUMP JUMPDEST PUSH0 PUSH1 0x20 DUP3 ADD SWAP1 POP DUP2 DUP2 SUB PUSH0 DUP4 ADD MSTORE PUSH2 0x2432 DUP2 PUSH2 0x23F9 JUMP JUMPDEST SWAP1 POP SWAP2 SWAP1 POP JUMP JUMPDEST PUSH0 DUP2 SWAP1 POP SWAP3 SWAP2 POP POP JUMP JUMPDEST POP JUMP JUMPDEST PUSH0 PUSH2 0x2451 PUSH0 DUP4 PUSH2 0x2439 JUMP JUMPDEST SWAP2 POP PUSH2 0x245C DUP3 PUSH2 0x2443 JUMP JUMPDEST PUSH0 DUP3 ADD SWAP1 POP SWAP2 SWAP1 POP JUMP JUMPDEST PUSH0 PUSH2 0x2470 DUP3 PUSH2 0x2446 JUMP JUMPDEST SWAP2 POP DUP2 SWAP1 POP SWAP2 SWAP1 POP JUMP JUMPDEST PUSH32 0x41677265656D656E7420436F6D706C6574696F6E204661696C65642100000000 PUSH0 DUP3 ADD MSTORE POP JUMP JUMPDEST PUSH0 PUSH2 0x24AE PUSH1 0x1C DUP4 PUSH2 0x1FCB JUMP JUMPDEST SWAP2 POP PUSH2 0x24B9 DUP3 PUSH2 0x247A JUMP JUMPDEST PUSH1 0x20 DUP3 ADD SWAP1 POP SWAP2 SWAP1 POP JUMP JUMPDEST PUSH0 PUSH1 0x20 DUP3 ADD SWAP1 POP DUP2 DUP2 SUB PUSH0 DUP4 ADD MSTORE PUSH2 0x24DB DUP2 PUSH2 0x24A2 JUMP JUMPDEST SWAP1 POP SWAP2 SWAP1 POP JUMP JUMPDEST PUSH0 PUSH2 0x24EC DUP3 PUSH2 0x1D63 JUMP JUMPDEST SWAP2 POP PUSH32 0xFFFFFFFFFFFFFFFFFFFFFFFFFFFFFFFFFFFFFFFFFFFFFFFFFFFFFFFFFFFFFFFF DUP3 SUB PUSH2 0x251E JUMPI PUSH2 0x251D PUSH2 0x2309 JUMP JUMPDEST JUMPDEST PUSH1 0x1 DUP3 ADD SWAP1 POP SWAP2 SWAP1 POP JUMP JUMPDEST PUSH32 0x4E487B7100000000000000000000000000000000000000000000000000000000 PUSH0 MSTORE PUSH1 0x22 PUSH1 0x4 MSTORE PUSH1 0x24 PUSH0 REVERT JUMPDEST PUSH0 PUSH1 0x2 DUP3 DIV SWAP1 POP PUSH1 0x1 DUP3 AND DUP1 PUSH2 0x256D JUMPI PUSH1 0x7F DUP3 AND SWAP2 POP JUMPDEST PUSH1 0x20 DUP3 LT DUP2 SUB PUSH2 0x2580 JUMPI PUSH2 0x257F PUSH2 0x2529 JUMP JUMPDEST JUMPDEST POP SWAP2 SWAP1 POP JUMP JUMPDEST PUSH0 DUP2 SWAP1 POP DUP2 PUSH0 MSTORE PUSH1 0x20 PUSH0 KECCAK256 SWAP1 POP SWAP2 SWAP1 POP JUMP JUMPDEST PUSH0 PUSH1 0x20 PUSH1 0x1F DUP4 ADD DIV SWAP1 POP SWAP2 SWAP1 POP JUMP JUMPDEST PUSH0 DUP3 DUP3 SHL SWAP1 POP SWAP3 SWAP2 POP POP JUMP JUMPDEST PUSH0 PUSH1 0x8 DUP4 MUL PUSH2 0x25E2 PUSH32 0xFFFFFFFFFFFFFFFFFFFFFFFFFFFFFFFFFFFFFFFFFFFFFFFFFFFFFFFFFFFFFFFF DUP3 PUSH2 0x25A7 JUMP JUMPDEST PUSH2 0x25EC DUP7 DUP4 PUSH2 0x25A7 JUMP JUMPDEST SWAP6 POP DUP1 NOT DUP5 AND SWAP4 POP DUP1 DUP7 AND DUP5 OR SWAP3 POP POP POP SWAP4 SWAP3 POP POP POP JUMP JUMPDEST PUSH0 DUP2 SWAP1 POP SWAP2 SWAP1 POP JUMP JUMPDEST PUSH0 PUSH2 0x2627 PUSH2 0x2622 PUSH2 0x261D DUP5 PUSH2 0x1D63 JUMP JUMPDEST PUSH2 0x2604 JUMP JUMPDEST PUSH2 0x1D63 JUMP JUMPDEST SWAP1 POP SWAP2 SWAP1 POP JUMP JUMPDEST PUSH0 DUP2 SWAP1 POP SWAP2 SWAP1 POP JUMP JUMPDEST PUSH2 0x2640 DUP4 PUSH2 0x260D JUMP JUMPDEST PUSH2 0x2654 PUSH2 0x264C DUP3 PUSH2 0x262E JUMP JUMPDEST DUP5 DUP5 SLOAD PUSH2 0x25B3 JUMP JUMPDEST DUP3 SSTORE POP POP POP POP JUMP JUMPDEST PUSH0 SWAP1 JUMP JUMPDEST PUSH2 0x2668 PUSH2 0x265C JUMP JUMPDEST PUSH2 0x2673 DUP2 DUP5 DUP5 PUSH2 0x2637 JUMP JUMPDEST POP POP POP JUMP JUMPDEST JUMPDEST DUP2 DUP2 LT ISZERO PUSH2 0x2696 JUMPI PUSH2 0x268B PUSH0 DUP3 PUSH2 0x2660 JUMP JUMPDEST PUSH1 0x1 DUP2 ADD SWAP1 POP PUSH2 0x2679 JUMP JUMPDEST POP POP JUMP JUMPDEST PUSH1 0x1F DUP3 GT ISZERO PUSH2 0x26DB JUMPI PUSH2 0x26AC DUP2 PUSH2 0x2586 JUMP JUMPDEST PUSH2 0x26B5 DUP5 PUSH2 0x2598 JUMP JUMPDEST DUP2 ADD PUSH1 0x20 DUP6 LT ISZERO PUSH2 0x26C4 JUMPI DUP2 SWAP1 POP JUMPDEST PUSH2 0x26D8 PUSH2 0x26D0 DUP6 PUSH2 0x2598 JUMP JUMPDEST DUP4 ADD DUP3 PUSH2 0x2678 JUMP JUMPDEST POP POP JUMPDEST POP POP POP JUMP JUMPDEST PUSH0 DUP3 DUP3 SHR SWAP1 POP SWAP3 SWAP2 POP POP JUMP JUMPDEST PUSH0 PUSH2 0x26FB PUSH0 NOT DUP5 PUSH1 0x8 MUL PUSH2 0x26E0 JUMP JUMPDEST NOT DUP1 DUP4 AND SWAP2 POP POP SWAP3 SWAP2 POP POP JUMP JUMPDEST PUSH0 PUSH2 0x2713 DUP4 DUP4 PUSH2 0x26EC JUMP JUMPDEST SWAP2 POP DUP3 PUSH1 0x2 MUL DUP3 OR SWAP1 POP SWAP3 SWAP2 POP POP JUMP JUMPDEST PUSH2 0x272C DUP3 PUSH2 0x1FC1 JUMP JUMPDEST PUSH8 0xFFFFFFFFFFFFFFFF DUP2 GT ISZERO PUSH2 0x2745 JUMPI PUSH2 0x2744 PUSH2 0x1DD9 JUMP JUMPDEST JUMPDEST PUSH2 0x274F DUP3 SLOAD PUSH2 0x2556 JUMP JUMPDEST PUSH2 0x275A DUP3 DUP3 DUP6 PUSH2 0x269A JUMP JUMPDEST PUSH0 PUSH1 0x20 SWAP1 POP PUSH1 0x1F DUP4 GT PUSH1 0x1 DUP2 EQ PUSH2 0x278B JUMPI PUSH0 DUP5 ISZERO PUSH2 0x2779 JUMPI DUP3 DUP8 ADD MLOAD SWAP1 POP JUMPDEST PUSH2 0x2783 DUP6 DUP3 PUSH2 0x2708 JUMP JUMPDEST DUP7 SSTORE POP PUSH2 0x27EA JUMP JUMPDEST PUSH1 0x1F NOT DUP5 AND PUSH2 0x2799 DUP7 PUSH2 0x2586 JUMP JUMPDEST PUSH0 JUMPDEST DUP3 DUP2 LT ISZERO PUSH2 0x27C0 JUMPI DUP5 DUP10 ADD MLOAD DUP3 SSTORE PUSH1 0x1 DUP3 ADD SWAP2 POP PUSH1 0x20 DUP6 ADD SWAP5 POP PUSH1 0x20 DUP2 ADD SWAP1 POP PUSH2 0x279B JUMP JUMPDEST DUP7 DUP4 LT ISZERO PUSH2 0x27DD JUMPI DUP5 DUP10 ADD MLOAD PUSH2 0x27D9 PUSH1 0x1F DUP10 AND DUP3 PUSH2 0x26EC JUMP JUMPDEST DUP4 SSTORE POP JUMPDEST PUSH1 0x1 PUSH1 0x2 DUP9 MUL ADD DUP9 SSTORE POP POP POP JUMPDEST POP POP POP POP POP POP JUMP JUMPDEST PUSH32 0x41677265656D656E742068617320657870697265640000000000000000000000 PUSH0 DUP3 ADD MSTORE POP JUMP JUMPDEST PUSH0 PUSH2 0x2826 PUSH1 0x15 DUP4 PUSH2 0x1FCB JUMP JUMPDEST SWAP2 POP PUSH2 0x2831 DUP3 PUSH2 0x27F2 JUMP JUMPDEST PUSH1 0x20 DUP3 ADD SWAP1 POP SWAP2 SWAP1 POP JUMP JUMPDEST PUSH0 PUSH1 0x20 DUP3 ADD SWAP1 POP DUP2 DUP2 SUB PUSH0 DUP4 ADD MSTORE PUSH2 0x2853 DUP2 PUSH2 0x281A JUMP JUMPDEST SWAP1 POP SWAP2 SWAP1 POP JUMP JUMPDEST PUSH32 0x596F7520617265206E6F74207468652074656E616E74206F6620746869732072 PUSH0 DUP3 ADD MSTORE PUSH32 0x6F6F6D0000000000000000000000000000000000000000000000000000000000 PUSH1 0x20 DUP3 ADD MSTORE POP JUMP JUMPDEST PUSH0 PUSH2 0x28B4 PUSH1 0x23 DUP4 PUSH2 0x1FCB JUMP JUMPDEST SWAP2 POP PUSH2 0x28BF DUP3 PUSH2 0x285A JUMP JUMPDEST PUSH1 0x40 DUP3 ADD SWAP1 POP SWAP2 SWAP1 POP JUMP JUMPDEST PUSH0 PUSH1 0x20 DUP3 ADD SWAP1 POP DUP2 DUP2 SUB PUSH0 DUP4 ADD MSTORE PUSH2 0x28E1 DUP2 PUSH2 0x28A8 JUMP JUMPDEST SWAP1 POP SWAP2 SWAP1 POP JUMP JUMPDEST PUSH32 0x54696D656C65667420746F20706179207468652072656E740000000000000000 PUSH0 DUP3 ADD MSTORE POP JUMP JUMPDEST PUSH0 PUSH2 0x291C PUSH1 0x18 DUP4 PUSH2 0x1FCB JUMP JUMPDEST SWAP2 POP PUSH2 0x2927 DUP3 PUSH2 0x28E8 JUMP JUMPDEST PUSH1 0x20 DUP3 ADD SWAP1 POP SWAP2 SWAP1 POP JUMP JUMPDEST PUSH0 PUSH1 0x20 DUP3 ADD SWAP1 POP DUP2 DUP2 SUB PUSH0 DUP4 ADD MSTORE PUSH2 0x2949 DUP2 PUSH2 0x2910 JUMP JUMPDEST SWAP1 POP SWAP2 SWAP1 POP JUMP JUMPDEST PUSH32 0x4E6F7420656E6F75676820657468657220696E20796F75722077616C6C657400 PUSH0 DUP3 ADD MSTORE POP JUMP JUMPDEST PUSH0 PUSH2 0x2984 PUSH1 0x1F DUP4 PUSH2 0x1FCB JUMP JUMPDEST SWAP2 POP PUSH2 0x298F DUP3 PUSH2 0x2950 JUMP JUMPDEST PUSH1 0x20 DUP3 ADD SWAP1 POP SWAP2 SWAP1 POP JUMP JUMPDEST PUSH0 PUSH1 0x20 DUP3 ADD SWAP1 POP DUP2 DUP2 SUB PUSH0 DUP4 ADD MSTORE PUSH2 0x29B1 DUP2 PUSH2 0x2978 JUMP JUMPDEST SWAP1 POP SWAP2 SWAP1 POP JUMP JUMPDEST PUSH32 0x52656E74207061796D656E74206661696C656400000000000000000000000000 PUSH0 DUP3 ADD MSTORE POP JUMP JUMPDEST PUSH0 PUSH2 0x29EC PUSH1 0x13 DUP4 PUSH2 0x1FCB JUMP JUMPDEST SWAP2 POP PUSH2 0x29F7 DUP3 PUSH2 0x29B8 JUMP JUMPDEST PUSH1 0x20 DUP3 ADD SWAP1 POP SWAP2 SWAP1 POP JUMP JUMPDEST PUSH0 PUSH1 0x20 DUP3 ADD SWAP1 POP DUP2 DUP2 SUB PUSH0 DUP4 ADD MSTORE PUSH2 0x2A19 DUP2 PUSH2 0x29E0 JUMP JUMPDEST SWAP1 POP SWAP2 SWAP1 POP JUMP JUMPDEST PUSH32 0x4F6E6C792074656E616E74732063616E20616363657373207468697300000000 PUSH0 DUP3 ADD MSTORE POP JUMP JUMPDEST PUSH0 PUSH2 0x2A54 PUSH1 0x1C DUP4 PUSH2 0x1FCB JUMP JUMPDEST SWAP2 POP PUSH2 0x2A5F DUP3 PUSH2 0x2A20 JUMP JUMPDEST PUSH1 0x20 DUP3 ADD SWAP1 POP SWAP2 SWAP1 POP JUMP JUMPDEST PUSH0 PUSH1 0x20 DUP3 ADD SWAP1 POP DUP2 DUP2 SUB PUSH0 DUP4 ADD MSTORE PUSH2 0x2A81 DUP2 PUSH2 0x2A48 JUMP JUMPDEST SWAP1 POP SWAP2 SWAP1 POP JUMP JUMPDEST PUSH32 0x526F6F6D206973206E6F7420766163616E740000000000000000000000000000 PUSH0 DUP3 ADD MSTORE POP JUMP JUMPDEST PUSH0 PUSH2 0x2ABC PUSH1 0x12 DUP4 PUSH2 0x1FCB JUMP JUMPDEST SWAP2 POP PUSH2 0x2AC7 DUP3 PUSH2 0x2A88 JUMP JUMPDEST PUSH1 0x20 DUP3 ADD SWAP1 POP SWAP2 SWAP1 POP JUMP JUMPDEST PUSH0 PUSH1 0x20 DUP3 ADD SWAP1 POP DUP2 DUP2 SUB PUSH0 DUP4 ADD MSTORE PUSH2 0x2AE9 DUP2 PUSH2 0x2AB0 JUMP JUMPDEST SWAP1 POP SWAP2 SWAP1 POP JUMP JUMPDEST PUSH32 0x4661696C656420746F207369676E2061677265656D656E740000000000000000 PUSH0 DUP3 ADD MSTORE POP JUMP JUMPDEST PUSH0 PUSH2 0x2B24 PUSH1 0x18 DUP4 PUSH2 0x1FCB JUMP JUMPDEST SWAP2 POP PUSH2 0x2B2F DUP3 PUSH2 0x2AF0 JUMP JUMPDEST PUSH1 0x20 DUP3 ADD SWAP1 POP SWAP2 SWAP1 POP JUMP JUMPDEST PUSH0 PUSH1 0x20 DUP3 ADD SWAP1 POP DUP2 DUP2 SUB PUSH0 DUP4 ADD MSTORE PUSH2 0x2B51 DUP2 PUSH2 0x2B18 JUMP JUMPDEST SWAP1 POP SWAP2 SWAP1 POP JUMP INVALID LOG2 PUSH5 0x6970667358 0x22 SLT KECCAK256 DUP8 AND DUP12 0x1F 0xB4 LOG4 0xAD 0xC3 EXTCODECOPY DUP5 CREATE 0xE0 0xD1 LOG2 PUSH31 0xB05DCD0CAB9D6008C73BFB05A3835F9E564736F6C634300081A0033000000 "
				},
				"gasEstimates": {
					"creation": {
						"codeDepositCost": "2230000",
						"executionCost": "17395",
						"totalCost": "2247395"
					},
					"external": {
						"add_room(string,string,uint256,uint256)": "infinite",
						"agreementCompleted(uint256)": "infinite",
						"agreement_terminated(uint256)": "infinite",
						"no_of_aggrement()": "2447",
						"no_of_rent()": "2514",
						"no_of_rooms()": "2470",
						"payRent(uint256)": "infinite",
						"rent_by_no(uint256)": "infinite",
						"room_agreement_by_no(uint256)": "infinite",
						"room_by_no(uint256)": "infinite",
						"signAgreement(uint256,uint256)": "infinite"
					}
				},
				"methodIdentifiers": {
					"add_room(string,string,uint256,uint256)": "1f261a82",
					"agreementCompleted(uint256)": "16abb8a1",
					"agreement_terminated(uint256)": "7681466c",
					"no_of_aggrement()": "900b3b53",
					"no_of_rent()": "75eb9ef6",
					"no_of_rooms()": "59e2cbec",
					"payRent(uint256)": "d9e8843f",
					"rent_by_no(uint256)": "f5b46a65",
					"room_agreement_by_no(uint256)": "ccc3e83a",
					"room_by_no(uint256)": "646fc100",
					"signAgreement(uint256,uint256)": "e1590cb6"
				}
			},
			"storageLayout": {
				"storage": [
					{
						"astId": 3,
						"contract": "hotel_mangement_contract.sol:Hotel",
						"label": "tenant",
						"offset": 0,
						"slot": "0",
						"type": "t_address_payable"
					},
					{
						"astId": 5,
						"contract": "hotel_mangement_contract.sol:Hotel",
						"label": "landlord",
						"offset": 0,
						"slot": "1",
						"type": "t_address_payable"
					},
					{
						"astId": 8,
						"contract": "hotel_mangement_contract.sol:Hotel",
						"label": "no_of_rooms",
						"offset": 0,
						"slot": "2",
						"type": "t_uint256"
					},
					{
						"astId": 11,
						"contract": "hotel_mangement_contract.sol:Hotel",
						"label": "no_of_aggrement",
						"offset": 0,
						"slot": "3",
						"type": "t_uint256"
					},
					{
						"astId": 14,
						"contract": "hotel_mangement_contract.sol:Hotel",
						"label": "no_of_rent",
						"offset": 0,
						"slot": "4",
						"type": "t_uint256"
					},
					{
						"astId": 40,
						"contract": "hotel_mangement_contract.sol:Hotel",
						"label": "room_by_no",
						"offset": 0,
						"slot": "5",
						"type": "t_mapping(t_uint256,t_struct(Room)35_storage)"
					},
					{
						"astId": 66,
						"contract": "hotel_mangement_contract.sol:Hotel",
						"label": "room_agreement_by_no",
						"offset": 0,
						"slot": "6",
						"type": "t_mapping(t_uint256,t_struct(RoomAgreement)61_storage)"
					},
					{
						"astId": 90,
						"contract": "hotel_mangement_contract.sol:Hotel",
						"label": "rent_by_no",
						"offset": 0,
						"slot": "7",
						"type": "t_mapping(t_uint256,t_struct(Rent)85_storage)"
					}
				],
				"types": {
					"t_address_payable": {
						"encoding": "inplace",
						"label": "address payable",
						"numberOfBytes": "20"
					},
					"t_bool": {
						"encoding": "inplace",
						"label": "bool",
						"numberOfBytes": "1"
					},
					"t_mapping(t_uint256,t_struct(Rent)85_storage)": {
						"encoding": "mapping",
						"key": "t_uint256",
						"label": "mapping(uint256 => struct Hotel.Rent)",
						"numberOfBytes": "32",
						"value": "t_struct(Rent)85_storage"
					},
					"t_mapping(t_uint256,t_struct(Room)35_storage)": {
						"encoding": "mapping",
						"key": "t_uint256",
						"label": "mapping(uint256 => struct Hotel.Room)",
						"numberOfBytes": "32",
						"value": "t_struct(Room)35_storage"
					},
					"t_mapping(t_uint256,t_struct(RoomAgreement)61_storage)": {
						"encoding": "mapping",
						"key": "t_uint256",
						"label": "mapping(uint256 => struct Hotel.RoomAgreement)",
						"numberOfBytes": "32",
						"value": "t_struct(RoomAgreement)61_storage"
					},
					"t_string_storage": {
						"encoding": "bytes",
						"label": "string",
						"numberOfBytes": "32"
					},
					"t_struct(Rent)85_storage": {
						"encoding": "inplace",
						"label": "struct Hotel.Rent",
						"members": [
							{
								"astId": 68,
								"contract": "hotel_mangement_contract.sol:Hotel",
								"label": "rent_no",
								"offset": 0,
								"slot": "0",
								"type": "t_uint256"
							},
							{
								"astId": 70,
								"contract": "hotel_mangement_contract.sol:Hotel",
								"label": "room_id",
								"offset": 0,
								"slot": "1",
								"type": "t_uint256"
							},
							{
								"astId": 72,
								"contract": "hotel_mangement_contract.sol:Hotel",
								"label": "agreement_id",
								"offset": 0,
								"slot": "2",
								"type": "t_uint256"
							},
							{
								"astId": 74,
								"contract": "hotel_mangement_contract.sol:Hotel",
								"label": "room_name",
								"offset": 0,
								"slot": "3",
								"type": "t_string_storage"
							},
							{
								"astId": 76,
								"contract": "hotel_mangement_contract.sol:Hotel",
								"label": "room_address",
								"offset": 0,
								"slot": "4",
								"type": "t_string_storage"
							},
							{
								"astId": 78,
								"contract": "hotel_mangement_contract.sol:Hotel",
								"label": "rent_per_month",
								"offset": 0,
								"slot": "5",
								"type": "t_uint256"
							},
							{
								"astId": 80,
								"contract": "hotel_mangement_contract.sol:Hotel",
								"label": "timestamp",
								"offset": 0,
								"slot": "6",
								"type": "t_uint256"
							},
							{
								"astId": 82,
								"contract": "hotel_mangement_contract.sol:Hotel",
								"label": "tenant_address",
								"offset": 0,
								"slot": "7",
								"type": "t_address_payable"
							},
							{
								"astId": 84,
								"contract": "hotel_mangement_contract.sol:Hotel",
								"label": "landlord_address",
								"offset": 0,
								"slot": "8",
								"type": "t_address_payable"
							}
						],
						"numberOfBytes": "288"
					},
					"t_struct(Room)35_storage": {
						"encoding": "inplace",
						"label": "struct Hotel.Room",
						"members": [
							{
								"astId": 16,
								"contract": "hotel_mangement_contract.sol:Hotel",
								"label": "room_id",
								"offset": 0,
								"slot": "0",
								"type": "t_uint256"
							},
							{
								"astId": 18,
								"contract": "hotel_mangement_contract.sol:Hotel",
								"label": "agreement_id",
								"offset": 0,
								"slot": "1",
								"type": "t_uint256"
							},
							{
								"astId": 20,
								"contract": "hotel_mangement_contract.sol:Hotel",
								"label": "room_name",
								"offset": 0,
								"slot": "2",
								"type": "t_string_storage"
							},
							{
								"astId": 22,
								"contract": "hotel_mangement_contract.sol:Hotel",
								"label": "room_address",
								"offset": 0,
								"slot": "3",
								"type": "t_string_storage"
							},
							{
								"astId": 24,
								"contract": "hotel_mangement_contract.sol:Hotel",
								"label": "rent_per_month",
								"offset": 0,
								"slot": "4",
								"type": "t_uint256"
							},
							{
								"astId": 26,
								"contract": "hotel_mangement_contract.sol:Hotel",
								"label": "security_deposit",
								"offset": 0,
								"slot": "5",
								"type": "t_uint256"
							},
							{
								"astId": 28,
								"contract": "hotel_mangement_contract.sol:Hotel",
								"label": "timestamp",
								"offset": 0,
								"slot": "6",
								"type": "t_uint256"
							},
							{
								"astId": 30,
								"contract": "hotel_mangement_contract.sol:Hotel",
								"label": "vacant",
								"offset": 0,
								"slot": "7",
								"type": "t_bool"
							},
							{
								"astId": 32,
								"contract": "hotel_mangement_contract.sol:Hotel",
								"label": "landlord",
								"offset": 1,
								"slot": "7",
								"type": "t_address_payable"
							},
							{
								"astId": 34,
								"contract": "hotel_mangement_contract.sol:Hotel",
								"label": "current_tenant",
								"offset": 0,
								"slot": "8",
								"type": "t_address_payable"
							}
						],
						"numberOfBytes": "288"
					},
					"t_struct(RoomAgreement)61_storage": {
						"encoding": "inplace",
						"label": "struct Hotel.RoomAgreement",
						"members": [
							{
								"astId": 42,
								"contract": "hotel_mangement_contract.sol:Hotel",
								"label": "room_id",
								"offset": 0,
								"slot": "0",
								"type": "t_uint256"
							},
							{
								"astId": 44,
								"contract": "hotel_mangement_contract.sol:Hotel",
								"label": "agreement_id",
								"offset": 0,
								"slot": "1",
								"type": "t_uint256"
							},
							{
								"astId": 46,
								"contract": "hotel_mangement_contract.sol:Hotel",
								"label": "room_name",
								"offset": 0,
								"slot": "2",
								"type": "t_string_storage"
							},
							{
								"astId": 48,
								"contract": "hotel_mangement_contract.sol:Hotel",
								"label": "room_address",
								"offset": 0,
								"slot": "3",
								"type": "t_string_storage"
							},
							{
								"astId": 50,
								"contract": "hotel_mangement_contract.sol:Hotel",
								"label": "rent_per_month",
								"offset": 0,
								"slot": "4",
								"type": "t_uint256"
							},
							{
								"astId": 52,
								"contract": "hotel_mangement_contract.sol:Hotel",
								"label": "security_deposit",
								"offset": 0,
								"slot": "5",
								"type": "t_uint256"
							},
							{
								"astId": 54,
								"contract": "hotel_mangement_contract.sol:Hotel",
								"label": "lock_in_period",
								"offset": 0,
								"slot": "6",
								"type": "t_uint256"
							},
							{
								"astId": 56,
								"contract": "hotel_mangement_contract.sol:Hotel",
								"label": "timestamp",
								"offset": 0,
								"slot": "7",
								"type": "t_uint256"
							},
							{
								"astId": 58,
								"contract": "hotel_mangement_contract.sol:Hotel",
								"label": "tenant_address",
								"offset": 0,
								"slot": "8",
								"type": "t_address_payable"
							},
							{
								"astId": 60,
								"contract": "hotel_mangement_contract.sol:Hotel",
								"label": "landlord_address",
								"offset": 0,
								"slot": "9",
								"type": "t_address_payable"
							}
						],
						"numberOfBytes": "320"
					},
					"t_uint256": {
						"encoding": "inplace",
						"label": "uint256",
						"numberOfBytes": "32"
					}
				}
			},
			"userdoc": {
				"kind": "user",
				"methods": {},
				"version": 1
			}
		}
	}
}