{
	"lesson_2.sol": {
		"sample": {
			"abi": [
				{
					"inputs": [],
					"name": "currentNFTs",
					"outputs": [
						{
							"internalType": "uint256",
							"name": "",
							"type": "uint256"
						}
					],
					"stateMutability": "view",
					"type": "function"
				},
				{
					"inputs": [],
					"name": "decrementNFT",
					"outputs": [],
					"stateMutability": "nonpayable",
					"type": "function"
				},
				{
					"inputs": [],
					"name": "incrementNFT",
					"outputs": [],
					"stateMutability": "nonpayable",
					"type": "function"
				},
				{
					"inputs": [],
					"name": "viewNFTs",
					"outputs": [
						{
							"internalType": "uint256",
							"name": "",
							"type": "uint256"
						}
					],
					"stateMutability": "view",
					"type": "function"
				}
			],
			"devdoc": {
				"kind": "dev",
				"methods": {},
				"version": 1
			},
			"evm": {
				"assembly": "    /* \"lesson_2.sol\":62:412  contract sample{... */\n  mstore(0x40, 0x80)\n    /* \"lesson_2.sol\":115:116  0 */\n  0x00\n    /* \"lesson_2.sol\":86:116  uint256 public currentNFTs = 0 */\n  dup1\n  sstore\n    /* \"lesson_2.sol\":62:412  contract sample{... */\n  callvalue\n  dup1\n  iszero\n  tag_1\n  jumpi\n  0x00\n  dup1\n  revert\ntag_1:\n  pop\n  dataSize(sub_0)\n  dup1\n  dataOffset(sub_0)\n  0x00\n  codecopy\n  0x00\n  return\nstop\n\nsub_0: assembly {\n        /* \"lesson_2.sol\":62:412  contract sample{... */\n      mstore(0x40, 0x80)\n      callvalue\n      dup1\n      iszero\n      tag_1\n      jumpi\n      0x00\n      dup1\n      revert\n    tag_1:\n      pop\n      jumpi(tag_2, lt(calldatasize, 0x04))\n      shr(0xe0, calldataload(0x00))\n      dup1\n      0x27e4116a\n      eq\n      tag_3\n      jumpi\n      dup1\n      0x4d849746\n      eq\n      tag_4\n      jumpi\n      dup1\n      0xc23188c7\n      eq\n      tag_5\n      jumpi\n      dup1\n      0xe4d4e340\n      eq\n      tag_6\n      jumpi\n    tag_2:\n      0x00\n      dup1\n      revert\n        /* \"lesson_2.sol\":173:259  function viewNFTs() public view returns (uint256){... */\n    tag_3:\n      tag_7\n      tag_8\n      jump\t// in\n    tag_7:\n      mload(0x40)\n      tag_9\n      swap2\n      swap1\n      tag_10\n      jump\t// in\n    tag_9:\n      mload(0x40)\n      dup1\n      swap2\n      sub\n      swap1\n      return\n        /* \"lesson_2.sol\":86:116  uint256 public currentNFTs = 0 */\n    tag_4:\n      tag_11\n      tag_12\n      jump\t// in\n    tag_11:\n      mload(0x40)\n      tag_13\n      swap2\n      swap1\n      tag_10\n      jump\t// in\n    tag_13:\n      mload(0x40)\n      dup1\n      swap2\n      sub\n      swap1\n      return\n        /* \"lesson_2.sol\":341:407  function decrementNFT() public {... */\n    tag_5:\n      tag_14\n      tag_15\n      jump\t// in\n    tag_14:\n      stop\n        /* \"lesson_2.sol\":267:333  function incrementNFT() public {... */\n    tag_6:\n      tag_16\n      tag_17\n      jump\t// in\n    tag_16:\n      stop\n        /* \"lesson_2.sol\":173:259  function viewNFTs() public view returns (uint256){... */\n    tag_8:\n        /* \"lesson_2.sol\":214:221  uint256 */\n      0x00\n        /* \"lesson_2.sol\":240:251  currentNFTs */\n      dup1\n      sload\n        /* \"lesson_2.sol\":233:251  return currentNFTs */\n      swap1\n      pop\n        /* \"lesson_2.sol\":173:259  function viewNFTs() public view returns (uint256){... */\n      swap1\n      jump\t// out\n        /* \"lesson_2.sol\":86:116  uint256 public currentNFTs = 0 */\n    tag_12:\n      sload(0x00)\n      dup2\n      jump\t// out\n        /* \"lesson_2.sol\":341:407  function decrementNFT() public {... */\n    tag_15:\n        /* \"lesson_2.sol\":398:399  1 */\n      0x01\n        /* \"lesson_2.sol\":383:394  currentNFTs */\n      0x00\n      dup1\n        /* \"lesson_2.sol\":383:399  currentNFTs -= 1 */\n      dup3\n      dup3\n      sload\n      tag_20\n      swap2\n      swap1\n      tag_21\n      jump\t// in\n    tag_20:\n      swap3\n      pop\n      pop\n      dup2\n      swap1\n      sstore\n      pop\n        /* \"lesson_2.sol\":341:407  function decrementNFT() public {... */\n      jump\t// out\n        /* \"lesson_2.sol\":267:333  function incrementNFT() public {... */\n    tag_17:\n        /* \"lesson_2.sol\":324:325  1 */\n      0x01\n        /* \"lesson_2.sol\":309:320  currentNFTs */\n      0x00\n      dup1\n        /* \"lesson_2.sol\":309:325  currentNFTs += 1 */\n      dup3\n      dup3\n      sload\n      tag_23\n      swap2\n      swap1\n      tag_24\n      jump\t// in\n    tag_23:\n      swap3\n      pop\n      pop\n      dup2\n      swap1\n      sstore\n      pop\n        /* \"lesson_2.sol\":267:333  function incrementNFT() public {... */\n      jump\t// out\n        /* \"#utility.yul\":7:84   */\n    tag_25:\n        /* \"#utility.yul\":44:51   */\n      0x00\n        /* \"#utility.yul\":73:78   */\n      dup2\n        /* \"#utility.yul\":62:78   */\n      swap1\n      pop\n        /* \"#utility.yul\":7:84   */\n      swap2\n      swap1\n      pop\n      jump\t// out\n        /* \"#utility.yul\":90:208   */\n    tag_26:\n        /* \"#utility.yul\":177:201   */\n      tag_31\n        /* \"#utility.yul\":195:200   */\n      dup2\n        /* \"#utility.yul\":177:201   */\n      tag_25\n      jump\t// in\n    tag_31:\n        /* \"#utility.yul\":172:175   */\n      dup3\n        /* \"#utility.yul\":165:202   */\n      mstore\n        /* \"#utility.yul\":90:208   */\n      pop\n      pop\n      jump\t// out\n        /* \"#utility.yul\":214:436   */\n    tag_10:\n        /* \"#utility.yul\":307:311   */\n      0x00\n        /* \"#utility.yul\":345:347   */\n      0x20\n        /* \"#utility.yul\":334:343   */\n      dup3\n        /* \"#utility.yul\":330:348   */\n      add\n        /* \"#utility.yul\":322:348   */\n      swap1\n      pop\n        /* \"#utility.yul\":358:429   */\n      tag_33\n        /* \"#utility.yul\":426:427   */\n      0x00\n        /* \"#utility.yul\":415:424   */\n      dup4\n        /* \"#utility.yul\":411:428   */\n      add\n        /* \"#utility.yul\":402:408   */\n      dup5\n        /* \"#utility.yul\":358:429   */\n      tag_26\n      jump\t// in\n    tag_33:\n        /* \"#utility.yul\":214:436   */\n      swap3\n      swap2\n      pop\n      pop\n      jump\t// out\n        /* \"#utility.yul\":442:622   */\n    tag_27:\n        /* \"#utility.yul\":490:567   */\n      0x4e487b7100000000000000000000000000000000000000000000000000000000\n        /* \"#utility.yul\":487:488   */\n      0x00\n        /* \"#utility.yul\":480:568   */\n      mstore\n        /* \"#utility.yul\":587:591   */\n      0x11\n        /* \"#utility.yul\":584:585   */\n      0x04\n        /* \"#utility.yul\":577:592   */\n      mstore\n        /* \"#utility.yul\":611:615   */\n      0x24\n        /* \"#utility.yul\":608:609   */\n      0x00\n        /* \"#utility.yul\":601:616   */\n      revert\n        /* \"#utility.yul\":628:819   */\n    tag_21:\n        /* \"#utility.yul\":668:672   */\n      0x00\n        /* \"#utility.yul\":688:708   */\n      tag_36\n        /* \"#utility.yul\":706:707   */\n      dup3\n        /* \"#utility.yul\":688:708   */\n      tag_25\n      jump\t// in\n    tag_36:\n        /* \"#utility.yul\":683:708   */\n      swap2\n      pop\n        /* \"#utility.yul\":722:742   */\n      tag_37\n        /* \"#utility.yul\":740:741   */\n      dup4\n        /* \"#utility.yul\":722:742   */\n      tag_25\n      jump\t// in\n    tag_37:\n        /* \"#utility.yul\":717:742   */\n      swap3\n      pop\n        /* \"#utility.yul\":761:762   */\n      dup3\n        /* \"#utility.yul\":758:759   */\n      dup3\n        /* \"#utility.yul\":755:763   */\n      lt\n        /* \"#utility.yul\":752:786   */\n      iszero\n      tag_38\n      jumpi\n        /* \"#utility.yul\":766:784   */\n      tag_39\n      tag_27\n      jump\t// in\n    tag_39:\n        /* \"#utility.yul\":752:786   */\n    tag_38:\n        /* \"#utility.yul\":811:812   */\n      dup3\n        /* \"#utility.yul\":808:809   */\n      dup3\n        /* \"#utility.yul\":804:813   */\n      sub\n        /* \"#utility.yul\":796:813   */\n      swap1\n      pop\n        /* \"#utility.yul\":628:819   */\n      swap3\n      swap2\n      pop\n      pop\n      jump\t// out\n        /* \"#utility.yul\":825:1130   */\n    tag_24:\n        /* \"#utility.yul\":865:868   */\n      0x00\n        /* \"#utility.yul\":884:904   */\n      tag_41\n        /* \"#utility.yul\":902:903   */\n      dup3\n        /* \"#utility.yul\":884:904   */\n      tag_25\n      jump\t// in\n    tag_41:\n        /* \"#utility.yul\":879:904   */\n      swap2\n      pop\n        /* \"#utility.yul\":918:938   */\n      tag_42\n        /* \"#utility.yul\":936:937   */\n      dup4\n        /* \"#utility.yul\":918:938   */\n      tag_25\n      jump\t// in\n    tag_42:\n        /* \"#utility.yul\":913:938   */\n      swap3\n      pop\n        /* \"#utility.yul\":1072:1073   */\n      dup3\n        /* \"#utility.yul\":1004:1070   */\n      0xffffffffffffffffffffffffffffffffffffffffffffffffffffffffffffffff\n        /* \"#utility.yul\":1000:1074   */\n      sub\n        /* \"#utility.yul\":997:998   */\n      dup3\n        /* \"#utility.yul\":994:1075   */\n      gt\n        /* \"#utility.yul\":991:1098   */\n      iszero\n      tag_43\n      jumpi\n        /* \"#utility.yul\":1078:1096   */\n      tag_44\n      tag_27\n      jump\t// in\n    tag_44:\n        /* \"#utility.yul\":991:1098   */\n    tag_43:\n        /* \"#utility.yul\":1122:1123   */\n      dup3\n        /* \"#utility.yul\":1119:1120   */\n      dup3\n        /* \"#utility.yul\":1115:1124   */\n      add\n        /* \"#utility.yul\":1108:1124   */\n      swap1\n      pop\n        /* \"#utility.yul\":825:1130   */\n      swap3\n      swap2\n      pop\n      pop\n      jump\t// out\n\n    auxdata: 0xa26469706673582212204d351cc96c5fec8ef59e391be307d036d26450760046c285bff67f738ed0bce264736f6c634300080d0033\n}\n",
				"bytecode": {
					"linkReferences": {},
					"object": "60806040526000805534801561001457600080fd5b50610209806100246000396000f3fe608060405234801561001057600080fd5b506004361061004c5760003560e01c806327e4116a146100515780634d8497461461006f578063c23188c71461008d578063e4d4e34014610097575b600080fd5b6100596100a1565b60405161006691906100ff565b60405180910390f35b6100776100aa565b60405161008491906100ff565b60405180910390f35b6100956100b0565b005b61009f6100cb565b005b60008054905090565b60005481565b60016000808282546100c29190610149565b92505081905550565b60016000808282546100dd919061017d565b92505081905550565b6000819050919050565b6100f9816100e6565b82525050565b600060208201905061011460008301846100f0565b92915050565b7f4e487b7100000000000000000000000000000000000000000000000000000000600052601160045260246000fd5b6000610154826100e6565b915061015f836100e6565b9250828210156101725761017161011a565b5b828203905092915050565b6000610188826100e6565b9150610193836100e6565b9250827fffffffffffffffffffffffffffffffffffffffffffffffffffffffffffffffff038211156101c8576101c761011a565b5b82820190509291505056fea26469706673582212204d351cc96c5fec8ef59e391be307d036d26450760046c285bff67f738ed0bce264736f6c634300080d0033",
					"opcodes": "PUSH1 0x80 PUSH1 0x40 MSTORE PUSH1 0x0 DUP1 SSTORE CALLVALUE DUP1 ISZERO PUSH2 0x14 JUMPI PUSH1 0x0 DUP1 REVERT JUMPDEST POP PUSH2 0x209 DUP1 PUSH2 0x24 PUSH1 0x0 CODECOPY PUSH1 0x0 RETURN INVALID PUSH1 0x80 PUSH1 0x40 MSTORE CALLVALUE DUP1 ISZERO PUSH2 0x10 JUMPI PUSH1 0x0 DUP1 REVERT JUMPDEST POP PUSH1 0x4 CALLDATASIZE LT PUSH2 0x4C JUMPI PUSH1 0x0 CALLDATALOAD PUSH1 0xE0 SHR DUP1 PUSH4 0x27E4116A EQ PUSH2 0x51 JUMPI DUP1 PUSH4 0x4D849746 EQ PUSH2 0x6F JUMPI DUP1 PUSH4 0xC23188C7 EQ PUSH2 0x8D JUMPI DUP1 PUSH4 0xE4D4E340 EQ PUSH2 0x97 JUMPI JUMPDEST PUSH1 0x0 DUP1 REVERT JUMPDEST PUSH2 0x59 PUSH2 0xA1 JUMP JUMPDEST PUSH1 0x40 MLOAD PUSH2 0x66 SWAP2 SWAP1 PUSH2 0xFF JUMP JUMPDEST PUSH1 0x40 MLOAD DUP1 SWAP2 SUB SWAP1 RETURN JUMPDEST PUSH2 0x77 PUSH2 0xAA JUMP JUMPDEST PUSH1 0x40 MLOAD PUSH2 0x84 SWAP2 SWAP1 PUSH2 0xFF JUMP JUMPDEST PUSH1 0x40 MLOAD DUP1 SWAP2 SUB SWAP1 RETURN JUMPDEST PUSH2 0x95 PUSH2 0xB0 JUMP JUMPDEST STOP JUMPDEST PUSH2 0x9F PUSH2 0xCB JUMP JUMPDEST STOP JUMPDEST PUSH1 0x0 DUP1 SLOAD SWAP1 POP SWAP1 JUMP JUMPDEST PUSH1 0x0 SLOAD DUP2 JUMP JUMPDEST PUSH1 0x1 PUSH1 0x0 DUP1 DUP3 DUP3 SLOAD PUSH2 0xC2 SWAP2 SWAP1 PUSH2 0x149 JUMP JUMPDEST SWAP3 POP POP DUP2 SWAP1 SSTORE POP JUMP JUMPDEST PUSH1 0x1 PUSH1 0x0 DUP1 DUP3 DUP3 SLOAD PUSH2 0xDD SWAP2 SWAP1 PUSH2 0x17D JUMP JUMPDEST SWAP3 POP POP DUP2 SWAP1 SSTORE POP JUMP JUMPDEST PUSH1 0x0 DUP2 SWAP1 POP SWAP2 SWAP1 POP JUMP JUMPDEST PUSH2 0xF9 DUP2 PUSH2 0xE6 JUMP JUMPDEST DUP3 MSTORE POP POP JUMP JUMPDEST PUSH1 0x0 PUSH1 0x20 DUP3 ADD SWAP1 POP PUSH2 0x114 PUSH1 0x0 DUP4 ADD DUP5 PUSH2 0xF0 JUMP JUMPDEST SWAP3 SWAP2 POP POP JUMP JUMPDEST PUSH32 0x4E487B7100000000000000000000000000000000000000000000000000000000 PUSH1 0x0 MSTORE PUSH1 0x11 PUSH1 0x4 MSTORE PUSH1 0x24 PUSH1 0x0 REVERT JUMPDEST PUSH1 0x0 PUSH2 0x154 DUP3 PUSH2 0xE6 JUMP JUMPDEST SWAP2 POP PUSH2 0x15F DUP4 PUSH2 0xE6 JUMP JUMPDEST SWAP3 POP DUP3 DUP3 LT ISZERO PUSH2 0x172 JUMPI PUSH2 0x171 PUSH2 0x11A JUMP JUMPDEST JUMPDEST DUP3 DUP3 SUB SWAP1 POP SWAP3 SWAP2 POP POP JUMP JUMPDEST PUSH1 0x0 PUSH2 0x188 DUP3 PUSH2 0xE6 JUMP JUMPDEST SWAP2 POP PUSH2 0x193 DUP4 PUSH2 0xE6 JUMP JUMPDEST SWAP3 POP DUP3 PUSH32 0xFFFFFFFFFFFFFFFFFFFFFFFFFFFFFFFFFFFFFFFFFFFFFFFFFFFFFFFFFFFFFFFF SUB DUP3 GT ISZERO PUSH2 0x1C8 JUMPI PUSH2 0x1C7 PUSH2 0x11A JUMP JUMPDEST JUMPDEST DUP3 DUP3 ADD SWAP1 POP SWAP3 SWAP2 POP POP JUMP INVALID LOG2 PUSH5 0x6970667358 0x22 SLT KECCAK256 0x4D CALLDATALOAD SHR 0xC9 PUSH13 0x5FEC8EF59E391BE307D036D264 POP PUSH23 0x46C285BFF67F738ED0BCE264736F6C634300080D0033 "
				},
				"gasEstimates": {
					"creation": {
						"codeDepositCost": "104200",
						"executionCost": "5159",
						"totalCost": "109359"
					},
					"external": {
						"currentNFTs()": "2429",
						"decrementNFT()": "infinite",
						"incrementNFT()": "infinite",
						"viewNFTs()": "2415"
					}
				},
				"methodIdentifiers": {
					"currentNFTs()": "4d849746",
					"decrementNFT()": "c23188c7",
					"incrementNFT()": "e4d4e340",
					"viewNFTs()": "27e4116a"
				}
			},
			"storageLayout": {
				"storage": [
					{
						"astId": 4,
						"contract": "lesson_2.sol:sample",
						"label": "currentNFTs",
						"offset": 0,
						"slot": "0",
						"type": "t_uint256"
					}
				],
				"types": {
					"t_uint256": {
						"encoding": "inplace",
						"label": "uint256",
						"numberOfBytes": "32"
					}
				}
			},
			"userdoc": {
				"kind": "user",
				"methods": {},
				"version": 1
			}
		}
	}
}