{
	"crowdfunding.sol": {
		"CrowdfundingPlatform": {
			"abi": [
				{
					"anonymous": false,
					"inputs": [
						{
							"indexed": false,
							"internalType": "uint256",
							"name": "campaignId",
							"type": "uint256"
						},
						{
							"indexed": false,
							"internalType": "address",
							"name": "owner",
							"type": "address"
						},
						{
							"indexed": false,
							"internalType": "uint256",
							"name": "goal",
							"type": "uint256"
						},
						{
							"indexed": false,
							"internalType": "uint256",
							"name": "deadline",
							"type": "uint256"
						}
					],
					"name": "CampaignCreated",
					"type": "event"
				},
				{
					"anonymous": false,
					"inputs": [
						{
							"indexed": false,
							"internalType": "uint256",
							"name": "campaignId",
							"type": "uint256"
						},
						{
							"indexed": false,
							"internalType": "address",
							"name": "contributor",
							"type": "address"
						},
						{
							"indexed": false,
							"internalType": "uint256",
							"name": "amount",
							"type": "uint256"
						}
					],
					"name": "Pledged",
					"type": "event"
				},
				{
					"anonymous": false,
					"inputs": [
						{
							"indexed": false,
							"internalType": "uint256",
							"name": "campaignId",
							"type": "uint256"
						},
						{
							"indexed": false,
							"internalType": "address",
							"name": "contributor",
							"type": "address"
						},
						{
							"indexed": false,
							"internalType": "uint256",
							"name": "amount",
							"type": "uint256"
						}
					],
					"name": "Refunded",
					"type": "event"
				},
				{
					"anonymous": false,
					"inputs": [
						{
							"indexed": false,
							"internalType": "uint256",
							"name": "campaignId",
							"type": "uint256"
						},
						{
							"indexed": false,
							"internalType": "address",
							"name": "owner",
							"type": "address"
						},
						{
							"indexed": false,
							"internalType": "uint256",
							"name": "amount",
							"type": "uint256"
						}
					],
					"name": "Withdrawn",
					"type": "event"
				},
				{
					"inputs": [],
					"name": "campaignCount",
					"outputs": [
						{
							"internalType": "uint256",
							"name": "",
							"type": "uint256"
						}
					],
					"stateMutability": "view",
					"type": "function"
				},
				{
					"inputs": [
						{
							"internalType": "uint256",
							"name": "",
							"type": "uint256"
						}
					],
					"name": "campaigns",
					"outputs": [
						{
							"internalType": "address payable",
							"name": "owner",
							"type": "address"
						},
						{
							"internalType": "uint256",
							"name": "goal",
							"type": "uint256"
						},
						{
							"internalType": "uint256",
							"name": "deadline",
							"type": "uint256"
						},
						{
							"internalType": "uint256",
							"name": "pledgedAmount",
							"type": "uint256"
						},
						{
							"internalType": "bool",
							"name": "claimed",
							"type": "bool"
						}
					],
					"stateMutability": "view",
					"type": "function"
				},
				{
					"inputs": [
						{
							"internalType": "uint256",
							"name": "",
							"type": "uint256"
						},
						{
							"internalType": "address",
							"name": "",
							"type": "address"
						}
					],
					"name": "contributions",
					"outputs": [
						{
							"internalType": "uint256",
							"name": "",
							"type": "uint256"
						}
					],
					"stateMutability": "view",
					"type": "function"
				},
				{
					"inputs": [
						{
							"internalType": "uint256",
							"name": "_goal",
							"type": "uint256"
						},
						{
							"internalType": "uint256",
							"name": "_duration",
							"type": "uint256"
						}
					],
					"name": "createCampaign",
					"outputs": [],
					"stateMutability": "nonpayable",
					"type": "function"
				},
				{
					"inputs": [
						{
							"internalType": "uint256",
							"name": "_campaignId",
							"type": "uint256"
						}
					],
					"name": "getCampaign",
					"outputs": [
						{
							"internalType": "address",
							"name": "owner",
							"type": "address"
						},
						{
							"internalType": "uint256",
							"name": "goal",
							"type": "uint256"
						},
						{
							"internalType": "uint256",
							"name": "deadline",
							"type": "uint256"
						},
						{
							"internalType": "uint256",
							"name": "pledgedAmount",
							"type": "uint256"
						},
						{
							"internalType": "bool",
							"name": "claimed",
							"type": "bool"
						}
					],
					"stateMutability": "view",
					"type": "function"
				},
				{
					"inputs": [
						{
							"internalType": "uint256",
							"name": "_campaignId",
							"type": "uint256"
						},
						{
							"internalType": "address",
							"name": "_contributor",
							"type": "address"
						}
					],
					"name": "getContribution",
					"outputs": [
						{
							"internalType": "uint256",
							"name": "",
							"type": "uint256"
						}
					],
					"stateMutability": "view",
					"type": "function"
				},
				{
					"inputs": [
						{
							"internalType": "uint256",
							"name": "_campaignId",
							"type": "uint256"
						}
					],
					"name": "pledge",
					"outputs": [],
					"stateMutability": "payable",
					"type": "function"
				},
				{
					"inputs": [
						{
							"internalType": "uint256",
							"name": "_campaignId",
							"type": "uint256"
						}
					],
					"name": "requestRefund",
					"outputs": [],
					"stateMutability": "nonpayable",
					"type": "function"
				},
				{
					"inputs": [
						{
							"internalType": "uint256",
							"name": "_campaignId",
							"type": "uint256"
						}
					],
					"name": "withdrawFunds",
					"outputs": [],
					"stateMutability": "nonpayable",
					"type": "function"
				}
			],
			"devdoc": {
				"kind": "dev",
				"methods": {},
				"version": 1
			},
			"evm": {
				"assembly": "    /* \"crowdfunding.sol\":61:5029  contract CrowdfundingPlatform {... */\n  mstore(0x40, 0x80)\n  callvalue\n  dup1\n  iszero\n  tag_1\n  jumpi\n  0x00\n  dup1\n  revert\ntag_1:\n  pop\n  dataSize(sub_0)\n  dup1\n  dataOffset(sub_0)\n  0x00\n  codecopy\n  0x00\n  return\nstop\n\nsub_0: assembly {\n        /* \"crowdfunding.sol\":61:5029  contract CrowdfundingPlatform {... */\n      mstore(0x40, 0x80)\n      jumpi(tag_1, lt(calldatasize, 0x04))\n      shr(0xe0, calldataload(0x00))\n      dup1\n      0x5598f8cc\n      gt\n      tag_11\n      jumpi\n      dup1\n      0x5598f8cc\n      eq\n      tag_6\n      jumpi\n      dup1\n      0x7274e30d\n      eq\n      tag_7\n      jumpi\n      dup1\n      0x7326c9c0\n      eq\n      tag_8\n      jumpi\n      dup1\n      0xa4b2409e\n      eq\n      tag_9\n      jumpi\n      dup1\n      0xe081dbf9\n      eq\n      tag_10\n      jumpi\n      jump(tag_1)\n    tag_11:\n      dup1\n      0x141961bc\n      eq\n      tag_2\n      jumpi\n      dup1\n      0x155dd5ee\n      eq\n      tag_3\n      jumpi\n      dup1\n      0x22502268\n      eq\n      tag_4\n      jumpi\n      dup1\n      0x3d891f59\n      eq\n      tag_5\n      jumpi\n    tag_1:\n      0x00\n      dup1\n      revert\n        /* \"crowdfunding.sol\":651:693  mapping(uint => Campaign) public campaigns */\n    tag_2:\n      callvalue\n      dup1\n      iszero\n      tag_12\n      jumpi\n      0x00\n      dup1\n      revert\n    tag_12:\n      pop\n      tag_13\n      0x04\n      dup1\n      calldatasize\n      sub\n      dup2\n      add\n      swap1\n      tag_14\n      swap2\n      swap1\n      tag_15\n      jump\t// in\n    tag_14:\n      tag_16\n      jump\t// in\n    tag_13:\n      mload(0x40)\n      tag_17\n      swap6\n      swap5\n      swap4\n      swap3\n      swap2\n      swap1\n      tag_18\n      jump\t// in\n    tag_17:\n      mload(0x40)\n      dup1\n      swap2\n      sub\n      swap1\n      return\n        /* \"crowdfunding.sol\":3117:3612  function withdrawFunds(uint _campaignId) external onlyOwner(_campaignId) afterDeadline(_campaignId) {... */\n    tag_3:\n      callvalue\n      dup1\n      iszero\n      tag_19\n      jumpi\n      0x00\n      dup1\n      revert\n    tag_19:\n      pop\n      tag_20\n      0x04\n      dup1\n      calldatasize\n      sub\n      dup2\n      add\n      swap1\n      tag_21\n      swap2\n      swap1\n      tag_15\n      jump\t// in\n    tag_21:\n      tag_22\n      jump\t// in\n    tag_20:\n      stop\n        /* \"crowdfunding.sol\":2006:2589  function createCampaign(uint _goal, uint _duration) external {... */\n    tag_4:\n      callvalue\n      dup1\n      iszero\n      tag_23\n      jumpi\n      0x00\n      dup1\n      revert\n    tag_23:\n      pop\n      tag_24\n      0x04\n      dup1\n      calldatasize\n      sub\n      dup2\n      add\n      swap1\n      tag_25\n      swap2\n      swap1\n      tag_26\n      jump\t// in\n    tag_25:\n      tag_27\n      jump\t// in\n    tag_24:\n      stop\n        /* \"crowdfunding.sol\":822:884  mapping(uint => mapping(address => uint)) public contributions */\n    tag_5:\n      callvalue\n      dup1\n      iszero\n      tag_28\n      jumpi\n      0x00\n      dup1\n      revert\n    tag_28:\n      pop\n      tag_29\n      0x04\n      dup1\n      calldatasize\n      sub\n      dup2\n      add\n      swap1\n      tag_30\n      swap2\n      swap1\n      tag_31\n      jump\t// in\n    tag_30:\n      tag_32\n      jump\t// in\n    tag_29:\n      mload(0x40)\n      tag_33\n      swap2\n      swap1\n      tag_34\n      jump\t// in\n    tag_33:\n      mload(0x40)\n      dup1\n      swap2\n      sub\n      swap1\n      return\n        /* \"crowdfunding.sol\":4333:4777  function getCampaign(uint _campaignId) external view returns (... */\n    tag_6:\n      callvalue\n      dup1\n      iszero\n      tag_35\n      jumpi\n      0x00\n      dup1\n      revert\n    tag_35:\n      pop\n      tag_36\n      0x04\n      dup1\n      calldatasize\n      sub\n      dup2\n      add\n      swap1\n      tag_37\n      swap2\n      swap1\n      tag_15\n      jump\t// in\n    tag_37:\n      tag_38\n      jump\t// in\n    tag_36:\n      mload(0x40)\n      tag_39\n      swap6\n      swap5\n      swap4\n      swap3\n      swap2\n      swap1\n      tag_40\n      jump\t// in\n    tag_39:\n      mload(0x40)\n      dup1\n      swap2\n      sub\n      swap1\n      return\n        /* \"crowdfunding.sol\":700:725  uint public campaignCount */\n    tag_7:\n      callvalue\n      dup1\n      iszero\n      tag_41\n      jumpi\n      0x00\n      dup1\n      revert\n    tag_41:\n      pop\n      tag_42\n      tag_43\n      jump\t// in\n    tag_42:\n      mload(0x40)\n      tag_44\n      swap2\n      swap1\n      tag_34\n      jump\t// in\n    tag_44:\n      mload(0x40)\n      dup1\n      swap2\n      sub\n      swap1\n      return\n        /* \"crowdfunding.sol\":2653:3046  function pledge(uint _campaignId) external payable beforeDeadline(_campaignId) {... */\n    tag_8:\n      tag_45\n      0x04\n      dup1\n      calldatasize\n      sub\n      dup2\n      add\n      swap1\n      tag_46\n      swap2\n      swap1\n      tag_15\n      jump\t// in\n    tag_46:\n      tag_47\n      jump\t// in\n    tag_45:\n      stop\n        /* \"crowdfunding.sol\":3697:4258  function requestRefund(uint _campaignId) external afterDeadline(_campaignId) {... */\n    tag_9:\n      callvalue\n      dup1\n      iszero\n      tag_48\n      jumpi\n      0x00\n      dup1\n      revert\n    tag_48:\n      pop\n      tag_49\n      0x04\n      dup1\n      calldatasize\n      sub\n      dup2\n      add\n      swap1\n      tag_50\n      swap2\n      swap1\n      tag_15\n      jump\t// in\n    tag_50:\n      tag_51\n      jump\t// in\n    tag_49:\n      stop\n        /* \"crowdfunding.sol\":4866:5026  function getContribution(uint _campaignId, address _contributor) external view returns (uint) {... */\n    tag_10:\n      callvalue\n      dup1\n      iszero\n      tag_52\n      jumpi\n      0x00\n      dup1\n      revert\n    tag_52:\n      pop\n      tag_53\n      0x04\n      dup1\n      calldatasize\n      sub\n      dup2\n      add\n      swap1\n      tag_54\n      swap2\n      swap1\n      tag_31\n      jump\t// in\n    tag_54:\n      tag_55\n      jump\t// in\n    tag_53:\n      mload(0x40)\n      tag_56\n      swap2\n      swap1\n      tag_34\n      jump\t// in\n    tag_56:\n      mload(0x40)\n      dup1\n      swap2\n      sub\n      swap1\n      return\n        /* \"crowdfunding.sol\":651:693  mapping(uint => Campaign) public campaigns */\n    tag_16:\n      mstore(0x20, 0x00)\n      dup1\n      0x00\n      mstore\n      keccak256(0x00, 0x40)\n      0x00\n      swap2\n      pop\n      swap1\n      pop\n      dup1\n      0x00\n      add\n      0x00\n      swap1\n      sload\n      swap1\n      0x0100\n      exp\n      swap1\n      div\n      0xffffffffffffffffffffffffffffffffffffffff\n      and\n      swap1\n      dup1\n      0x01\n      add\n      sload\n      swap1\n      dup1\n      0x02\n      add\n      sload\n      swap1\n      dup1\n      0x03\n      add\n      sload\n      swap1\n      dup1\n      0x04\n      add\n      0x00\n      swap1\n      sload\n      swap1\n      0x0100\n      exp\n      swap1\n      div\n      0xff\n      and\n      swap1\n      pop\n      dup6\n      jump\t// out\n        /* \"crowdfunding.sol\":3117:3612  function withdrawFunds(uint _campaignId) external onlyOwner(_campaignId) afterDeadline(_campaignId) {... */\n    tag_22:\n        /* \"crowdfunding.sol\":3177:3188  _campaignId */\n      dup1\n        /* \"crowdfunding.sol\":1426:1435  campaigns */\n      0x00\n        /* \"crowdfunding.sol\":1426:1448  campaigns[_campaignId] */\n      dup1\n        /* \"crowdfunding.sol\":1436:1447  _campaignId */\n      dup3\n        /* \"crowdfunding.sol\":1426:1448  campaigns[_campaignId] */\n      dup2\n      mstore\n      0x20\n      add\n      swap1\n      dup2\n      mstore\n      0x20\n      add\n      0x00\n      keccak256\n        /* \"crowdfunding.sol\":1426:1454  campaigns[_campaignId].owner */\n      0x00\n      add\n      0x00\n      swap1\n      sload\n      swap1\n      0x0100\n      exp\n      swap1\n      div\n      0xffffffffffffffffffffffffffffffffffffffff\n      and\n        /* \"crowdfunding.sol\":1412:1454  msg.sender == campaigns[_campaignId].owner */\n      0xffffffffffffffffffffffffffffffffffffffff\n      and\n        /* \"crowdfunding.sol\":1412:1422  msg.sender */\n      caller\n        /* \"crowdfunding.sol\":1412:1454  msg.sender == campaigns[_campaignId].owner */\n      0xffffffffffffffffffffffffffffffffffffffff\n      and\n      eq\n        /* \"crowdfunding.sol\":1404:1477  require(msg.sender == campaigns[_campaignId].owner, \"Not campaign owner\") */\n      tag_58\n      jumpi\n      mload(0x40)\n      0x08c379a000000000000000000000000000000000000000000000000000000000\n      dup2\n      mstore\n      0x04\n      add\n      tag_59\n      swap1\n      tag_60\n      jump\t// in\n    tag_59:\n      mload(0x40)\n      dup1\n      swap2\n      sub\n      swap1\n      revert\n    tag_58:\n        /* \"crowdfunding.sol\":3204:3215  _campaignId */\n      dup2\n        /* \"crowdfunding.sol\":1875:1884  campaigns */\n      0x00\n        /* \"crowdfunding.sol\":1875:1897  campaigns[_campaignId] */\n      dup1\n        /* \"crowdfunding.sol\":1885:1896  _campaignId */\n      dup3\n        /* \"crowdfunding.sol\":1875:1897  campaigns[_campaignId] */\n      dup2\n      mstore\n      0x20\n      add\n      swap1\n      dup2\n      mstore\n      0x20\n      add\n      0x00\n      keccak256\n        /* \"crowdfunding.sol\":1875:1906  campaigns[_campaignId].deadline */\n      0x02\n      add\n      sload\n        /* \"crowdfunding.sol\":1856:1871  block.timestamp */\n      timestamp\n        /* \"crowdfunding.sol\":1856:1906  block.timestamp >= campaigns[_campaignId].deadline */\n      lt\n      iszero\n        /* \"crowdfunding.sol\":1848:1936  require(block.timestamp >= campaigns[_campaignId].deadline, \"Campaign is still ongoing\") */\n      tag_62\n      jumpi\n      mload(0x40)\n      0x08c379a000000000000000000000000000000000000000000000000000000000\n      dup2\n      mstore\n      0x04\n      add\n      tag_63\n      swap1\n      tag_64\n      jump\t// in\n    tag_63:\n      mload(0x40)\n      dup1\n      swap2\n      sub\n      swap1\n      revert\n    tag_62:\n        /* \"crowdfunding.sol\":3228:3253  Campaign storage campaign */\n      0x00\n        /* \"crowdfunding.sol\":3256:3265  campaigns */\n      dup1\n        /* \"crowdfunding.sol\":3256:3278  campaigns[_campaignId] */\n      0x00\n        /* \"crowdfunding.sol\":3266:3277  _campaignId */\n      dup6\n        /* \"crowdfunding.sol\":3256:3278  campaigns[_campaignId] */\n      dup2\n      mstore\n      0x20\n      add\n      swap1\n      dup2\n      mstore\n      0x20\n      add\n      0x00\n      keccak256\n        /* \"crowdfunding.sol\":3228:3278  Campaign storage campaign = campaigns[_campaignId] */\n      swap1\n      pop\n        /* \"crowdfunding.sol\":3323:3331  campaign */\n      dup1\n        /* \"crowdfunding.sol\":3323:3336  campaign.goal */\n      0x01\n      add\n      sload\n        /* \"crowdfunding.sol\":3297:3305  campaign */\n      dup2\n        /* \"crowdfunding.sol\":3297:3319  campaign.pledgedAmount */\n      0x03\n      add\n      sload\n        /* \"crowdfunding.sol\":3297:3336  campaign.pledgedAmount >= campaign.goal */\n      lt\n      iszero\n        /* \"crowdfunding.sol\":3289:3353  require(campaign.pledgedAmount >= campaign.goal, \"Goal not met\") */\n      tag_66\n      jumpi\n      mload(0x40)\n      0x08c379a000000000000000000000000000000000000000000000000000000000\n      dup2\n      mstore\n      0x04\n      add\n      tag_67\n      swap1\n      tag_68\n      jump\t// in\n    tag_67:\n      mload(0x40)\n      dup1\n      swap2\n      sub\n      swap1\n      revert\n    tag_66:\n        /* \"crowdfunding.sol\":3373:3381  campaign */\n      dup1\n        /* \"crowdfunding.sol\":3373:3389  campaign.claimed */\n      0x04\n      add\n      0x00\n      swap1\n      sload\n      swap1\n      0x0100\n      exp\n      swap1\n      div\n      0xff\n      and\n        /* \"crowdfunding.sol\":3372:3389  !campaign.claimed */\n      iszero\n        /* \"crowdfunding.sol\":3364:3415  require(!campaign.claimed, \"Funds already claimed\") */\n      tag_69\n      jumpi\n      mload(0x40)\n      0x08c379a000000000000000000000000000000000000000000000000000000000\n      dup2\n      mstore\n      0x04\n      add\n      tag_70\n      swap1\n      tag_71\n      jump\t// in\n    tag_70:\n      mload(0x40)\n      dup1\n      swap2\n      sub\n      swap1\n      revert\n    tag_69:\n        /* \"crowdfunding.sol\":3428:3439  uint amount */\n      0x00\n        /* \"crowdfunding.sol\":3442:3450  campaign */\n      dup2\n        /* \"crowdfunding.sol\":3442:3464  campaign.pledgedAmount */\n      0x03\n      add\n      sload\n        /* \"crowdfunding.sol\":3428:3464  uint amount = campaign.pledgedAmount */\n      swap1\n      pop\n        /* \"crowdfunding.sol\":3494:3498  true */\n      0x01\n        /* \"crowdfunding.sol\":3475:3483  campaign */\n      dup3\n        /* \"crowdfunding.sol\":3475:3491  campaign.claimed */\n      0x04\n      add\n      0x00\n        /* \"crowdfunding.sol\":3475:3498  campaign.claimed = true */\n      0x0100\n      exp\n      dup2\n      sload\n      dup2\n      0xff\n      mul\n      not\n      and\n      swap1\n      dup4\n      iszero\n      iszero\n      mul\n      or\n      swap1\n      sstore\n      pop\n        /* \"crowdfunding.sol\":3509:3517  campaign */\n      dup2\n        /* \"crowdfunding.sol\":3509:3523  campaign.owner */\n      0x00\n      add\n      0x00\n      swap1\n      sload\n      swap1\n      0x0100\n      exp\n      swap1\n      div\n      0xffffffffffffffffffffffffffffffffffffffff\n      and\n        /* \"crowdfunding.sol\":3509:3532  campaign.owner.transfer */\n      0xffffffffffffffffffffffffffffffffffffffff\n      and\n        /* \"crowdfunding.sol\":3509:3540  campaign.owner.transfer(amount) */\n      0x08fc\n        /* \"crowdfunding.sol\":3533:3539  amount */\n      dup3\n        /* \"crowdfunding.sol\":3509:3540  campaign.owner.transfer(amount) */\n      swap1\n      dup2\n      iszero\n      mul\n      swap1\n      mload(0x40)\n      0x00\n      mload(0x40)\n      dup1\n      dup4\n      sub\n      dup2\n      dup6\n      dup9\n      dup9\n      call\n      swap4\n      pop\n      pop\n      pop\n      pop\n      iszero\n      dup1\n      iszero\n      tag_73\n      jumpi\n      returndatasize\n      0x00\n      dup1\n      returndatacopy\n      revert(0x00, returndatasize)\n    tag_73:\n      pop\n        /* \"crowdfunding.sol\":3558:3604  Withdrawn(_campaignId, campaign.owner, amount) */\n      0xcf7d23a3cbe4e8b36ff82fd1b05b1b17373dc7804b4ebbd6e2356716ef202372\n        /* \"crowdfunding.sol\":3568:3579  _campaignId */\n      dup6\n        /* \"crowdfunding.sol\":3581:3589  campaign */\n      dup4\n        /* \"crowdfunding.sol\":3581:3595  campaign.owner */\n      0x00\n      add\n      0x00\n      swap1\n      sload\n      swap1\n      0x0100\n      exp\n      swap1\n      div\n      0xffffffffffffffffffffffffffffffffffffffff\n      and\n        /* \"crowdfunding.sol\":3597:3603  amount */\n      dup4\n        /* \"crowdfunding.sol\":3558:3604  Withdrawn(_campaignId, campaign.owner, amount) */\n      mload(0x40)\n      tag_74\n      swap4\n      swap3\n      swap2\n      swap1\n      tag_75\n      jump\t// in\n    tag_74:\n      mload(0x40)\n      dup1\n      swap2\n      sub\n      swap1\n      log1\n        /* \"crowdfunding.sol\":3217:3612  {... */\n      pop\n      pop\n        /* \"crowdfunding.sol\":1488:1489  _ */\n      pop\n        /* \"crowdfunding.sol\":3117:3612  function withdrawFunds(uint _campaignId) external onlyOwner(_campaignId) afterDeadline(_campaignId) {... */\n      pop\n      pop\n      jump\t// out\n        /* \"crowdfunding.sol\":2006:2589  function createCampaign(uint _goal, uint _duration) external {... */\n    tag_27:\n        /* \"crowdfunding.sol\":2094:2095  0 */\n      0x00\n        /* \"crowdfunding.sol\":2086:2091  _goal */\n      dup3\n        /* \"crowdfunding.sol\":2086:2095  _goal > 0 */\n      gt\n        /* \"crowdfunding.sol\":2078:2127  require(_goal > 0, \"Goal must be greater than 0\") */\n      tag_77\n      jumpi\n      mload(0x40)\n      0x08c379a000000000000000000000000000000000000000000000000000000000\n      dup2\n      mstore\n      0x04\n      add\n      tag_78\n      swap1\n      tag_79\n      jump\t// in\n    tag_78:\n      mload(0x40)\n      dup1\n      swap2\n      sub\n      swap1\n      revert\n    tag_77:\n        /* \"crowdfunding.sol\":2158:2159  0 */\n      0x00\n        /* \"crowdfunding.sol\":2146:2155  _duration */\n      dup2\n        /* \"crowdfunding.sol\":2146:2159  _duration > 0 */\n      gt\n        /* \"crowdfunding.sol\":2138:2195  require(_duration > 0, \"Duration must be greater than 0\") */\n      tag_80\n      jumpi\n      mload(0x40)\n      0x08c379a000000000000000000000000000000000000000000000000000000000\n      dup2\n      mstore\n      0x04\n      add\n      tag_81\n      swap1\n      tag_82\n      jump\t// in\n    tag_81:\n      mload(0x40)\n      dup1\n      swap2\n      sub\n      swap1\n      revert\n    tag_80:\n        /* \"crowdfunding.sol\":2208:2221  uint deadline */\n      0x00\n        /* \"crowdfunding.sol\":2242:2251  _duration */\n      dup2\n        /* \"crowdfunding.sol\":2224:2239  block.timestamp */\n      timestamp\n        /* \"crowdfunding.sol\":2224:2251  block.timestamp + _duration */\n      tag_83\n      swap2\n      swap1\n      tag_84\n      jump\t// in\n    tag_83:\n        /* \"crowdfunding.sol\":2208:2251  uint deadline = block.timestamp + _duration */\n      swap1\n      pop\n        /* \"crowdfunding.sol\":2289:2470  Campaign({... */\n      mload(0x40)\n      dup1\n      0xa0\n      add\n      0x40\n      mstore\n      dup1\n        /* \"crowdfunding.sol\":2328:2338  msg.sender */\n      caller\n        /* \"crowdfunding.sol\":2289:2470  Campaign({... */\n      0xffffffffffffffffffffffffffffffffffffffff\n      and\n      dup2\n      mstore\n      0x20\n      add\n        /* \"crowdfunding.sol\":2360:2365  _goal */\n      dup5\n        /* \"crowdfunding.sol\":2289:2470  Campaign({... */\n      dup2\n      mstore\n      0x20\n      add\n        /* \"crowdfunding.sol\":2390:2398  deadline */\n      dup3\n        /* \"crowdfunding.sol\":2289:2470  Campaign({... */\n      dup2\n      mstore\n      0x20\n      add\n        /* \"crowdfunding.sol\":2428:2429  0 */\n      0x00\n        /* \"crowdfunding.sol\":2289:2470  Campaign({... */\n      dup2\n      mstore\n      0x20\n      add\n        /* \"crowdfunding.sol\":2453:2458  false */\n      0x00\n        /* \"crowdfunding.sol\":2289:2470  Campaign({... */\n      iszero\n      iszero\n      dup2\n      mstore\n      pop\n        /* \"crowdfunding.sol\":2262:2271  campaigns */\n      0x00\n        /* \"crowdfunding.sol\":2262:2286  campaigns[campaignCount] */\n      dup1\n        /* \"crowdfunding.sol\":2272:2285  campaignCount */\n      sload(0x01)\n        /* \"crowdfunding.sol\":2262:2286  campaigns[campaignCount] */\n      dup2\n      mstore\n      0x20\n      add\n      swap1\n      dup2\n      mstore\n      0x20\n      add\n      0x00\n      keccak256\n        /* \"crowdfunding.sol\":2262:2470  campaigns[campaignCount] = Campaign({... */\n      0x00\n      dup3\n      add\n      mload\n      dup2\n      0x00\n      add\n      exp(0x0100, 0x00)\n      dup2\n      sload\n      dup2\n      0xffffffffffffffffffffffffffffffffffffffff\n      mul\n      not\n      and\n      swap1\n      dup4\n      0xffffffffffffffffffffffffffffffffffffffff\n      and\n      mul\n      or\n      swap1\n      sstore\n      pop\n      0x20\n      dup3\n      add\n      mload\n      dup2\n      0x01\n      add\n      sstore\n      0x40\n      dup3\n      add\n      mload\n      dup2\n      0x02\n      add\n      sstore\n      0x60\n      dup3\n      add\n      mload\n      dup2\n      0x03\n      add\n      sstore\n      0x80\n      dup3\n      add\n      mload\n      dup2\n      0x04\n      add\n      exp(0x0100, 0x00)\n      dup2\n      sload\n      dup2\n      0xff\n      mul\n      not\n      and\n      swap1\n      dup4\n      iszero\n      iszero\n      mul\n      or\n      swap1\n      sstore\n      pop\n      swap1\n      pop\n      pop\n        /* \"crowdfunding.sol\":2496:2555  CampaignCreated(campaignCount, msg.sender, _goal, deadline) */\n      0x91b289a829e71d811b8c69e4a24ba2d40d115d8a236e9a724cb3bb2d43cf7223\n        /* \"crowdfunding.sol\":2512:2525  campaignCount */\n      sload(0x01)\n        /* \"crowdfunding.sol\":2527:2537  msg.sender */\n      caller\n        /* \"crowdfunding.sol\":2539:2544  _goal */\n      dup6\n        /* \"crowdfunding.sol\":2546:2554  deadline */\n      dup5\n        /* \"crowdfunding.sol\":2496:2555  CampaignCreated(campaignCount, msg.sender, _goal, deadline) */\n      mload(0x40)\n      tag_85\n      swap5\n      swap4\n      swap3\n      swap2\n      swap1\n      tag_86\n      jump\t// in\n    tag_85:\n      mload(0x40)\n      dup1\n      swap2\n      sub\n      swap1\n      log1\n        /* \"crowdfunding.sol\":2566:2579  campaignCount */\n      0x01\n      0x00\n        /* \"crowdfunding.sol\":2566:2581  campaignCount++ */\n      dup2\n      sload\n      dup1\n      swap3\n      swap2\n      swap1\n      tag_87\n      swap1\n      tag_88\n      jump\t// in\n    tag_87:\n      swap2\n      swap1\n      pop\n      sstore\n      pop\n        /* \"crowdfunding.sol\":2067:2589  {... */\n      pop\n        /* \"crowdfunding.sol\":2006:2589  function createCampaign(uint _goal, uint _duration) external {... */\n      pop\n      pop\n      jump\t// out\n        /* \"crowdfunding.sol\":822:884  mapping(uint => mapping(address => uint)) public contributions */\n    tag_32:\n      mstore(0x20, 0x02)\n      dup2\n      0x00\n      mstore\n      mstore(0x20, keccak256(0x00, 0x40))\n      dup1\n      0x00\n      mstore\n      keccak256(0x00, 0x40)\n      0x00\n      swap2\n      pop\n      swap2\n      pop\n      pop\n      sload\n      dup2\n      jump\t// out\n        /* \"crowdfunding.sol\":4333:4777  function getCampaign(uint _campaignId) external view returns (... */\n    tag_38:\n        /* \"crowdfunding.sol\":4405:4418  address owner */\n      0x00\n        /* \"crowdfunding.sol\":4429:4438  uint goal */\n      dup1\n        /* \"crowdfunding.sol\":4449:4462  uint deadline */\n      0x00\n        /* \"crowdfunding.sol\":4473:4491  uint pledgedAmount */\n      dup1\n        /* \"crowdfunding.sol\":4502:4514  bool claimed */\n      0x00\n        /* \"crowdfunding.sol\":4533:4558  Campaign storage campaign */\n      dup1\n        /* \"crowdfunding.sol\":4561:4570  campaigns */\n      0x00\n        /* \"crowdfunding.sol\":4561:4583  campaigns[_campaignId] */\n      dup1\n        /* \"crowdfunding.sol\":4571:4582  _campaignId */\n      dup9\n        /* \"crowdfunding.sol\":4561:4583  campaigns[_campaignId] */\n      dup2\n      mstore\n      0x20\n      add\n      swap1\n      dup2\n      mstore\n      0x20\n      add\n      0x00\n      keccak256\n        /* \"crowdfunding.sol\":4533:4583  Campaign storage campaign = campaigns[_campaignId] */\n      swap1\n      pop\n        /* \"crowdfunding.sol\":4616:4624  campaign */\n      dup1\n        /* \"crowdfunding.sol\":4616:4630  campaign.owner */\n      0x00\n      add\n      0x00\n      swap1\n      sload\n      swap1\n      0x0100\n      exp\n      swap1\n      div\n      0xffffffffffffffffffffffffffffffffffffffff\n      and\n        /* \"crowdfunding.sol\":4645:4653  campaign */\n      dup2\n        /* \"crowdfunding.sol\":4645:4658  campaign.goal */\n      0x01\n      add\n      sload\n        /* \"crowdfunding.sol\":4673:4681  campaign */\n      dup3\n        /* \"crowdfunding.sol\":4673:4690  campaign.deadline */\n      0x02\n      add\n      sload\n        /* \"crowdfunding.sol\":4705:4713  campaign */\n      dup4\n        /* \"crowdfunding.sol\":4705:4727  campaign.pledgedAmount */\n      0x03\n      add\n      sload\n        /* \"crowdfunding.sol\":4742:4750  campaign */\n      dup5\n        /* \"crowdfunding.sol\":4742:4758  campaign.claimed */\n      0x04\n      add\n      0x00\n      swap1\n      sload\n      swap1\n      0x0100\n      exp\n      swap1\n      div\n      0xff\n      and\n        /* \"crowdfunding.sol\":4594:4769  return (... */\n      swap6\n      pop\n      swap6\n      pop\n      swap6\n      pop\n      swap6\n      pop\n      swap6\n      pop\n      pop\n        /* \"crowdfunding.sol\":4333:4777  function getCampaign(uint _campaignId) external view returns (... */\n      swap2\n      swap4\n      swap6\n      swap1\n      swap3\n      swap5\n      pop\n      jump\t// out\n        /* \"crowdfunding.sol\":700:725  uint public campaignCount */\n    tag_43:\n      sload(0x01)\n      dup2\n      jump\t// out\n        /* \"crowdfunding.sol\":2653:3046  function pledge(uint _campaignId) external payable beforeDeadline(_campaignId) {... */\n    tag_47:\n        /* \"crowdfunding.sol\":2719:2730  _campaignId */\n      dup1\n        /* \"crowdfunding.sol\":1651:1660  campaigns */\n      0x00\n        /* \"crowdfunding.sol\":1651:1673  campaigns[_campaignId] */\n      dup1\n        /* \"crowdfunding.sol\":1661:1672  _campaignId */\n      dup3\n        /* \"crowdfunding.sol\":1651:1673  campaigns[_campaignId] */\n      dup2\n      mstore\n      0x20\n      add\n      swap1\n      dup2\n      mstore\n      0x20\n      add\n      0x00\n      keccak256\n        /* \"crowdfunding.sol\":1651:1682  campaigns[_campaignId].deadline */\n      0x02\n      add\n      sload\n        /* \"crowdfunding.sol\":1633:1648  block.timestamp */\n      timestamp\n        /* \"crowdfunding.sol\":1633:1682  block.timestamp < campaigns[_campaignId].deadline */\n      lt\n        /* \"crowdfunding.sol\":1625:1705  require(block.timestamp < campaigns[_campaignId].deadline, \"Campaign has ended\") */\n      tag_91\n      jumpi\n      mload(0x40)\n      0x08c379a000000000000000000000000000000000000000000000000000000000\n      dup2\n      mstore\n      0x04\n      add\n      tag_92\n      swap1\n      tag_93\n      jump\t// in\n    tag_92:\n      mload(0x40)\n      dup1\n      swap2\n      sub\n      swap1\n      revert\n    tag_91:\n        /* \"crowdfunding.sol\":2763:2764  0 */\n      0x00\n        /* \"crowdfunding.sol\":2751:2760  msg.value */\n      callvalue\n        /* \"crowdfunding.sol\":2751:2764  msg.value > 0 */\n      gt\n        /* \"crowdfunding.sol\":2743:2798  require(msg.value > 0, \"Pledge must be greater than 0\") */\n      tag_95\n      jumpi\n      mload(0x40)\n      0x08c379a000000000000000000000000000000000000000000000000000000000\n      dup2\n      mstore\n      0x04\n      add\n      tag_96\n      swap1\n      tag_97\n      jump\t// in\n    tag_96:\n      mload(0x40)\n      dup1\n      swap2\n      sub\n      swap1\n      revert\n    tag_95:\n        /* \"crowdfunding.sol\":2819:2844  Campaign storage campaign */\n      0x00\n        /* \"crowdfunding.sol\":2847:2856  campaigns */\n      dup1\n        /* \"crowdfunding.sol\":2847:2869  campaigns[_campaignId] */\n      0x00\n        /* \"crowdfunding.sol\":2857:2868  _campaignId */\n      dup5\n        /* \"crowdfunding.sol\":2847:2869  campaigns[_campaignId] */\n      dup2\n      mstore\n      0x20\n      add\n      swap1\n      dup2\n      mstore\n      0x20\n      add\n      0x00\n      keccak256\n        /* \"crowdfunding.sol\":2819:2869  Campaign storage campaign = campaigns[_campaignId] */\n      swap1\n      pop\n        /* \"crowdfunding.sol\":2906:2915  msg.value */\n      callvalue\n        /* \"crowdfunding.sol\":2880:2888  campaign */\n      dup2\n        /* \"crowdfunding.sol\":2880:2902  campaign.pledgedAmount */\n      0x03\n      add\n      0x00\n        /* \"crowdfunding.sol\":2880:2915  campaign.pledgedAmount += msg.value */\n      dup3\n      dup3\n      sload\n      tag_98\n      swap2\n      swap1\n      tag_84\n      jump\t// in\n    tag_98:\n      swap3\n      pop\n      pop\n      dup2\n      swap1\n      sstore\n      pop\n        /* \"crowdfunding.sol\":2968:2977  msg.value */\n      callvalue\n        /* \"crowdfunding.sol\":2926:2939  contributions */\n      0x02\n        /* \"crowdfunding.sol\":2926:2952  contributions[_campaignId] */\n      0x00\n        /* \"crowdfunding.sol\":2940:2951  _campaignId */\n      dup6\n        /* \"crowdfunding.sol\":2926:2952  contributions[_campaignId] */\n      dup2\n      mstore\n      0x20\n      add\n      swap1\n      dup2\n      mstore\n      0x20\n      add\n      0x00\n      keccak256\n        /* \"crowdfunding.sol\":2926:2964  contributions[_campaignId][msg.sender] */\n      0x00\n        /* \"crowdfunding.sol\":2953:2963  msg.sender */\n      caller\n        /* \"crowdfunding.sol\":2926:2964  contributions[_campaignId][msg.sender] */\n      0xffffffffffffffffffffffffffffffffffffffff\n      and\n      0xffffffffffffffffffffffffffffffffffffffff\n      and\n      dup2\n      mstore\n      0x20\n      add\n      swap1\n      dup2\n      mstore\n      0x20\n      add\n      0x00\n      keccak256\n      0x00\n        /* \"crowdfunding.sol\":2926:2977  contributions[_campaignId][msg.sender] += msg.value */\n      dup3\n      dup3\n      sload\n      tag_99\n      swap2\n      swap1\n      tag_84\n      jump\t// in\n    tag_99:\n      swap3\n      pop\n      pop\n      dup2\n      swap1\n      sstore\n      pop\n        /* \"crowdfunding.sol\":2995:3038  Pledged(_campaignId, msg.sender, msg.value) */\n      0x2757ac6a40883f4491cc56930ae964df9034e343e660d5179eb01e198336756b\n        /* \"crowdfunding.sol\":3003:3014  _campaignId */\n      dup4\n        /* \"crowdfunding.sol\":3016:3026  msg.sender */\n      caller\n        /* \"crowdfunding.sol\":3028:3037  msg.value */\n      callvalue\n        /* \"crowdfunding.sol\":2995:3038  Pledged(_campaignId, msg.sender, msg.value) */\n      mload(0x40)\n      tag_100\n      swap4\n      swap3\n      swap2\n      swap1\n      tag_101\n      jump\t// in\n    tag_100:\n      mload(0x40)\n      dup1\n      swap2\n      sub\n      swap1\n      log1\n        /* \"crowdfunding.sol\":2732:3046  {... */\n      pop\n        /* \"crowdfunding.sol\":2653:3046  function pledge(uint _campaignId) external payable beforeDeadline(_campaignId) {... */\n      pop\n      pop\n      jump\t// out\n        /* \"crowdfunding.sol\":3697:4258  function requestRefund(uint _campaignId) external afterDeadline(_campaignId) {... */\n    tag_51:\n        /* \"crowdfunding.sol\":3761:3772  _campaignId */\n      dup1\n        /* \"crowdfunding.sol\":1875:1884  campaigns */\n      0x00\n        /* \"crowdfunding.sol\":1875:1897  campaigns[_campaignId] */\n      dup1\n        /* \"crowdfunding.sol\":1885:1896  _campaignId */\n      dup3\n        /* \"crowdfunding.sol\":1875:1897  campaigns[_campaignId] */\n      dup2\n      mstore\n      0x20\n      add\n      swap1\n      dup2\n      mstore\n      0x20\n      add\n      0x00\n      keccak256\n        /* \"crowdfunding.sol\":1875:1906  campaigns[_campaignId].deadline */\n      0x02\n      add\n      sload\n        /* \"crowdfunding.sol\":1856:1871  block.timestamp */\n      timestamp\n        /* \"crowdfunding.sol\":1856:1906  block.timestamp >= campaigns[_campaignId].deadline */\n      lt\n      iszero\n        /* \"crowdfunding.sol\":1848:1936  require(block.timestamp >= campaigns[_campaignId].deadline, \"Campaign is still ongoing\") */\n      tag_103\n      jumpi\n      mload(0x40)\n      0x08c379a000000000000000000000000000000000000000000000000000000000\n      dup2\n      mstore\n      0x04\n      add\n      tag_104\n      swap1\n      tag_64\n      jump\t// in\n    tag_104:\n      mload(0x40)\n      dup1\n      swap2\n      sub\n      swap1\n      revert\n    tag_103:\n        /* \"crowdfunding.sol\":3785:3810  Campaign storage campaign */\n      0x00\n        /* \"crowdfunding.sol\":3813:3822  campaigns */\n      dup1\n        /* \"crowdfunding.sol\":3813:3835  campaigns[_campaignId] */\n      0x00\n        /* \"crowdfunding.sol\":3823:3834  _campaignId */\n      dup5\n        /* \"crowdfunding.sol\":3813:3835  campaigns[_campaignId] */\n      dup2\n      mstore\n      0x20\n      add\n      swap1\n      dup2\n      mstore\n      0x20\n      add\n      0x00\n      keccak256\n        /* \"crowdfunding.sol\":3785:3835  Campaign storage campaign = campaigns[_campaignId] */\n      swap1\n      pop\n        /* \"crowdfunding.sol\":3879:3887  campaign */\n      dup1\n        /* \"crowdfunding.sol\":3879:3892  campaign.goal */\n      0x01\n      add\n      sload\n        /* \"crowdfunding.sol\":3854:3862  campaign */\n      dup2\n        /* \"crowdfunding.sol\":3854:3876  campaign.pledgedAmount */\n      0x03\n      add\n      sload\n        /* \"crowdfunding.sol\":3854:3892  campaign.pledgedAmount < campaign.goal */\n      lt\n        /* \"crowdfunding.sol\":3846:3920  require(campaign.pledgedAmount < campaign.goal, \"Campaign was successful\") */\n      tag_106\n      jumpi\n      mload(0x40)\n      0x08c379a000000000000000000000000000000000000000000000000000000000\n      dup2\n      mstore\n      0x04\n      add\n      tag_107\n      swap1\n      tag_108\n      jump\t// in\n    tag_107:\n      mload(0x40)\n      dup1\n      swap2\n      sub\n      swap1\n      revert\n    tag_106:\n        /* \"crowdfunding.sol\":3933:3955  uint contributedAmount */\n      0x00\n        /* \"crowdfunding.sol\":3958:3971  contributions */\n      0x02\n        /* \"crowdfunding.sol\":3958:3984  contributions[_campaignId] */\n      0x00\n        /* \"crowdfunding.sol\":3972:3983  _campaignId */\n      dup6\n        /* \"crowdfunding.sol\":3958:3984  contributions[_campaignId] */\n      dup2\n      mstore\n      0x20\n      add\n      swap1\n      dup2\n      mstore\n      0x20\n      add\n      0x00\n      keccak256\n        /* \"crowdfunding.sol\":3958:3996  contributions[_campaignId][msg.sender] */\n      0x00\n        /* \"crowdfunding.sol\":3985:3995  msg.sender */\n      caller\n        /* \"crowdfunding.sol\":3958:3996  contributions[_campaignId][msg.sender] */\n      0xffffffffffffffffffffffffffffffffffffffff\n      and\n      0xffffffffffffffffffffffffffffffffffffffff\n      and\n      dup2\n      mstore\n      0x20\n      add\n      swap1\n      dup2\n      mstore\n      0x20\n      add\n      0x00\n      keccak256\n      sload\n        /* \"crowdfunding.sol\":3933:3996  uint contributedAmount = contributions[_campaignId][msg.sender] */\n      swap1\n      pop\n        /* \"crowdfunding.sol\":4035:4036  0 */\n      0x00\n        /* \"crowdfunding.sol\":4015:4032  contributedAmount */\n      dup2\n        /* \"crowdfunding.sol\":4015:4036  contributedAmount > 0 */\n      gt\n        /* \"crowdfunding.sol\":4007:4067  require(contributedAmount > 0, \"No contributions to refund\") */\n      tag_109\n      jumpi\n      mload(0x40)\n      0x08c379a000000000000000000000000000000000000000000000000000000000\n      dup2\n      mstore\n      0x04\n      add\n      tag_110\n      swap1\n      tag_111\n      jump\t// in\n    tag_110:\n      mload(0x40)\n      dup1\n      swap2\n      sub\n      swap1\n      revert\n    tag_109:\n        /* \"crowdfunding.sol\":4121:4122  0 */\n      0x00\n        /* \"crowdfunding.sol\":4080:4093  contributions */\n      0x02\n        /* \"crowdfunding.sol\":4080:4106  contributions[_campaignId] */\n      0x00\n        /* \"crowdfunding.sol\":4094:4105  _campaignId */\n      dup7\n        /* \"crowdfunding.sol\":4080:4106  contributions[_campaignId] */\n      dup2\n      mstore\n      0x20\n      add\n      swap1\n      dup2\n      mstore\n      0x20\n      add\n      0x00\n      keccak256\n        /* \"crowdfunding.sol\":4080:4118  contributions[_campaignId][msg.sender] */\n      0x00\n        /* \"crowdfunding.sol\":4107:4117  msg.sender */\n      caller\n        /* \"crowdfunding.sol\":4080:4118  contributions[_campaignId][msg.sender] */\n      0xffffffffffffffffffffffffffffffffffffffff\n      and\n      0xffffffffffffffffffffffffffffffffffffffff\n      and\n      dup2\n      mstore\n      0x20\n      add\n      swap1\n      dup2\n      mstore\n      0x20\n      add\n      0x00\n      keccak256\n        /* \"crowdfunding.sol\":4080:4122  contributions[_campaignId][msg.sender] = 0 */\n      dup2\n      swap1\n      sstore\n      pop\n        /* \"crowdfunding.sol\":4141:4151  msg.sender */\n      caller\n        /* \"crowdfunding.sol\":4133:4161  payable(msg.sender).transfer */\n      0xffffffffffffffffffffffffffffffffffffffff\n      and\n        /* \"crowdfunding.sol\":4133:4180  payable(msg.sender).transfer(contributedAmount) */\n      0x08fc\n        /* \"crowdfunding.sol\":4162:4179  contributedAmount */\n      dup3\n        /* \"crowdfunding.sol\":4133:4180  payable(msg.sender).transfer(contributedAmount) */\n      swap1\n      dup2\n      iszero\n      mul\n      swap1\n      mload(0x40)\n      0x00\n      mload(0x40)\n      dup1\n      dup4\n      sub\n      dup2\n      dup6\n      dup9\n      dup9\n      call\n      swap4\n      pop\n      pop\n      pop\n      pop\n      iszero\n      dup1\n      iszero\n      tag_113\n      jumpi\n      returndatasize\n      0x00\n      dup1\n      returndatacopy\n      revert(0x00, returndatasize)\n    tag_113:\n      pop\n        /* \"crowdfunding.sol\":4198:4250  Refunded(_campaignId, msg.sender, contributedAmount) */\n      0x7ca5472b7ea78c2c0141c5a12ee6d170cf4ce8ed06be3d22c8252ddfc7a6a2c4\n        /* \"crowdfunding.sol\":4207:4218  _campaignId */\n      dup5\n        /* \"crowdfunding.sol\":4220:4230  msg.sender */\n      caller\n        /* \"crowdfunding.sol\":4232:4249  contributedAmount */\n      dup4\n        /* \"crowdfunding.sol\":4198:4250  Refunded(_campaignId, msg.sender, contributedAmount) */\n      mload(0x40)\n      tag_114\n      swap4\n      swap3\n      swap2\n      swap1\n      tag_101\n      jump\t// in\n    tag_114:\n      mload(0x40)\n      dup1\n      swap2\n      sub\n      swap1\n      log1\n        /* \"crowdfunding.sol\":3774:4258  {... */\n      pop\n      pop\n        /* \"crowdfunding.sol\":3697:4258  function requestRefund(uint _campaignId) external afterDeadline(_campaignId) {... */\n      pop\n      pop\n      jump\t// out\n        /* \"crowdfunding.sol\":4866:5026  function getContribution(uint _campaignId, address _contributor) external view returns (uint) {... */\n    tag_55:\n        /* \"crowdfunding.sol\":4954:4958  uint */\n      0x00\n        /* \"crowdfunding.sol\":4978:4991  contributions */\n      0x02\n        /* \"crowdfunding.sol\":4978:5004  contributions[_campaignId] */\n      0x00\n        /* \"crowdfunding.sol\":4992:5003  _campaignId */\n      dup5\n        /* \"crowdfunding.sol\":4978:5004  contributions[_campaignId] */\n      dup2\n      mstore\n      0x20\n      add\n      swap1\n      dup2\n      mstore\n      0x20\n      add\n      0x00\n      keccak256\n        /* \"crowdfunding.sol\":4978:5018  contributions[_campaignId][_contributor] */\n      0x00\n        /* \"crowdfunding.sol\":5005:5017  _contributor */\n      dup4\n        /* \"crowdfunding.sol\":4978:5018  contributions[_campaignId][_contributor] */\n      0xffffffffffffffffffffffffffffffffffffffff\n      and\n      0xffffffffffffffffffffffffffffffffffffffff\n      and\n      dup2\n      mstore\n      0x20\n      add\n      swap1\n      dup2\n      mstore\n      0x20\n      add\n      0x00\n      keccak256\n      sload\n        /* \"crowdfunding.sol\":4971:5018  return contributions[_campaignId][_contributor] */\n      swap1\n      pop\n        /* \"crowdfunding.sol\":4866:5026  function getContribution(uint _campaignId, address _contributor) external view returns (uint) {... */\n      swap3\n      swap2\n      pop\n      pop\n      jump\t// out\n        /* \"#utility.yul\":88:205   */\n    tag_117:\n        /* \"#utility.yul\":197:198   */\n      0x00\n        /* \"#utility.yul\":194:195   */\n      dup1\n        /* \"#utility.yul\":187:199   */\n      revert\n        /* \"#utility.yul\":334:411   */\n    tag_119:\n        /* \"#utility.yul\":371:378   */\n      0x00\n        /* \"#utility.yul\":400:405   */\n      dup2\n        /* \"#utility.yul\":389:405   */\n      swap1\n      pop\n        /* \"#utility.yul\":334:411   */\n      swap2\n      swap1\n      pop\n      jump\t// out\n        /* \"#utility.yul\":417:539   */\n    tag_120:\n        /* \"#utility.yul\":490:514   */\n      tag_165\n        /* \"#utility.yul\":508:513   */\n      dup2\n        /* \"#utility.yul\":490:514   */\n      tag_119\n      jump\t// in\n    tag_165:\n        /* \"#utility.yul\":483:488   */\n      dup2\n        /* \"#utility.yul\":480:515   */\n      eq\n        /* \"#utility.yul\":470:533   */\n      tag_166\n      jumpi\n        /* \"#utility.yul\":529:530   */\n      0x00\n        /* \"#utility.yul\":526:527   */\n      dup1\n        /* \"#utility.yul\":519:531   */\n      revert\n        /* \"#utility.yul\":470:533   */\n    tag_166:\n        /* \"#utility.yul\":417:539   */\n      pop\n      jump\t// out\n        /* \"#utility.yul\":545:684   */\n    tag_121:\n        /* \"#utility.yul\":591:596   */\n      0x00\n        /* \"#utility.yul\":629:635   */\n      dup2\n        /* \"#utility.yul\":616:636   */\n      calldataload\n        /* \"#utility.yul\":607:636   */\n      swap1\n      pop\n        /* \"#utility.yul\":645:678   */\n      tag_168\n        /* \"#utility.yul\":672:677   */\n      dup2\n        /* \"#utility.yul\":645:678   */\n      tag_120\n      jump\t// in\n    tag_168:\n        /* \"#utility.yul\":545:684   */\n      swap3\n      swap2\n      pop\n      pop\n      jump\t// out\n        /* \"#utility.yul\":690:1019   */\n    tag_15:\n        /* \"#utility.yul\":749:755   */\n      0x00\n        /* \"#utility.yul\":798:800   */\n      0x20\n        /* \"#utility.yul\":786:795   */\n      dup3\n        /* \"#utility.yul\":777:784   */\n      dup5\n        /* \"#utility.yul\":773:796   */\n      sub\n        /* \"#utility.yul\":769:801   */\n      slt\n        /* \"#utility.yul\":766:885   */\n      iszero\n      tag_170\n      jumpi\n        /* \"#utility.yul\":804:883   */\n      tag_171\n      tag_117\n      jump\t// in\n    tag_171:\n        /* \"#utility.yul\":766:885   */\n    tag_170:\n        /* \"#utility.yul\":924:925   */\n      0x00\n        /* \"#utility.yul\":949:1002   */\n      tag_172\n        /* \"#utility.yul\":994:1001   */\n      dup5\n        /* \"#utility.yul\":985:991   */\n      dup3\n        /* \"#utility.yul\":974:983   */\n      dup6\n        /* \"#utility.yul\":970:992   */\n      add\n        /* \"#utility.yul\":949:1002   */\n      tag_121\n      jump\t// in\n    tag_172:\n        /* \"#utility.yul\":939:1002   */\n      swap2\n      pop\n        /* \"#utility.yul\":895:1012   */\n      pop\n        /* \"#utility.yul\":690:1019   */\n      swap3\n      swap2\n      pop\n      pop\n      jump\t// out\n        /* \"#utility.yul\":1025:1151   */\n    tag_122:\n        /* \"#utility.yul\":1062:1069   */\n      0x00\n        /* \"#utility.yul\":1102:1144   */\n      0xffffffffffffffffffffffffffffffffffffffff\n        /* \"#utility.yul\":1095:1100   */\n      dup3\n        /* \"#utility.yul\":1091:1145   */\n      and\n        /* \"#utility.yul\":1080:1145   */\n      swap1\n      pop\n        /* \"#utility.yul\":1025:1151   */\n      swap2\n      swap1\n      pop\n      jump\t// out\n        /* \"#utility.yul\":1157:1261   */\n    tag_123:\n        /* \"#utility.yul\":1202:1209   */\n      0x00\n        /* \"#utility.yul\":1231:1255   */\n      tag_175\n        /* \"#utility.yul\":1249:1254   */\n      dup3\n        /* \"#utility.yul\":1231:1255   */\n      tag_122\n      jump\t// in\n    tag_175:\n        /* \"#utility.yul\":1220:1255   */\n      swap1\n      pop\n        /* \"#utility.yul\":1157:1261   */\n      swap2\n      swap1\n      pop\n      jump\t// out\n        /* \"#utility.yul\":1267:1409   */\n    tag_124:\n        /* \"#utility.yul\":1370:1402   */\n      tag_177\n        /* \"#utility.yul\":1396:1401   */\n      dup2\n        /* \"#utility.yul\":1370:1402   */\n      tag_123\n      jump\t// in\n    tag_177:\n        /* \"#utility.yul\":1365:1368   */\n      dup3\n        /* \"#utility.yul\":1358:1403   */\n      mstore\n        /* \"#utility.yul\":1267:1409   */\n      pop\n      pop\n      jump\t// out\n        /* \"#utility.yul\":1415:1533   */\n    tag_125:\n        /* \"#utility.yul\":1502:1526   */\n      tag_179\n        /* \"#utility.yul\":1520:1525   */\n      dup2\n        /* \"#utility.yul\":1502:1526   */\n      tag_119\n      jump\t// in\n    tag_179:\n        /* \"#utility.yul\":1497:1500   */\n      dup3\n        /* \"#utility.yul\":1490:1527   */\n      mstore\n        /* \"#utility.yul\":1415:1533   */\n      pop\n      pop\n      jump\t// out\n        /* \"#utility.yul\":1539:1629   */\n    tag_126:\n        /* \"#utility.yul\":1573:1580   */\n      0x00\n        /* \"#utility.yul\":1616:1621   */\n      dup2\n        /* \"#utility.yul\":1609:1622   */\n      iszero\n        /* \"#utility.yul\":1602:1623   */\n      iszero\n        /* \"#utility.yul\":1591:1623   */\n      swap1\n      pop\n        /* \"#utility.yul\":1539:1629   */\n      swap2\n      swap1\n      pop\n      jump\t// out\n        /* \"#utility.yul\":1635:1744   */\n    tag_127:\n        /* \"#utility.yul\":1716:1737   */\n      tag_182\n        /* \"#utility.yul\":1731:1736   */\n      dup2\n        /* \"#utility.yul\":1716:1737   */\n      tag_126\n      jump\t// in\n    tag_182:\n        /* \"#utility.yul\":1711:1714   */\n      dup3\n        /* \"#utility.yul\":1704:1738   */\n      mstore\n        /* \"#utility.yul\":1635:1744   */\n      pop\n      pop\n      jump\t// out\n        /* \"#utility.yul\":1750:2434   */\n    tag_18:\n        /* \"#utility.yul\":1965:1969   */\n      0x00\n        /* \"#utility.yul\":2003:2006   */\n      0xa0\n        /* \"#utility.yul\":1992:2001   */\n      dup3\n        /* \"#utility.yul\":1988:2007   */\n      add\n        /* \"#utility.yul\":1980:2007   */\n      swap1\n      pop\n        /* \"#utility.yul\":2017:2104   */\n      tag_184\n        /* \"#utility.yul\":2101:2102   */\n      0x00\n        /* \"#utility.yul\":2090:2099   */\n      dup4\n        /* \"#utility.yul\":2086:2103   */\n      add\n        /* \"#utility.yul\":2077:2083   */\n      dup9\n        /* \"#utility.yul\":2017:2104   */\n      tag_124\n      jump\t// in\n    tag_184:\n        /* \"#utility.yul\":2114:2186   */\n      tag_185\n        /* \"#utility.yul\":2182:2184   */\n      0x20\n        /* \"#utility.yul\":2171:2180   */\n      dup4\n        /* \"#utility.yul\":2167:2185   */\n      add\n        /* \"#utility.yul\":2158:2164   */\n      dup8\n        /* \"#utility.yul\":2114:2186   */\n      tag_125\n      jump\t// in\n    tag_185:\n        /* \"#utility.yul\":2196:2268   */\n      tag_186\n        /* \"#utility.yul\":2264:2266   */\n      0x40\n        /* \"#utility.yul\":2253:2262   */\n      dup4\n        /* \"#utility.yul\":2249:2267   */\n      add\n        /* \"#utility.yul\":2240:2246   */\n      dup7\n        /* \"#utility.yul\":2196:2268   */\n      tag_125\n      jump\t// in\n    tag_186:\n        /* \"#utility.yul\":2278:2350   */\n      tag_187\n        /* \"#utility.yul\":2346:2348   */\n      0x60\n        /* \"#utility.yul\":2335:2344   */\n      dup4\n        /* \"#utility.yul\":2331:2349   */\n      add\n        /* \"#utility.yul\":2322:2328   */\n      dup6\n        /* \"#utility.yul\":2278:2350   */\n      tag_125\n      jump\t// in\n    tag_187:\n        /* \"#utility.yul\":2360:2427   */\n      tag_188\n        /* \"#utility.yul\":2422:2425   */\n      0x80\n        /* \"#utility.yul\":2411:2420   */\n      dup4\n        /* \"#utility.yul\":2407:2426   */\n      add\n        /* \"#utility.yul\":2398:2404   */\n      dup5\n        /* \"#utility.yul\":2360:2427   */\n      tag_127\n      jump\t// in\n    tag_188:\n        /* \"#utility.yul\":1750:2434   */\n      swap7\n      swap6\n      pop\n      pop\n      pop\n      pop\n      pop\n      pop\n      jump\t// out\n        /* \"#utility.yul\":2440:2914   */\n    tag_26:\n        /* \"#utility.yul\":2508:2514   */\n      0x00\n        /* \"#utility.yul\":2516:2522   */\n      dup1\n        /* \"#utility.yul\":2565:2567   */\n      0x40\n        /* \"#utility.yul\":2553:2562   */\n      dup4\n        /* \"#utility.yul\":2544:2551   */\n      dup6\n        /* \"#utility.yul\":2540:2563   */\n      sub\n        /* \"#utility.yul\":2536:2568   */\n      slt\n        /* \"#utility.yul\":2533:2652   */\n      iszero\n      tag_190\n      jumpi\n        /* \"#utility.yul\":2571:2650   */\n      tag_191\n      tag_117\n      jump\t// in\n    tag_191:\n        /* \"#utility.yul\":2533:2652   */\n    tag_190:\n        /* \"#utility.yul\":2691:2692   */\n      0x00\n        /* \"#utility.yul\":2716:2769   */\n      tag_192\n        /* \"#utility.yul\":2761:2768   */\n      dup6\n        /* \"#utility.yul\":2752:2758   */\n      dup3\n        /* \"#utility.yul\":2741:2750   */\n      dup7\n        /* \"#utility.yul\":2737:2759   */\n      add\n        /* \"#utility.yul\":2716:2769   */\n      tag_121\n      jump\t// in\n    tag_192:\n        /* \"#utility.yul\":2706:2769   */\n      swap3\n      pop\n        /* \"#utility.yul\":2662:2779   */\n      pop\n        /* \"#utility.yul\":2818:2820   */\n      0x20\n        /* \"#utility.yul\":2844:2897   */\n      tag_193\n        /* \"#utility.yul\":2889:2896   */\n      dup6\n        /* \"#utility.yul\":2880:2886   */\n      dup3\n        /* \"#utility.yul\":2869:2878   */\n      dup7\n        /* \"#utility.yul\":2865:2887   */\n      add\n        /* \"#utility.yul\":2844:2897   */\n      tag_121\n      jump\t// in\n    tag_193:\n        /* \"#utility.yul\":2834:2897   */\n      swap2\n      pop\n        /* \"#utility.yul\":2789:2907   */\n      pop\n        /* \"#utility.yul\":2440:2914   */\n      swap3\n      pop\n      swap3\n      swap1\n      pop\n      jump\t// out\n        /* \"#utility.yul\":2920:3016   */\n    tag_128:\n        /* \"#utility.yul\":2957:2964   */\n      0x00\n        /* \"#utility.yul\":2986:3010   */\n      tag_195\n        /* \"#utility.yul\":3004:3009   */\n      dup3\n        /* \"#utility.yul\":2986:3010   */\n      tag_122\n      jump\t// in\n    tag_195:\n        /* \"#utility.yul\":2975:3010   */\n      swap1\n      pop\n        /* \"#utility.yul\":2920:3016   */\n      swap2\n      swap1\n      pop\n      jump\t// out\n        /* \"#utility.yul\":3022:3144   */\n    tag_129:\n        /* \"#utility.yul\":3095:3119   */\n      tag_197\n        /* \"#utility.yul\":3113:3118   */\n      dup2\n        /* \"#utility.yul\":3095:3119   */\n      tag_128\n      jump\t// in\n    tag_197:\n        /* \"#utility.yul\":3088:3093   */\n      dup2\n        /* \"#utility.yul\":3085:3120   */\n      eq\n        /* \"#utility.yul\":3075:3138   */\n      tag_198\n      jumpi\n        /* \"#utility.yul\":3134:3135   */\n      0x00\n        /* \"#utility.yul\":3131:3132   */\n      dup1\n        /* \"#utility.yul\":3124:3136   */\n      revert\n        /* \"#utility.yul\":3075:3138   */\n    tag_198:\n        /* \"#utility.yul\":3022:3144   */\n      pop\n      jump\t// out\n        /* \"#utility.yul\":3150:3289   */\n    tag_130:\n        /* \"#utility.yul\":3196:3201   */\n      0x00\n        /* \"#utility.yul\":3234:3240   */\n      dup2\n        /* \"#utility.yul\":3221:3241   */\n      calldataload\n        /* \"#utility.yul\":3212:3241   */\n      swap1\n      pop\n        /* \"#utility.yul\":3250:3283   */\n      tag_200\n        /* \"#utility.yul\":3277:3282   */\n      dup2\n        /* \"#utility.yul\":3250:3283   */\n      tag_129\n      jump\t// in\n    tag_200:\n        /* \"#utility.yul\":3150:3289   */\n      swap3\n      swap2\n      pop\n      pop\n      jump\t// out\n        /* \"#utility.yul\":3295:3769   */\n    tag_31:\n        /* \"#utility.yul\":3363:3369   */\n      0x00\n        /* \"#utility.yul\":3371:3377   */\n      dup1\n        /* \"#utility.yul\":3420:3422   */\n      0x40\n        /* \"#utility.yul\":3408:3417   */\n      dup4\n        /* \"#utility.yul\":3399:3406   */\n      dup6\n        /* \"#utility.yul\":3395:3418   */\n      sub\n        /* \"#utility.yul\":3391:3423   */\n      slt\n        /* \"#utility.yul\":3388:3507   */\n      iszero\n      tag_202\n      jumpi\n        /* \"#utility.yul\":3426:3505   */\n      tag_203\n      tag_117\n      jump\t// in\n    tag_203:\n        /* \"#utility.yul\":3388:3507   */\n    tag_202:\n        /* \"#utility.yul\":3546:3547   */\n      0x00\n        /* \"#utility.yul\":3571:3624   */\n      tag_204\n        /* \"#utility.yul\":3616:3623   */\n      dup6\n        /* \"#utility.yul\":3607:3613   */\n      dup3\n        /* \"#utility.yul\":3596:3605   */\n      dup7\n        /* \"#utility.yul\":3592:3614   */\n      add\n        /* \"#utility.yul\":3571:3624   */\n      tag_121\n      jump\t// in\n    tag_204:\n        /* \"#utility.yul\":3561:3624   */\n      swap3\n      pop\n        /* \"#utility.yul\":3517:3634   */\n      pop\n        /* \"#utility.yul\":3673:3675   */\n      0x20\n        /* \"#utility.yul\":3699:3752   */\n      tag_205\n        /* \"#utility.yul\":3744:3751   */\n      dup6\n        /* \"#utility.yul\":3735:3741   */\n      dup3\n        /* \"#utility.yul\":3724:3733   */\n      dup7\n        /* \"#utility.yul\":3720:3742   */\n      add\n        /* \"#utility.yul\":3699:3752   */\n      tag_130\n      jump\t// in\n    tag_205:\n        /* \"#utility.yul\":3689:3752   */\n      swap2\n      pop\n        /* \"#utility.yul\":3644:3762   */\n      pop\n        /* \"#utility.yul\":3295:3769   */\n      swap3\n      pop\n      swap3\n      swap1\n      pop\n      jump\t// out\n        /* \"#utility.yul\":3775:3997   */\n    tag_34:\n        /* \"#utility.yul\":3868:3872   */\n      0x00\n        /* \"#utility.yul\":3906:3908   */\n      0x20\n        /* \"#utility.yul\":3895:3904   */\n      dup3\n        /* \"#utility.yul\":3891:3909   */\n      add\n        /* \"#utility.yul\":3883:3909   */\n      swap1\n      pop\n        /* \"#utility.yul\":3919:3990   */\n      tag_207\n        /* \"#utility.yul\":3987:3988   */\n      0x00\n        /* \"#utility.yul\":3976:3985   */\n      dup4\n        /* \"#utility.yul\":3972:3989   */\n      add\n        /* \"#utility.yul\":3963:3969   */\n      dup5\n        /* \"#utility.yul\":3919:3990   */\n      tag_125\n      jump\t// in\n    tag_207:\n        /* \"#utility.yul\":3775:3997   */\n      swap3\n      swap2\n      pop\n      pop\n      jump\t// out\n        /* \"#utility.yul\":4003:4121   */\n    tag_131:\n        /* \"#utility.yul\":4090:4114   */\n      tag_209\n        /* \"#utility.yul\":4108:4113   */\n      dup2\n        /* \"#utility.yul\":4090:4114   */\n      tag_128\n      jump\t// in\n    tag_209:\n        /* \"#utility.yul\":4085:4088   */\n      dup3\n        /* \"#utility.yul\":4078:4115   */\n      mstore\n        /* \"#utility.yul\":4003:4121   */\n      pop\n      pop\n      jump\t// out\n        /* \"#utility.yul\":4127:4779   */\n    tag_40:\n        /* \"#utility.yul\":4326:4330   */\n      0x00\n        /* \"#utility.yul\":4364:4367   */\n      0xa0\n        /* \"#utility.yul\":4353:4362   */\n      dup3\n        /* \"#utility.yul\":4349:4368   */\n      add\n        /* \"#utility.yul\":4341:4368   */\n      swap1\n      pop\n        /* \"#utility.yul\":4378:4449   */\n      tag_211\n        /* \"#utility.yul\":4446:4447   */\n      0x00\n        /* \"#utility.yul\":4435:4444   */\n      dup4\n        /* \"#utility.yul\":4431:4448   */\n      add\n        /* \"#utility.yul\":4422:4428   */\n      dup9\n        /* \"#utility.yul\":4378:4449   */\n      tag_131\n      jump\t// in\n    tag_211:\n        /* \"#utility.yul\":4459:4531   */\n      tag_212\n        /* \"#utility.yul\":4527:4529   */\n      0x20\n        /* \"#utility.yul\":4516:4525   */\n      dup4\n        /* \"#utility.yul\":4512:4530   */\n      add\n        /* \"#utility.yul\":4503:4509   */\n      dup8\n        /* \"#utility.yul\":4459:4531   */\n      tag_125\n      jump\t// in\n    tag_212:\n        /* \"#utility.yul\":4541:4613   */\n      tag_213\n        /* \"#utility.yul\":4609:4611   */\n      0x40\n        /* \"#utility.yul\":4598:4607   */\n      dup4\n        /* \"#utility.yul\":4594:4612   */\n      add\n        /* \"#utility.yul\":4585:4591   */\n      dup7\n        /* \"#utility.yul\":4541:4613   */\n      tag_125\n      jump\t// in\n    tag_213:\n        /* \"#utility.yul\":4623:4695   */\n      tag_214\n        /* \"#utility.yul\":4691:4693   */\n      0x60\n        /* \"#utility.yul\":4680:4689   */\n      dup4\n        /* \"#utility.yul\":4676:4694   */\n      add\n        /* \"#utility.yul\":4667:4673   */\n      dup6\n        /* \"#utility.yul\":4623:4695   */\n      tag_125\n      jump\t// in\n    tag_214:\n        /* \"#utility.yul\":4705:4772   */\n      tag_215\n        /* \"#utility.yul\":4767:4770   */\n      0x80\n        /* \"#utility.yul\":4756:4765   */\n      dup4\n        /* \"#utility.yul\":4752:4771   */\n      add\n        /* \"#utility.yul\":4743:4749   */\n      dup5\n        /* \"#utility.yul\":4705:4772   */\n      tag_127\n      jump\t// in\n    tag_215:\n        /* \"#utility.yul\":4127:4779   */\n      swap7\n      swap6\n      pop\n      pop\n      pop\n      pop\n      pop\n      pop\n      jump\t// out\n        /* \"#utility.yul\":4785:4954   */\n    tag_132:\n        /* \"#utility.yul\":4869:4880   */\n      0x00\n        /* \"#utility.yul\":4903:4909   */\n      dup3\n        /* \"#utility.yul\":4898:4901   */\n      dup3\n        /* \"#utility.yul\":4891:4910   */\n      mstore\n        /* \"#utility.yul\":4943:4947   */\n      0x20\n        /* \"#utility.yul\":4938:4941   */\n      dup3\n        /* \"#utility.yul\":4934:4948   */\n      add\n        /* \"#utility.yul\":4919:4948   */\n      swap1\n      pop\n        /* \"#utility.yul\":4785:4954   */\n      swap3\n      swap2\n      pop\n      pop\n      jump\t// out\n        /* \"#utility.yul\":4960:5128   */\n    tag_133:\n        /* \"#utility.yul\":5100:5120   */\n      0x4e6f742063616d706169676e206f776e65720000000000000000000000000000\n        /* \"#utility.yul\":5096:5097   */\n      0x00\n        /* \"#utility.yul\":5088:5094   */\n      dup3\n        /* \"#utility.yul\":5084:5098   */\n      add\n        /* \"#utility.yul\":5077:5121   */\n      mstore\n        /* \"#utility.yul\":4960:5128   */\n      pop\n      jump\t// out\n        /* \"#utility.yul\":5134:5500   */\n    tag_134:\n        /* \"#utility.yul\":5276:5279   */\n      0x00\n        /* \"#utility.yul\":5297:5364   */\n      tag_219\n        /* \"#utility.yul\":5361:5363   */\n      0x12\n        /* \"#utility.yul\":5356:5359   */\n      dup4\n        /* \"#utility.yul\":5297:5364   */\n      tag_132\n      jump\t// in\n    tag_219:\n        /* \"#utility.yul\":5290:5364   */\n      swap2\n      pop\n        /* \"#utility.yul\":5373:5466   */\n      tag_220\n        /* \"#utility.yul\":5462:5465   */\n      dup3\n        /* \"#utility.yul\":5373:5466   */\n      tag_133\n      jump\t// in\n    tag_220:\n        /* \"#utility.yul\":5491:5493   */\n      0x20\n        /* \"#utility.yul\":5486:5489   */\n      dup3\n        /* \"#utility.yul\":5482:5494   */\n      add\n        /* \"#utility.yul\":5475:5494   */\n      swap1\n      pop\n        /* \"#utility.yul\":5134:5500   */\n      swap2\n      swap1\n      pop\n      jump\t// out\n        /* \"#utility.yul\":5506:5925   */\n    tag_60:\n        /* \"#utility.yul\":5672:5676   */\n      0x00\n        /* \"#utility.yul\":5710:5712   */\n      0x20\n        /* \"#utility.yul\":5699:5708   */\n      dup3\n        /* \"#utility.yul\":5695:5713   */\n      add\n        /* \"#utility.yul\":5687:5713   */\n      swap1\n      pop\n        /* \"#utility.yul\":5759:5768   */\n      dup2\n        /* \"#utility.yul\":5753:5757   */\n      dup2\n        /* \"#utility.yul\":5749:5769   */\n      sub\n        /* \"#utility.yul\":5745:5746   */\n      0x00\n        /* \"#utility.yul\":5734:5743   */\n      dup4\n        /* \"#utility.yul\":5730:5747   */\n      add\n        /* \"#utility.yul\":5723:5770   */\n      mstore\n        /* \"#utility.yul\":5787:5918   */\n      tag_222\n        /* \"#utility.yul\":5913:5917   */\n      dup2\n        /* \"#utility.yul\":5787:5918   */\n      tag_134\n      jump\t// in\n    tag_222:\n        /* \"#utility.yul\":5779:5918   */\n      swap1\n      pop\n        /* \"#utility.yul\":5506:5925   */\n      swap2\n      swap1\n      pop\n      jump\t// out\n        /* \"#utility.yul\":5931:6106   */\n    tag_135:\n        /* \"#utility.yul\":6071:6098   */\n      0x43616d706169676e206973207374696c6c206f6e676f696e6700000000000000\n        /* \"#utility.yul\":6067:6068   */\n      0x00\n        /* \"#utility.yul\":6059:6065   */\n      dup3\n        /* \"#utility.yul\":6055:6069   */\n      add\n        /* \"#utility.yul\":6048:6099   */\n      mstore\n        /* \"#utility.yul\":5931:6106   */\n      pop\n      jump\t// out\n        /* \"#utility.yul\":6112:6478   */\n    tag_136:\n        /* \"#utility.yul\":6254:6257   */\n      0x00\n        /* \"#utility.yul\":6275:6342   */\n      tag_225\n        /* \"#utility.yul\":6339:6341   */\n      0x19\n        /* \"#utility.yul\":6334:6337   */\n      dup4\n        /* \"#utility.yul\":6275:6342   */\n      tag_132\n      jump\t// in\n    tag_225:\n        /* \"#utility.yul\":6268:6342   */\n      swap2\n      pop\n        /* \"#utility.yul\":6351:6444   */\n      tag_226\n        /* \"#utility.yul\":6440:6443   */\n      dup3\n        /* \"#utility.yul\":6351:6444   */\n      tag_135\n      jump\t// in\n    tag_226:\n        /* \"#utility.yul\":6469:6471   */\n      0x20\n        /* \"#utility.yul\":6464:6467   */\n      dup3\n        /* \"#utility.yul\":6460:6472   */\n      add\n        /* \"#utility.yul\":6453:6472   */\n      swap1\n      pop\n        /* \"#utility.yul\":6112:6478   */\n      swap2\n      swap1\n      pop\n      jump\t// out\n        /* \"#utility.yul\":6484:6903   */\n    tag_64:\n        /* \"#utility.yul\":6650:6654   */\n      0x00\n        /* \"#utility.yul\":6688:6690   */\n      0x20\n        /* \"#utility.yul\":6677:6686   */\n      dup3\n        /* \"#utility.yul\":6673:6691   */\n      add\n        /* \"#utility.yul\":6665:6691   */\n      swap1\n      pop\n        /* \"#utility.yul\":6737:6746   */\n      dup2\n        /* \"#utility.yul\":6731:6735   */\n      dup2\n        /* \"#utility.yul\":6727:6747   */\n      sub\n        /* \"#utility.yul\":6723:6724   */\n      0x00\n        /* \"#utility.yul\":6712:6721   */\n      dup4\n        /* \"#utility.yul\":6708:6725   */\n      add\n        /* \"#utility.yul\":6701:6748   */\n      mstore\n        /* \"#utility.yul\":6765:6896   */\n      tag_228\n        /* \"#utility.yul\":6891:6895   */\n      dup2\n        /* \"#utility.yul\":6765:6896   */\n      tag_136\n      jump\t// in\n    tag_228:\n        /* \"#utility.yul\":6757:6896   */\n      swap1\n      pop\n        /* \"#utility.yul\":6484:6903   */\n      swap2\n      swap1\n      pop\n      jump\t// out\n        /* \"#utility.yul\":6909:7071   */\n    tag_137:\n        /* \"#utility.yul\":7049:7063   */\n      0x476f616c206e6f74206d65740000000000000000000000000000000000000000\n        /* \"#utility.yul\":7045:7046   */\n      0x00\n        /* \"#utility.yul\":7037:7043   */\n      dup3\n        /* \"#utility.yul\":7033:7047   */\n      add\n        /* \"#utility.yul\":7026:7064   */\n      mstore\n        /* \"#utility.yul\":6909:7071   */\n      pop\n      jump\t// out\n        /* \"#utility.yul\":7077:7443   */\n    tag_138:\n        /* \"#utility.yul\":7219:7222   */\n      0x00\n        /* \"#utility.yul\":7240:7307   */\n      tag_231\n        /* \"#utility.yul\":7304:7306   */\n      0x0c\n        /* \"#utility.yul\":7299:7302   */\n      dup4\n        /* \"#utility.yul\":7240:7307   */\n      tag_132\n      jump\t// in\n    tag_231:\n        /* \"#utility.yul\":7233:7307   */\n      swap2\n      pop\n        /* \"#utility.yul\":7316:7409   */\n      tag_232\n        /* \"#utility.yul\":7405:7408   */\n      dup3\n        /* \"#utility.yul\":7316:7409   */\n      tag_137\n      jump\t// in\n    tag_232:\n        /* \"#utility.yul\":7434:7436   */\n      0x20\n        /* \"#utility.yul\":7429:7432   */\n      dup3\n        /* \"#utility.yul\":7425:7437   */\n      add\n        /* \"#utility.yul\":7418:7437   */\n      swap1\n      pop\n        /* \"#utility.yul\":7077:7443   */\n      swap2\n      swap1\n      pop\n      jump\t// out\n        /* \"#utility.yul\":7449:7868   */\n    tag_68:\n        /* \"#utility.yul\":7615:7619   */\n      0x00\n        /* \"#utility.yul\":7653:7655   */\n      0x20\n        /* \"#utility.yul\":7642:7651   */\n      dup3\n        /* \"#utility.yul\":7638:7656   */\n      add\n        /* \"#utility.yul\":7630:7656   */\n      swap1\n      pop\n        /* \"#utility.yul\":7702:7711   */\n      dup2\n        /* \"#utility.yul\":7696:7700   */\n      dup2\n        /* \"#utility.yul\":7692:7712   */\n      sub\n        /* \"#utility.yul\":7688:7689   */\n      0x00\n        /* \"#utility.yul\":7677:7686   */\n      dup4\n        /* \"#utility.yul\":7673:7690   */\n      add\n        /* \"#utility.yul\":7666:7713   */\n      mstore\n        /* \"#utility.yul\":7730:7861   */\n      tag_234\n        /* \"#utility.yul\":7856:7860   */\n      dup2\n        /* \"#utility.yul\":7730:7861   */\n      tag_138\n      jump\t// in\n    tag_234:\n        /* \"#utility.yul\":7722:7861   */\n      swap1\n      pop\n        /* \"#utility.yul\":7449:7868   */\n      swap2\n      swap1\n      pop\n      jump\t// out\n        /* \"#utility.yul\":7874:8045   */\n    tag_139:\n        /* \"#utility.yul\":8014:8037   */\n      0x46756e647320616c726561647920636c61696d65640000000000000000000000\n        /* \"#utility.yul\":8010:8011   */\n      0x00\n        /* \"#utility.yul\":8002:8008   */\n      dup3\n        /* \"#utility.yul\":7998:8012   */\n      add\n        /* \"#utility.yul\":7991:8038   */\n      mstore\n        /* \"#utility.yul\":7874:8045   */\n      pop\n      jump\t// out\n        /* \"#utility.yul\":8051:8417   */\n    tag_140:\n        /* \"#utility.yul\":8193:8196   */\n      0x00\n        /* \"#utility.yul\":8214:8281   */\n      tag_237\n        /* \"#utility.yul\":8278:8280   */\n      0x15\n        /* \"#utility.yul\":8273:8276   */\n      dup4\n        /* \"#utility.yul\":8214:8281   */\n      tag_132\n      jump\t// in\n    tag_237:\n        /* \"#utility.yul\":8207:8281   */\n      swap2\n      pop\n        /* \"#utility.yul\":8290:8383   */\n      tag_238\n        /* \"#utility.yul\":8379:8382   */\n      dup3\n        /* \"#utility.yul\":8290:8383   */\n      tag_139\n      jump\t// in\n    tag_238:\n        /* \"#utility.yul\":8408:8410   */\n      0x20\n        /* \"#utility.yul\":8403:8406   */\n      dup3\n        /* \"#utility.yul\":8399:8411   */\n      add\n        /* \"#utility.yul\":8392:8411   */\n      swap1\n      pop\n        /* \"#utility.yul\":8051:8417   */\n      swap2\n      swap1\n      pop\n      jump\t// out\n        /* \"#utility.yul\":8423:8842   */\n    tag_71:\n        /* \"#utility.yul\":8589:8593   */\n      0x00\n        /* \"#utility.yul\":8627:8629   */\n      0x20\n        /* \"#utility.yul\":8616:8625   */\n      dup3\n        /* \"#utility.yul\":8612:8630   */\n      add\n        /* \"#utility.yul\":8604:8630   */\n      swap1\n      pop\n        /* \"#utility.yul\":8676:8685   */\n      dup2\n        /* \"#utility.yul\":8670:8674   */\n      dup2\n        /* \"#utility.yul\":8666:8686   */\n      sub\n        /* \"#utility.yul\":8662:8663   */\n      0x00\n        /* \"#utility.yul\":8651:8660   */\n      dup4\n        /* \"#utility.yul\":8647:8664   */\n      add\n        /* \"#utility.yul\":8640:8687   */\n      mstore\n        /* \"#utility.yul\":8704:8835   */\n      tag_240\n        /* \"#utility.yul\":8830:8834   */\n      dup2\n        /* \"#utility.yul\":8704:8835   */\n      tag_140\n      jump\t// in\n    tag_240:\n        /* \"#utility.yul\":8696:8835   */\n      swap1\n      pop\n        /* \"#utility.yul\":8423:8842   */\n      swap2\n      swap1\n      pop\n      jump\t// out\n        /* \"#utility.yul\":8848:8908   */\n    tag_141:\n        /* \"#utility.yul\":8876:8879   */\n      0x00\n        /* \"#utility.yul\":8897:8902   */\n      dup2\n        /* \"#utility.yul\":8890:8902   */\n      swap1\n      pop\n        /* \"#utility.yul\":8848:8908   */\n      swap2\n      swap1\n      pop\n      jump\t// out\n        /* \"#utility.yul\":8914:9056   */\n    tag_142:\n        /* \"#utility.yul\":8964:8973   */\n      0x00\n        /* \"#utility.yul\":8997:9050   */\n      tag_243\n        /* \"#utility.yul\":9015:9049   */\n      tag_244\n        /* \"#utility.yul\":9024:9048   */\n      tag_245\n        /* \"#utility.yul\":9042:9047   */\n      dup5\n        /* \"#utility.yul\":9024:9048   */\n      tag_122\n      jump\t// in\n    tag_245:\n        /* \"#utility.yul\":9015:9049   */\n      tag_141\n      jump\t// in\n    tag_244:\n        /* \"#utility.yul\":8997:9050   */\n      tag_122\n      jump\t// in\n    tag_243:\n        /* \"#utility.yul\":8984:9050   */\n      swap1\n      pop\n        /* \"#utility.yul\":8914:9056   */\n      swap2\n      swap1\n      pop\n      jump\t// out\n        /* \"#utility.yul\":9062:9188   */\n    tag_143:\n        /* \"#utility.yul\":9112:9121   */\n      0x00\n        /* \"#utility.yul\":9145:9182   */\n      tag_247\n        /* \"#utility.yul\":9176:9181   */\n      dup3\n        /* \"#utility.yul\":9145:9182   */\n      tag_142\n      jump\t// in\n    tag_247:\n        /* \"#utility.yul\":9132:9182   */\n      swap1\n      pop\n        /* \"#utility.yul\":9062:9188   */\n      swap2\n      swap1\n      pop\n      jump\t// out\n        /* \"#utility.yul\":9194:9328   */\n    tag_144:\n        /* \"#utility.yul\":9252:9261   */\n      0x00\n        /* \"#utility.yul\":9285:9322   */\n      tag_249\n        /* \"#utility.yul\":9316:9321   */\n      dup3\n        /* \"#utility.yul\":9285:9322   */\n      tag_143\n      jump\t// in\n    tag_249:\n        /* \"#utility.yul\":9272:9322   */\n      swap1\n      pop\n        /* \"#utility.yul\":9194:9328   */\n      swap2\n      swap1\n      pop\n      jump\t// out\n        /* \"#utility.yul\":9334:9481   */\n    tag_145:\n        /* \"#utility.yul\":9429:9474   */\n      tag_251\n        /* \"#utility.yul\":9468:9473   */\n      dup2\n        /* \"#utility.yul\":9429:9474   */\n      tag_144\n      jump\t// in\n    tag_251:\n        /* \"#utility.yul\":9424:9427   */\n      dup3\n        /* \"#utility.yul\":9417:9475   */\n      mstore\n        /* \"#utility.yul\":9334:9481   */\n      pop\n      pop\n      jump\t// out\n        /* \"#utility.yul\":9487:9945   */\n    tag_75:\n        /* \"#utility.yul\":9644:9648   */\n      0x00\n        /* \"#utility.yul\":9682:9684   */\n      0x60\n        /* \"#utility.yul\":9671:9680   */\n      dup3\n        /* \"#utility.yul\":9667:9685   */\n      add\n        /* \"#utility.yul\":9659:9685   */\n      swap1\n      pop\n        /* \"#utility.yul\":9695:9766   */\n      tag_253\n        /* \"#utility.yul\":9763:9764   */\n      0x00\n        /* \"#utility.yul\":9752:9761   */\n      dup4\n        /* \"#utility.yul\":9748:9765   */\n      add\n        /* \"#utility.yul\":9739:9745   */\n      dup7\n        /* \"#utility.yul\":9695:9766   */\n      tag_125\n      jump\t// in\n    tag_253:\n        /* \"#utility.yul\":9776:9856   */\n      tag_254\n        /* \"#utility.yul\":9852:9854   */\n      0x20\n        /* \"#utility.yul\":9841:9850   */\n      dup4\n        /* \"#utility.yul\":9837:9855   */\n      add\n        /* \"#utility.yul\":9828:9834   */\n      dup6\n        /* \"#utility.yul\":9776:9856   */\n      tag_145\n      jump\t// in\n    tag_254:\n        /* \"#utility.yul\":9866:9938   */\n      tag_255\n        /* \"#utility.yul\":9934:9936   */\n      0x40\n        /* \"#utility.yul\":9923:9932   */\n      dup4\n        /* \"#utility.yul\":9919:9937   */\n      add\n        /* \"#utility.yul\":9910:9916   */\n      dup5\n        /* \"#utility.yul\":9866:9938   */\n      tag_125\n      jump\t// in\n    tag_255:\n        /* \"#utility.yul\":9487:9945   */\n      swap5\n      swap4\n      pop\n      pop\n      pop\n      pop\n      jump\t// out\n        /* \"#utility.yul\":9951:10128   */\n    tag_146:\n        /* \"#utility.yul\":10091:10120   */\n      0x476f616c206d7573742062652067726561746572207468616e20300000000000\n        /* \"#utility.yul\":10087:10088   */\n      0x00\n        /* \"#utility.yul\":10079:10085   */\n      dup3\n        /* \"#utility.yul\":10075:10089   */\n      add\n        /* \"#utility.yul\":10068:10121   */\n      mstore\n        /* \"#utility.yul\":9951:10128   */\n      pop\n      jump\t// out\n        /* \"#utility.yul\":10134:10500   */\n    tag_147:\n        /* \"#utility.yul\":10276:10279   */\n      0x00\n        /* \"#utility.yul\":10297:10364   */\n      tag_258\n        /* \"#utility.yul\":10361:10363   */\n      0x1b\n        /* \"#utility.yul\":10356:10359   */\n      dup4\n        /* \"#utility.yul\":10297:10364   */\n      tag_132\n      jump\t// in\n    tag_258:\n        /* \"#utility.yul\":10290:10364   */\n      swap2\n      pop\n        /* \"#utility.yul\":10373:10466   */\n      tag_259\n        /* \"#utility.yul\":10462:10465   */\n      dup3\n        /* \"#utility.yul\":10373:10466   */\n      tag_146\n      jump\t// in\n    tag_259:\n        /* \"#utility.yul\":10491:10493   */\n      0x20\n        /* \"#utility.yul\":10486:10489   */\n      dup3\n        /* \"#utility.yul\":10482:10494   */\n      add\n        /* \"#utility.yul\":10475:10494   */\n      swap1\n      pop\n        /* \"#utility.yul\":10134:10500   */\n      swap2\n      swap1\n      pop\n      jump\t// out\n        /* \"#utility.yul\":10506:10925   */\n    tag_79:\n        /* \"#utility.yul\":10672:10676   */\n      0x00\n        /* \"#utility.yul\":10710:10712   */\n      0x20\n        /* \"#utility.yul\":10699:10708   */\n      dup3\n        /* \"#utility.yul\":10695:10713   */\n      add\n        /* \"#utility.yul\":10687:10713   */\n      swap1\n      pop\n        /* \"#utility.yul\":10759:10768   */\n      dup2\n        /* \"#utility.yul\":10753:10757   */\n      dup2\n        /* \"#utility.yul\":10749:10769   */\n      sub\n        /* \"#utility.yul\":10745:10746   */\n      0x00\n        /* \"#utility.yul\":10734:10743   */\n      dup4\n        /* \"#utility.yul\":10730:10747   */\n      add\n        /* \"#utility.yul\":10723:10770   */\n      mstore\n        /* \"#utility.yul\":10787:10918   */\n      tag_261\n        /* \"#utility.yul\":10913:10917   */\n      dup2\n        /* \"#utility.yul\":10787:10918   */\n      tag_147\n      jump\t// in\n    tag_261:\n        /* \"#utility.yul\":10779:10918   */\n      swap1\n      pop\n        /* \"#utility.yul\":10506:10925   */\n      swap2\n      swap1\n      pop\n      jump\t// out\n        /* \"#utility.yul\":10931:11112   */\n    tag_148:\n        /* \"#utility.yul\":11071:11104   */\n      0x4475726174696f6e206d7573742062652067726561746572207468616e203000\n        /* \"#utility.yul\":11067:11068   */\n      0x00\n        /* \"#utility.yul\":11059:11065   */\n      dup3\n        /* \"#utility.yul\":11055:11069   */\n      add\n        /* \"#utility.yul\":11048:11105   */\n      mstore\n        /* \"#utility.yul\":10931:11112   */\n      pop\n      jump\t// out\n        /* \"#utility.yul\":11118:11484   */\n    tag_149:\n        /* \"#utility.yul\":11260:11263   */\n      0x00\n        /* \"#utility.yul\":11281:11348   */\n      tag_264\n        /* \"#utility.yul\":11345:11347   */\n      0x1f\n        /* \"#utility.yul\":11340:11343   */\n      dup4\n        /* \"#utility.yul\":11281:11348   */\n      tag_132\n      jump\t// in\n    tag_264:\n        /* \"#utility.yul\":11274:11348   */\n      swap2\n      pop\n        /* \"#utility.yul\":11357:11450   */\n      tag_265\n        /* \"#utility.yul\":11446:11449   */\n      dup3\n        /* \"#utility.yul\":11357:11450   */\n      tag_148\n      jump\t// in\n    tag_265:\n        /* \"#utility.yul\":11475:11477   */\n      0x20\n        /* \"#utility.yul\":11470:11473   */\n      dup3\n        /* \"#utility.yul\":11466:11478   */\n      add\n        /* \"#utility.yul\":11459:11478   */\n      swap1\n      pop\n        /* \"#utility.yul\":11118:11484   */\n      swap2\n      swap1\n      pop\n      jump\t// out\n        /* \"#utility.yul\":11490:11909   */\n    tag_82:\n        /* \"#utility.yul\":11656:11660   */\n      0x00\n        /* \"#utility.yul\":11694:11696   */\n      0x20\n        /* \"#utility.yul\":11683:11692   */\n      dup3\n        /* \"#utility.yul\":11679:11697   */\n      add\n        /* \"#utility.yul\":11671:11697   */\n      swap1\n      pop\n        /* \"#utility.yul\":11743:11752   */\n      dup2\n        /* \"#utility.yul\":11737:11741   */\n      dup2\n        /* \"#utility.yul\":11733:11753   */\n      sub\n        /* \"#utility.yul\":11729:11730   */\n      0x00\n        /* \"#utility.yul\":11718:11727   */\n      dup4\n        /* \"#utility.yul\":11714:11731   */\n      add\n        /* \"#utility.yul\":11707:11754   */\n      mstore\n        /* \"#utility.yul\":11771:11902   */\n      tag_267\n        /* \"#utility.yul\":11897:11901   */\n      dup2\n        /* \"#utility.yul\":11771:11902   */\n      tag_149\n      jump\t// in\n    tag_267:\n        /* \"#utility.yul\":11763:11902   */\n      swap1\n      pop\n        /* \"#utility.yul\":11490:11909   */\n      swap2\n      swap1\n      pop\n      jump\t// out\n        /* \"#utility.yul\":11915:12095   */\n    tag_150:\n        /* \"#utility.yul\":11963:12040   */\n      0x4e487b7100000000000000000000000000000000000000000000000000000000\n        /* \"#utility.yul\":11960:11961   */\n      0x00\n        /* \"#utility.yul\":11953:12041   */\n      mstore\n        /* \"#utility.yul\":12060:12064   */\n      0x11\n        /* \"#utility.yul\":12057:12058   */\n      0x04\n        /* \"#utility.yul\":12050:12065   */\n      mstore\n        /* \"#utility.yul\":12084:12088   */\n      0x24\n        /* \"#utility.yul\":12081:12082   */\n      0x00\n        /* \"#utility.yul\":12074:12089   */\n      revert\n        /* \"#utility.yul\":12101:12292   */\n    tag_84:\n        /* \"#utility.yul\":12141:12144   */\n      0x00\n        /* \"#utility.yul\":12160:12180   */\n      tag_270\n        /* \"#utility.yul\":12178:12179   */\n      dup3\n        /* \"#utility.yul\":12160:12180   */\n      tag_119\n      jump\t// in\n    tag_270:\n        /* \"#utility.yul\":12155:12180   */\n      swap2\n      pop\n        /* \"#utility.yul\":12194:12214   */\n      tag_271\n        /* \"#utility.yul\":12212:12213   */\n      dup4\n        /* \"#utility.yul\":12194:12214   */\n      tag_119\n      jump\t// in\n    tag_271:\n        /* \"#utility.yul\":12189:12214   */\n      swap3\n      pop\n        /* \"#utility.yul\":12237:12238   */\n      dup3\n        /* \"#utility.yul\":12234:12235   */\n      dup3\n        /* \"#utility.yul\":12230:12239   */\n      add\n        /* \"#utility.yul\":12223:12239   */\n      swap1\n      pop\n        /* \"#utility.yul\":12258:12261   */\n      dup1\n        /* \"#utility.yul\":12255:12256   */\n      dup3\n        /* \"#utility.yul\":12252:12262   */\n      gt\n        /* \"#utility.yul\":12249:12285   */\n      iszero\n      tag_272\n      jumpi\n        /* \"#utility.yul\":12265:12283   */\n      tag_273\n      tag_150\n      jump\t// in\n    tag_273:\n        /* \"#utility.yul\":12249:12285   */\n    tag_272:\n        /* \"#utility.yul\":12101:12292   */\n      swap3\n      swap2\n      pop\n      pop\n      jump\t// out\n        /* \"#utility.yul\":12298:12851   */\n    tag_86:\n        /* \"#utility.yul\":12475:12479   */\n      0x00\n        /* \"#utility.yul\":12513:12516   */\n      0x80\n        /* \"#utility.yul\":12502:12511   */\n      dup3\n        /* \"#utility.yul\":12498:12517   */\n      add\n        /* \"#utility.yul\":12490:12517   */\n      swap1\n      pop\n        /* \"#utility.yul\":12527:12598   */\n      tag_275\n        /* \"#utility.yul\":12595:12596   */\n      0x00\n        /* \"#utility.yul\":12584:12593   */\n      dup4\n        /* \"#utility.yul\":12580:12597   */\n      add\n        /* \"#utility.yul\":12571:12577   */\n      dup8\n        /* \"#utility.yul\":12527:12598   */\n      tag_125\n      jump\t// in\n    tag_275:\n        /* \"#utility.yul\":12608:12680   */\n      tag_276\n        /* \"#utility.yul\":12676:12678   */\n      0x20\n        /* \"#utility.yul\":12665:12674   */\n      dup4\n        /* \"#utility.yul\":12661:12679   */\n      add\n        /* \"#utility.yul\":12652:12658   */\n      dup7\n        /* \"#utility.yul\":12608:12680   */\n      tag_131\n      jump\t// in\n    tag_276:\n        /* \"#utility.yul\":12690:12762   */\n      tag_277\n        /* \"#utility.yul\":12758:12760   */\n      0x40\n        /* \"#utility.yul\":12747:12756   */\n      dup4\n        /* \"#utility.yul\":12743:12761   */\n      add\n        /* \"#utility.yul\":12734:12740   */\n      dup6\n        /* \"#utility.yul\":12690:12762   */\n      tag_125\n      jump\t// in\n    tag_277:\n        /* \"#utility.yul\":12772:12844   */\n      tag_278\n        /* \"#utility.yul\":12840:12842   */\n      0x60\n        /* \"#utility.yul\":12829:12838   */\n      dup4\n        /* \"#utility.yul\":12825:12843   */\n      add\n        /* \"#utility.yul\":12816:12822   */\n      dup5\n        /* \"#utility.yul\":12772:12844   */\n      tag_125\n      jump\t// in\n    tag_278:\n        /* \"#utility.yul\":12298:12851   */\n      swap6\n      swap5\n      pop\n      pop\n      pop\n      pop\n      pop\n      jump\t// out\n        /* \"#utility.yul\":12857:13090   */\n    tag_88:\n        /* \"#utility.yul\":12896:12899   */\n      0x00\n        /* \"#utility.yul\":12919:12943   */\n      tag_280\n        /* \"#utility.yul\":12937:12942   */\n      dup3\n        /* \"#utility.yul\":12919:12943   */\n      tag_119\n      jump\t// in\n    tag_280:\n        /* \"#utility.yul\":12910:12943   */\n      swap2\n      pop\n        /* \"#utility.yul\":12965:13031   */\n      0xffffffffffffffffffffffffffffffffffffffffffffffffffffffffffffffff\n        /* \"#utility.yul\":12958:12963   */\n      dup3\n        /* \"#utility.yul\":12955:13032   */\n      sub\n        /* \"#utility.yul\":12952:13055   */\n      tag_281\n      jumpi\n        /* \"#utility.yul\":13035:13053   */\n      tag_282\n      tag_150\n      jump\t// in\n    tag_282:\n        /* \"#utility.yul\":12952:13055   */\n    tag_281:\n        /* \"#utility.yul\":13082:13083   */\n      0x01\n        /* \"#utility.yul\":13075:13080   */\n      dup3\n        /* \"#utility.yul\":13071:13084   */\n      add\n        /* \"#utility.yul\":13064:13084   */\n      swap1\n      pop\n        /* \"#utility.yul\":12857:13090   */\n      swap2\n      swap1\n      pop\n      jump\t// out\n        /* \"#utility.yul\":13096:13264   */\n    tag_151:\n        /* \"#utility.yul\":13236:13256   */\n      0x43616d706169676e2068617320656e6465640000000000000000000000000000\n        /* \"#utility.yul\":13232:13233   */\n      0x00\n        /* \"#utility.yul\":13224:13230   */\n      dup3\n        /* \"#utility.yul\":13220:13234   */\n      add\n        /* \"#utility.yul\":13213:13257   */\n      mstore\n        /* \"#utility.yul\":13096:13264   */\n      pop\n      jump\t// out\n        /* \"#utility.yul\":13270:13636   */\n    tag_152:\n        /* \"#utility.yul\":13412:13415   */\n      0x00\n        /* \"#utility.yul\":13433:13500   */\n      tag_285\n        /* \"#utility.yul\":13497:13499   */\n      0x12\n        /* \"#utility.yul\":13492:13495   */\n      dup4\n        /* \"#utility.yul\":13433:13500   */\n      tag_132\n      jump\t// in\n    tag_285:\n        /* \"#utility.yul\":13426:13500   */\n      swap2\n      pop\n        /* \"#utility.yul\":13509:13602   */\n      tag_286\n        /* \"#utility.yul\":13598:13601   */\n      dup3\n        /* \"#utility.yul\":13509:13602   */\n      tag_151\n      jump\t// in\n    tag_286:\n        /* \"#utility.yul\":13627:13629   */\n      0x20\n        /* \"#utility.yul\":13622:13625   */\n      dup3\n        /* \"#utility.yul\":13618:13630   */\n      add\n        /* \"#utility.yul\":13611:13630   */\n      swap1\n      pop\n        /* \"#utility.yul\":13270:13636   */\n      swap2\n      swap1\n      pop\n      jump\t// out\n        /* \"#utility.yul\":13642:14061   */\n    tag_93:\n        /* \"#utility.yul\":13808:13812   */\n      0x00\n        /* \"#utility.yul\":13846:13848   */\n      0x20\n        /* \"#utility.yul\":13835:13844   */\n      dup3\n        /* \"#utility.yul\":13831:13849   */\n      add\n        /* \"#utility.yul\":13823:13849   */\n      swap1\n      pop\n        /* \"#utility.yul\":13895:13904   */\n      dup2\n        /* \"#utility.yul\":13889:13893   */\n      dup2\n        /* \"#utility.yul\":13885:13905   */\n      sub\n        /* \"#utility.yul\":13881:13882   */\n      0x00\n        /* \"#utility.yul\":13870:13879   */\n      dup4\n        /* \"#utility.yul\":13866:13883   */\n      add\n        /* \"#utility.yul\":13859:13906   */\n      mstore\n        /* \"#utility.yul\":13923:14054   */\n      tag_288\n        /* \"#utility.yul\":14049:14053   */\n      dup2\n        /* \"#utility.yul\":13923:14054   */\n      tag_152\n      jump\t// in\n    tag_288:\n        /* \"#utility.yul\":13915:14054   */\n      swap1\n      pop\n        /* \"#utility.yul\":13642:14061   */\n      swap2\n      swap1\n      pop\n      jump\t// out\n        /* \"#utility.yul\":14067:14246   */\n    tag_153:\n        /* \"#utility.yul\":14207:14238   */\n      0x506c65646765206d7573742062652067726561746572207468616e2030000000\n        /* \"#utility.yul\":14203:14204   */\n      0x00\n        /* \"#utility.yul\":14195:14201   */\n      dup3\n        /* \"#utility.yul\":14191:14205   */\n      add\n        /* \"#utility.yul\":14184:14239   */\n      mstore\n        /* \"#utility.yul\":14067:14246   */\n      pop\n      jump\t// out\n        /* \"#utility.yul\":14252:14618   */\n    tag_154:\n        /* \"#utility.yul\":14394:14397   */\n      0x00\n        /* \"#utility.yul\":14415:14482   */\n      tag_291\n        /* \"#utility.yul\":14479:14481   */\n      0x1d\n        /* \"#utility.yul\":14474:14477   */\n      dup4\n        /* \"#utility.yul\":14415:14482   */\n      tag_132\n      jump\t// in\n    tag_291:\n        /* \"#utility.yul\":14408:14482   */\n      swap2\n      pop\n        /* \"#utility.yul\":14491:14584   */\n      tag_292\n        /* \"#utility.yul\":14580:14583   */\n      dup3\n        /* \"#utility.yul\":14491:14584   */\n      tag_153\n      jump\t// in\n    tag_292:\n        /* \"#utility.yul\":14609:14611   */\n      0x20\n        /* \"#utility.yul\":14604:14607   */\n      dup3\n        /* \"#utility.yul\":14600:14612   */\n      add\n        /* \"#utility.yul\":14593:14612   */\n      swap1\n      pop\n        /* \"#utility.yul\":14252:14618   */\n      swap2\n      swap1\n      pop\n      jump\t// out\n        /* \"#utility.yul\":14624:15043   */\n    tag_97:\n        /* \"#utility.yul\":14790:14794   */\n      0x00\n        /* \"#utility.yul\":14828:14830   */\n      0x20\n        /* \"#utility.yul\":14817:14826   */\n      dup3\n        /* \"#utility.yul\":14813:14831   */\n      add\n        /* \"#utility.yul\":14805:14831   */\n      swap1\n      pop\n        /* \"#utility.yul\":14877:14886   */\n      dup2\n        /* \"#utility.yul\":14871:14875   */\n      dup2\n        /* \"#utility.yul\":14867:14887   */\n      sub\n        /* \"#utility.yul\":14863:14864   */\n      0x00\n        /* \"#utility.yul\":14852:14861   */\n      dup4\n        /* \"#utility.yul\":14848:14865   */\n      add\n        /* \"#utility.yul\":14841:14888   */\n      mstore\n        /* \"#utility.yul\":14905:15036   */\n      tag_294\n        /* \"#utility.yul\":15031:15035   */\n      dup2\n        /* \"#utility.yul\":14905:15036   */\n      tag_154\n      jump\t// in\n    tag_294:\n        /* \"#utility.yul\":14897:15036   */\n      swap1\n      pop\n        /* \"#utility.yul\":14624:15043   */\n      swap2\n      swap1\n      pop\n      jump\t// out\n        /* \"#utility.yul\":15049:15491   */\n    tag_101:\n        /* \"#utility.yul\":15198:15202   */\n      0x00\n        /* \"#utility.yul\":15236:15238   */\n      0x60\n        /* \"#utility.yul\":15225:15234   */\n      dup3\n        /* \"#utility.yul\":15221:15239   */\n      add\n        /* \"#utility.yul\":15213:15239   */\n      swap1\n      pop\n        /* \"#utility.yul\":15249:15320   */\n      tag_296\n        /* \"#utility.yul\":15317:15318   */\n      0x00\n        /* \"#utility.yul\":15306:15315   */\n      dup4\n        /* \"#utility.yul\":15302:15319   */\n      add\n        /* \"#utility.yul\":15293:15299   */\n      dup7\n        /* \"#utility.yul\":15249:15320   */\n      tag_125\n      jump\t// in\n    tag_296:\n        /* \"#utility.yul\":15330:15402   */\n      tag_297\n        /* \"#utility.yul\":15398:15400   */\n      0x20\n        /* \"#utility.yul\":15387:15396   */\n      dup4\n        /* \"#utility.yul\":15383:15401   */\n      add\n        /* \"#utility.yul\":15374:15380   */\n      dup6\n        /* \"#utility.yul\":15330:15402   */\n      tag_131\n      jump\t// in\n    tag_297:\n        /* \"#utility.yul\":15412:15484   */\n      tag_298\n        /* \"#utility.yul\":15480:15482   */\n      0x40\n        /* \"#utility.yul\":15469:15478   */\n      dup4\n        /* \"#utility.yul\":15465:15483   */\n      add\n        /* \"#utility.yul\":15456:15462   */\n      dup5\n        /* \"#utility.yul\":15412:15484   */\n      tag_125\n      jump\t// in\n    tag_298:\n        /* \"#utility.yul\":15049:15491   */\n      swap5\n      swap4\n      pop\n      pop\n      pop\n      pop\n      jump\t// out\n        /* \"#utility.yul\":15497:15670   */\n    tag_155:\n        /* \"#utility.yul\":15637:15662   */\n      0x43616d706169676e20776173207375636365737366756c000000000000000000\n        /* \"#utility.yul\":15633:15634   */\n      0x00\n        /* \"#utility.yul\":15625:15631   */\n      dup3\n        /* \"#utility.yul\":15621:15635   */\n      add\n        /* \"#utility.yul\":15614:15663   */\n      mstore\n        /* \"#utility.yul\":15497:15670   */\n      pop\n      jump\t// out\n        /* \"#utility.yul\":15676:16042   */\n    tag_156:\n        /* \"#utility.yul\":15818:15821   */\n      0x00\n        /* \"#utility.yul\":15839:15906   */\n      tag_301\n        /* \"#utility.yul\":15903:15905   */\n      0x17\n        /* \"#utility.yul\":15898:15901   */\n      dup4\n        /* \"#utility.yul\":15839:15906   */\n      tag_132\n      jump\t// in\n    tag_301:\n        /* \"#utility.yul\":15832:15906   */\n      swap2\n      pop\n        /* \"#utility.yul\":15915:16008   */\n      tag_302\n        /* \"#utility.yul\":16004:16007   */\n      dup3\n        /* \"#utility.yul\":15915:16008   */\n      tag_155\n      jump\t// in\n    tag_302:\n        /* \"#utility.yul\":16033:16035   */\n      0x20\n        /* \"#utility.yul\":16028:16031   */\n      dup3\n        /* \"#utility.yul\":16024:16036   */\n      add\n        /* \"#utility.yul\":16017:16036   */\n      swap1\n      pop\n        /* \"#utility.yul\":15676:16042   */\n      swap2\n      swap1\n      pop\n      jump\t// out\n        /* \"#utility.yul\":16048:16467   */\n    tag_108:\n        /* \"#utility.yul\":16214:16218   */\n      0x00\n        /* \"#utility.yul\":16252:16254   */\n      0x20\n        /* \"#utility.yul\":16241:16250   */\n      dup3\n        /* \"#utility.yul\":16237:16255   */\n      add\n        /* \"#utility.yul\":16229:16255   */\n      swap1\n      pop\n        /* \"#utility.yul\":16301:16310   */\n      dup2\n        /* \"#utility.yul\":16295:16299   */\n      dup2\n        /* \"#utility.yul\":16291:16311   */\n      sub\n        /* \"#utility.yul\":16287:16288   */\n      0x00\n        /* \"#utility.yul\":16276:16285   */\n      dup4\n        /* \"#utility.yul\":16272:16289   */\n      add\n        /* \"#utility.yul\":16265:16312   */\n      mstore\n        /* \"#utility.yul\":16329:16460   */\n      tag_304\n        /* \"#utility.yul\":16455:16459   */\n      dup2\n        /* \"#utility.yul\":16329:16460   */\n      tag_156\n      jump\t// in\n    tag_304:\n        /* \"#utility.yul\":16321:16460   */\n      swap1\n      pop\n        /* \"#utility.yul\":16048:16467   */\n      swap2\n      swap1\n      pop\n      jump\t// out\n        /* \"#utility.yul\":16473:16649   */\n    tag_157:\n        /* \"#utility.yul\":16613:16641   */\n      0x4e6f20636f6e747269627574696f6e7320746f20726566756e64000000000000\n        /* \"#utility.yul\":16609:16610   */\n      0x00\n        /* \"#utility.yul\":16601:16607   */\n      dup3\n        /* \"#utility.yul\":16597:16611   */\n      add\n        /* \"#utility.yul\":16590:16642   */\n      mstore\n        /* \"#utility.yul\":16473:16649   */\n      pop\n      jump\t// out\n        /* \"#utility.yul\":16655:17021   */\n    tag_158:\n        /* \"#utility.yul\":16797:16800   */\n      0x00\n        /* \"#utility.yul\":16818:16885   */\n      tag_307\n        /* \"#utility.yul\":16882:16884   */\n      0x1a\n        /* \"#utility.yul\":16877:16880   */\n      dup4\n        /* \"#utility.yul\":16818:16885   */\n      tag_132\n      jump\t// in\n    tag_307:\n        /* \"#utility.yul\":16811:16885   */\n      swap2\n      pop\n        /* \"#utility.yul\":16894:16987   */\n      tag_308\n        /* \"#utility.yul\":16983:16986   */\n      dup3\n        /* \"#utility.yul\":16894:16987   */\n      tag_157\n      jump\t// in\n    tag_308:\n        /* \"#utility.yul\":17012:17014   */\n      0x20\n        /* \"#utility.yul\":17007:17010   */\n      dup3\n        /* \"#utility.yul\":17003:17015   */\n      add\n        /* \"#utility.yul\":16996:17015   */\n      swap1\n      pop\n        /* \"#utility.yul\":16655:17021   */\n      swap2\n      swap1\n      pop\n      jump\t// out\n        /* \"#utility.yul\":17027:17446   */\n    tag_111:\n        /* \"#utility.yul\":17193:17197   */\n      0x00\n        /* \"#utility.yul\":17231:17233   */\n      0x20\n        /* \"#utility.yul\":17220:17229   */\n      dup3\n        /* \"#utility.yul\":17216:17234   */\n      add\n        /* \"#utility.yul\":17208:17234   */\n      swap1\n      pop\n        /* \"#utility.yul\":17280:17289   */\n      dup2\n        /* \"#utility.yul\":17274:17278   */\n      dup2\n        /* \"#utility.yul\":17270:17290   */\n      sub\n        /* \"#utility.yul\":17266:17267   */\n      0x00\n        /* \"#utility.yul\":17255:17264   */\n      dup4\n        /* \"#utility.yul\":17251:17268   */\n      add\n        /* \"#utility.yul\":17244:17291   */\n      mstore\n        /* \"#utility.yul\":17308:17439   */\n      tag_310\n        /* \"#utility.yul\":17434:17438   */\n      dup2\n        /* \"#utility.yul\":17308:17439   */\n      tag_158\n      jump\t// in\n    tag_310:\n        /* \"#utility.yul\":17300:17439   */\n      swap1\n      pop\n        /* \"#utility.yul\":17027:17446   */\n      swap2\n      swap1\n      pop\n      jump\t// out\n\n    auxdata: 0xa2646970667358221220cae8c16f7b8f3149a497c69a48fd9c2d595961367fd5bc88794c90629a06139764736f6c634300081a0033\n}\n",
				"bytecode": {
					"linkReferences": {},
					"object": "6080604052348015600e575f80fd5b506113b08061001c5f395ff3fe608060405260043610610085575f3560e01c80635598f8cc116100585780635598f8cc146101555780637274e30d146101955780637326c9c0146101bf578063a4b2409e146101db578063e081dbf91461020357610085565b8063141961bc14610089578063155dd5ee146100c957806322502268146100f15780633d891f5914610119575b5f80fd5b348015610094575f80fd5b506100af60048036038101906100aa9190610b97565b61023f565b6040516100c0959493929190610c2a565b60405180910390f35b3480156100d4575f80fd5b506100ef60048036038101906100ea9190610b97565b61029b565b005b3480156100fc575f80fd5b5061011760048036038101906101129190610c7b565b61052f565b005b348015610124575f80fd5b5061013f600480360381019061013a9190610cf4565b6106f2565b60405161014c9190610d32565b60405180910390f35b348015610160575f80fd5b5061017b60048036038101906101769190610b97565b610712565b60405161018c959493929190610d5a565b60405180910390f35b3480156101a0575f80fd5b506101a9610781565b6040516101b69190610d32565b60405180910390f35b6101d960048036038101906101d49190610b97565b610787565b005b3480156101e6575f80fd5b5061020160048036038101906101fc9190610b97565b6108ee565b005b34801561020e575f80fd5b5061022960048036038101906102249190610cf4565b610b0a565b6040516102369190610d32565b60405180910390f35b5f602052805f5260405f205f91509050805f015f9054906101000a900473ffffffffffffffffffffffffffffffffffffffff1690806001015490806002015490806003015490806004015f9054906101000a900460ff16905085565b805f808281526020019081526020015f205f015f9054906101000a900473ffffffffffffffffffffffffffffffffffffffff1673ffffffffffffffffffffffffffffffffffffffff163373ffffffffffffffffffffffffffffffffffffffff161461033b576040517f08c379a000000000000000000000000000000000000000000000000000000000815260040161033290610e05565b60405180910390fd5b815f808281526020019081526020015f2060020154421015610392576040517f08c379a000000000000000000000000000000000000000000000000000000000815260040161038990610e6d565b60405180910390fd5b5f805f8581526020019081526020015f2090508060010154816003015410156103f0576040517f08c379a00000000000000000000000000000000000000000000000000000000081526004016103e790610ed5565b60405180910390fd5b806004015f9054906101000a900460ff1615610441576040517f08c379a000000000000000000000000000000000000000000000000000000000815260040161043890610f3d565b60405180910390fd5b5f816003015490506001826004015f6101000a81548160ff021916908315150217905550815f015f9054906101000a900473ffffffffffffffffffffffffffffffffffffffff1673ffffffffffffffffffffffffffffffffffffffff166108fc8290811502906040515f60405180830381858888f193505050501580156104ca573d5f803e3d5ffd5b507fcf7d23a3cbe4e8b36ff82fd1b05b1b17373dc7804b4ebbd6e2356716ef20237285835f015f9054906101000a900473ffffffffffffffffffffffffffffffffffffffff168360405161052093929190610fb6565b60405180910390a15050505050565b5f8211610571576040517f08c379a000000000000000000000000000000000000000000000000000000000815260040161056890611035565b60405180910390fd5b5f81116105b3576040517f08c379a00000000000000000000000000000000000000000000000000000000081526004016105aa9061109d565b60405180910390fd5b5f81426105c091906110e8565b90506040518060a001604052803373ffffffffffffffffffffffffffffffffffffffff1681526020018481526020018281526020015f81526020015f15158152505f8060015481526020019081526020015f205f820151815f015f6101000a81548173ffffffffffffffffffffffffffffffffffffffff021916908373ffffffffffffffffffffffffffffffffffffffff1602179055506020820151816001015560408201518160020155606082015181600301556080820151816004015f6101000a81548160ff0219169083151502179055509050507f91b289a829e71d811b8c69e4a24ba2d40d115d8a236e9a724cb3bb2d43cf72236001543385846040516106ce949392919061111b565b60405180910390a160015f8154809291906106e89061115e565b9190505550505050565b6002602052815f5260405f20602052805f5260405f205f91509150505481565b5f805f805f805f808881526020019081526020015f209050805f015f9054906101000a900473ffffffffffffffffffffffffffffffffffffffff16816001015482600201548360030154846004015f9054906101000a900460ff16955095509550955095505091939590929450565b60015481565b805f808281526020019081526020015f206002015442106107dd576040517f08c379a00000000000000000000000000000000000000000000000000000000081526004016107d4906111ef565b60405180910390fd5b5f341161081f576040517f08c379a000000000000000000000000000000000000000000000000000000000815260040161081690611257565b60405180910390fd5b5f805f8481526020019081526020015f20905034816003015f82825461084591906110e8565b925050819055503460025f8581526020019081526020015f205f3373ffffffffffffffffffffffffffffffffffffffff1673ffffffffffffffffffffffffffffffffffffffff1681526020019081526020015f205f8282546108a791906110e8565b925050819055507f2757ac6a40883f4491cc56930ae964df9034e343e660d5179eb01e198336756b8333346040516108e193929190611275565b60405180910390a1505050565b805f808281526020019081526020015f2060020154421015610945576040517f08c379a000000000000000000000000000000000000000000000000000000000815260040161093c90610e6d565b60405180910390fd5b5f805f8481526020019081526020015f20905080600101548160030154106109a2576040517f08c379a0000000000000000000000000000000000000000000000000000000008152600401610999906112f4565b60405180910390fd5b5f60025f8581526020019081526020015f205f3373ffffffffffffffffffffffffffffffffffffffff1673ffffffffffffffffffffffffffffffffffffffff1681526020019081526020015f205490505f8111610a34576040517f08c379a0000000000000000000000000000000000000000000000000000000008152600401610a2b9061135c565b60405180910390fd5b5f60025f8681526020019081526020015f205f3373ffffffffffffffffffffffffffffffffffffffff1673ffffffffffffffffffffffffffffffffffffffff1681526020019081526020015f20819055503373ffffffffffffffffffffffffffffffffffffffff166108fc8290811502906040515f60405180830381858888f19350505050158015610ac8573d5f803e3d5ffd5b507f7ca5472b7ea78c2c0141c5a12ee6d170cf4ce8ed06be3d22c8252ddfc7a6a2c4843383604051610afc93929190611275565b60405180910390a150505050565b5f60025f8481526020019081526020015f205f8373ffffffffffffffffffffffffffffffffffffffff1673ffffffffffffffffffffffffffffffffffffffff1681526020019081526020015f2054905092915050565b5f80fd5b5f819050919050565b610b7681610b64565b8114610b80575f80fd5b50565b5f81359050610b9181610b6d565b92915050565b5f60208284031215610bac57610bab610b60565b5b5f610bb984828501610b83565b91505092915050565b5f73ffffffffffffffffffffffffffffffffffffffff82169050919050565b5f610beb82610bc2565b9050919050565b610bfb81610be1565b82525050565b610c0a81610b64565b82525050565b5f8115159050919050565b610c2481610c10565b82525050565b5f60a082019050610c3d5f830188610bf2565b610c4a6020830187610c01565b610c576040830186610c01565b610c646060830185610c01565b610c716080830184610c1b565b9695505050505050565b5f8060408385031215610c9157610c90610b60565b5b5f610c9e85828601610b83565b9250506020610caf85828601610b83565b9150509250929050565b5f610cc382610bc2565b9050919050565b610cd381610cb9565b8114610cdd575f80fd5b50565b5f81359050610cee81610cca565b92915050565b5f8060408385031215610d0a57610d09610b60565b5b5f610d1785828601610b83565b9250506020610d2885828601610ce0565b9150509250929050565b5f602082019050610d455f830184610c01565b92915050565b610d5481610cb9565b82525050565b5f60a082019050610d6d5f830188610d4b565b610d7a6020830187610c01565b610d876040830186610c01565b610d946060830185610c01565b610da16080830184610c1b565b9695505050505050565b5f82825260208201905092915050565b7f4e6f742063616d706169676e206f776e657200000000000000000000000000005f82015250565b5f610def601283610dab565b9150610dfa82610dbb565b602082019050919050565b5f6020820190508181035f830152610e1c81610de3565b9050919050565b7f43616d706169676e206973207374696c6c206f6e676f696e67000000000000005f82015250565b5f610e57601983610dab565b9150610e6282610e23565b602082019050919050565b5f6020820190508181035f830152610e8481610e4b565b9050919050565b7f476f616c206e6f74206d657400000000000000000000000000000000000000005f82015250565b5f610ebf600c83610dab565b9150610eca82610e8b565b602082019050919050565b5f6020820190508181035f830152610eec81610eb3565b9050919050565b7f46756e647320616c726561647920636c61696d656400000000000000000000005f82015250565b5f610f27601583610dab565b9150610f3282610ef3565b602082019050919050565b5f6020820190508181035f830152610f5481610f1b565b9050919050565b5f819050919050565b5f610f7e610f79610f7484610bc2565b610f5b565b610bc2565b9050919050565b5f610f8f82610f64565b9050919050565b5f610fa082610f85565b9050919050565b610fb081610f96565b82525050565b5f606082019050610fc95f830186610c01565b610fd66020830185610fa7565b610fe36040830184610c01565b949350505050565b7f476f616c206d7573742062652067726561746572207468616e203000000000005f82015250565b5f61101f601b83610dab565b915061102a82610feb565b602082019050919050565b5f6020820190508181035f83015261104c81611013565b9050919050565b7f4475726174696f6e206d7573742062652067726561746572207468616e2030005f82015250565b5f611087601f83610dab565b915061109282611053565b602082019050919050565b5f6020820190508181035f8301526110b48161107b565b9050919050565b7f4e487b71000000000000000000000000000000000000000000000000000000005f52601160045260245ffd5b5f6110f282610b64565b91506110fd83610b64565b9250828201905080821115611115576111146110bb565b5b92915050565b5f60808201905061112e5f830187610c01565b61113b6020830186610d4b565b6111486040830185610c01565b6111556060830184610c01565b95945050505050565b5f61116882610b64565b91507fffffffffffffffffffffffffffffffffffffffffffffffffffffffffffffffff820361119a576111996110bb565b5b600182019050919050565b7f43616d706169676e2068617320656e64656400000000000000000000000000005f82015250565b5f6111d9601283610dab565b91506111e4826111a5565b602082019050919050565b5f6020820190508181035f830152611206816111cd565b9050919050565b7f506c65646765206d7573742062652067726561746572207468616e20300000005f82015250565b5f611241601d83610dab565b915061124c8261120d565b602082019050919050565b5f6020820190508181035f83015261126e81611235565b9050919050565b5f6060820190506112885f830186610c01565b6112956020830185610d4b565b6112a26040830184610c01565b949350505050565b7f43616d706169676e20776173207375636365737366756c0000000000000000005f82015250565b5f6112de601783610dab565b91506112e9826112aa565b602082019050919050565b5f6020820190508181035f83015261130b816112d2565b9050919050565b7f4e6f20636f6e747269627574696f6e7320746f20726566756e640000000000005f82015250565b5f611346601a83610dab565b915061135182611312565b602082019050919050565b5f6020820190508181035f8301526113738161133a565b905091905056fea2646970667358221220cae8c16f7b8f3149a497c69a48fd9c2d595961367fd5bc88794c90629a06139764736f6c634300081a0033",
					"opcodes": "PUSH1 0x80 PUSH1 0x40 MSTORE CALLVALUE DUP1 ISZERO PUSH1 0xE JUMPI PUSH0 DUP1 REVERT JUMPDEST POP PUSH2 0x13B0 DUP1 PUSH2 0x1C PUSH0 CODECOPY PUSH0 RETURN INVALID PUSH1 0x80 PUSH1 0x40 MSTORE PUSH1 0x4 CALLDATASIZE LT PUSH2 0x85 JUMPI PUSH0 CALLDATALOAD PUSH1 0xE0 SHR DUP1 PUSH4 0x5598F8CC GT PUSH2 0x58 JUMPI DUP1 PUSH4 0x5598F8CC EQ PUSH2 0x155 JUMPI DUP1 PUSH4 0x7274E30D EQ PUSH2 0x195 JUMPI DUP1 PUSH4 0x7326C9C0 EQ PUSH2 0x1BF JUMPI DUP1 PUSH4 0xA4B2409E EQ PUSH2 0x1DB JUMPI DUP1 PUSH4 0xE081DBF9 EQ PUSH2 0x203 JUMPI PUSH2 0x85 JUMP JUMPDEST DUP1 PUSH4 0x141961BC EQ PUSH2 0x89 JUMPI DUP1 PUSH4 0x155DD5EE EQ PUSH2 0xC9 JUMPI DUP1 PUSH4 0x22502268 EQ PUSH2 0xF1 JUMPI DUP1 PUSH4 0x3D891F59 EQ PUSH2 0x119 JUMPI JUMPDEST PUSH0 DUP1 REVERT JUMPDEST CALLVALUE DUP1 ISZERO PUSH2 0x94 JUMPI PUSH0 DUP1 REVERT JUMPDEST POP PUSH2 0xAF PUSH1 0x4 DUP1 CALLDATASIZE SUB DUP2 ADD SWAP1 PUSH2 0xAA SWAP2 SWAP1 PUSH2 0xB97 JUMP JUMPDEST PUSH2 0x23F JUMP JUMPDEST PUSH1 0x40 MLOAD PUSH2 0xC0 SWAP6 SWAP5 SWAP4 SWAP3 SWAP2 SWAP1 PUSH2 0xC2A JUMP JUMPDEST PUSH1 0x40 MLOAD DUP1 SWAP2 SUB SWAP1 RETURN JUMPDEST CALLVALUE DUP1 ISZERO PUSH2 0xD4 JUMPI PUSH0 DUP1 REVERT JUMPDEST POP PUSH2 0xEF PUSH1 0x4 DUP1 CALLDATASIZE SUB DUP2 ADD SWAP1 PUSH2 0xEA SWAP2 SWAP1 PUSH2 0xB97 JUMP JUMPDEST PUSH2 0x29B JUMP JUMPDEST STOP JUMPDEST CALLVALUE DUP1 ISZERO PUSH2 0xFC JUMPI PUSH0 DUP1 REVERT JUMPDEST POP PUSH2 0x117 PUSH1 0x4 DUP1 CALLDATASIZE SUB DUP2 ADD SWAP1 PUSH2 0x112 SWAP2 SWAP1 PUSH2 0xC7B JUMP JUMPDEST PUSH2 0x52F JUMP JUMPDEST STOP JUMPDEST CALLVALUE DUP1 ISZERO PUSH2 0x124 JUMPI PUSH0 DUP1 REVERT JUMPDEST POP PUSH2 0x13F PUSH1 0x4 DUP1 CALLDATASIZE SUB DUP2 ADD SWAP1 PUSH2 0x13A SWAP2 SWAP1 PUSH2 0xCF4 JUMP JUMPDEST PUSH2 0x6F2 JUMP JUMPDEST PUSH1 0x40 MLOAD PUSH2 0x14C SWAP2 SWAP1 PUSH2 0xD32 JUMP JUMPDEST PUSH1 0x40 MLOAD DUP1 SWAP2 SUB SWAP1 RETURN JUMPDEST CALLVALUE DUP1 ISZERO PUSH2 0x160 JUMPI PUSH0 DUP1 REVERT JUMPDEST POP PUSH2 0x17B PUSH1 0x4 DUP1 CALLDATASIZE SUB DUP2 ADD SWAP1 PUSH2 0x176 SWAP2 SWAP1 PUSH2 0xB97 JUMP JUMPDEST PUSH2 0x712 JUMP JUMPDEST PUSH1 0x40 MLOAD PUSH2 0x18C SWAP6 SWAP5 SWAP4 SWAP3 SWAP2 SWAP1 PUSH2 0xD5A JUMP JUMPDEST PUSH1 0x40 MLOAD DUP1 SWAP2 SUB SWAP1 RETURN JUMPDEST CALLVALUE DUP1 ISZERO PUSH2 0x1A0 JUMPI PUSH0 DUP1 REVERT JUMPDEST POP PUSH2 0x1A9 PUSH2 0x781 JUMP JUMPDEST PUSH1 0x40 MLOAD PUSH2 0x1B6 SWAP2 SWAP1 PUSH2 0xD32 JUMP JUMPDEST PUSH1 0x40 MLOAD DUP1 SWAP2 SUB SWAP1 RETURN JUMPDEST PUSH2 0x1D9 PUSH1 0x4 DUP1 CALLDATASIZE SUB DUP2 ADD SWAP1 PUSH2 0x1D4 SWAP2 SWAP1 PUSH2 0xB97 JUMP JUMPDEST PUSH2 0x787 JUMP JUMPDEST STOP JUMPDEST CALLVALUE DUP1 ISZERO PUSH2 0x1E6 JUMPI PUSH0 DUP1 REVERT JUMPDEST POP PUSH2 0x201 PUSH1 0x4 DUP1 CALLDATASIZE SUB DUP2 ADD SWAP1 PUSH2 0x1FC SWAP2 SWAP1 PUSH2 0xB97 JUMP JUMPDEST PUSH2 0x8EE JUMP JUMPDEST STOP JUMPDEST CALLVALUE DUP1 ISZERO PUSH2 0x20E JUMPI PUSH0 DUP1 REVERT JUMPDEST POP PUSH2 0x229 PUSH1 0x4 DUP1 CALLDATASIZE SUB DUP2 ADD SWAP1 PUSH2 0x224 SWAP2 SWAP1 PUSH2 0xCF4 JUMP JUMPDEST PUSH2 0xB0A JUMP JUMPDEST PUSH1 0x40 MLOAD PUSH2 0x236 SWAP2 SWAP1 PUSH2 0xD32 JUMP JUMPDEST PUSH1 0x40 MLOAD DUP1 SWAP2 SUB SWAP1 RETURN JUMPDEST PUSH0 PUSH1 0x20 MSTORE DUP1 PUSH0 MSTORE PUSH1 0x40 PUSH0 KECCAK256 PUSH0 SWAP2 POP SWAP1 POP DUP1 PUSH0 ADD PUSH0 SWAP1 SLOAD SWAP1 PUSH2 0x100 EXP SWAP1 DIV PUSH20 0xFFFFFFFFFFFFFFFFFFFFFFFFFFFFFFFFFFFFFFFF AND SWAP1 DUP1 PUSH1 0x1 ADD SLOAD SWAP1 DUP1 PUSH1 0x2 ADD SLOAD SWAP1 DUP1 PUSH1 0x3 ADD SLOAD SWAP1 DUP1 PUSH1 0x4 ADD PUSH0 SWAP1 SLOAD SWAP1 PUSH2 0x100 EXP SWAP1 DIV PUSH1 0xFF AND SWAP1 POP DUP6 JUMP JUMPDEST DUP1 PUSH0 DUP1 DUP3 DUP2 MSTORE PUSH1 0x20 ADD SWAP1 DUP2 MSTORE PUSH1 0x20 ADD PUSH0 KECCAK256 PUSH0 ADD PUSH0 SWAP1 SLOAD SWAP1 PUSH2 0x100 EXP SWAP1 DIV PUSH20 0xFFFFFFFFFFFFFFFFFFFFFFFFFFFFFFFFFFFFFFFF AND PUSH20 0xFFFFFFFFFFFFFFFFFFFFFFFFFFFFFFFFFFFFFFFF AND CALLER PUSH20 0xFFFFFFFFFFFFFFFFFFFFFFFFFFFFFFFFFFFFFFFF AND EQ PUSH2 0x33B JUMPI PUSH1 0x40 MLOAD PUSH32 0x8C379A000000000000000000000000000000000000000000000000000000000 DUP2 MSTORE PUSH1 0x4 ADD PUSH2 0x332 SWAP1 PUSH2 0xE05 JUMP JUMPDEST PUSH1 0x40 MLOAD DUP1 SWAP2 SUB SWAP1 REVERT JUMPDEST DUP2 PUSH0 DUP1 DUP3 DUP2 MSTORE PUSH1 0x20 ADD SWAP1 DUP2 MSTORE PUSH1 0x20 ADD PUSH0 KECCAK256 PUSH1 0x2 ADD SLOAD TIMESTAMP LT ISZERO PUSH2 0x392 JUMPI PUSH1 0x40 MLOAD PUSH32 0x8C379A000000000000000000000000000000000000000000000000000000000 DUP2 MSTORE PUSH1 0x4 ADD PUSH2 0x389 SWAP1 PUSH2 0xE6D JUMP JUMPDEST PUSH1 0x40 MLOAD DUP1 SWAP2 SUB SWAP1 REVERT JUMPDEST PUSH0 DUP1 PUSH0 DUP6 DUP2 MSTORE PUSH1 0x20 ADD SWAP1 DUP2 MSTORE PUSH1 0x20 ADD PUSH0 KECCAK256 SWAP1 POP DUP1 PUSH1 0x1 ADD SLOAD DUP2 PUSH1 0x3 ADD SLOAD LT ISZERO PUSH2 0x3F0 JUMPI PUSH1 0x40 MLOAD PUSH32 0x8C379A000000000000000000000000000000000000000000000000000000000 DUP2 MSTORE PUSH1 0x4 ADD PUSH2 0x3E7 SWAP1 PUSH2 0xED5 JUMP JUMPDEST PUSH1 0x40 MLOAD DUP1 SWAP2 SUB SWAP1 REVERT JUMPDEST DUP1 PUSH1 0x4 ADD PUSH0 SWAP1 SLOAD SWAP1 PUSH2 0x100 EXP SWAP1 DIV PUSH1 0xFF AND ISZERO PUSH2 0x441 JUMPI PUSH1 0x40 MLOAD PUSH32 0x8C379A000000000000000000000000000000000000000000000000000000000 DUP2 MSTORE PUSH1 0x4 ADD PUSH2 0x438 SWAP1 PUSH2 0xF3D JUMP JUMPDEST PUSH1 0x40 MLOAD DUP1 SWAP2 SUB SWAP1 REVERT JUMPDEST PUSH0 DUP2 PUSH1 0x3 ADD SLOAD SWAP1 POP PUSH1 0x1 DUP3 PUSH1 0x4 ADD PUSH0 PUSH2 0x100 EXP DUP2 SLOAD DUP2 PUSH1 0xFF MUL NOT AND SWAP1 DUP4 ISZERO ISZERO MUL OR SWAP1 SSTORE POP DUP2 PUSH0 ADD PUSH0 SWAP1 SLOAD SWAP1 PUSH2 0x100 EXP SWAP1 DIV PUSH20 0xFFFFFFFFFFFFFFFFFFFFFFFFFFFFFFFFFFFFFFFF AND PUSH20 0xFFFFFFFFFFFFFFFFFFFFFFFFFFFFFFFFFFFFFFFF AND PUSH2 0x8FC DUP3 SWAP1 DUP2 ISZERO MUL SWAP1 PUSH1 0x40 MLOAD PUSH0 PUSH1 0x40 MLOAD DUP1 DUP4 SUB DUP2 DUP6 DUP9 DUP9 CALL SWAP4 POP POP POP POP ISZERO DUP1 ISZERO PUSH2 0x4CA JUMPI RETURNDATASIZE PUSH0 DUP1 RETURNDATACOPY RETURNDATASIZE PUSH0 REVERT JUMPDEST POP PUSH32 0xCF7D23A3CBE4E8B36FF82FD1B05B1B17373DC7804B4EBBD6E2356716EF202372 DUP6 DUP4 PUSH0 ADD PUSH0 SWAP1 SLOAD SWAP1 PUSH2 0x100 EXP SWAP1 DIV PUSH20 0xFFFFFFFFFFFFFFFFFFFFFFFFFFFFFFFFFFFFFFFF AND DUP4 PUSH1 0x40 MLOAD PUSH2 0x520 SWAP4 SWAP3 SWAP2 SWAP1 PUSH2 0xFB6 JUMP JUMPDEST PUSH1 0x40 MLOAD DUP1 SWAP2 SUB SWAP1 LOG1 POP POP POP POP POP JUMP JUMPDEST PUSH0 DUP3 GT PUSH2 0x571 JUMPI PUSH1 0x40 MLOAD PUSH32 0x8C379A000000000000000000000000000000000000000000000000000000000 DUP2 MSTORE PUSH1 0x4 ADD PUSH2 0x568 SWAP1 PUSH2 0x1035 JUMP JUMPDEST PUSH1 0x40 MLOAD DUP1 SWAP2 SUB SWAP1 REVERT JUMPDEST PUSH0 DUP2 GT PUSH2 0x5B3 JUMPI PUSH1 0x40 MLOAD PUSH32 0x8C379A000000000000000000000000000000000000000000000000000000000 DUP2 MSTORE PUSH1 0x4 ADD PUSH2 0x5AA SWAP1 PUSH2 0x109D JUMP JUMPDEST PUSH1 0x40 MLOAD DUP1 SWAP2 SUB SWAP1 REVERT JUMPDEST PUSH0 DUP2 TIMESTAMP PUSH2 0x5C0 SWAP2 SWAP1 PUSH2 0x10E8 JUMP JUMPDEST SWAP1 POP PUSH1 0x40 MLOAD DUP1 PUSH1 0xA0 ADD PUSH1 0x40 MSTORE DUP1 CALLER PUSH20 0xFFFFFFFFFFFFFFFFFFFFFFFFFFFFFFFFFFFFFFFF AND DUP2 MSTORE PUSH1 0x20 ADD DUP5 DUP2 MSTORE PUSH1 0x20 ADD DUP3 DUP2 MSTORE PUSH1 0x20 ADD PUSH0 DUP2 MSTORE PUSH1 0x20 ADD PUSH0 ISZERO ISZERO DUP2 MSTORE POP PUSH0 DUP1 PUSH1 0x1 SLOAD DUP2 MSTORE PUSH1 0x20 ADD SWAP1 DUP2 MSTORE PUSH1 0x20 ADD PUSH0 KECCAK256 PUSH0 DUP3 ADD MLOAD DUP2 PUSH0 ADD PUSH0 PUSH2 0x100 EXP DUP2 SLOAD DUP2 PUSH20 0xFFFFFFFFFFFFFFFFFFFFFFFFFFFFFFFFFFFFFFFF MUL NOT AND SWAP1 DUP4 PUSH20 0xFFFFFFFFFFFFFFFFFFFFFFFFFFFFFFFFFFFFFFFF AND MUL OR SWAP1 SSTORE POP PUSH1 0x20 DUP3 ADD MLOAD DUP2 PUSH1 0x1 ADD SSTORE PUSH1 0x40 DUP3 ADD MLOAD DUP2 PUSH1 0x2 ADD SSTORE PUSH1 0x60 DUP3 ADD MLOAD DUP2 PUSH1 0x3 ADD SSTORE PUSH1 0x80 DUP3 ADD MLOAD DUP2 PUSH1 0x4 ADD PUSH0 PUSH2 0x100 EXP DUP2 SLOAD DUP2 PUSH1 0xFF MUL NOT AND SWAP1 DUP4 ISZERO ISZERO MUL OR SWAP1 SSTORE POP SWAP1 POP POP PUSH32 0x91B289A829E71D811B8C69E4A24BA2D40D115D8A236E9A724CB3BB2D43CF7223 PUSH1 0x1 SLOAD CALLER DUP6 DUP5 PUSH1 0x40 MLOAD PUSH2 0x6CE SWAP5 SWAP4 SWAP3 SWAP2 SWAP1 PUSH2 0x111B JUMP JUMPDEST PUSH1 0x40 MLOAD DUP1 SWAP2 SUB SWAP1 LOG1 PUSH1 0x1 PUSH0 DUP2 SLOAD DUP1 SWAP3 SWAP2 SWAP1 PUSH2 0x6E8 SWAP1 PUSH2 0x115E JUMP JUMPDEST SWAP2 SWAP1 POP SSTORE POP POP POP POP JUMP JUMPDEST PUSH1 0x2 PUSH1 0x20 MSTORE DUP2 PUSH0 MSTORE PUSH1 0x40 PUSH0 KECCAK256 PUSH1 0x20 MSTORE DUP1 PUSH0 MSTORE PUSH1 0x40 PUSH0 KECCAK256 PUSH0 SWAP2 POP SWAP2 POP POP SLOAD DUP2 JUMP JUMPDEST PUSH0 DUP1 PUSH0 DUP1 PUSH0 DUP1 PUSH0 DUP1 DUP9 DUP2 MSTORE PUSH1 0x20 ADD SWAP1 DUP2 MSTORE PUSH1 0x20 ADD PUSH0 KECCAK256 SWAP1 POP DUP1 PUSH0 ADD PUSH0 SWAP1 SLOAD SWAP1 PUSH2 0x100 EXP SWAP1 DIV PUSH20 0xFFFFFFFFFFFFFFFFFFFFFFFFFFFFFFFFFFFFFFFF AND DUP2 PUSH1 0x1 ADD SLOAD DUP3 PUSH1 0x2 ADD SLOAD DUP4 PUSH1 0x3 ADD SLOAD DUP5 PUSH1 0x4 ADD PUSH0 SWAP1 SLOAD SWAP1 PUSH2 0x100 EXP SWAP1 DIV PUSH1 0xFF AND SWAP6 POP SWAP6 POP SWAP6 POP SWAP6 POP SWAP6 POP POP SWAP2 SWAP4 SWAP6 SWAP1 SWAP3 SWAP5 POP JUMP JUMPDEST PUSH1 0x1 SLOAD DUP2 JUMP JUMPDEST DUP1 PUSH0 DUP1 DUP3 DUP2 MSTORE PUSH1 0x20 ADD SWAP1 DUP2 MSTORE PUSH1 0x20 ADD PUSH0 KECCAK256 PUSH1 0x2 ADD SLOAD TIMESTAMP LT PUSH2 0x7DD JUMPI PUSH1 0x40 MLOAD PUSH32 0x8C379A000000000000000000000000000000000000000000000000000000000 DUP2 MSTORE PUSH1 0x4 ADD PUSH2 0x7D4 SWAP1 PUSH2 0x11EF JUMP JUMPDEST PUSH1 0x40 MLOAD DUP1 SWAP2 SUB SWAP1 REVERT JUMPDEST PUSH0 CALLVALUE GT PUSH2 0x81F JUMPI PUSH1 0x40 MLOAD PUSH32 0x8C379A000000000000000000000000000000000000000000000000000000000 DUP2 MSTORE PUSH1 0x4 ADD PUSH2 0x816 SWAP1 PUSH2 0x1257 JUMP JUMPDEST PUSH1 0x40 MLOAD DUP1 SWAP2 SUB SWAP1 REVERT JUMPDEST PUSH0 DUP1 PUSH0 DUP5 DUP2 MSTORE PUSH1 0x20 ADD SWAP1 DUP2 MSTORE PUSH1 0x20 ADD PUSH0 KECCAK256 SWAP1 POP CALLVALUE DUP2 PUSH1 0x3 ADD PUSH0 DUP3 DUP3 SLOAD PUSH2 0x845 SWAP2 SWAP1 PUSH2 0x10E8 JUMP JUMPDEST SWAP3 POP POP DUP2 SWAP1 SSTORE POP CALLVALUE PUSH1 0x2 PUSH0 DUP6 DUP2 MSTORE PUSH1 0x20 ADD SWAP1 DUP2 MSTORE PUSH1 0x20 ADD PUSH0 KECCAK256 PUSH0 CALLER PUSH20 0xFFFFFFFFFFFFFFFFFFFFFFFFFFFFFFFFFFFFFFFF AND PUSH20 0xFFFFFFFFFFFFFFFFFFFFFFFFFFFFFFFFFFFFFFFF AND DUP2 MSTORE PUSH1 0x20 ADD SWAP1 DUP2 MSTORE PUSH1 0x20 ADD PUSH0 KECCAK256 PUSH0 DUP3 DUP3 SLOAD PUSH2 0x8A7 SWAP2 SWAP1 PUSH2 0x10E8 JUMP JUMPDEST SWAP3 POP POP DUP2 SWAP1 SSTORE POP PUSH32 0x2757AC6A40883F4491CC56930AE964DF9034E343E660D5179EB01E198336756B DUP4 CALLER CALLVALUE PUSH1 0x40 MLOAD PUSH2 0x8E1 SWAP4 SWAP3 SWAP2 SWAP1 PUSH2 0x1275 JUMP JUMPDEST PUSH1 0x40 MLOAD DUP1 SWAP2 SUB SWAP1 LOG1 POP POP POP JUMP JUMPDEST DUP1 PUSH0 DUP1 DUP3 DUP2 MSTORE PUSH1 0x20 ADD SWAP1 DUP2 MSTORE PUSH1 0x20 ADD PUSH0 KECCAK256 PUSH1 0x2 ADD SLOAD TIMESTAMP LT ISZERO PUSH2 0x945 JUMPI PUSH1 0x40 MLOAD PUSH32 0x8C379A000000000000000000000000000000000000000000000000000000000 DUP2 MSTORE PUSH1 0x4 ADD PUSH2 0x93C SWAP1 PUSH2 0xE6D JUMP JUMPDEST PUSH1 0x40 MLOAD DUP1 SWAP2 SUB SWAP1 REVERT JUMPDEST PUSH0 DUP1 PUSH0 DUP5 DUP2 MSTORE PUSH1 0x20 ADD SWAP1 DUP2 MSTORE PUSH1 0x20 ADD PUSH0 KECCAK256 SWAP1 POP DUP1 PUSH1 0x1 ADD SLOAD DUP2 PUSH1 0x3 ADD SLOAD LT PUSH2 0x9A2 JUMPI PUSH1 0x40 MLOAD PUSH32 0x8C379A000000000000000000000000000000000000000000000000000000000 DUP2 MSTORE PUSH1 0x4 ADD PUSH2 0x999 SWAP1 PUSH2 0x12F4 JUMP JUMPDEST PUSH1 0x40 MLOAD DUP1 SWAP2 SUB SWAP1 REVERT JUMPDEST PUSH0 PUSH1 0x2 PUSH0 DUP6 DUP2 MSTORE PUSH1 0x20 ADD SWAP1 DUP2 MSTORE PUSH1 0x20 ADD PUSH0 KECCAK256 PUSH0 CALLER PUSH20 0xFFFFFFFFFFFFFFFFFFFFFFFFFFFFFFFFFFFFFFFF AND PUSH20 0xFFFFFFFFFFFFFFFFFFFFFFFFFFFFFFFFFFFFFFFF AND DUP2 MSTORE PUSH1 0x20 ADD SWAP1 DUP2 MSTORE PUSH1 0x20 ADD PUSH0 KECCAK256 SLOAD SWAP1 POP PUSH0 DUP2 GT PUSH2 0xA34 JUMPI PUSH1 0x40 MLOAD PUSH32 0x8C379A000000000000000000000000000000000000000000000000000000000 DUP2 MSTORE PUSH1 0x4 ADD PUSH2 0xA2B SWAP1 PUSH2 0x135C JUMP JUMPDEST PUSH1 0x40 MLOAD DUP1 SWAP2 SUB SWAP1 REVERT JUMPDEST PUSH0 PUSH1 0x2 PUSH0 DUP7 DUP2 MSTORE PUSH1 0x20 ADD SWAP1 DUP2 MSTORE PUSH1 0x20 ADD PUSH0 KECCAK256 PUSH0 CALLER PUSH20 0xFFFFFFFFFFFFFFFFFFFFFFFFFFFFFFFFFFFFFFFF AND PUSH20 0xFFFFFFFFFFFFFFFFFFFFFFFFFFFFFFFFFFFFFFFF AND DUP2 MSTORE PUSH1 0x20 ADD SWAP1 DUP2 MSTORE PUSH1 0x20 ADD PUSH0 KECCAK256 DUP2 SWAP1 SSTORE POP CALLER PUSH20 0xFFFFFFFFFFFFFFFFFFFFFFFFFFFFFFFFFFFFFFFF AND PUSH2 0x8FC DUP3 SWAP1 DUP2 ISZERO MUL SWAP1 PUSH1 0x40 MLOAD PUSH0 PUSH1 0x40 MLOAD DUP1 DUP4 SUB DUP2 DUP6 DUP9 DUP9 CALL SWAP4 POP POP POP POP ISZERO DUP1 ISZERO PUSH2 0xAC8 JUMPI RETURNDATASIZE PUSH0 DUP1 RETURNDATACOPY RETURNDATASIZE PUSH0 REVERT JUMPDEST POP PUSH32 0x7CA5472B7EA78C2C0141C5A12EE6D170CF4CE8ED06BE3D22C8252DDFC7A6A2C4 DUP5 CALLER DUP4 PUSH1 0x40 MLOAD PUSH2 0xAFC SWAP4 SWAP3 SWAP2 SWAP1 PUSH2 0x1275 JUMP JUMPDEST PUSH1 0x40 MLOAD DUP1 SWAP2 SUB SWAP1 LOG1 POP POP POP POP JUMP JUMPDEST PUSH0 PUSH1 0x2 PUSH0 DUP5 DUP2 MSTORE PUSH1 0x20 ADD SWAP1 DUP2 MSTORE PUSH1 0x20 ADD PUSH0 KECCAK256 PUSH0 DUP4 PUSH20 0xFFFFFFFFFFFFFFFFFFFFFFFFFFFFFFFFFFFFFFFF AND PUSH20 0xFFFFFFFFFFFFFFFFFFFFFFFFFFFFFFFFFFFFFFFF AND DUP2 MSTORE PUSH1 0x20 ADD SWAP1 DUP2 MSTORE PUSH1 0x20 ADD PUSH0 KECCAK256 SLOAD SWAP1 POP SWAP3 SWAP2 POP POP JUMP JUMPDEST PUSH0 DUP1 REVERT JUMPDEST PUSH0 DUP2 SWAP1 POP SWAP2 SWAP1 POP JUMP JUMPDEST PUSH2 0xB76 DUP2 PUSH2 0xB64 JUMP JUMPDEST DUP2 EQ PUSH2 0xB80 JUMPI PUSH0 DUP1 REVERT JUMPDEST POP JUMP JUMPDEST PUSH0 DUP2 CALLDATALOAD SWAP1 POP PUSH2 0xB91 DUP2 PUSH2 0xB6D JUMP JUMPDEST SWAP3 SWAP2 POP POP JUMP JUMPDEST PUSH0 PUSH1 0x20 DUP3 DUP5 SUB SLT ISZERO PUSH2 0xBAC JUMPI PUSH2 0xBAB PUSH2 0xB60 JUMP JUMPDEST JUMPDEST PUSH0 PUSH2 0xBB9 DUP5 DUP3 DUP6 ADD PUSH2 0xB83 JUMP JUMPDEST SWAP2 POP POP SWAP3 SWAP2 POP POP JUMP JUMPDEST PUSH0 PUSH20 0xFFFFFFFFFFFFFFFFFFFFFFFFFFFFFFFFFFFFFFFF DUP3 AND SWAP1 POP SWAP2 SWAP1 POP JUMP JUMPDEST PUSH0 PUSH2 0xBEB DUP3 PUSH2 0xBC2 JUMP JUMPDEST SWAP1 POP SWAP2 SWAP1 POP JUMP JUMPDEST PUSH2 0xBFB DUP2 PUSH2 0xBE1 JUMP JUMPDEST DUP3 MSTORE POP POP JUMP JUMPDEST PUSH2 0xC0A DUP2 PUSH2 0xB64 JUMP JUMPDEST DUP3 MSTORE POP POP JUMP JUMPDEST PUSH0 DUP2 ISZERO ISZERO SWAP1 POP SWAP2 SWAP1 POP JUMP JUMPDEST PUSH2 0xC24 DUP2 PUSH2 0xC10 JUMP JUMPDEST DUP3 MSTORE POP POP JUMP JUMPDEST PUSH0 PUSH1 0xA0 DUP3 ADD SWAP1 POP PUSH2 0xC3D PUSH0 DUP4 ADD DUP9 PUSH2 0xBF2 JUMP JUMPDEST PUSH2 0xC4A PUSH1 0x20 DUP4 ADD DUP8 PUSH2 0xC01 JUMP JUMPDEST PUSH2 0xC57 PUSH1 0x40 DUP4 ADD DUP7 PUSH2 0xC01 JUMP JUMPDEST PUSH2 0xC64 PUSH1 0x60 DUP4 ADD DUP6 PUSH2 0xC01 JUMP JUMPDEST PUSH2 0xC71 PUSH1 0x80 DUP4 ADD DUP5 PUSH2 0xC1B JUMP JUMPDEST SWAP7 SWAP6 POP POP POP POP POP POP JUMP JUMPDEST PUSH0 DUP1 PUSH1 0x40 DUP4 DUP6 SUB SLT ISZERO PUSH2 0xC91 JUMPI PUSH2 0xC90 PUSH2 0xB60 JUMP JUMPDEST JUMPDEST PUSH0 PUSH2 0xC9E DUP6 DUP3 DUP7 ADD PUSH2 0xB83 JUMP JUMPDEST SWAP3 POP POP PUSH1 0x20 PUSH2 0xCAF DUP6 DUP3 DUP7 ADD PUSH2 0xB83 JUMP JUMPDEST SWAP2 POP POP SWAP3 POP SWAP3 SWAP1 POP JUMP JUMPDEST PUSH0 PUSH2 0xCC3 DUP3 PUSH2 0xBC2 JUMP JUMPDEST SWAP1 POP SWAP2 SWAP1 POP JUMP JUMPDEST PUSH2 0xCD3 DUP2 PUSH2 0xCB9 JUMP JUMPDEST DUP2 EQ PUSH2 0xCDD JUMPI PUSH0 DUP1 REVERT JUMPDEST POP JUMP JUMPDEST PUSH0 DUP2 CALLDATALOAD SWAP1 POP PUSH2 0xCEE DUP2 PUSH2 0xCCA JUMP JUMPDEST SWAP3 SWAP2 POP POP JUMP JUMPDEST PUSH0 DUP1 PUSH1 0x40 DUP4 DUP6 SUB SLT ISZERO PUSH2 0xD0A JUMPI PUSH2 0xD09 PUSH2 0xB60 JUMP JUMPDEST JUMPDEST PUSH0 PUSH2 0xD17 DUP6 DUP3 DUP7 ADD PUSH2 0xB83 JUMP JUMPDEST SWAP3 POP POP PUSH1 0x20 PUSH2 0xD28 DUP6 DUP3 DUP7 ADD PUSH2 0xCE0 JUMP JUMPDEST SWAP2 POP POP SWAP3 POP SWAP3 SWAP1 POP JUMP JUMPDEST PUSH0 PUSH1 0x20 DUP3 ADD SWAP1 POP PUSH2 0xD45 PUSH0 DUP4 ADD DUP5 PUSH2 0xC01 JUMP JUMPDEST SWAP3 SWAP2 POP POP JUMP JUMPDEST PUSH2 0xD54 DUP2 PUSH2 0xCB9 JUMP JUMPDEST DUP3 MSTORE POP POP JUMP JUMPDEST PUSH0 PUSH1 0xA0 DUP3 ADD SWAP1 POP PUSH2 0xD6D PUSH0 DUP4 ADD DUP9 PUSH2 0xD4B JUMP JUMPDEST PUSH2 0xD7A PUSH1 0x20 DUP4 ADD DUP8 PUSH2 0xC01 JUMP JUMPDEST PUSH2 0xD87 PUSH1 0x40 DUP4 ADD DUP7 PUSH2 0xC01 JUMP JUMPDEST PUSH2 0xD94 PUSH1 0x60 DUP4 ADD DUP6 PUSH2 0xC01 JUMP JUMPDEST PUSH2 0xDA1 PUSH1 0x80 DUP4 ADD DUP5 PUSH2 0xC1B JUMP JUMPDEST SWAP7 SWAP6 POP POP POP POP POP POP JUMP JUMPDEST PUSH0 DUP3 DUP3 MSTORE PUSH1 0x20 DUP3 ADD SWAP1 POP SWAP3 SWAP2 POP POP JUMP JUMPDEST PUSH32 0x4E6F742063616D706169676E206F776E65720000000000000000000000000000 PUSH0 DUP3 ADD MSTORE POP JUMP JUMPDEST PUSH0 PUSH2 0xDEF PUSH1 0x12 DUP4 PUSH2 0xDAB JUMP JUMPDEST SWAP2 POP PUSH2 0xDFA DUP3 PUSH2 0xDBB JUMP JUMPDEST PUSH1 0x20 DUP3 ADD SWAP1 POP SWAP2 SWAP1 POP JUMP JUMPDEST PUSH0 PUSH1 0x20 DUP3 ADD SWAP1 POP DUP2 DUP2 SUB PUSH0 DUP4 ADD MSTORE PUSH2 0xE1C DUP2 PUSH2 0xDE3 JUMP JUMPDEST SWAP1 POP SWAP2 SWAP1 POP JUMP JUMPDEST PUSH32 0x43616D706169676E206973207374696C6C206F6E676F696E6700000000000000 PUSH0 DUP3 ADD MSTORE POP JUMP JUMPDEST PUSH0 PUSH2 0xE57 PUSH1 0x19 DUP4 PUSH2 0xDAB JUMP JUMPDEST SWAP2 POP PUSH2 0xE62 DUP3 PUSH2 0xE23 JUMP JUMPDEST PUSH1 0x20 DUP3 ADD SWAP1 POP SWAP2 SWAP1 POP JUMP JUMPDEST PUSH0 PUSH1 0x20 DUP3 ADD SWAP1 POP DUP2 DUP2 SUB PUSH0 DUP4 ADD MSTORE PUSH2 0xE84 DUP2 PUSH2 0xE4B JUMP JUMPDEST SWAP1 POP SWAP2 SWAP1 POP JUMP JUMPDEST PUSH32 0x476F616C206E6F74206D65740000000000000000000000000000000000000000 PUSH0 DUP3 ADD MSTORE POP JUMP JUMPDEST PUSH0 PUSH2 0xEBF PUSH1 0xC DUP4 PUSH2 0xDAB JUMP JUMPDEST SWAP2 POP PUSH2 0xECA DUP3 PUSH2 0xE8B JUMP JUMPDEST PUSH1 0x20 DUP3 ADD SWAP1 POP SWAP2 SWAP1 POP JUMP JUMPDEST PUSH0 PUSH1 0x20 DUP3 ADD SWAP1 POP DUP2 DUP2 SUB PUSH0 DUP4 ADD MSTORE PUSH2 0xEEC DUP2 PUSH2 0xEB3 JUMP JUMPDEST SWAP1 POP SWAP2 SWAP1 POP JUMP JUMPDEST PUSH32 0x46756E647320616C726561647920636C61696D65640000000000000000000000 PUSH0 DUP3 ADD MSTORE POP JUMP JUMPDEST PUSH0 PUSH2 0xF27 PUSH1 0x15 DUP4 PUSH2 0xDAB JUMP JUMPDEST SWAP2 POP PUSH2 0xF32 DUP3 PUSH2 0xEF3 JUMP JUMPDEST PUSH1 0x20 DUP3 ADD SWAP1 POP SWAP2 SWAP1 POP JUMP JUMPDEST PUSH0 PUSH1 0x20 DUP3 ADD SWAP1 POP DUP2 DUP2 SUB PUSH0 DUP4 ADD MSTORE PUSH2 0xF54 DUP2 PUSH2 0xF1B JUMP JUMPDEST SWAP1 POP SWAP2 SWAP1 POP JUMP JUMPDEST PUSH0 DUP2 SWAP1 POP SWAP2 SWAP1 POP JUMP JUMPDEST PUSH0 PUSH2 0xF7E PUSH2 0xF79 PUSH2 0xF74 DUP5 PUSH2 0xBC2 JUMP JUMPDEST PUSH2 0xF5B JUMP JUMPDEST PUSH2 0xBC2 JUMP JUMPDEST SWAP1 POP SWAP2 SWAP1 POP JUMP JUMPDEST PUSH0 PUSH2 0xF8F DUP3 PUSH2 0xF64 JUMP JUMPDEST SWAP1 POP SWAP2 SWAP1 POP JUMP JUMPDEST PUSH0 PUSH2 0xFA0 DUP3 PUSH2 0xF85 JUMP JUMPDEST SWAP1 POP SWAP2 SWAP1 POP JUMP JUMPDEST PUSH2 0xFB0 DUP2 PUSH2 0xF96 JUMP JUMPDEST DUP3 MSTORE POP POP JUMP JUMPDEST PUSH0 PUSH1 0x60 DUP3 ADD SWAP1 POP PUSH2 0xFC9 PUSH0 DUP4 ADD DUP7 PUSH2 0xC01 JUMP JUMPDEST PUSH2 0xFD6 PUSH1 0x20 DUP4 ADD DUP6 PUSH2 0xFA7 JUMP JUMPDEST PUSH2 0xFE3 PUSH1 0x40 DUP4 ADD DUP5 PUSH2 0xC01 JUMP JUMPDEST SWAP5 SWAP4 POP POP POP POP JUMP JUMPDEST PUSH32 0x476F616C206D7573742062652067726561746572207468616E20300000000000 PUSH0 DUP3 ADD MSTORE POP JUMP JUMPDEST PUSH0 PUSH2 0x101F PUSH1 0x1B DUP4 PUSH2 0xDAB JUMP JUMPDEST SWAP2 POP PUSH2 0x102A DUP3 PUSH2 0xFEB JUMP JUMPDEST PUSH1 0x20 DUP3 ADD SWAP1 POP SWAP2 SWAP1 POP JUMP JUMPDEST PUSH0 PUSH1 0x20 DUP3 ADD SWAP1 POP DUP2 DUP2 SUB PUSH0 DUP4 ADD MSTORE PUSH2 0x104C DUP2 PUSH2 0x1013 JUMP JUMPDEST SWAP1 POP SWAP2 SWAP1 POP JUMP JUMPDEST PUSH32 0x4475726174696F6E206D7573742062652067726561746572207468616E203000 PUSH0 DUP3 ADD MSTORE POP JUMP JUMPDEST PUSH0 PUSH2 0x1087 PUSH1 0x1F DUP4 PUSH2 0xDAB JUMP JUMPDEST SWAP2 POP PUSH2 0x1092 DUP3 PUSH2 0x1053 JUMP JUMPDEST PUSH1 0x20 DUP3 ADD SWAP1 POP SWAP2 SWAP1 POP JUMP JUMPDEST PUSH0 PUSH1 0x20 DUP3 ADD SWAP1 POP DUP2 DUP2 SUB PUSH0 DUP4 ADD MSTORE PUSH2 0x10B4 DUP2 PUSH2 0x107B JUMP JUMPDEST SWAP1 POP SWAP2 SWAP1 POP JUMP JUMPDEST PUSH32 0x4E487B7100000000000000000000000000000000000000000000000000000000 PUSH0 MSTORE PUSH1 0x11 PUSH1 0x4 MSTORE PUSH1 0x24 PUSH0 REVERT JUMPDEST PUSH0 PUSH2 0x10F2 DUP3 PUSH2 0xB64 JUMP JUMPDEST SWAP2 POP PUSH2 0x10FD DUP4 PUSH2 0xB64 JUMP JUMPDEST SWAP3 POP DUP3 DUP3 ADD SWAP1 POP DUP1 DUP3 GT ISZERO PUSH2 0x1115 JUMPI PUSH2 0x1114 PUSH2 0x10BB JUMP JUMPDEST JUMPDEST SWAP3 SWAP2 POP POP JUMP JUMPDEST PUSH0 PUSH1 0x80 DUP3 ADD SWAP1 POP PUSH2 0x112E PUSH0 DUP4 ADD DUP8 PUSH2 0xC01 JUMP JUMPDEST PUSH2 0x113B PUSH1 0x20 DUP4 ADD DUP7 PUSH2 0xD4B JUMP JUMPDEST PUSH2 0x1148 PUSH1 0x40 DUP4 ADD DUP6 PUSH2 0xC01 JUMP JUMPDEST PUSH2 0x1155 PUSH1 0x60 DUP4 ADD DUP5 PUSH2 0xC01 JUMP JUMPDEST SWAP6 SWAP5 POP POP POP POP POP JUMP JUMPDEST PUSH0 PUSH2 0x1168 DUP3 PUSH2 0xB64 JUMP JUMPDEST SWAP2 POP PUSH32 0xFFFFFFFFFFFFFFFFFFFFFFFFFFFFFFFFFFFFFFFFFFFFFFFFFFFFFFFFFFFFFFFF DUP3 SUB PUSH2 0x119A JUMPI PUSH2 0x1199 PUSH2 0x10BB JUMP JUMPDEST JUMPDEST PUSH1 0x1 DUP3 ADD SWAP1 POP SWAP2 SWAP1 POP JUMP JUMPDEST PUSH32 0x43616D706169676E2068617320656E6465640000000000000000000000000000 PUSH0 DUP3 ADD MSTORE POP JUMP JUMPDEST PUSH0 PUSH2 0x11D9 PUSH1 0x12 DUP4 PUSH2 0xDAB JUMP JUMPDEST SWAP2 POP PUSH2 0x11E4 DUP3 PUSH2 0x11A5 JUMP JUMPDEST PUSH1 0x20 DUP3 ADD SWAP1 POP SWAP2 SWAP1 POP JUMP JUMPDEST PUSH0 PUSH1 0x20 DUP3 ADD SWAP1 POP DUP2 DUP2 SUB PUSH0 DUP4 ADD MSTORE PUSH2 0x1206 DUP2 PUSH2 0x11CD JUMP JUMPDEST SWAP1 POP SWAP2 SWAP1 POP JUMP JUMPDEST PUSH32 0x506C65646765206D7573742062652067726561746572207468616E2030000000 PUSH0 DUP3 ADD MSTORE POP JUMP JUMPDEST PUSH0 PUSH2 0x1241 PUSH1 0x1D DUP4 PUSH2 0xDAB JUMP JUMPDEST SWAP2 POP PUSH2 0x124C DUP3 PUSH2 0x120D JUMP JUMPDEST PUSH1 0x20 DUP3 ADD SWAP1 POP SWAP2 SWAP1 POP JUMP JUMPDEST PUSH0 PUSH1 0x20 DUP3 ADD SWAP1 POP DUP2 DUP2 SUB PUSH0 DUP4 ADD MSTORE PUSH2 0x126E DUP2 PUSH2 0x1235 JUMP JUMPDEST SWAP1 POP SWAP2 SWAP1 POP JUMP JUMPDEST PUSH0 PUSH1 0x60 DUP3 ADD SWAP1 POP PUSH2 0x1288 PUSH0 DUP4 ADD DUP7 PUSH2 0xC01 JUMP JUMPDEST PUSH2 0x1295 PUSH1 0x20 DUP4 ADD DUP6 PUSH2 0xD4B JUMP JUMPDEST PUSH2 0x12A2 PUSH1 0x40 DUP4 ADD DUP5 PUSH2 0xC01 JUMP JUMPDEST SWAP5 SWAP4 POP POP POP POP JUMP JUMPDEST PUSH32 0x43616D706169676E20776173207375636365737366756C000000000000000000 PUSH0 DUP3 ADD MSTORE POP JUMP JUMPDEST PUSH0 PUSH2 0x12DE PUSH1 0x17 DUP4 PUSH2 0xDAB JUMP JUMPDEST SWAP2 POP PUSH2 0x12E9 DUP3 PUSH2 0x12AA JUMP JUMPDEST PUSH1 0x20 DUP3 ADD SWAP1 POP SWAP2 SWAP1 POP JUMP JUMPDEST PUSH0 PUSH1 0x20 DUP3 ADD SWAP1 POP DUP2 DUP2 SUB PUSH0 DUP4 ADD MSTORE PUSH2 0x130B DUP2 PUSH2 0x12D2 JUMP JUMPDEST SWAP1 POP SWAP2 SWAP1 POP JUMP JUMPDEST PUSH32 0x4E6F20636F6E747269627574696F6E7320746F20726566756E64000000000000 PUSH0 DUP3 ADD MSTORE POP JUMP JUMPDEST PUSH0 PUSH2 0x1346 PUSH1 0x1A DUP4 PUSH2 0xDAB JUMP JUMPDEST SWAP2 POP PUSH2 0x1351 DUP3 PUSH2 0x1312 JUMP JUMPDEST PUSH1 0x20 DUP3 ADD SWAP1 POP SWAP2 SWAP1 POP JUMP JUMPDEST PUSH0 PUSH1 0x20 DUP3 ADD SWAP1 POP DUP2 DUP2 SUB PUSH0 DUP4 ADD MSTORE PUSH2 0x1373 DUP2 PUSH2 0x133A JUMP JUMPDEST SWAP1 POP SWAP2 SWAP1 POP JUMP INVALID LOG2 PUSH5 0x6970667358 0x22 SLT KECCAK256 0xCA 0xE8 0xC1 PUSH16 0x7B8F3149A497C69A48FD9C2D59596136 PUSH32 0xD5BC88794C90629A06139764736F6C634300081A003300000000000000000000 "
				},
				"gasEstimates": {
					"creation": {
						"codeDepositCost": "1008000",
						"executionCost": "1045",
						"totalCost": "1009045"
					},
					"external": {
						"campaignCount()": "2447",
						"campaigns(uint256)": "infinite",
						"contributions(uint256,address)": "infinite",
						"createCampaign(uint256,uint256)": "infinite",
						"getCampaign(uint256)": "infinite",
						"getContribution(uint256,address)": "infinite",
						"pledge(uint256)": "infinite",
						"requestRefund(uint256)": "infinite",
						"withdrawFunds(uint256)": "infinite"
					}
				},
				"methodIdentifiers": {
					"campaignCount()": "7274e30d",
					"campaigns(uint256)": "141961bc",
					"contributions(uint256,address)": "3d891f59",
					"createCampaign(uint256,uint256)": "22502268",
					"getCampaign(uint256)": "5598f8cc",
					"getContribution(uint256,address)": "e081dbf9",
					"pledge(uint256)": "7326c9c0",
					"requestRefund(uint256)": "a4b2409e",
					"withdrawFunds(uint256)": "155dd5ee"
				}
			},
			"storageLayout": {
				"storage": [
					{
						"astId": 17,
						"contract": "crowdfunding.sol:CrowdfundingPlatform",
						"label": "campaigns",
						"offset": 0,
						"slot": "0",
						"type": "t_mapping(t_uint256,t_struct(Campaign)12_storage)"
					},
					{
						"astId": 19,
						"contract": "crowdfunding.sol:CrowdfundingPlatform",
						"label": "campaignCount",
						"offset": 0,
						"slot": "1",
						"type": "t_uint256"
					},
					{
						"astId": 25,
						"contract": "crowdfunding.sol:CrowdfundingPlatform",
						"label": "contributions",
						"offset": 0,
						"slot": "2",
						"type": "t_mapping(t_uint256,t_mapping(t_address,t_uint256))"
					}
				],
				"types": {
					"t_address": {
						"encoding": "inplace",
						"label": "address",
						"numberOfBytes": "20"
					},
					"t_address_payable": {
						"encoding": "inplace",
						"label": "address payable",
						"numberOfBytes": "20"
					},
					"t_bool": {
						"encoding": "inplace",
						"label": "bool",
						"numberOfBytes": "1"
					},
					"t_mapping(t_address,t_uint256)": {
						"encoding": "mapping",
						"key": "t_address",
						"label": "mapping(address => uint256)",
						"numberOfBytes": "32",
						"value": "t_uint256"
					},
					"t_mapping(t_uint256,t_mapping(t_address,t_uint256))": {
						"encoding": "mapping",
						"key": "t_uint256",
						"label": "mapping(uint256 => mapping(address => uint256))",
						"numberOfBytes": "32",
						"value": "t_mapping(t_address,t_uint256)"
					},
					"t_mapping(t_uint256,t_struct(Campaign)12_storage)": {
						"encoding": "mapping",
						"key": "t_uint256",
						"label": "mapping(uint256 => struct CrowdfundingPlatform.Campaign)",
						"numberOfBytes": "32",
						"value": "t_struct(Campaign)12_storage"
					},
					"t_struct(Campaign)12_storage": {
						"encoding": "inplace",
						"label": "struct CrowdfundingPlatform.Campaign",
						"members": [
							{
								"astId": 3,
								"contract": "crowdfunding.sol:CrowdfundingPlatform",
								"label": "owner",
								"offset": 0,
								"slot": "0",
								"type": "t_address_payable"
							},
							{
								"astId": 5,
								"contract": "crowdfunding.sol:CrowdfundingPlatform",
								"label": "goal",
								"offset": 0,
								"slot": "1",
								"type": "t_uint256"
							},
							{
								"astId": 7,
								"contract": "crowdfunding.sol:CrowdfundingPlatform",
								"label": "deadline",
								"offset": 0,
								"slot": "2",
								"type": "t_uint256"
							},
							{
								"astId": 9,
								"contract": "crowdfunding.sol:CrowdfundingPlatform",
								"label": "pledgedAmount",
								"offset": 0,
								"slot": "3",
								"type": "t_uint256"
							},
							{
								"astId": 11,
								"contract": "crowdfunding.sol:CrowdfundingPlatform",
								"label": "claimed",
								"offset": 0,
								"slot": "4",
								"type": "t_bool"
							}
						],
						"numberOfBytes": "160"
					},
					"t_uint256": {
						"encoding": "inplace",
						"label": "uint256",
						"numberOfBytes": "32"
					}
				}
			},
			"userdoc": {
				"kind": "user",
				"methods": {},
				"version": 1
			}
		}
	}
}