{
	"data": {
		"bytecode": {
			"linkReferences": {},
			"object": "60806040525f6002555f6003555f600455348015601a575f80fd5b50612b8e806100285f395ff3fe60806040526004361061009b575f3560e01c80637681466c116100635780637681466c1461017c578063900b3b53146101a4578063ccc3e83a146101ce578063d9e8843f14610213578063e1590cb61461022f578063f5b46a651461024b5761009b565b806316abb8a11461009f5780631f261a82146100bb57806359e2cbec146100e3578063646fc1001461010d57806375eb9ef614610152575b5f80fd5b6100b960048036038101906100b49190611d96565b61028f565b005b3480156100c6575f80fd5b506100e160048036038101906100dc9190611efd565b61059d565b005b3480156100ee575f80fd5b506100f7610788565b6040516101049190611fa8565b60405180910390f35b348015610118575f80fd5b50610133600480360381019061012e9190611d96565b61078e565b6040516101499a9998979695949392919061207a565b60405180910390f35b34801561015d575f80fd5b50610166610935565b6040516101739190611fa8565b60405180910390f35b348015610187575f80fd5b506101a2600480360381019061019d9190611d96565b61093b565b005b3480156101af575f80fd5b506101b8610aea565b6040516101c59190611fa8565b60405180910390f35b3480156101d9575f80fd5b506101f460048036038101906101ef9190611d96565b610af0565b60405161020a9a99989796959493929190612122565b60405180910390f35b61022d60048036038101906102289190611d96565b610c8a565b005b610249600480360381019061024491906121ca565b6112ab565b005b348015610256575f80fd5b50610271600480360381019061026c9190611d96565b611bbe565b60405161028699989796959493929190612208565b60405180910390f35b8060055f8281526020019081526020015f2060070160019054906101000a900473ffffffffffffffffffffffffffffffffffffffff1673ffffffffffffffffffffffffffffffffffffffff163373ffffffffffffffffffffffffffffffffffffffff1614610332576040517f08c379a0000000000000000000000000000000000000000000000000000000008152600401610329906122eb565b60405180910390fd5b815f60065f60055f8581526020019081526020015f206001015481526020019081526020015f206006015460065f60055f8681526020019081526020015f206001015481526020019081526020015f20600701546103909190612336565b90508042116103d4576040517f08c379a00000000000000000000000000000000000000000000000000000000081526004016103cb906123b3565b60405180910390fd5b5f73ffffffffffffffffffffffffffffffffffffffff163373ffffffffffffffffffffffffffffffffffffffff160361040b575f80fd5b5f151560055f8681526020019081526020015f206007015f9054906101000a900460ff16151514610471576040517f08c379a00000000000000000000000000000000000000000000000000000000081526004016104689061241b565b60405180910390fd5b600160055f8681526020019081526020015f206007015f6101000a81548160ff0219169083151502179055505f60055f8681526020019081526020015f206008015f9054906101000a900473ffffffffffffffffffffffffffffffffffffffff1690505f60055f8781526020019081526020015f206005015490505f8273ffffffffffffffffffffffffffffffffffffffff168260405161051190612466565b5f6040518083038185875af1925050503d805f811461054b576040519150601f19603f3d011682016040523d82523d5f602084013e610550565b606091505b5050905080610594576040517f08c379a000000000000000000000000000000000000000000000000000000000815260040161058b906124c4565b60405180910390fd5b50505050505050565b5f73ffffffffffffffffffffffffffffffffffffffff163373ffffffffffffffffffffffffffffffffffffffff16036105d4575f80fd5b60025f8154809291906105e6906124e2565b919050555060405180610140016040528060025481526020015f81526020018581526020018481526020018381526020018281526020015f81526020016001151581526020013373ffffffffffffffffffffffffffffffffffffffff1681526020015f73ffffffffffffffffffffffffffffffffffffffff1681525060055f60025481526020019081526020015f205f820151815f015560208201518160010155604082015181600201908161069c9190612723565b5060608201518160030190816106b29190612723565b506080820151816004015560a0820151816005015560c0820151816006015560e0820151816007015f6101000a81548160ff0219169083151502179055506101008201518160070160016101000a81548173ffffffffffffffffffffffffffffffffffffffff021916908373ffffffffffffffffffffffffffffffffffffffff160217905550610120820151816008015f6101000a81548173ffffffffffffffffffffffffffffffffffffffff021916908373ffffffffffffffffffffffffffffffffffffffff16021790555090505050505050565b60025481565b6005602052805f5260405f205f91509050805f0154908060010154908060020180546107b990612556565b80601f01602080910402602001604051908101604052809291908181526020018280546107e590612556565b80156108305780601f1061080757610100808354040283529160200191610830565b820191905f5260205f20905b81548152906001019060200180831161081357829003601f168201915b50505050509080600301805461084590612556565b80601f016020809104026020016040519081016040528092919081815260200182805461087190612556565b80156108bc5780601f10610893576101008083540402835291602001916108bc565b820191905f5260205f20905b81548152906001019060200180831161089f57829003601f168201915b505050505090806004015490806005015490806006015490806007015f9054906101000a900460ff16908060070160019054906101000a900473ffffffffffffffffffffffffffffffffffffffff1690806008015f9054906101000a900473ffffffffffffffffffffffffffffffffffffffff1690508a565b60045481565b8060055f8281526020019081526020015f2060070160019054906101000a900473ffffffffffffffffffffffffffffffffffffffff1673ffffffffffffffffffffffffffffffffffffffff163373ffffffffffffffffffffffffffffffffffffffff16146109de576040517f08c379a00000000000000000000000000000000000000000000000000000000081526004016109d5906122eb565b60405180910390fd5b815f60065f60055f8581526020019081526020015f206001015481526020019081526020015f206006015460065f60055f8681526020019081526020015f206001015481526020019081526020015f2060070154610a3c9190612336565b905080421115610a81576040517f08c379a0000000000000000000000000000000000000000000000000000000008152600401610a789061283c565b60405180910390fd5b5f73ffffffffffffffffffffffffffffffffffffffff163373ffffffffffffffffffffffffffffffffffffffff1603610ab8575f80fd5b600160055f8681526020019081526020015f206007015f6101000a81548160ff02191690831515021790555050505050565b60035481565b6006602052805f5260405f205f91509050805f015490806001015490806002018054610b1b90612556565b80601f0160208091040260200160405190810160405280929190818152602001828054610b4790612556565b8015610b925780601f10610b6957610100808354040283529160200191610b92565b820191905f5260205f20905b815481529060010190602001808311610b7557829003601f168201915b505050505090806003018054610ba790612556565b80601f0160208091040260200160405190810160405280929190818152602001828054610bd390612556565b8015610c1e5780601f10610bf557610100808354040283529160200191610c1e565b820191905f5260205f20905b815481529060010190602001808311610c0157829003601f168201915b505050505090806004015490806005015490806006015490806007015490806008015f9054906101000a900473ffffffffffffffffffffffffffffffffffffffff1690806009015f9054906101000a900473ffffffffffffffffffffffffffffffffffffffff1690508a565b8060055f8281526020019081526020015f206008015f9054906101000a900473ffffffffffffffffffffffffffffffffffffffff1673ffffffffffffffffffffffffffffffffffffffff163373ffffffffffffffffffffffffffffffffffffffff1614610d2c576040517f08c379a0000000000000000000000000000000000000000000000000000000008152600401610d23906128ca565b60405180910390fd5b815f60065f60055f8581526020019081526020015f206001015481526020019081526020015f206006015460065f60055f8681526020019081526020015f206001015481526020019081526020015f2060070154610d8a9190612336565b905080421015610dcf576040517f08c379a0000000000000000000000000000000000000000000000000000000008152600401610dc690612932565b60405180910390fd5b8360055f8281526020019081526020015f2060040154341015610e27576040517f08c379a0000000000000000000000000000000000000000000000000000000008152600401610e1e9061299a565b60405180910390fd5b5f73ffffffffffffffffffffffffffffffffffffffff163373ffffffffffffffffffffffffffffffffffffffff1603610e5e575f80fd5b5f60055f8781526020019081526020015f2060070160019054906101000a900473ffffffffffffffffffffffffffffffffffffffff1690505f60055f8881526020019081526020015f206004015490505f8273ffffffffffffffffffffffffffffffffffffffff1682604051610ed390612466565b5f6040518083038185875af1925050503d805f8114610f0d576040519150601f19603f3d011682016040523d82523d5f602084013e610f12565b606091505b5050905080610f56576040517f08c379a0000000000000000000000000000000000000000000000000000000008152600401610f4d90612a02565b60405180910390fd5b3360055f8a81526020019081526020015f206008015f6101000a81548173ffffffffffffffffffffffffffffffffffffffff021916908373ffffffffffffffffffffffffffffffffffffffff1602179055505f60055f8a81526020019081526020015f206007015f6101000a81548160ff02191690831515021790555060045f815480929190610fe5906124e2565b91905055506040518061012001604052806004548152602001898152602001600354815260200160055f8b81526020019081526020015f20600201805461102b90612556565b80601f016020809104026020016040519081016040528092919081815260200182805461105790612556565b80156110a25780601f10611079576101008083540402835291602001916110a2565b820191905f5260205f20905b81548152906001019060200180831161108557829003601f168201915b5050505050815260200160055f8b81526020019081526020015f2060030180546110cb90612556565b80601f01602080910402602001604051908101604052809291908181526020018280546110f790612556565b80156111425780601f1061111957610100808354040283529160200191611142565b820191905f5260205f20905b81548152906001019060200180831161112557829003601f168201915b5050505050815260200160055f8b81526020019081526020015f206004015481526020014281526020013373ffffffffffffffffffffffffffffffffffffffff1681526020018473ffffffffffffffffffffffffffffffffffffffff1681525060075f60045481526020019081526020015f205f820151815f0155602082015181600101556040820151816002015560608201518160030190816111e69190612723565b5060808201518160040190816111fc9190612723565b5060a0820151816005015560c0820151816006015560e0820151816007015f6101000a81548173ffffffffffffffffffffffffffffffffffffffff021916908373ffffffffffffffffffffffffffffffffffffffff160217905550610100820151816008015f6101000a81548173ffffffffffffffffffffffffffffffffffffffff021916908373ffffffffffffffffffffffffffffffffffffffff1602179055509050505050505050505050565b8160055f8281526020019081526020015f2060070160019054906101000a900473ffffffffffffffffffffffffffffffffffffffff1673ffffffffffffffffffffffffffffffffffffffff163373ffffffffffffffffffffffffffffffffffffffff160361134e576040517f08c379a000000000000000000000000000000000000000000000000000000000815260040161134590612a6a565b60405180910390fd5b8260055f8281526020019081526020015f206005015460055f8381526020019081526020015f20600401546113839190612336565b34101561138e575f80fd5b836001151560055f8381526020019081526020015f206007015f9054906101000a900460ff161515146113f6576040517f08c379a00000000000000000000000000000000000000000000000000000000081526004016113ed90612ad2565b60405180910390fd5b5f73ffffffffffffffffffffffffffffffffffffffff163373ffffffffffffffffffffffffffffffffffffffff160361142d575f80fd5b5f60055f8781526020019081526020015f2060070160019054906101000a900473ffffffffffffffffffffffffffffffffffffffff1690505f60055f8881526020019081526020015f206005015460055f8981526020019081526020015f206004015461149a9190612336565b90505f8273ffffffffffffffffffffffffffffffffffffffff16826040516114c190612466565b5f6040518083038185875af1925050503d805f81146114fb576040519150601f19603f3d011682016040523d82523d5f602084013e611500565b606091505b5050905080611544576040517f08c379a000000000000000000000000000000000000000000000000000000000815260040161153b90612b3a565b60405180910390fd5b60035f815480929190611556906124e2565b91905055503360055f8a81526020019081526020015f206008015f6101000a81548173ffffffffffffffffffffffffffffffffffffffff021916908373ffffffffffffffffffffffffffffffffffffffff1602179055504260055f8a81526020019081526020015f20600601819055505f60055f8a81526020019081526020015f206007015f6101000a81548160ff02191690831515021790555060035460055f8a81526020019081526020015f2060010181905550604051806101400160405280898152602001600354815260200160055f8b81526020019081526020015f20600201805461164590612556565b80601f016020809104026020016040519081016040528092919081815260200182805461167190612556565b80156116bc5780601f10611693576101008083540402835291602001916116bc565b820191905f5260205f20905b81548152906001019060200180831161169f57829003601f168201915b5050505050815260200160055f8b81526020019081526020015f2060030180546116e590612556565b80601f016020809104026020016040519081016040528092919081815260200182805461171190612556565b801561175c5780601f106117335761010080835404028352916020019161175c565b820191905f5260205f20905b81548152906001019060200180831161173f57829003601f168201915b5050505050815260200160055f8b81526020019081526020015f2060040154815260200160055f8b81526020019081526020015f206005015481526020018881526020014281526020013373ffffffffffffffffffffffffffffffffffffffff1681526020018473ffffffffffffffffffffffffffffffffffffffff1681525060065f60035481526020019081526020015f205f820151815f01556020820151816001015560408201518160020190816118169190612723565b50606082015181600301908161182c9190612723565b506080820151816004015560a0820151816005015560c0820151816006015560e08201518160070155610100820151816008015f6101000a81548173ffffffffffffffffffffffffffffffffffffffff021916908373ffffffffffffffffffffffffffffffffffffffff160217905550610120820151816009015f6101000a81548173ffffffffffffffffffffffffffffffffffffffff021916908373ffffffffffffffffffffffffffffffffffffffff16021790555090505060045f8154809291906118f8906124e2565b91905055506040518061012001604052806004548152602001898152602001600354815260200160055f8b81526020019081526020015f20600201805461193e90612556565b80601f016020809104026020016040519081016040528092919081815260200182805461196a90612556565b80156119b55780601f1061198c576101008083540402835291602001916119b5565b820191905f5260205f20905b81548152906001019060200180831161199857829003601f168201915b5050505050815260200160055f8b81526020019081526020015f2060030180546119de90612556565b80601f0160208091040260200160405190810160405280929190818152602001828054611a0a90612556565b8015611a555780601f10611a2c57610100808354040283529160200191611a55565b820191905f5260205f20905b815481529060010190602001808311611a3857829003601f168201915b5050505050815260200160055f8b81526020019081526020015f206004015481526020014281526020013373ffffffffffffffffffffffffffffffffffffffff1681526020018473ffffffffffffffffffffffffffffffffffffffff1681525060075f60045481526020019081526020015f205f820151815f015560208201518160010155604082015181600201556060820151816003019081611af99190612723565b506080820151816004019081611b0f9190612723565b5060a0820151816005015560c0820151816006015560e0820151816007015f6101000a81548173ffffffffffffffffffffffffffffffffffffffff021916908373ffffffffffffffffffffffffffffffffffffffff160217905550610100820151816008015f6101000a81548173ffffffffffffffffffffffffffffffffffffffff021916908373ffffffffffffffffffffffffffffffffffffffff1602179055509050505050505050505050565b6007602052805f5260405f205f91509050805f015490806001015490806002015490806003018054611bef90612556565b80601f0160208091040260200160405190810160405280929190818152602001828054611c1b90612556565b8015611c665780601f10611c3d57610100808354040283529160200191611c66565b820191905f5260205f20905b815481529060010190602001808311611c4957829003601f168201915b505050505090806004018054611c7b90612556565b80601f0160208091040260200160405190810160405280929190818152602001828054611ca790612556565b8015611cf25780601f10611cc957610100808354040283529160200191611cf2565b820191905f5260205f20905b815481529060010190602001808311611cd557829003601f168201915b505050505090806005015490806006015490806007015f9054906101000a900473ffffffffffffffffffffffffffffffffffffffff1690806008015f9054906101000a900473ffffffffffffffffffffffffffffffffffffffff16905089565b5f604051905090565b5f80fd5b5f80fd5b5f819050919050565b611d7581611d63565b8114611d7f575f80fd5b50565b5f81359050611d9081611d6c565b92915050565b5f60208284031215611dab57611daa611d5b565b5b5f611db884828501611d82565b91505092915050565b5f80fd5b5f80fd5b5f601f19601f8301169050919050565b7f4e487b71000000000000000000000000000000000000000000000000000000005f52604160045260245ffd5b611e0f82611dc9565b810181811067ffffffffffffffff82111715611e2e57611e2d611dd9565b5b80604052505050565b5f611e40611d52565b9050611e4c8282611e06565b919050565b5f67ffffffffffffffff821115611e6b57611e6a611dd9565b5b611e7482611dc9565b9050602081019050919050565b828183375f83830152505050565b5f611ea1611e9c84611e51565b611e37565b905082815260208101848484011115611ebd57611ebc611dc5565b5b611ec8848285611e81565b509392505050565b5f82601f830112611ee457611ee3611dc1565b5b8135611ef4848260208601611e8f565b91505092915050565b5f805f8060808587031215611f1557611f14611d5b565b5b5f85013567ffffffffffffffff811115611f3257611f31611d5f565b5b611f3e87828801611ed0565b945050602085013567ffffffffffffffff811115611f5f57611f5e611d5f565b5b611f6b87828801611ed0565b9350506040611f7c87828801611d82565b9250506060611f8d87828801611d82565b91505092959194509250565b611fa281611d63565b82525050565b5f602082019050611fbb5f830184611f99565b92915050565b5f81519050919050565b5f82825260208201905092915050565b8281835e5f83830152505050565b5f611ff382611fc1565b611ffd8185611fcb565b935061200d818560208601611fdb565b61201681611dc9565b840191505092915050565b5f8115159050919050565b61203581612021565b82525050565b5f73ffffffffffffffffffffffffffffffffffffffff82169050919050565b5f6120648261203b565b9050919050565b6120748161205a565b82525050565b5f6101408201905061208e5f83018d611f99565b61209b602083018c611f99565b81810360408301526120ad818b611fe9565b905081810360608301526120c1818a611fe9565b90506120d06080830189611f99565b6120dd60a0830188611f99565b6120ea60c0830187611f99565b6120f760e083018661202c565b61210561010083018561206b565b61211361012083018461206b565b9b9a5050505050505050505050565b5f610140820190506121365f83018d611f99565b612143602083018c611f99565b8181036040830152612155818b611fe9565b90508181036060830152612169818a611fe9565b90506121786080830189611f99565b61218560a0830188611f99565b61219260c0830187611f99565b61219f60e0830186611f99565b6121ad61010083018561206b565b6121bb61012083018461206b565b9b9a5050505050505050505050565b5f80604083850312156121e0576121df611d5b565b5b5f6121ed85828601611d82565b92505060206121fe85828601611d82565b9150509250929050565b5f6101208201905061221c5f83018c611f99565b612229602083018b611f99565b612236604083018a611f99565b81810360608301526122488189611fe9565b9050818103608083015261225c8188611fe9565b905061226b60a0830187611f99565b61227860c0830186611f99565b61228560e083018561206b565b61229361010083018461206b565b9a9950505050505050505050565b7f4f6e6c79206c616e646c6f72642063616e2061636365737320746869730000005f82015250565b5f6122d5601d83611fcb565b91506122e0826122a1565b602082019050919050565b5f6020820190508181035f830152612302816122c9565b9050919050565b7f4e487b71000000000000000000000000000000000000000000000000000000005f52601160045260245ffd5b5f61234082611d63565b915061234b83611d63565b925082820190508082111561236357612362612309565b5b92915050565b7f41677265656d656e7420686173206e6f742079657420657870697265640000005f82015250565b5f61239d601d83611fcb565b91506123a882612369565b602082019050919050565b5f6020820190508181035f8301526123ca81612391565b9050919050565b7f526f6f6d20697320616c726561647920766163616e74210000000000000000005f82015250565b5f612405601783611fcb565b9150612410826123d1565b602082019050919050565b5f6020820190508181035f830152612432816123f9565b9050919050565b5f81905092915050565b50565b5f6124515f83612439565b915061245c82612443565b5f82019050919050565b5f61247082612446565b9150819050919050565b7f41677265656d656e7420436f6d706c6574696f6e204661696c656421000000005f82015250565b5f6124ae601c83611fcb565b91506124b98261247a565b602082019050919050565b5f6020820190508181035f8301526124db816124a2565b9050919050565b5f6124ec82611d63565b91507fffffffffffffffffffffffffffffffffffffffffffffffffffffffffffffffff820361251e5761251d612309565b5b600182019050919050565b7f4e487b71000000000000000000000000000000000000000000000000000000005f52602260045260245ffd5b5f600282049050600182168061256d57607f821691505b6020821081036125805761257f612529565b5b50919050565b5f819050815f5260205f209050919050565b5f6020601f8301049050919050565b5f82821b905092915050565b5f600883026125e27fffffffffffffffffffffffffffffffffffffffffffffffffffffffffffffffff826125a7565b6125ec86836125a7565b95508019841693508086168417925050509392505050565b5f819050919050565b5f61262761262261261d84611d63565b612604565b611d63565b9050919050565b5f819050919050565b6126408361260d565b61265461264c8261262e565b8484546125b3565b825550505050565b5f90565b61266861265c565b612673818484612637565b505050565b5b818110156126965761268b5f82612660565b600181019050612679565b5050565b601f8211156126db576126ac81612586565b6126b584612598565b810160208510156126c4578190505b6126d86126d085612598565b830182612678565b50505b505050565b5f82821c905092915050565b5f6126fb5f19846008026126e0565b1980831691505092915050565b5f61271383836126ec565b9150826002028217905092915050565b61272c82611fc1565b67ffffffffffffffff81111561274557612744611dd9565b5b61274f8254612556565b61275a82828561269a565b5f60209050601f83116001811461278b575f8415612779578287015190505b6127838582612708565b8655506127ea565b601f19841661279986612586565b5f5b828110156127c05784890151825560018201915060208501945060208101905061279b565b868310156127dd57848901516127d9601f8916826126ec565b8355505b6001600288020188555050505b505050505050565b7f41677265656d656e7420686173206578706972656400000000000000000000005f82015250565b5f612826601583611fcb565b9150612831826127f2565b602082019050919050565b5f6020820190508181035f8301526128538161281a565b9050919050565b7f596f7520617265206e6f74207468652074656e616e74206f66207468697320725f8201527f6f6f6d0000000000000000000000000000000000000000000000000000000000602082015250565b5f6128b4602383611fcb565b91506128bf8261285a565b604082019050919050565b5f6020820190508181035f8301526128e1816128a8565b9050919050565b7f54696d656c65667420746f20706179207468652072656e7400000000000000005f82015250565b5f61291c601883611fcb565b9150612927826128e8565b602082019050919050565b5f6020820190508181035f83015261294981612910565b9050919050565b7f4e6f7420656e6f75676820657468657220696e20796f75722077616c6c6574005f82015250565b5f612984601f83611fcb565b915061298f82612950565b602082019050919050565b5f6020820190508181035f8301526129b181612978565b9050919050565b7f52656e74207061796d656e74206661696c6564000000000000000000000000005f82015250565b5f6129ec601383611fcb565b91506129f7826129b8565b602082019050919050565b5f6020820190508181035f830152612a19816129e0565b9050919050565b7f4f6e6c792074656e616e74732063616e206163636573732074686973000000005f82015250565b5f612a54601c83611fcb565b9150612a5f82612a20565b602082019050919050565b5f6020820190508181035f830152612a8181612a48565b9050919050565b7f526f6f6d206973206e6f7420766163616e7400000000000000000000000000005f82015250565b5f612abc601283611fcb565b9150612ac782612a88565b602082019050919050565b5f6020820190508181035f830152612ae981612ab0565b9050919050565b7f4661696c656420746f207369676e2061677265656d656e7400000000000000005f82015250565b5f612b24601883611fcb565b9150612b2f82612af0565b602082019050919050565b5f6020820190508181035f830152612b5181612b18565b905091905056fea264697066735822122087168b1fb4a4adc33c84f0e0d1a27e0b05dcd0cab9d6008c73bfb05a3835f9e564736f6c634300081a0033",
			"opcodes": "PUSH1 0x80 PUSH1 0x40 MSTORE PUSH0 PUSH1 0x2 SSTORE PUSH0 PUSH1 0x3 SSTORE PUSH0 PUSH1 0x4 SSTORE CALLVALUE DUP1 ISZERO PUSH1 0x1A JUMPI PUSH0 DUP1 REVERT JUMPDEST POP PUSH2 0x2B8E DUP1 PUSH2 0x28 PUSH0 CODECOPY PUSH0 RETURN INVALID PUSH1 0x80 PUSH1 0x40 MSTORE PUSH1 0x4 CALLDATASIZE LT PUSH2 0x9B JUMPI PUSH0 CALLDATALOAD PUSH1 0xE0 SHR DUP1 PUSH4 0x7681466C GT PUSH2 0x63 JUMPI DUP1 PUSH4 0x7681466C EQ PUSH2 0x17C JUMPI DUP1 PUSH4 0x900B3B53 EQ PUSH2 0x1A4 JUMPI DUP1 PUSH4 0xCCC3E83A EQ PUSH2 0x1CE JUMPI DUP1 PUSH4 0xD9E8843F EQ PUSH2 0x213 JUMPI DUP1 PUSH4 0xE1590CB6 EQ PUSH2 0x22F JUMPI DUP1 PUSH4 0xF5B46A65 EQ PUSH2 0x24B JUMPI PUSH2 0x9B JUMP JUMPDEST DUP1 PUSH4 0x16ABB8A1 EQ PUSH2 0x9F JUMPI DUP1 PUSH4 0x1F261A82 EQ PUSH2 0xBB JUMPI DUP1 PUSH4 0x59E2CBEC EQ PUSH2 0xE3 JUMPI DUP1 PUSH4 0x646FC100 EQ PUSH2 0x10D JUMPI DUP1 PUSH4 0x75EB9EF6 EQ PUSH2 0x152 JUMPI JUMPDEST PUSH0 DUP1 REVERT JUMPDEST PUSH2 0xB9 PUSH1 0x4 DUP1 CALLDATASIZE SUB DUP2 ADD SWAP1 PUSH2 0xB4 SWAP2 SWAP1 PUSH2 0x1D96 JUMP JUMPDEST PUSH2 0x28F JUMP JUMPDEST STOP JUMPDEST CALLVALUE DUP1 ISZERO PUSH2 0xC6 JUMPI PUSH0 DUP1 REVERT JUMPDEST POP PUSH2 0xE1 PUSH1 0x4 DUP1 CALLDATASIZE SUB DUP2 ADD SWAP1 PUSH2 0xDC SWAP2 SWAP1 PUSH2 0x1EFD JUMP JUMPDEST PUSH2 0x59D JUMP JUMPDEST STOP JUMPDEST CALLVALUE DUP1 ISZERO PUSH2 0xEE JUMPI PUSH0 DUP1 REVERT JUMPDEST POP PUSH2 0xF7 PUSH2 0x788 JUMP JUMPDEST PUSH1 0x40 MLOAD PUSH2 0x104 SWAP2 SWAP1 PUSH2 0x1FA8 JUMP JUMPDEST PUSH1 0x40 MLOAD DUP1 SWAP2 SUB SWAP1 RETURN JUMPDEST CALLVALUE DUP1 ISZERO PUSH2 0x118 JUMPI PUSH0 DUP1 REVERT JUMPDEST POP PUSH2 0x133 PUSH1 0x4 DUP1 CALLDATASIZE SUB DUP2 ADD SWAP1 PUSH2 0x12E SWAP2 SWAP1 PUSH2 0x1D96 JUMP JUMPDEST PUSH2 0x78E JUMP JUMPDEST PUSH1 0x40 MLOAD PUSH2 0x149 SWAP11 SWAP10 SWAP9 SWAP8 SWAP7 SWAP6 SWAP5 SWAP4 SWAP3 SWAP2 SWAP1 PUSH2 0x207A JUMP JUMPDEST PUSH1 0x40 MLOAD DUP1 SWAP2 SUB SWAP1 RETURN JUMPDEST CALLVALUE DUP1 ISZERO PUSH2 0x15D JUMPI PUSH0 DUP1 REVERT JUMPDEST POP PUSH2 0x166 PUSH2 0x935 JUMP JUMPDEST PUSH1 0x40 MLOAD PUSH2 0x173 SWAP2 SWAP1 PUSH2 0x1FA8 JUMP JUMPDEST PUSH1 0x40 MLOAD DUP1 SWAP2 SUB SWAP1 RETURN JUMPDEST CALLVALUE DUP1 ISZERO PUSH2 0x187 JUMPI PUSH0 DUP1 REVERT JUMPDEST POP PUSH2 0x1A2 PUSH1 0x4 DUP1 CALLDATASIZE SUB DUP2 ADD SWAP1 PUSH2 0x19D SWAP2 SWAP1 PUSH2 0x1D96 JUMP JUMPDEST PUSH2 0x93B JUMP JUMPDEST STOP JUMPDEST CALLVALUE DUP1 ISZERO PUSH2 0x1AF JUMPI PUSH0 DUP1 REVERT JUMPDEST POP PUSH2 0x1B8 PUSH2 0xAEA JUMP JUMPDEST PUSH1 0x40 MLOAD PUSH2 0x1C5 SWAP2 SWAP1 PUSH2 0x1FA8 JUMP JUMPDEST PUSH1 0x40 MLOAD DUP1 SWAP2 SUB SWAP1 RETURN JUMPDEST CALLVALUE DUP1 ISZERO PUSH2 0x1D9 JUMPI PUSH0 DUP1 REVERT JUMPDEST POP PUSH2 0x1F4 PUSH1 0x4 DUP1 CALLDATASIZE SUB DUP2 ADD SWAP1 PUSH2 0x1EF SWAP2 SWAP1 PUSH2 0x1D96 JUMP JUMPDEST PUSH2 0xAF0 JUMP JUMPDEST PUSH1 0x40 MLOAD PUSH2 0x20A SWAP11 SWAP10 SWAP9 SWAP8 SWAP7 SWAP6 SWAP5 SWAP4 SWAP3 SWAP2 SWAP1 PUSH2 0x2122 JUMP JUMPDEST PUSH1 0x40 MLOAD DUP1 SWAP2 SUB SWAP1 RETURN JUMPDEST PUSH2 0x22D PUSH1 0x4 DUP1 CALLDATASIZE SUB DUP2 ADD SWAP1 PUSH2 0x228 SWAP2 SWAP1 PUSH2 0x1D96 JUMP JUMPDEST PUSH2 0xC8A JUMP JUMPDEST STOP JUMPDEST PUSH2 0x249 PUSH1 0x4 DUP1 CALLDATASIZE SUB DUP2 ADD SWAP1 PUSH2 0x244 SWAP2 SWAP1 PUSH2 0x21CA JUMP JUMPDEST PUSH2 0x12AB JUMP JUMPDEST STOP JUMPDEST CALLVALUE DUP1 ISZERO PUSH2 0x256 JUMPI PUSH0 DUP1 REVERT JUMPDEST POP PUSH2 0x271 PUSH1 0x4 DUP1 CALLDATASIZE SUB DUP2 ADD SWAP1 PUSH2 0x26C SWAP2 SWAP1 PUSH2 0x1D96 JUMP JUMPDEST PUSH2 0x1BBE JUMP JUMPDEST PUSH1 0x40 MLOAD PUSH2 0x286 SWAP10 SWAP9 SWAP8 SWAP7 SWAP6 SWAP5 SWAP4 SWAP3 SWAP2 SWAP1 PUSH2 0x2208 JUMP JUMPDEST PUSH1 0x40 MLOAD DUP1 SWAP2 SUB SWAP1 RETURN JUMPDEST DUP1 PUSH1 0x5 PUSH0 DUP3 DUP2 MSTORE PUSH1 0x20 ADD SWAP1 DUP2 MSTORE PUSH1 0x20 ADD PUSH0 KECCAK256 PUSH1 0x7 ADD PUSH1 0x1 SWAP1 SLOAD SWAP1 PUSH2 0x100 EXP SWAP1 DIV PUSH20 0xFFFFFFFFFFFFFFFFFFFFFFFFFFFFFFFFFFFFFFFF AND PUSH20 0xFFFFFFFFFFFFFFFFFFFFFFFFFFFFFFFFFFFFFFFF AND CALLER PUSH20 0xFFFFFFFFFFFFFFFFFFFFFFFFFFFFFFFFFFFFFFFF AND EQ PUSH2 0x332 JUMPI PUSH1 0x40 MLOAD PUSH32 0x8C379A000000000000000000000000000000000000000000000000000000000 DUP2 MSTORE PUSH1 0x4 ADD PUSH2 0x329 SWAP1 PUSH2 0x22EB JUMP JUMPDEST PUSH1 0x40 MLOAD DUP1 SWAP2 SUB SWAP1 REVERT JUMPDEST DUP2 PUSH0 PUSH1 0x6 PUSH0 PUSH1 0x5 PUSH0 DUP6 DUP2 MSTORE PUSH1 0x20 ADD SWAP1 DUP2 MSTORE PUSH1 0x20 ADD PUSH0 KECCAK256 PUSH1 0x1 ADD SLOAD DUP2 MSTORE PUSH1 0x20 ADD SWAP1 DUP2 MSTORE PUSH1 0x20 ADD PUSH0 KECCAK256 PUSH1 0x6 ADD SLOAD PUSH1 0x6 PUSH0 PUSH1 0x5 PUSH0 DUP7 DUP2 MSTORE PUSH1 0x20 ADD SWAP1 DUP2 MSTORE PUSH1 0x20 ADD PUSH0 KECCAK256 PUSH1 0x1 ADD SLOAD DUP2 MSTORE PUSH1 0x20 ADD SWAP1 DUP2 MSTORE PUSH1 0x20 ADD PUSH0 KECCAK256 PUSH1 0x7 ADD SLOAD PUSH2 0x390 SWAP2 SWAP1 PUSH2 0x2336 JUMP JUMPDEST SWAP1 POP DUP1 TIMESTAMP GT PUSH2 0x3D4 JUMPI PUSH1 0x40 MLOAD PUSH32 0x8C379A000000000000000000000000000000000000000000000000000000000 DUP2 MSTORE PUSH1 0x4 ADD PUSH2 0x3CB SWAP1 PUSH2 0x23B3 JUMP JUMPDEST PUSH1 0x40 MLOAD DUP1 SWAP2 SUB SWAP1 REVERT JUMPDEST PUSH0 PUSH20 0xFFFFFFFFFFFFFFFFFFFFFFFFFFFFFFFFFFFFFFFF AND CALLER PUSH20 0xFFFFFFFFFFFFFFFFFFFFFFFFFFFFFFFFFFFFFFFF AND SUB PUSH2 0x40B JUMPI PUSH0 DUP1 REVERT JUMPDEST PUSH0 ISZERO ISZERO PUSH1 0x5 PUSH0 DUP7 DUP2 MSTORE PUSH1 0x20 ADD SWAP1 DUP2 MSTORE PUSH1 0x20 ADD PUSH0 KECCAK256 PUSH1 0x7 ADD PUSH0 SWAP1 SLOAD SWAP1 PUSH2 0x100 EXP SWAP1 DIV PUSH1 0xFF AND ISZERO ISZERO EQ PUSH2 0x471 JUMPI PUSH1 0x40 MLOAD PUSH32 0x8C379A000000000000000000000000000000000000000000000000000000000 DUP2 MSTORE PUSH1 0x4 ADD PUSH2 0x468 SWAP1 PUSH2 0x241B JUMP JUMPDEST PUSH1 0x40 MLOAD DUP1 SWAP2 SUB SWAP1 REVERT JUMPDEST PUSH1 0x1 PUSH1 0x5 PUSH0 DUP7 DUP2 MSTORE PUSH1 0x20 ADD SWAP1 DUP2 MSTORE PUSH1 0x20 ADD PUSH0 KECCAK256 PUSH1 0x7 ADD PUSH0 PUSH2 0x100 EXP DUP2 SLOAD DUP2 PUSH1 0xFF MUL NOT AND SWAP1 DUP4 ISZERO ISZERO MUL OR SWAP1 SSTORE POP PUSH0 PUSH1 0x5 PUSH0 DUP7 DUP2 MSTORE PUSH1 0x20 ADD SWAP1 DUP2 MSTORE PUSH1 0x20 ADD PUSH0 KECCAK256 PUSH1 0x8 ADD PUSH0 SWAP1 SLOAD SWAP1 PUSH2 0x100 EXP SWAP1 DIV PUSH20 0xFFFFFFFFFFFFFFFFFFFFFFFFFFFFFFFFFFFFFFFF AND SWAP1 POP PUSH0 PUSH1 0x5 PUSH0 DUP8 DUP2 MSTORE PUSH1 0x20 ADD SWAP1 DUP2 MSTORE PUSH1 0x20 ADD PUSH0 KECCAK256 PUSH1 0x5 ADD SLOAD SWAP1 POP PUSH0 DUP3 PUSH20 0xFFFFFFFFFFFFFFFFFFFFFFFFFFFFFFFFFFFFFFFF AND DUP3 PUSH1 0x40 MLOAD PUSH2 0x511 SWAP1 PUSH2 0x2466 JUMP JUMPDEST PUSH0 PUSH1 0x40 MLOAD DUP1 DUP4 SUB DUP2 DUP6 DUP8 GAS CALL SWAP3 POP POP POP RETURNDATASIZE DUP1 PUSH0 DUP2 EQ PUSH2 0x54B JUMPI PUSH1 0x40 MLOAD SWAP2 POP PUSH1 0x1F NOT PUSH1 0x3F RETURNDATASIZE ADD AND DUP3 ADD PUSH1 0x40 MSTORE RETURNDATASIZE DUP3 MSTORE RETURNDATASIZE PUSH0 PUSH1 0x20 DUP5 ADD RETURNDATACOPY PUSH2 0x550 JUMP JUMPDEST PUSH1 0x60 SWAP2 POP JUMPDEST POP POP SWAP1 POP DUP1 PUSH2 0x594 JUMPI PUSH1 0x40 MLOAD PUSH32 0x8C379A000000000000000000000000000000000000000000000000000000000 DUP2 MSTORE PUSH1 0x4 ADD PUSH2 0x58B SWAP1 PUSH2 0x24C4 JUMP JUMPDEST PUSH1 0x40 MLOAD DUP1 SWAP2 SUB SWAP1 REVERT JUMPDEST POP POP POP POP POP POP POP JUMP JUMPDEST PUSH0 PUSH20 0xFFFFFFFFFFFFFFFFFFFFFFFFFFFFFFFFFFFFFFFF AND CALLER PUSH20 0xFFFFFFFFFFFFFFFFFFFFFFFFFFFFFFFFFFFFFFFF AND SUB PUSH2 0x5D4 JUMPI PUSH0 DUP1 REVERT JUMPDEST PUSH1 0x2 PUSH0 DUP2 SLOAD DUP1 SWAP3 SWAP2 SWAP1 PUSH2 0x5E6 SWAP1 PUSH2 0x24E2 JUMP JUMPDEST SWAP2 SWAP1 POP SSTORE POP PUSH1 0x40 MLOAD DUP1 PUSH2 0x140 ADD PUSH1 0x40 MSTORE DUP1 PUSH1 0x2 SLOAD DUP2 MSTORE PUSH1 0x20 ADD PUSH0 DUP2 MSTORE PUSH1 0x20 ADD DUP6 DUP2 MSTORE PUSH1 0x20 ADD DUP5 DUP2 MSTORE PUSH1 0x20 ADD DUP4 DUP2 MSTORE PUSH1 0x20 ADD DUP3 DUP2 MSTORE PUSH1 0x20 ADD PUSH0 DUP2 MSTORE PUSH1 0x20 ADD PUSH1 0x1 ISZERO ISZERO DUP2 MSTORE PUSH1 0x20 ADD CALLER PUSH20 0xFFFFFFFFFFFFFFFFFFFFFFFFFFFFFFFFFFFFFFFF AND DUP2 MSTORE PUSH1 0x20 ADD PUSH0 PUSH20 0xFFFFFFFFFFFFFFFFFFFFFFFFFFFFFFFFFFFFFFFF AND DUP2 MSTORE POP PUSH1 0x5 PUSH0 PUSH1 0x2 SLOAD DUP2 MSTORE PUSH1 0x20 ADD SWAP1 DUP2 MSTORE PUSH1 0x20 ADD PUSH0 KECCAK256 PUSH0 DUP3 ADD MLOAD DUP2 PUSH0 ADD SSTORE PUSH1 0x20 DUP3 ADD MLOAD DUP2 PUSH1 0x1 ADD SSTORE PUSH1 0x40 DUP3 ADD MLOAD DUP2 PUSH1 0x2 ADD SWAP1 DUP2 PUSH2 0x69C SWAP2 SWAP1 PUSH2 0x2723 JUMP JUMPDEST POP PUSH1 0x60 DUP3 ADD MLOAD DUP2 PUSH1 0x3 ADD SWAP1 DUP2 PUSH2 0x6B2 SWAP2 SWAP1 PUSH2 0x2723 JUMP JUMPDEST POP PUSH1 0x80 DUP3 ADD MLOAD DUP2 PUSH1 0x4 ADD SSTORE PUSH1 0xA0 DUP3 ADD MLOAD DUP2 PUSH1 0x5 ADD SSTORE PUSH1 0xC0 DUP3 ADD MLOAD DUP2 PUSH1 0x6 ADD SSTORE PUSH1 0xE0 DUP3 ADD MLOAD DUP2 PUSH1 0x7 ADD PUSH0 PUSH2 0x100 EXP DUP2 SLOAD DUP2 PUSH1 0xFF MUL NOT AND SWAP1 DUP4 ISZERO ISZERO MUL OR SWAP1 SSTORE POP PUSH2 0x100 DUP3 ADD MLOAD DUP2 PUSH1 0x7 ADD PUSH1 0x1 PUSH2 0x100 EXP DUP2 SLOAD DUP2 PUSH20 0xFFFFFFFFFFFFFFFFFFFFFFFFFFFFFFFFFFFFFFFF MUL NOT AND SWAP1 DUP4 PUSH20 0xFFFFFFFFFFFFFFFFFFFFFFFFFFFFFFFFFFFFFFFF AND MUL OR SWAP1 SSTORE POP PUSH2 0x120 DUP3 ADD MLOAD DUP2 PUSH1 0x8 ADD PUSH0 PUSH2 0x100 EXP DUP2 SLOAD DUP2 PUSH20 0xFFFFFFFFFFFFFFFFFFFFFFFFFFFFFFFFFFFFFFFF MUL NOT AND SWAP1 DUP4 PUSH20 0xFFFFFFFFFFFFFFFFFFFFFFFFFFFFFFFFFFFFFFFF AND MUL OR SWAP1 SSTORE POP SWAP1 POP POP POP POP POP POP JUMP JUMPDEST PUSH1 0x2 SLOAD DUP2 JUMP JUMPDEST PUSH1 0x5 PUSH1 0x20 MSTORE DUP1 PUSH0 MSTORE PUSH1 0x40 PUSH0 KECCAK256 PUSH0 SWAP2 POP SWAP1 POP DUP1 PUSH0 ADD SLOAD SWAP1 DUP1 PUSH1 0x1 ADD SLOAD SWAP1 DUP1 PUSH1 0x2 ADD DUP1 SLOAD PUSH2 0x7B9 SWAP1 PUSH2 0x2556 JUMP JUMPDEST DUP1 PUSH1 0x1F ADD PUSH1 0x20 DUP1 SWAP2 DIV MUL PUSH1 0x20 ADD PUSH1 0x40 MLOAD SWAP1 DUP2 ADD PUSH1 0x40 MSTORE DUP1 SWAP3 SWAP2 SWAP1 DUP2 DUP2 MSTORE PUSH1 0x20 ADD DUP3 DUP1 SLOAD PUSH2 0x7E5 SWAP1 PUSH2 0x2556 JUMP JUMPDEST DUP1 ISZERO PUSH2 0x830 JUMPI DUP1 PUSH1 0x1F LT PUSH2 0x807 JUMPI PUSH2 0x100 DUP1 DUP4 SLOAD DIV MUL DUP4 MSTORE SWAP2 PUSH1 0x20 ADD SWAP2 PUSH2 0x830 JUMP JUMPDEST DUP3 ADD SWAP2 SWAP1 PUSH0 MSTORE PUSH1 0x20 PUSH0 KECCAK256 SWAP1 JUMPDEST DUP2 SLOAD DUP2 MSTORE SWAP1 PUSH1 0x1 ADD SWAP1 PUSH1 0x20 ADD DUP1 DUP4 GT PUSH2 0x813 JUMPI DUP3 SWAP1 SUB PUSH1 0x1F AND DUP3 ADD SWAP2 JUMPDEST POP POP POP POP POP SWAP1 DUP1 PUSH1 0x3 ADD DUP1 SLOAD PUSH2 0x845 SWAP1 PUSH2 0x2556 JUMP JUMPDEST DUP1 PUSH1 0x1F ADD PUSH1 0x20 DUP1 SWAP2 DIV MUL PUSH1 0x20 ADD PUSH1 0x40 MLOAD SWAP1 DUP2 ADD PUSH1 0x40 MSTORE DUP1 SWAP3 SWAP2 SWAP1 DUP2 DUP2 MSTORE PUSH1 0x20 ADD DUP3 DUP1 SLOAD PUSH2 0x871 SWAP1 PUSH2 0x2556 JUMP JUMPDEST DUP1 ISZERO PUSH2 0x8BC JUMPI DUP1 PUSH1 0x1F LT PUSH2 0x893 JUMPI PUSH2 0x100 DUP1 DUP4 SLOAD DIV MUL DUP4 MSTORE SWAP2 PUSH1 0x20 ADD SWAP2 PUSH2 0x8BC JUMP JUMPDEST DUP3 ADD SWAP2 SWAP1 PUSH0 MSTORE PUSH1 0x20 PUSH0 KECCAK256 SWAP1 JUMPDEST DUP2 SLOAD DUP2 MSTORE SWAP1 PUSH1 0x1 ADD SWAP1 PUSH1 0x20 ADD DUP1 DUP4 GT PUSH2 0x89F JUMPI DUP3 SWAP1 SUB PUSH1 0x1F AND DUP3 ADD SWAP2 JUMPDEST POP POP POP POP POP SWAP1 DUP1 PUSH1 0x4 ADD SLOAD SWAP1 DUP1 PUSH1 0x5 ADD SLOAD SWAP1 DUP1 PUSH1 0x6 ADD SLOAD SWAP1 DUP1 PUSH1 0x7 ADD PUSH0 SWAP1 SLOAD SWAP1 PUSH2 0x100 EXP SWAP1 DIV PUSH1 0xFF AND SWAP1 DUP1 PUSH1 0x7 ADD PUSH1 0x1 SWAP1 SLOAD SWAP1 PUSH2 0x100 EXP SWAP1 DIV PUSH20 0xFFFFFFFFFFFFFFFFFFFFFFFFFFFFFFFFFFFFFFFF AND SWAP1 DUP1 PUSH1 0x8 ADD PUSH0 SWAP1 SLOAD SWAP1 PUSH2 0x100 EXP SWAP1 DIV PUSH20 0xFFFFFFFFFFFFFFFFFFFFFFFFFFFFFFFFFFFFFFFF AND SWAP1 POP DUP11 JUMP JUMPDEST PUSH1 0x4 SLOAD DUP2 JUMP JUMPDEST DUP1 PUSH1 0x5 PUSH0 DUP3 DUP2 MSTORE PUSH1 0x20 ADD SWAP1 DUP2 MSTORE PUSH1 0x20 ADD PUSH0 KECCAK256 PUSH1 0x7 ADD PUSH1 0x1 SWAP1 SLOAD SWAP1 PUSH2 0x100 EXP SWAP1 DIV PUSH20 0xFFFFFFFFFFFFFFFFFFFFFFFFFFFFFFFFFFFFFFFF AND PUSH20 0xFFFFFFFFFFFFFFFFFFFFFFFFFFFFFFFFFFFFFFFF AND CALLER PUSH20 0xFFFFFFFFFFFFFFFFFFFFFFFFFFFFFFFFFFFFFFFF AND EQ PUSH2 0x9DE JUMPI PUSH1 0x40 MLOAD PUSH32 0x8C379A000000000000000000000000000000000000000000000000000000000 DUP2 MSTORE PUSH1 0x4 ADD PUSH2 0x9D5 SWAP1 PUSH2 0x22EB JUMP JUMPDEST PUSH1 0x40 MLOAD DUP1 SWAP2 SUB SWAP1 REVERT JUMPDEST DUP2 PUSH0 PUSH1 0x6 PUSH0 PUSH1 0x5 PUSH0 DUP6 DUP2 MSTORE PUSH1 0x20 ADD SWAP1 DUP2 MSTORE PUSH1 0x20 ADD PUSH0 KECCAK256 PUSH1 0x1 ADD SLOAD DUP2 MSTORE PUSH1 0x20 ADD SWAP1 DUP2 MSTORE PUSH1 0x20 ADD PUSH0 KECCAK256 PUSH1 0x6 ADD SLOAD PUSH1 0x6 PUSH0 PUSH1 0x5 PUSH0 DUP7 DUP2 MSTORE PUSH1 0x20 ADD SWAP1 DUP2 MSTORE PUSH1 0x20 ADD PUSH0 KECCAK256 PUSH1 0x1 ADD SLOAD DUP2 MSTORE PUSH1 0x20 ADD SWAP1 DUP2 MSTORE PUSH1 0x20 ADD PUSH0 KECCAK256 PUSH1 0x7 ADD SLOAD PUSH2 0xA3C SWAP2 SWAP1 PUSH2 0x2336 JUMP JUMPDEST SWAP1 POP DUP1 TIMESTAMP GT ISZERO PUSH2 0xA81 JUMPI PUSH1 0x40 MLOAD PUSH32 0x8C379A000000000000000000000000000000000000000000000000000000000 DUP2 MSTORE PUSH1 0x4 ADD PUSH2 0xA78 SWAP1 PUSH2 0x283C JUMP JUMPDEST PUSH1 0x40 MLOAD DUP1 SWAP2 SUB SWAP1 REVERT JUMPDEST PUSH0 PUSH20 0xFFFFFFFFFFFFFFFFFFFFFFFFFFFFFFFFFFFFFFFF AND CALLER PUSH20 0xFFFFFFFFFFFFFFFFFFFFFFFFFFFFFFFFFFFFFFFF AND SUB PUSH2 0xAB8 JUMPI PUSH0 DUP1 REVERT JUMPDEST PUSH1 0x1 PUSH1 0x5 PUSH0 DUP7 DUP2 MSTORE PUSH1 0x20 ADD SWAP1 DUP2 MSTORE PUSH1 0x20 ADD PUSH0 KECCAK256 PUSH1 0x7 ADD PUSH0 PUSH2 0x100 EXP DUP2 SLOAD DUP2 PUSH1 0xFF MUL NOT AND SWAP1 DUP4 ISZERO ISZERO MUL OR SWAP1 SSTORE POP POP POP POP POP JUMP JUMPDEST PUSH1 0x3 SLOAD DUP2 JUMP JUMPDEST PUSH1 0x6 PUSH1 0x20 MSTORE DUP1 PUSH0 MSTORE PUSH1 0x40 PUSH0 KECCAK256 PUSH0 SWAP2 POP SWAP1 POP DUP1 PUSH0 ADD SLOAD SWAP1 DUP1 PUSH1 0x1 ADD SLOAD SWAP1 DUP1 PUSH1 0x2 ADD DUP1 SLOAD PUSH2 0xB1B SWAP1 PUSH2 0x2556 JUMP JUMPDEST DUP1 PUSH1 0x1F ADD PUSH1 0x20 DUP1 SWAP2 DIV MUL PUSH1 0x20 ADD PUSH1 0x40 MLOAD SWAP1 DUP2 ADD PUSH1 0x40 MSTORE DUP1 SWAP3 SWAP2 SWAP1 DUP2 DUP2 MSTORE PUSH1 0x20 ADD DUP3 DUP1 SLOAD PUSH2 0xB47 SWAP1 PUSH2 0x2556 JUMP JUMPDEST DUP1 ISZERO PUSH2 0xB92 JUMPI DUP1 PUSH1 0x1F LT PUSH2 0xB69 JUMPI PUSH2 0x100 DUP1 DUP4 SLOAD DIV MUL DUP4 MSTORE SWAP2 PUSH1 0x20 ADD SWAP2 PUSH2 0xB92 JUMP JUMPDEST DUP3 ADD SWAP2 SWAP1 PUSH0 MSTORE PUSH1 0x20 PUSH0 KECCAK256 SWAP1 JUMPDEST DUP2 SLOAD DUP2 MSTORE SWAP1 PUSH1 0x1 ADD SWAP1 PUSH1 0x20 ADD DUP1 DUP4 GT PUSH2 0xB75 JUMPI DUP3 SWAP1 SUB PUSH1 0x1F AND DUP3 ADD SWAP2 JUMPDEST POP POP POP POP POP SWAP1 DUP1 PUSH1 0x3 ADD DUP1 SLOAD PUSH2 0xBA7 SWAP1 PUSH2 0x2556 JUMP JUMPDEST DUP1 PUSH1 0x1F ADD PUSH1 0x20 DUP1 SWAP2 DIV MUL PUSH1 0x20 ADD PUSH1 0x40 MLOAD SWAP1 DUP2 ADD PUSH1 0x40 MSTORE DUP1 SWAP3 SWAP2 SWAP1 DUP2 DUP2 MSTORE PUSH1 0x20 ADD DUP3 DUP1 SLOAD PUSH2 0xBD3 SWAP1 PUSH2 0x2556 JUMP JUMPDEST DUP1 ISZERO PUSH2 0xC1E JUMPI DUP1 PUSH1 0x1F LT PUSH2 0xBF5 JUMPI PUSH2 0x100 DUP1 DUP4 SLOAD DIV MUL DUP4 MSTORE SWAP2 PUSH1 0x20 ADD SWAP2 PUSH2 0xC1E JUMP JUMPDEST DUP3 ADD SWAP2 SWAP1 PUSH0 MSTORE PUSH1 0x20 PUSH0 KECCAK256 SWAP1 JUMPDEST DUP2 SLOAD DUP2 MSTORE SWAP1 PUSH1 0x1 ADD SWAP1 PUSH1 0x20 ADD DUP1 DUP4 GT PUSH2 0xC01 JUMPI DUP3 SWAP1 SUB PUSH1 0x1F AND DUP3 ADD SWAP2 JUMPDEST POP POP POP POP POP SWAP1 DUP1 PUSH1 0x4 ADD SLOAD SWAP1 DUP1 PUSH1 0x5 ADD SLOAD SWAP1 DUP1 PUSH1 0x6 ADD SLOAD SWAP1 DUP1 PUSH1 0x7 ADD SLOAD SWAP1 DUP1 PUSH1 0x8 ADD PUSH0 SWAP1 SLOAD SWAP1 PUSH2 0x100 EXP SWAP1 DIV PUSH20 0xFFFFFFFFFFFFFFFFFFFFFFFFFFFFFFFFFFFFFFFF AND SWAP1 DUP1 PUSH1 0x9 ADD PUSH0 SWAP1 SLOAD SWAP1 PUSH2 0x100 EXP SWAP1 DIV PUSH20 0xFFFFFFFFFFFFFFFFFFFFFFFFFFFFFFFFFFFFFFFF AND SWAP1 POP DUP11 JUMP JUMPDEST DUP1 PUSH1 0x5 PUSH0 DUP3 DUP2 MSTORE PUSH1 0x20 ADD SWAP1 DUP2 MSTORE PUSH1 0x20 ADD PUSH0 KECCAK256 PUSH1 0x8 ADD PUSH0 SWAP1 SLOAD SWAP1 PUSH2 0x100 EXP SWAP1 DIV PUSH20 0xFFFFFFFFFFFFFFFFFFFFFFFFFFFFFFFFFFFFFFFF AND PUSH20 0xFFFFFFFFFFFFFFFFFFFFFFFFFFFFFFFFFFFFFFFF AND CALLER PUSH20 0xFFFFFFFFFFFFFFFFFFFFFFFFFFFFFFFFFFFFFFFF AND EQ PUSH2 0xD2C JUMPI PUSH1 0x40 MLOAD PUSH32 0x8C379A000000000000000000000000000000000000000000000000000000000 DUP2 MSTORE PUSH1 0x4 ADD PUSH2 0xD23 SWAP1 PUSH2 0x28CA JUMP JUMPDEST PUSH1 0x40 MLOAD DUP1 SWAP2 SUB SWAP1 REVERT JUMPDEST DUP2 PUSH0 PUSH1 0x6 PUSH0 PUSH1 0x5 PUSH0 DUP6 DUP2 MSTORE PUSH1 0x20 ADD SWAP1 DUP2 MSTORE PUSH1 0x20 ADD PUSH0 KECCAK256 PUSH1 0x1 ADD SLOAD DUP2 MSTORE PUSH1 0x20 ADD SWAP1 DUP2 MSTORE PUSH1 0x20 ADD PUSH0 KECCAK256 PUSH1 0x6 ADD SLOAD PUSH1 0x6 PUSH0 PUSH1 0x5 PUSH0 DUP7 DUP2 MSTORE PUSH1 0x20 ADD SWAP1 DUP2 MSTORE PUSH1 0x20 ADD PUSH0 KECCAK256 PUSH1 0x1 ADD SLOAD DUP2 MSTORE PUSH1 0x20 ADD SWAP1 DUP2 MSTORE PUSH1 0x20 ADD PUSH0 KECCAK256 PUSH1 0x7 ADD SLOAD PUSH2 0xD8A SWAP2 SWAP1 PUSH2 0x2336 JUMP JUMPDEST SWAP1 POP DUP1 TIMESTAMP LT ISZERO PUSH2 0xDCF JUMPI PUSH1 0x40 MLOAD PUSH32 0x8C379A000000000000000000000000000000000000000000000000000000000 DUP2 MSTORE PUSH1 0x4 ADD PUSH2 0xDC6 SWAP1 PUSH2 0x2932 JUMP JUMPDEST PUSH1 0x40 MLOAD DUP1 SWAP2 SUB SWAP1 REVERT JUMPDEST DUP4 PUSH1 0x5 PUSH0 DUP3 DUP2 MSTORE PUSH1 0x20 ADD SWAP1 DUP2 MSTORE PUSH1 0x20 ADD PUSH0 KECCAK256 PUSH1 0x4 ADD SLOAD CALLVALUE LT ISZERO PUSH2 0xE27 JUMPI PUSH1 0x40 MLOAD PUSH32 0x8C379A000000000000000000000000000000000000000000000000000000000 DUP2 MSTORE PUSH1 0x4 ADD PUSH2 0xE1E SWAP1 PUSH2 0x299A JUMP JUMPDEST PUSH1 0x40 MLOAD DUP1 SWAP2 SUB SWAP1 REVERT JUMPDEST PUSH0 PUSH20 0xFFFFFFFFFFFFFFFFFFFFFFFFFFFFFFFFFFFFFFFF AND CALLER PUSH20 0xFFFFFFFFFFFFFFFFFFFFFFFFFFFFFFFFFFFFFFFF AND SUB PUSH2 0xE5E JUMPI PUSH0 DUP1 REVERT JUMPDEST PUSH0 PUSH1 0x5 PUSH0 DUP8 DUP2 MSTORE PUSH1 0x20 ADD SWAP1 DUP2 MSTORE PUSH1 0x20 ADD PUSH0 KECCAK256 PUSH1 0x7 ADD PUSH1 0x1 SWAP1 SLOAD SWAP1 PUSH2 0x100 EXP SWAP1 DIV PUSH20 0xFFFFFFFFFFFFFFFFFFFFFFFFFFFFFFFFFFFFFFFF AND SWAP1 POP PUSH0 PUSH1 0x5 PUSH0 DUP9 DUP2 MSTORE PUSH1 0x20 ADD SWAP1 DUP2 MSTORE PUSH1 0x20 ADD PUSH0 KECCAK256 PUSH1 0x4 ADD SLOAD SWAP1 POP PUSH0 DUP3 PUSH20 0xFFFFFFFFFFFFFFFFFFFFFFFFFFFFFFFFFFFFFFFF AND DUP3 PUSH1 0x40 MLOAD PUSH2 0xED3 SWAP1 PUSH2 0x2466 JUMP JUMPDEST PUSH0 PUSH1 0x40 MLOAD DUP1 DUP4 SUB DUP2 DUP6 DUP8 GAS CALL SWAP3 POP POP POP RETURNDATASIZE DUP1 PUSH0 DUP2 EQ PUSH2 0xF0D JUMPI PUSH1 0x40 MLOAD SWAP2 POP PUSH1 0x1F NOT PUSH1 0x3F RETURNDATASIZE ADD AND DUP3 ADD PUSH1 0x40 MSTORE RETURNDATASIZE DUP3 MSTORE RETURNDATASIZE PUSH0 PUSH1 0x20 DUP5 ADD RETURNDATACOPY PUSH2 0xF12 JUMP JUMPDEST PUSH1 0x60 SWAP2 POP JUMPDEST POP POP SWAP1 POP DUP1 PUSH2 0xF56 JUMPI PUSH1 0x40 MLOAD PUSH32 0x8C379A000000000000000000000000000000000000000000000000000000000 DUP2 MSTORE PUSH1 0x4 ADD PUSH2 0xF4D SWAP1 PUSH2 0x2A02 JUMP JUMPDEST PUSH1 0x40 MLOAD DUP1 SWAP2 SUB SWAP1 REVERT JUMPDEST CALLER PUSH1 0x5 PUSH0 DUP11 DUP2 MSTORE PUSH1 0x20 ADD SWAP1 DUP2 MSTORE PUSH1 0x20 ADD PUSH0 KECCAK256 PUSH1 0x8 ADD PUSH0 PUSH2 0x100 EXP DUP2 SLOAD DUP2 PUSH20 0xFFFFFFFFFFFFFFFFFFFFFFFFFFFFFFFFFFFFFFFF MUL NOT AND SWAP1 DUP4 PUSH20 0xFFFFFFFFFFFFFFFFFFFFFFFFFFFFFFFFFFFFFFFF AND MUL OR SWAP1 SSTORE POP PUSH0 PUSH1 0x5 PUSH0 DUP11 DUP2 MSTORE PUSH1 0x20 ADD SWAP1 DUP2 MSTORE PUSH1 0x20 ADD PUSH0 KECCAK256 PUSH1 0x7 ADD PUSH0 PUSH2 0x100 EXP DUP2 SLOAD DUP2 PUSH1 0xFF MUL NOT AND SWAP1 DUP4 ISZERO ISZERO MUL OR SWAP1 SSTORE POP PUSH1 0x4 PUSH0 DUP2 SLOAD DUP1 SWAP3 SWAP2 SWAP1 PUSH2 0xFE5 SWAP1 PUSH2 0x24E2 JUMP JUMPDEST SWAP2 SWAP1 POP SSTORE POP PUSH1 0x40 MLOAD DUP1 PUSH2 0x120 ADD PUSH1 0x40 MSTORE DUP1 PUSH1 0x4 SLOAD DUP2 MSTORE PUSH1 0x20 ADD DUP10 DUP2 MSTORE PUSH1 0x20 ADD PUSH1 0x3 SLOAD DUP2 MSTORE PUSH1 0x20 ADD PUSH1 0x5 PUSH0 DUP12 DUP2 MSTORE PUSH1 0x20 ADD SWAP1 DUP2 MSTORE PUSH1 0x20 ADD PUSH0 KECCAK256 PUSH1 0x2 ADD DUP1 SLOAD PUSH2 0x102B SWAP1 PUSH2 0x2556 JUMP JUMPDEST DUP1 PUSH1 0x1F ADD PUSH1 0x20 DUP1 SWAP2 DIV MUL PUSH1 0x20 ADD PUSH1 0x40 MLOAD SWAP1 DUP2 ADD PUSH1 0x40 MSTORE DUP1 SWAP3 SWAP2 SWAP1 DUP2 DUP2 MSTORE PUSH1 0x20 ADD DUP3 DUP1 SLOAD PUSH2 0x1057 SWAP1 PUSH2 0x2556 JUMP JUMPDEST DUP1 ISZERO PUSH2 0x10A2 JUMPI DUP1 PUSH1 0x1F LT PUSH2 0x1079 JUMPI PUSH2 0x100 DUP1 DUP4 SLOAD DIV MUL DUP4 MSTORE SWAP2 PUSH1 0x20 ADD SWAP2 PUSH2 0x10A2 JUMP JUMPDEST DUP3 ADD SWAP2 SWAP1 PUSH0 MSTORE PUSH1 0x20 PUSH0 KECCAK256 SWAP1 JUMPDEST DUP2 SLOAD DUP2 MSTORE SWAP1 PUSH1 0x1 ADD SWAP1 PUSH1 0x20 ADD DUP1 DUP4 GT PUSH2 0x1085 JUMPI DUP3 SWAP1 SUB PUSH1 0x1F AND DUP3 ADD SWAP2 JUMPDEST POP POP POP POP POP DUP2 MSTORE PUSH1 0x20 ADD PUSH1 0x5 PUSH0 DUP12 DUP2 MSTORE PUSH1 0x20 ADD SWAP1 DUP2 MSTORE PUSH1 0x20 ADD PUSH0 KECCAK256 PUSH1 0x3 ADD DUP1 SLOAD PUSH2 0x10CB SWAP1 PUSH2 0x2556 JUMP JUMPDEST DUP1 PUSH1 0x1F ADD PUSH1 0x20 DUP1 SWAP2 DIV MUL PUSH1 0x20 ADD PUSH1 0x40 MLOAD SWAP1 DUP2 ADD PUSH1 0x40 MSTORE DUP1 SWAP3 SWAP2 SWAP1 DUP2 DUP2 MSTORE PUSH1 0x20 ADD DUP3 DUP1 SLOAD PUSH2 0x10F7 SWAP1 PUSH2 0x2556 JUMP JUMPDEST DUP1 ISZERO PUSH2 0x1142 JUMPI DUP1 PUSH1 0x1F LT PUSH2 0x1119 JUMPI PUSH2 0x100 DUP1 DUP4 SLOAD DIV MUL DUP4 MSTORE SWAP2 PUSH1 0x20 ADD SWAP2 PUSH2 0x1142 JUMP JUMPDEST DUP3 ADD SWAP2 SWAP1 PUSH0 MSTORE PUSH1 0x20 PUSH0 KECCAK256 SWAP1 JUMPDEST DUP2 SLOAD DUP2 MSTORE SWAP1 PUSH1 0x1 ADD SWAP1 PUSH1 0x20 ADD DUP1 DUP4 GT PUSH2 0x1125 JUMPI DUP3 SWAP1 SUB PUSH1 0x1F AND DUP3 ADD SWAP2 JUMPDEST POP POP POP POP POP DUP2 MSTORE PUSH1 0x20 ADD PUSH1 0x5 PUSH0 DUP12 DUP2 MSTORE PUSH1 0x20 ADD SWAP1 DUP2 MSTORE PUSH1 0x20 ADD PUSH0 KECCAK256 PUSH1 0x4 ADD SLOAD DUP2 MSTORE PUSH1 0x20 ADD TIMESTAMP DUP2 MSTORE PUSH1 0x20 ADD CALLER PUSH20 0xFFFFFFFFFFFFFFFFFFFFFFFFFFFFFFFFFFFFFFFF AND DUP2 MSTORE PUSH1 0x20 ADD DUP5 PUSH20 0xFFFFFFFFFFFFFFFFFFFFFFFFFFFFFFFFFFFFFFFF AND DUP2 MSTORE POP PUSH1 0x7 PUSH0 PUSH1 0x4 SLOAD DUP2 MSTORE PUSH1 0x20 ADD SWAP1 DUP2 MSTORE PUSH1 0x20 ADD PUSH0 KECCAK256 PUSH0 DUP3 ADD MLOAD DUP2 PUSH0 ADD SSTORE PUSH1 0x20 DUP3 ADD MLOAD DUP2 PUSH1 0x1 ADD SSTORE PUSH1 0x40 DUP3 ADD MLOAD DUP2 PUSH1 0x2 ADD SSTORE PUSH1 0x60 DUP3 ADD MLOAD DUP2 PUSH1 0x3 ADD SWAP1 DUP2 PUSH2 0x11E6 SWAP2 SWAP1 PUSH2 0x2723 JUMP JUMPDEST POP PUSH1 0x80 DUP3 ADD MLOAD DUP2 PUSH1 0x4 ADD SWAP1 DUP2 PUSH2 0x11FC SWAP2 SWAP1 PUSH2 0x2723 JUMP JUMPDEST POP PUSH1 0xA0 DUP3 ADD MLOAD DUP2 PUSH1 0x5 ADD SSTORE PUSH1 0xC0 DUP3 ADD MLOAD DUP2 PUSH1 0x6 ADD SSTORE PUSH1 0xE0 DUP3 ADD MLOAD DUP2 PUSH1 0x7 ADD PUSH0 PUSH2 0x100 EXP DUP2 SLOAD DUP2 PUSH20 0xFFFFFFFFFFFFFFFFFFFFFFFFFFFFFFFFFFFFFFFF MUL NOT AND SWAP1 DUP4 PUSH20 0xFFFFFFFFFFFFFFFFFFFFFFFFFFFFFFFFFFFFFFFF AND MUL OR SWAP1 SSTORE POP PUSH2 0x100 DUP3 ADD MLOAD DUP2 PUSH1 0x8 ADD PUSH0 PUSH2 0x100 EXP DUP2 SLOAD DUP2 PUSH20 0xFFFFFFFFFFFFFFFFFFFFFFFFFFFFFFFFFFFFFFFF MUL NOT AND SWAP1 DUP4 PUSH20 0xFFFFFFFFFFFFFFFFFFFFFFFFFFFFFFFFFFFFFFFF AND MUL OR SWAP1 SSTORE POP SWAP1 POP POP POP POP POP POP POP POP POP POP JUMP JUMPDEST DUP2 PUSH1 0x5 PUSH0 DUP3 DUP2 MSTORE PUSH1 0x20 ADD SWAP1 DUP2 MSTORE PUSH1 0x20 ADD PUSH0 KECCAK256 PUSH1 0x7 ADD PUSH1 0x1 SWAP1 SLOAD SWAP1 PUSH2 0x100 EXP SWAP1 DIV PUSH20 0xFFFFFFFFFFFFFFFFFFFFFFFFFFFFFFFFFFFFFFFF AND PUSH20 0xFFFFFFFFFFFFFFFFFFFFFFFFFFFFFFFFFFFFFFFF AND CALLER PUSH20 0xFFFFFFFFFFFFFFFFFFFFFFFFFFFFFFFFFFFFFFFF AND SUB PUSH2 0x134E JUMPI PUSH1 0x40 MLOAD PUSH32 0x8C379A000000000000000000000000000000000000000000000000000000000 DUP2 MSTORE PUSH1 0x4 ADD PUSH2 0x1345 SWAP1 PUSH2 0x2A6A JUMP JUMPDEST PUSH1 0x40 MLOAD DUP1 SWAP2 SUB SWAP1 REVERT JUMPDEST DUP3 PUSH1 0x5 PUSH0 DUP3 DUP2 MSTORE PUSH1 0x20 ADD SWAP1 DUP2 MSTORE PUSH1 0x20 ADD PUSH0 KECCAK256 PUSH1 0x5 ADD SLOAD PUSH1 0x5 PUSH0 DUP4 DUP2 MSTORE PUSH1 0x20 ADD SWAP1 DUP2 MSTORE PUSH1 0x20 ADD PUSH0 KECCAK256 PUSH1 0x4 ADD SLOAD PUSH2 0x1383 SWAP2 SWAP1 PUSH2 0x2336 JUMP JUMPDEST CALLVALUE LT ISZERO PUSH2 0x138E JUMPI PUSH0 DUP1 REVERT JUMPDEST DUP4 PUSH1 0x1 ISZERO ISZERO PUSH1 0x5 PUSH0 DUP4 DUP2 MSTORE PUSH1 0x20 ADD SWAP1 DUP2 MSTORE PUSH1 0x20 ADD PUSH0 KECCAK256 PUSH1 0x7 ADD PUSH0 SWAP1 SLOAD SWAP1 PUSH2 0x100 EXP SWAP1 DIV PUSH1 0xFF AND ISZERO ISZERO EQ PUSH2 0x13F6 JUMPI PUSH1 0x40 MLOAD PUSH32 0x8C379A000000000000000000000000000000000000000000000000000000000 DUP2 MSTORE PUSH1 0x4 ADD PUSH2 0x13ED SWAP1 PUSH2 0x2AD2 JUMP JUMPDEST PUSH1 0x40 MLOAD DUP1 SWAP2 SUB SWAP1 REVERT JUMPDEST PUSH0 PUSH20 0xFFFFFFFFFFFFFFFFFFFFFFFFFFFFFFFFFFFFFFFF AND CALLER PUSH20 0xFFFFFFFFFFFFFFFFFFFFFFFFFFFFFFFFFFFFFFFF AND SUB PUSH2 0x142D JUMPI PUSH0 DUP1 REVERT JUMPDEST PUSH0 PUSH1 0x5 PUSH0 DUP8 DUP2 MSTORE PUSH1 0x20 ADD SWAP1 DUP2 MSTORE PUSH1 0x20 ADD PUSH0 KECCAK256 PUSH1 0x7 ADD PUSH1 0x1 SWAP1 SLOAD SWAP1 PUSH2 0x100 EXP SWAP1 DIV PUSH20 0xFFFFFFFFFFFFFFFFFFFFFFFFFFFFFFFFFFFFFFFF AND SWAP1 POP PUSH0 PUSH1 0x5 PUSH0 DUP9 DUP2 MSTORE PUSH1 0x20 ADD SWAP1 DUP2 MSTORE PUSH1 0x20 ADD PUSH0 KECCAK256 PUSH1 0x5 ADD SLOAD PUSH1 0x5 PUSH0 DUP10 DUP2 MSTORE PUSH1 0x20 ADD SWAP1 DUP2 MSTORE PUSH1 0x20 ADD PUSH0 KECCAK256 PUSH1 0x4 ADD SLOAD PUSH2 0x149A SWAP2 SWAP1 PUSH2 0x2336 JUMP JUMPDEST SWAP1 POP PUSH0 DUP3 PUSH20 0xFFFFFFFFFFFFFFFFFFFFFFFFFFFFFFFFFFFFFFFF AND DUP3 PUSH1 0x40 MLOAD PUSH2 0x14C1 SWAP1 PUSH2 0x2466 JUMP JUMPDEST PUSH0 PUSH1 0x40 MLOAD DUP1 DUP4 SUB DUP2 DUP6 DUP8 GAS CALL SWAP3 POP POP POP RETURNDATASIZE DUP1 PUSH0 DUP2 EQ PUSH2 0x14FB JUMPI PUSH1 0x40 MLOAD SWAP2 POP PUSH1 0x1F NOT PUSH1 0x3F RETURNDATASIZE ADD AND DUP3 ADD PUSH1 0x40 MSTORE RETURNDATASIZE DUP3 MSTORE RETURNDATASIZE PUSH0 PUSH1 0x20 DUP5 ADD RETURNDATACOPY PUSH2 0x1500 JUMP JUMPDEST PUSH1 0x60 SWAP2 POP JUMPDEST POP POP SWAP1 POP DUP1 PUSH2 0x1544 JUMPI PUSH1 0x40 MLOAD PUSH32 0x8C379A000000000000000000000000000000000000000000000000000000000 DUP2 MSTORE PUSH1 0x4 ADD PUSH2 0x153B SWAP1 PUSH2 0x2B3A JUMP JUMPDEST PUSH1 0x40 MLOAD DUP1 SWAP2 SUB SWAP1 REVERT JUMPDEST PUSH1 0x3 PUSH0 DUP2 SLOAD DUP1 SWAP3 SWAP2 SWAP1 PUSH2 0x1556 SWAP1 PUSH2 0x24E2 JUMP JUMPDEST SWAP2 SWAP1 POP SSTORE POP CALLER PUSH1 0x5 PUSH0 DUP11 DUP2 MSTORE PUSH1 0x20 ADD SWAP1 DUP2 MSTORE PUSH1 0x20 ADD PUSH0 KECCAK256 PUSH1 0x8 ADD PUSH0 PUSH2 0x100 EXP DUP2 SLOAD DUP2 PUSH20 0xFFFFFFFFFFFFFFFFFFFFFFFFFFFFFFFFFFFFFFFF MUL NOT AND SWAP1 DUP4 PUSH20 0xFFFFFFFFFFFFFFFFFFFFFFFFFFFFFFFFFFFFFFFF AND MUL OR SWAP1 SSTORE POP TIMESTAMP PUSH1 0x5 PUSH0 DUP11 DUP2 MSTORE PUSH1 0x20 ADD SWAP1 DUP2 MSTORE PUSH1 0x20 ADD PUSH0 KECCAK256 PUSH1 0x6 ADD DUP2 SWAP1 SSTORE POP PUSH0 PUSH1 0x5 PUSH0 DUP11 DUP2 MSTORE PUSH1 0x20 ADD SWAP1 DUP2 MSTORE PUSH1 0x20 ADD PUSH0 KECCAK256 PUSH1 0x7 ADD PUSH0 PUSH2 0x100 EXP DUP2 SLOAD DUP2 PUSH1 0xFF MUL NOT AND SWAP1 DUP4 ISZERO ISZERO MUL OR SWAP1 SSTORE POP PUSH1 0x3 SLOAD PUSH1 0x5 PUSH0 DUP11 DUP2 MSTORE PUSH1 0x20 ADD SWAP1 DUP2 MSTORE PUSH1 0x20 ADD PUSH0 KECCAK256 PUSH1 0x1 ADD DUP2 SWAP1 SSTORE POP PUSH1 0x40 MLOAD DUP1 PUSH2 0x140 ADD PUSH1 0x40 MSTORE DUP1 DUP10 DUP2 MSTORE PUSH1 0x20 ADD PUSH1 0x3 SLOAD DUP2 MSTORE PUSH1 0x20 ADD PUSH1 0x5 PUSH0 DUP12 DUP2 MSTORE PUSH1 0x20 ADD SWAP1 DUP2 MSTORE PUSH1 0x20 ADD PUSH0 KECCAK256 PUSH1 0x2 ADD DUP1 SLOAD PUSH2 0x1645 SWAP1 PUSH2 0x2556 JUMP JUMPDEST DUP1 PUSH1 0x1F ADD PUSH1 0x20 DUP1 SWAP2 DIV MUL PUSH1 0x20 ADD PUSH1 0x40 MLOAD SWAP1 DUP2 ADD PUSH1 0x40 MSTORE DUP1 SWAP3 SWAP2 SWAP1 DUP2 DUP2 MSTORE PUSH1 0x20 ADD DUP3 DUP1 SLOAD PUSH2 0x1671 SWAP1 PUSH2 0x2556 JUMP JUMPDEST DUP1 ISZERO PUSH2 0x16BC JUMPI DUP1 PUSH1 0x1F LT PUSH2 0x1693 JUMPI PUSH2 0x100 DUP1 DUP4 SLOAD DIV MUL DUP4 MSTORE SWAP2 PUSH1 0x20 ADD SWAP2 PUSH2 0x16BC JUMP JUMPDEST DUP3 ADD SWAP2 SWAP1 PUSH0 MSTORE PUSH1 0x20 PUSH0 KECCAK256 SWAP1 JUMPDEST DUP2 SLOAD DUP2 MSTORE SWAP1 PUSH1 0x1 ADD SWAP1 PUSH1 0x20 ADD DUP1 DUP4 GT PUSH2 0x169F JUMPI DUP3 SWAP1 SUB PUSH1 0x1F AND DUP3 ADD SWAP2 JUMPDEST POP POP POP POP POP DUP2 MSTORE PUSH1 0x20 ADD PUSH1 0x5 PUSH0 DUP12 DUP2 MSTORE PUSH1 0x20 ADD SWAP1 DUP2 MSTORE PUSH1 0x20 ADD PUSH0 KECCAK256 PUSH1 0x3 ADD DUP1 SLOAD PUSH2 0x16E5 SWAP1 PUSH2 0x2556 JUMP JUMPDEST DUP1 PUSH1 0x1F ADD PUSH1 0x20 DUP1 SWAP2 DIV MUL PUSH1 0x20 ADD PUSH1 0x40 MLOAD SWAP1 DUP2 ADD PUSH1 0x40 MSTORE DUP1 SWAP3 SWAP2 SWAP1 DUP2 DUP2 MSTORE PUSH1 0x20 ADD DUP3 DUP1 SLOAD PUSH2 0x1711 SWAP1 PUSH2 0x2556 JUMP JUMPDEST DUP1 ISZERO PUSH2 0x175C JUMPI DUP1 PUSH1 0x1F LT PUSH2 0x1733 JUMPI PUSH2 0x100 DUP1 DUP4 SLOAD DIV MUL DUP4 MSTORE SWAP2 PUSH1 0x20 ADD SWAP2 PUSH2 0x175C JUMP JUMPDEST DUP3 ADD SWAP2 SWAP1 PUSH0 MSTORE PUSH1 0x20 PUSH0 KECCAK256 SWAP1 JUMPDEST DUP2 SLOAD DUP2 MSTORE SWAP1 PUSH1 0x1 ADD SWAP1 PUSH1 0x20 ADD DUP1 DUP4 GT PUSH2 0x173F JUMPI DUP3 SWAP1 SUB PUSH1 0x1F AND DUP3 ADD SWAP2 JUMPDEST POP POP POP POP POP DUP2 MSTORE PUSH1 0x20 ADD PUSH1 0x5 PUSH0 DUP12 DUP2 MSTORE PUSH1 0x20 ADD SWAP1 DUP2 MSTORE PUSH1 0x20 ADD PUSH0 KECCAK256 PUSH1 0x4 ADD SLOAD DUP2 MSTORE PUSH1 0x20 ADD PUSH1 0x5 PUSH0 DUP12 DUP2 MSTORE PUSH1 0x20 ADD SWAP1 DUP2 MSTORE PUSH1 0x20 ADD PUSH0 KECCAK256 PUSH1 0x5 ADD SLOAD DUP2 MSTORE PUSH1 0x20 ADD DUP9 DUP2 MSTORE PUSH1 0x20 ADD TIMESTAMP DUP2 MSTORE PUSH1 0x20 ADD CALLER PUSH20 0xFFFFFFFFFFFFFFFFFFFFFFFFFFFFFFFFFFFFFFFF AND DUP2 MSTORE PUSH1 0x20 ADD DUP5 PUSH20 0xFFFFFFFFFFFFFFFFFFFFFFFFFFFFFFFFFFFFFFFF AND DUP2 MSTORE POP PUSH1 0x6 PUSH0 PUSH1 0x3 SLOAD DUP2 MSTORE PUSH1 0x20 ADD SWAP1 DUP2 MSTORE PUSH1 0x20 ADD PUSH0 KECCAK256 PUSH0 DUP3 ADD MLOAD DUP2 PUSH0 ADD SSTORE PUSH1 0x20 DUP3 ADD MLOAD DUP2 PUSH1 0x1 ADD SSTORE PUSH1 0x40 DUP3 ADD MLOAD DUP2 PUSH1 0x2 ADD SWAP1 DUP2 PUSH2 0x1816 SWAP2 SWAP1 PUSH2 0x2723 JUMP JUMPDEST POP PUSH1 0x60 DUP3 ADD MLOAD DUP2 PUSH1 0x3 ADD SWAP1 DUP2 PUSH2 0x182C SWAP2 SWAP1 PUSH2 0x2723 JUMP JUMPDEST POP PUSH1 0x80 DUP3 ADD MLOAD DUP2 PUSH1 0x4 ADD SSTORE PUSH1 0xA0 DUP3 ADD MLOAD DUP2 PUSH1 0x5 ADD SSTORE PUSH1 0xC0 DUP3 ADD MLOAD DUP2 PUSH1 0x6 ADD SSTORE PUSH1 0xE0 DUP3 ADD MLOAD DUP2 PUSH1 0x7 ADD SSTORE PUSH2 0x100 DUP3 ADD MLOAD DUP2 PUSH1 0x8 ADD PUSH0 PUSH2 0x100 EXP DUP2 SLOAD DUP2 PUSH20 0xFFFFFFFFFFFFFFFFFFFFFFFFFFFFFFFFFFFFFFFF MUL NOT AND SWAP1 DUP4 PUSH20 0xFFFFFFFFFFFFFFFFFFFFFFFFFFFFFFFFFFFFFFFF AND MUL OR SWAP1 SSTORE POP PUSH2 0x120 DUP3 ADD MLOAD DUP2 PUSH1 0x9 ADD PUSH0 PUSH2 0x100 EXP DUP2 SLOAD DUP2 PUSH20 0xFFFFFFFFFFFFFFFFFFFFFFFFFFFFFFFFFFFFFFFF MUL NOT AND SWAP1 DUP4 PUSH20 0xFFFFFFFFFFFFFFFFFFFFFFFFFFFFFFFFFFFFFFFF AND MUL OR SWAP1 SSTORE POP SWAP1 POP POP PUSH1 0x4 PUSH0 DUP2 SLOAD DUP1 SWAP3 SWAP2 SWAP1 PUSH2 0x18F8 SWAP1 PUSH2 0x24E2 JUMP JUMPDEST SWAP2 SWAP1 POP SSTORE POP PUSH1 0x40 MLOAD DUP1 PUSH2 0x120 ADD PUSH1 0x40 MSTORE DUP1 PUSH1 0x4 SLOAD DUP2 MSTORE PUSH1 0x20 ADD DUP10 DUP2 MSTORE PUSH1 0x20 ADD PUSH1 0x3 SLOAD DUP2 MSTORE PUSH1 0x20 ADD PUSH1 0x5 PUSH0 DUP12 DUP2 MSTORE PUSH1 0x20 ADD SWAP1 DUP2 MSTORE PUSH1 0x20 ADD PUSH0 KECCAK256 PUSH1 0x2 ADD DUP1 SLOAD PUSH2 0x193E SWAP1 PUSH2 0x2556 JUMP JUMPDEST DUP1 PUSH1 0x1F ADD PUSH1 0x20 DUP1 SWAP2 DIV MUL PUSH1 0x20 ADD PUSH1 0x40 MLOAD SWAP1 DUP2 ADD PUSH1 0x40 MSTORE DUP1 SWAP3 SWAP2 SWAP1 DUP2 DUP2 MSTORE PUSH1 0x20 ADD DUP3 DUP1 SLOAD PUSH2 0x196A SWAP1 PUSH2 0x2556 JUMP JUMPDEST DUP1 ISZERO PUSH2 0x19B5 JUMPI DUP1 PUSH1 0x1F LT PUSH2 0x198C JUMPI PUSH2 0x100 DUP1 DUP4 SLOAD DIV MUL DUP4 MSTORE SWAP2 PUSH1 0x20 ADD SWAP2 PUSH2 0x19B5 JUMP JUMPDEST DUP3 ADD SWAP2 SWAP1 PUSH0 MSTORE PUSH1 0x20 PUSH0 KECCAK256 SWAP1 JUMPDEST DUP2 SLOAD DUP2 MSTORE SWAP1 PUSH1 0x1 ADD SWAP1 PUSH1 0x20 ADD DUP1 DUP4 GT PUSH2 0x1998 JUMPI DUP3 SWAP1 SUB PUSH1 0x1F AND DUP3 ADD SWAP2 JUMPDEST POP POP POP POP POP DUP2 MSTORE PUSH1 0x20 ADD PUSH1 0x5 PUSH0 DUP12 DUP2 MSTORE PUSH1 0x20 ADD SWAP1 DUP2 MSTORE PUSH1 0x20 ADD PUSH0 KECCAK256 PUSH1 0x3 ADD DUP1 SLOAD PUSH2 0x19DE SWAP1 PUSH2 0x2556 JUMP JUMPDEST DUP1 PUSH1 0x1F ADD PUSH1 0x20 DUP1 SWAP2 DIV MUL PUSH1 0x20 ADD PUSH1 0x40 MLOAD SWAP1 DUP2 ADD PUSH1 0x40 MSTORE DUP1 SWAP3 SWAP2 SWAP1 DUP2 DUP2 MSTORE PUSH1 0x20 ADD DUP3 DUP1 SLOAD PUSH2 0x1A0A SWAP1 PUSH2 0x2556 JUMP JUMPDEST DUP1 ISZERO PUSH2 0x1A55 JUMPI DUP1 PUSH1 0x1F LT PUSH2 0x1A2C JUMPI PUSH2 0x100 DUP1 DUP4 SLOAD DIV MUL DUP4 MSTORE SWAP2 PUSH1 0x20 ADD SWAP2 PUSH2 0x1A55 JUMP JUMPDEST DUP3 ADD SWAP2 SWAP1 PUSH0 MSTORE PUSH1 0x20 PUSH0 KECCAK256 SWAP1 JUMPDEST DUP2 SLOAD DUP2 MSTORE SWAP1 PUSH1 0x1 ADD SWAP1 PUSH1 0x20 ADD DUP1 DUP4 GT PUSH2 0x1A38 JUMPI DUP3 SWAP1 SUB PUSH1 0x1F AND DUP3 ADD SWAP2 JUMPDEST POP POP POP POP POP DUP2 MSTORE PUSH1 0x20 ADD PUSH1 0x5 PUSH0 DUP12 DUP2 MSTORE PUSH1 0x20 ADD SWAP1 DUP2 MSTORE PUSH1 0x20 ADD PUSH0 KECCAK256 PUSH1 0x4 ADD SLOAD DUP2 MSTORE PUSH1 0x20 ADD TIMESTAMP DUP2 MSTORE PUSH1 0x20 ADD CALLER PUSH20 0xFFFFFFFFFFFFFFFFFFFFFFFFFFFFFFFFFFFFFFFF AND DUP2 MSTORE PUSH1 0x20 ADD DUP5 PUSH20 0xFFFFFFFFFFFFFFFFFFFFFFFFFFFFFFFFFFFFFFFF AND DUP2 MSTORE POP PUSH1 0x7 PUSH0 PUSH1 0x4 SLOAD DUP2 MSTORE PUSH1 0x20 ADD SWAP1 DUP2 MSTORE PUSH1 0x20 ADD PUSH0 KECCAK256 PUSH0 DUP3 ADD MLOAD DUP2 PUSH0 ADD SSTORE PUSH1 0x20 DUP3 ADD MLOAD DUP2 PUSH1 0x1 ADD SSTORE PUSH1 0x40 DUP3 ADD MLOAD DUP2 PUSH1 0x2 ADD SSTORE PUSH1 0x60 DUP3 ADD MLOAD DUP2 PUSH1 0x3 ADD SWAP1 DUP2 PUSH2 0x1AF9 SWAP2 SWAP1 PUSH2 0x2723 JUMP JUMPDEST POP PUSH1 0x80 DUP3 ADD MLOAD DUP2 PUSH1 0x4 ADD SWAP1 DUP2 PUSH2 0x1B0F SWAP2 SWAP1 PUSH2 0x2723 JUMP JUMPDEST POP PUSH1 0xA0 DUP3 ADD MLOAD DUP2 PUSH1 0x5 ADD SSTORE PUSH1 0xC0 DUP3 ADD MLOAD DUP2 PUSH1 0x6 ADD SSTORE PUSH1 0xE0 DUP3 ADD MLOAD DUP2 PUSH1 0x7 ADD PUSH0 PUSH2 0x100 EXP DUP2 SLOAD DUP2 PUSH20 0xFFFFFFFFFFFFFFFFFFFFFFFFFFFFFFFFFFFFFFFF MUL NOT AND SWAP1 DUP4 PUSH20 0xFFFFFFFFFFFFFFFFFFFFFFFFFFFFFFFFFFFFFFFF AND MUL OR SWAP1 SSTORE POP PUSH2 0x100 DUP3 ADD MLOAD DUP2 PUSH1 0x8 ADD PUSH0 PUSH2 0x100 EXP DUP2 SLOAD DUP2 PUSH20 0xFFFFFFFFFFFFFFFFFFFFFFFFFFFFFFFFFFFFFFFF MUL NOT AND SWAP1 DUP4 PUSH20 0xFFFFFFFFFFFFFFFFFFFFFFFFFFFFFFFFFFFFFFFF AND MUL OR SWAP1 SSTORE POP SWAP1 POP POP POP POP POP POP POP POP POP POP JUMP JUMPDEST PUSH1 0x7 PUSH1 0x20 MSTORE DUP1 PUSH0 MSTORE PUSH1 0x40 PUSH0 KECCAK256 PUSH0 SWAP2 POP SWAP1 POP DUP1 PUSH0 ADD SLOAD SWAP1 DUP1 PUSH1 0x1 ADD SLOAD SWAP1 DUP1 PUSH1 0x2 ADD SLOAD SWAP1 DUP1 PUSH1 0x3 ADD DUP1 SLOAD PUSH2 0x1BEF SWAP1 PUSH2 0x2556 JUMP JUMPDEST DUP1 PUSH1 0x1F ADD PUSH1 0x20 DUP1 SWAP2 DIV MUL PUSH1 0x20 ADD PUSH1 0x40 MLOAD SWAP1 DUP2 ADD PUSH1 0x40 MSTORE DUP1 SWAP3 SWAP2 SWAP1 DUP2 DUP2 MSTORE PUSH1 0x20 ADD DUP3 DUP1 SLOAD PUSH2 0x1C1B SWAP1 PUSH2 0x2556 JUMP JUMPDEST DUP1 ISZERO PUSH2 0x1C66 JUMPI DUP1 PUSH1 0x1F LT PUSH2 0x1C3D JUMPI PUSH2 0x100 DUP1 DUP4 SLOAD DIV MUL DUP4 MSTORE SWAP2 PUSH1 0x20 ADD SWAP2 PUSH2 0x1C66 JUMP JUMPDEST DUP3 ADD SWAP2 SWAP1 PUSH0 MSTORE PUSH1 0x20 PUSH0 KECCAK256 SWAP1 JUMPDEST DUP2 SLOAD DUP2 MSTORE SWAP1 PUSH1 0x1 ADD SWAP1 PUSH1 0x20 ADD DUP1 DUP4 GT PUSH2 0x1C49 JUMPI DUP3 SWAP1 SUB PUSH1 0x1F AND DUP3 ADD SWAP2 JUMPDEST POP POP POP POP POP SWAP1 DUP1 PUSH1 0x4 ADD DUP1 SLOAD PUSH2 0x1C7B SWAP1 PUSH2 0x2556 JUMP JUMPDEST DUP1 PUSH1 0x1F ADD PUSH1 0x20 DUP1 SWAP2 DIV MUL PUSH1 0x20 ADD PUSH1 0x40 MLOAD SWAP1 DUP2 ADD PUSH1 0x40 MSTORE DUP1 SWAP3 SWAP2 SWAP1 DUP2 DUP2 MSTORE PUSH1 0x20 ADD DUP3 DUP1 SLOAD PUSH2 0x1CA7 SWAP1 PUSH2 0x2556 JUMP JUMPDEST DUP1 ISZERO PUSH2 0x1CF2 JUMPI DUP1 PUSH1 0x1F LT PUSH2 0x1CC9 JUMPI PUSH2 0x100 DUP1 DUP4 SLOAD DIV MUL DUP4 MSTORE SWAP2 PUSH1 0x20 ADD SWAP2 PUSH2 0x1CF2 JUMP JUMPDEST DUP3 ADD SWAP2 SWAP1 PUSH0 MSTORE PUSH1 0x20 PUSH0 KECCAK256 SWAP1 JUMPDEST DUP2 SLOAD DUP2 MSTORE SWAP1 PUSH1 0x1 ADD SWAP1 PUSH1 0x20 ADD DUP1 DUP4 GT PUSH2 0x1CD5 JUMPI DUP3 SWAP1 SUB PUSH1 0x1F AND DUP3 ADD SWAP2 JUMPDEST POP POP POP POP POP SWAP1 DUP1 PUSH1 0x5 ADD SLOAD SWAP1 DUP1 PUSH1 0x6 ADD SLOAD SWAP1 DUP1 PUSH1 0x7 ADD PUSH0 SWAP1 SLOAD SWAP1 PUSH2 0x100 EXP SWAP1 DIV PUSH20 0xFFFFFFFFFFFFFFFFFFFFFFFFFFFFFFFFFFFFFFFF AND SWAP1 DUP1 PUSH1 0x8 ADD PUSH0 SWAP1 SLOAD SWAP1 PUSH2 0x100 EXP SWAP1 DIV PUSH20 0xFFFFFFFFFFFFFFFFFFFFFFFFFFFFFFFFFFFFFFFF AND SWAP1 POP DUP10 JUMP JUMPDEST PUSH0 PUSH1 0x40 MLOAD SWAP1 POP SWAP1 JUMP JUMPDEST PUSH0 DUP1 REVERT JUMPDEST PUSH0 DUP1 REVERT JUMPDEST PUSH0 DUP2 SWAP1 POP SWAP2 SWAP1 POP JUMP JUMPDEST PUSH2 0x1D75 DUP2 PUSH2 0x1D63 JUMP JUMPDEST DUP2 EQ PUSH2 0x1D7F JUMPI PUSH0 DUP1 REVERT JUMPDEST POP JUMP JUMPDEST PUSH0 DUP2 CALLDATALOAD SWAP1 POP PUSH2 0x1D90 DUP2 PUSH2 0x1D6C JUMP JUMPDEST SWAP3 SWAP2 POP POP JUMP JUMPDEST PUSH0 PUSH1 0x20 DUP3 DUP5 SUB SLT ISZERO PUSH2 0x1DAB JUMPI PUSH2 0x1DAA PUSH2 0x1D5B JUMP JUMPDEST JUMPDEST PUSH0 PUSH2 0x1DB8 DUP5 DUP3 DUP6 ADD PUSH2 0x1D82 JUMP JUMPDEST SWAP2 POP POP SWAP3 SWAP2 POP POP JUMP JUMPDEST PUSH0 DUP1 REVERT JUMPDEST PUSH0 DUP1 REVERT JUMPDEST PUSH0 PUSH1 0x1F NOT PUSH1 0x1F DUP4 ADD AND SWAP1 POP SWAP2 SWAP1 POP JUMP JUMPDEST PUSH32 0x4E487B7100000000000000000000000000000000000000000000000000000000 PUSH0 MSTORE PUSH1 0x41 PUSH1 0x4 MSTORE PUSH1 0x24 PUSH0 REVERT JUMPDEST PUSH2 0x1E0F DUP3 PUSH2 0x1DC9 JUMP JUMPDEST DUP2 ADD DUP2 DUP2 LT PUSH8 0xFFFFFFFFFFFFFFFF DUP3 GT OR ISZERO PUSH2 0x1E2E JUMPI PUSH2 0x1E2D PUSH2 0x1DD9 JUMP JUMPDEST JUMPDEST DUP1 PUSH1 0x40 MSTORE POP POP POP JUMP JUMPDEST PUSH0 PUSH2 0x1E40 PUSH2 0x1D52 JUMP JUMPDEST SWAP1 POP PUSH2 0x1E4C DUP3 DUP3 PUSH2 0x1E06 JUMP JUMPDEST SWAP2 SWAP1 POP JUMP JUMPDEST PUSH0 PUSH8 0xFFFFFFFFFFFFFFFF DUP3 GT ISZERO PUSH2 0x1E6B JUMPI PUSH2 0x1E6A PUSH2 0x1DD9 JUMP JUMPDEST JUMPDEST PUSH2 0x1E74 DUP3 PUSH2 0x1DC9 JUMP JUMPDEST SWAP1 POP PUSH1 0x20 DUP2 ADD SWAP1 POP SWAP2 SWAP1 POP JUMP JUMPDEST DUP3 DUP2 DUP4 CALLDATACOPY PUSH0 DUP4 DUP4 ADD MSTORE POP POP POP JUMP JUMPDEST PUSH0 PUSH2 0x1EA1 PUSH2 0x1E9C DUP5 PUSH2 0x1E51 JUMP JUMPDEST PUSH2 0x1E37 JUMP JUMPDEST SWAP1 POP DUP3 DUP2 MSTORE PUSH1 0x20 DUP2 ADD DUP5 DUP5 DUP5 ADD GT ISZERO PUSH2 0x1EBD JUMPI PUSH2 0x1EBC PUSH2 0x1DC5 JUMP JUMPDEST JUMPDEST PUSH2 0x1EC8 DUP5 DUP3 DUP6 PUSH2 0x1E81 JUMP JUMPDEST POP SWAP4 SWAP3 POP POP POP JUMP JUMPDEST PUSH0 DUP3 PUSH1 0x1F DUP4 ADD SLT PUSH2 0x1EE4 JUMPI PUSH2 0x1EE3 PUSH2 0x1DC1 JUMP JUMPDEST JUMPDEST DUP2 CALLDATALOAD PUSH2 0x1EF4 DUP5 DUP3 PUSH1 0x20 DUP7 ADD PUSH2 0x1E8F JUMP JUMPDEST SWAP2 POP POP SWAP3 SWAP2 POP POP JUMP JUMPDEST PUSH0 DUP1 PUSH0 DUP1 PUSH1 0x80 DUP6 DUP8 SUB SLT ISZERO PUSH2 0x1F15 JUMPI PUSH2 0x1F14 PUSH2 0x1D5B JUMP JUMPDEST JUMPDEST PUSH0 DUP6 ADD CALLDATALOAD PUSH8 0xFFFFFFFFFFFFFFFF DUP2 GT ISZERO PUSH2 0x1F32 JUMPI PUSH2 0x1F31 PUSH2 0x1D5F JUMP JUMPDEST JUMPDEST PUSH2 0x1F3E DUP8 DUP3 DUP9 ADD PUSH2 0x1ED0 JUMP JUMPDEST SWAP5 POP POP PUSH1 0x20 DUP6 ADD CALLDATALOAD PUSH8 0xFFFFFFFFFFFFFFFF DUP2 GT ISZERO PUSH2 0x1F5F JUMPI PUSH2 0x1F5E PUSH2 0x1D5F JUMP JUMPDEST JUMPDEST PUSH2 0x1F6B DUP8 DUP3 DUP9 ADD PUSH2 0x1ED0 JUMP JUMPDEST SWAP4 POP POP PUSH1 0x40 PUSH2 0x1F7C DUP8 DUP3 DUP9 ADD PUSH2 0x1D82 JUMP JUMPDEST SWAP3 POP POP PUSH1 0x60 PUSH2 0x1F8D DUP8 DUP3 DUP9 ADD PUSH2 0x1D82 JUMP JUMPDEST SWAP2 POP POP SWAP3 SWAP6 SWAP2 SWAP5 POP SWAP3 POP JUMP JUMPDEST PUSH2 0x1FA2 DUP2 PUSH2 0x1D63 JUMP JUMPDEST DUP3 MSTORE POP POP JUMP JUMPDEST PUSH0 PUSH1 0x20 DUP3 ADD SWAP1 POP PUSH2 0x1FBB PUSH0 DUP4 ADD DUP5 PUSH2 0x1F99 JUMP JUMPDEST SWAP3 SWAP2 POP POP JUMP JUMPDEST PUSH0 DUP2 MLOAD SWAP1 POP SWAP2 SWAP1 POP JUMP JUMPDEST PUSH0 DUP3 DUP3 MSTORE PUSH1 0x20 DUP3 ADD SWAP1 POP SWAP3 SWAP2 POP POP JUMP JUMPDEST DUP3 DUP2 DUP4 MCOPY PUSH0 DUP4 DUP4 ADD MSTORE POP POP POP JUMP JUMPDEST PUSH0 PUSH2 0x1FF3 DUP3 PUSH2 0x1FC1 JUMP JUMPDEST PUSH2 0x1FFD DUP2 DUP6 PUSH2 0x1FCB JUMP JUMPDEST SWAP4 POP PUSH2 0x200D DUP2 DUP6 PUSH1 0x20 DUP7 ADD PUSH2 0x1FDB JUMP JUMPDEST PUSH2 0x2016 DUP2 PUSH2 0x1DC9 JUMP JUMPDEST DUP5 ADD SWAP2 POP POP SWAP3 SWAP2 POP POP JUMP JUMPDEST PUSH0 DUP2 ISZERO ISZERO SWAP1 POP SWAP2 SWAP1 POP JUMP JUMPDEST PUSH2 0x2035 DUP2 PUSH2 0x2021 JUMP JUMPDEST DUP3 MSTORE POP POP JUMP JUMPDEST PUSH0 PUSH20 0xFFFFFFFFFFFFFFFFFFFFFFFFFFFFFFFFFFFFFFFF DUP3 AND SWAP1 POP SWAP2 SWAP1 POP JUMP JUMPDEST PUSH0 PUSH2 0x2064 DUP3 PUSH2 0x203B JUMP JUMPDEST SWAP1 POP SWAP2 SWAP1 POP JUMP JUMPDEST PUSH2 0x2074 DUP2 PUSH2 0x205A JUMP JUMPDEST DUP3 MSTORE POP POP JUMP JUMPDEST PUSH0 PUSH2 0x140 DUP3 ADD SWAP1 POP PUSH2 0x208E PUSH0 DUP4 ADD DUP14 PUSH2 0x1F99 JUMP JUMPDEST PUSH2 0x209B PUSH1 0x20 DUP4 ADD DUP13 PUSH2 0x1F99 JUMP JUMPDEST DUP2 DUP2 SUB PUSH1 0x40 DUP4 ADD MSTORE PUSH2 0x20AD DUP2 DUP12 PUSH2 0x1FE9 JUMP JUMPDEST SWAP1 POP DUP2 DUP2 SUB PUSH1 0x60 DUP4 ADD MSTORE PUSH2 0x20C1 DUP2 DUP11 PUSH2 0x1FE9 JUMP JUMPDEST SWAP1 POP PUSH2 0x20D0 PUSH1 0x80 DUP4 ADD DUP10 PUSH2 0x1F99 JUMP JUMPDEST PUSH2 0x20DD PUSH1 0xA0 DUP4 ADD DUP9 PUSH2 0x1F99 JUMP JUMPDEST PUSH2 0x20EA PUSH1 0xC0 DUP4 ADD DUP8 PUSH2 0x1F99 JUMP JUMPDEST PUSH2 0x20F7 PUSH1 0xE0 DUP4 ADD DUP7 PUSH2 0x202C JUMP JUMPDEST PUSH2 0x2105 PUSH2 0x100 DUP4 ADD DUP6 PUSH2 0x206B JUMP JUMPDEST PUSH2 0x2113 PUSH2 0x120 DUP4 ADD DUP5 PUSH2 0x206B JUMP JUMPDEST SWAP12 SWAP11 POP POP POP POP POP POP POP POP POP POP POP JUMP JUMPDEST PUSH0 PUSH2 0x140 DUP3 ADD SWAP1 POP PUSH2 0x2136 PUSH0 DUP4 ADD DUP14 PUSH2 0x1F99 JUMP JUMPDEST PUSH2 0x2143 PUSH1 0x20 DUP4 ADD DUP13 PUSH2 0x1F99 JUMP JUMPDEST DUP2 DUP2 SUB PUSH1 0x40 DUP4 ADD MSTORE PUSH2 0x2155 DUP2 DUP12 PUSH2 0x1FE9 JUMP JUMPDEST SWAP1 POP DUP2 DUP2 SUB PUSH1 0x60 DUP4 ADD MSTORE PUSH2 0x2169 DUP2 DUP11 PUSH2 0x1FE9 JUMP JUMPDEST SWAP1 POP PUSH2 0x2178 PUSH1 0x80 DUP4 ADD DUP10 PUSH2 0x1F99 JUMP JUMPDEST PUSH2 0x2185 PUSH1 0xA0 DUP4 ADD DUP9 PUSH2 0x1F99 JUMP JUMPDEST PUSH2 0x2192 PUSH1 0xC0 DUP4 ADD DUP8 PUSH2 0x1F99 JUMP JUMPDEST PUSH2 0x219F PUSH1 0xE0 DUP4 ADD DUP7 PUSH2 0x1F99 JUMP JUMPDEST PUSH2 0x21AD PUSH2 0x100 DUP4 ADD DUP6 PUSH2 0x206B JUMP JUMPDEST PUSH2 0x21BB PUSH2 0x120 DUP4 ADD DUP5 PUSH2 0x206B JUMP JUMPDEST SWAP12 SWAP11 POP POP POP POP POP POP POP POP POP POP POP JUMP JUMPDEST PUSH0 DUP1 PUSH1 0x40 DUP4 DUP6 SUB SLT ISZERO PUSH2 0x21E0 JUMPI PUSH2 0x21DF PUSH2 0x1D5B JUMP JUMPDEST JUMPDEST PUSH0 PUSH2 0x21ED DUP6 DUP3 DUP7 ADD PUSH2 0x1D82 JUMP JUMPDEST SWAP3 POP POP PUSH1 0x20 PUSH2 0x21FE DUP6 DUP3 DUP7 ADD PUSH2 0x1D82 JUMP JUMPDEST SWAP2 POP POP SWAP3 POP SWAP3 SWAP1 POP JUMP JUMPDEST PUSH0 PUSH2 0x120 DUP3 ADD SWAP1 POP PUSH2 0x221C PUSH0 DUP4 ADD DUP13 PUSH2 0x1F99 JUMP JUMPDEST PUSH2 0x2229 PUSH1 0x20 DUP4 ADD DUP12 PUSH2 0x1F99 JUMP JUMPDEST PUSH2 0x2236 PUSH1 0x40 DUP4 ADD DUP11 PUSH2 0x1F99 JUMP JUMPDEST DUP2 DUP2 SUB PUSH1 0x60 DUP4 ADD MSTORE PUSH2 0x2248 DUP2 DUP10 PUSH2 0x1FE9 JUMP JUMPDEST SWAP1 POP DUP2 DUP2 SUB PUSH1 0x80 DUP4 ADD MSTORE PUSH2 0x225C DUP2 DUP9 PUSH2 0x1FE9 JUMP JUMPDEST SWAP1 POP PUSH2 0x226B PUSH1 0xA0 DUP4 ADD DUP8 PUSH2 0x1F99 JUMP JUMPDEST PUSH2 0x2278 PUSH1 0xC0 DUP4 ADD DUP7 PUSH2 0x1F99 JUMP JUMPDEST PUSH2 0x2285 PUSH1 0xE0 DUP4 ADD DUP6 PUSH2 0x206B JUMP JUMPDEST PUSH2 0x2293 PUSH2 0x100 DUP4 ADD DUP5 PUSH2 0x206B JUMP JUMPDEST SWAP11 SWAP10 POP POP POP POP POP POP POP POP POP POP JUMP JUMPDEST PUSH32 0x4F6E6C79206C616E646C6F72642063616E206163636573732074686973000000 PUSH0 DUP3 ADD MSTORE POP JUMP JUMPDEST PUSH0 PUSH2 0x22D5 PUSH1 0x1D DUP4 PUSH2 0x1FCB JUMP JUMPDEST SWAP2 POP PUSH2 0x22E0 DUP3 PUSH2 0x22A1 JUMP JUMPDEST PUSH1 0x20 DUP3 ADD SWAP1 POP SWAP2 SWAP1 POP JUMP JUMPDEST PUSH0 PUSH1 0x20 DUP3 ADD SWAP1 POP DUP2 DUP2 SUB PUSH0 DUP4 ADD MSTORE PUSH2 0x2302 DUP2 PUSH2 0x22C9 JUMP JUMPDEST SWAP1 POP SWAP2 SWAP1 POP JUMP JUMPDEST PUSH32 0x4E487B7100000000000000000000000000000000000000000000000000000000 PUSH0 MSTORE PUSH1 0x11 PUSH1 0x4 MSTORE PUSH1 0x24 PUSH0 REVERT JUMPDEST PUSH0 PUSH2 0x2340 DUP3 PUSH2 0x1D63 JUMP JUMPDEST SWAP2 POP PUSH2 0x234B DUP4 PUSH2 0x1D63 JUMP JUMPDEST SWAP3 POP DUP3 DUP3 ADD SWAP1 POP DUP1 DUP3 GT ISZERO PUSH2 0x2363 JUMPI PUSH2 0x2362 PUSH2 0x2309 JUMP JUMPDEST JUMPDEST SWAP3 SWAP2 POP POP JUMP JUMPDEST PUSH32 0x41677265656D656E7420686173206E6F74207965742065787069726564000000 PUSH0 DUP3 ADD MSTORE POP JUMP JUMPDEST PUSH0 PUSH2 0x239D PUSH1 0x1D DUP4 PUSH2 0x1FCB JUMP JUMPDEST SWAP2 POP PUSH2 0x23A8 DUP3 PUSH2 0x2369 JUMP JUMPDEST PUSH1 0x20 DUP3 ADD SWAP1 POP SWAP2 SWAP1 POP JUMP JUMPDEST PUSH0 PUSH1 0x20 DUP3 ADD SWAP1 POP DUP2 DUP2 SUB PUSH0 DUP4 ADD MSTORE PUSH2 0x23CA DUP2 PUSH2 0x2391 JUMP JUMPDEST SWAP1 POP SWAP2 SWAP1 POP JUMP JUMPDEST PUSH32 0x526F6F6D20697320616C726561647920766163616E7421000000000000000000 PUSH0 DUP3 ADD MSTORE POP JUMP JUMPDEST PUSH0 PUSH2 0x2405 PUSH1 0x17 DUP4 PUSH2 0x1FCB JUMP JUMPDEST SWAP2 POP PUSH2 0x2410 DUP3 PUSH2 0x23D1 JUMP JUMPDEST PUSH1 0x20 DUP3 ADD SWAP1 POP SWAP2 SWAP1 POP JUMP JUMPDEST PUSH0 PUSH1 0x20 DUP3 ADD SWAP1 POP DUP2 DUP2 SUB PUSH0 DUP4 ADD MSTORE PUSH2 0x2432 DUP2 PUSH2 0x23F9 JUMP JUMPDEST SWAP1 POP SWAP2 SWAP1 POP JUMP JUMPDEST PUSH0 DUP2 SWAP1 POP SWAP3 SWAP2 POP POP JUMP JUMPDEST POP JUMP JUMPDEST PUSH0 PUSH2 0x2451 PUSH0 DUP4 PUSH2 0x2439 JUMP JUMPDEST SWAP2 POP PUSH2 0x245C DUP3 PUSH2 0x2443 JUMP JUMPDEST PUSH0 DUP3 ADD SWAP1 POP SWAP2 SWAP1 POP JUMP JUMPDEST PUSH0 PUSH2 0x2470 DUP3 PUSH2 0x2446 JUMP JUMPDEST SWAP2 POP DUP2 SWAP1 POP SWAP2 SWAP1 POP JUMP JUMPDEST PUSH32 0x41677265656D656E7420436F6D706C6574696F6E204661696C65642100000000 PUSH0 DUP3 ADD MSTORE POP JUMP JUMPDEST PUSH0 PUSH2 0x24AE PUSH1 0x1C DUP4 PUSH2 0x1FCB JUMP JUMPDEST SWAP2 POP PUSH2 0x24B9 DUP3 PUSH2 0x247A JUMP JUMPDEST PUSH1 0x20 DUP3 ADD SWAP1 POP SWAP2 SWAP1 POP JUMP JUMPDEST PUSH0 PUSH1 0x20 DUP3 ADD SWAP1 POP DUP2 DUP2 SUB PUSH0 DUP4 ADD MSTORE PUSH2 0x24DB DUP2 PUSH2 0x24A2 JUMP JUMPDEST SWAP1 POP SWAP2 SWAP1 POP JUMP JUMPDEST PUSH0 PUSH2 0x24EC DUP3 PUSH2 0x1D63 JUMP JUMPDEST SWAP2 POP PUSH32 0xFFFFFFFFFFFFFFFFFFFFFFFFFFFFFFFFFFFFFFFFFFFFFFFFFFFFFFFFFFFFFFFF DUP3 SUB PUSH2 0x251E JUMPI PUSH2 0x251D PUSH2 0x2309 JUMP JUMPDEST JUMPDEST PUSH1 0x1 DUP3 ADD SWAP1 POP SWAP2 SWAP1 POP JUMP JUMPDEST PUSH32 0x4E487B7100000000000000000000000000000000000000000000000000000000 PUSH0 MSTORE PUSH1 0x22 PUSH1 0x4 MSTORE PUSH1 0x24 PUSH0 REVERT JUMPDEST PUSH0 PUSH1 0x2 DUP3 DIV SWAP1 POP PUSH1 0x1 DUP3 AND DUP1 PUSH2 0x256D JUMPI PUSH1 0x7F DUP3 AND SWAP2 POP JUMPDEST PUSH1 0x20 DUP3 LT DUP2 SUB PUSH2 0x2580 JUMPI PUSH2 0x257F PUSH2 0x2529 JUMP JUMPDEST JUMPDEST POP SWAP2 SWAP1 POP JUMP JUMPDEST PUSH0 DUP2 SWAP1 POP DUP2 PUSH0 MSTORE PUSH1 0x20 PUSH0 KECCAK256 SWAP1 POP SWAP2 SWAP1 POP JUMP JUMPDEST PUSH0 PUSH1 0x20 PUSH1 0x1F DUP4 ADD DIV SWAP1 POP SWAP2 SWAP1 POP JUMP JUMPDEST PUSH0 DUP3 DUP3 SHL SWAP1 POP SWAP3 SWAP2 POP POP JUMP JUMPDEST PUSH0 PUSH1 0x8 DUP4 MUL PUSH2 0x25E2 PUSH32 0xFFFFFFFFFFFFFFFFFFFFFFFFFFFFFFFFFFFFFFFFFFFFFFFFFFFFFFFFFFFFFFFF DUP3 PUSH2 0x25A7 JUMP JUMPDEST PUSH2 0x25EC DUP7 DUP4 PUSH2 0x25A7 JUMP JUMPDEST SWAP6 POP DUP1 NOT DUP5 AND SWAP4 POP DUP1 DUP7 AND DUP5 OR SWAP3 POP POP POP SWAP4 SWAP3 POP POP POP JUMP JUMPDEST PUSH0 DUP2 SWAP1 POP SWAP2 SWAP1 POP JUMP JUMPDEST PUSH0 PUSH2 0x2627 PUSH2 0x2622 PUSH2 0x261D DUP5 PUSH2 0x1D63 JUMP JUMPDEST PUSH2 0x2604 JUMP JUMPDEST PUSH2 0x1D63 JUMP JUMPDEST SWAP1 POP SWAP2 SWAP1 POP JUMP JUMPDEST PUSH0 DUP2 SWAP1 POP SWAP2 SWAP1 POP JUMP JUMPDEST PUSH2 0x2640 DUP4 PUSH2 0x260D JUMP JUMPDEST PUSH2 0x2654 PUSH2 0x264C DUP3 PUSH2 0x262E JUMP JUMPDEST DUP5 DUP5 SLOAD PUSH2 0x25B3 JUMP JUMPDEST DUP3 SSTORE POP POP POP POP JUMP JUMPDEST PUSH0 SWAP1 JUMP JUMPDEST PUSH2 0x2668 PUSH2 0x265C JUMP JUMPDEST PUSH2 0x2673 DUP2 DUP5 DUP5 PUSH2 0x2637 JUMP JUMPDEST POP POP POP JUMP JUMPDEST JUMPDEST DUP2 DUP2 LT ISZERO PUSH2 0x2696 JUMPI PUSH2 0x268B PUSH0 DUP3 PUSH2 0x2660 JUMP JUMPDEST PUSH1 0x1 DUP2 ADD SWAP1 POP PUSH2 0x2679 JUMP JUMPDEST POP POP JUMP JUMPDEST PUSH1 0x1F DUP3 GT ISZERO PUSH2 0x26DB JUMPI PUSH2 0x26AC DUP2 PUSH2 0x2586 JUMP JUMPDEST PUSH2 0x26B5 DUP5 PUSH2 0x2598 JUMP JUMPDEST DUP2 ADD PUSH1 0x20 DUP6 LT ISZERO PUSH2 0x26C4 JUMPI DUP2 SWAP1 POP JUMPDEST PUSH2 0x26D8 PUSH2 0x26D0 DUP6 PUSH2 0x2598 JUMP JUMPDEST DUP4 ADD DUP3 PUSH2 0x2678 JUMP JUMPDEST POP POP JUMPDEST POP POP POP JUMP JUMPDEST PUSH0 DUP3 DUP3 SHR SWAP1 POP SWAP3 SWAP2 POP POP JUMP JUMPDEST PUSH0 PUSH2 0x26FB PUSH0 NOT DUP5 PUSH1 0x8 MUL PUSH2 0x26E0 JUMP JUMPDEST NOT DUP1 DUP4 AND SWAP2 POP POP SWAP3 SWAP2 POP POP JUMP JUMPDEST PUSH0 PUSH2 0x2713 DUP4 DUP4 PUSH2 0x26EC JUMP JUMPDEST SWAP2 POP DUP3 PUSH1 0x2 MUL DUP3 OR SWAP1 POP SWAP3 SWAP2 POP POP JUMP JUMPDEST PUSH2 0x272C DUP3 PUSH2 0x1FC1 JUMP JUMPDEST PUSH8 0xFFFFFFFFFFFFFFFF DUP2 GT ISZERO PUSH2 0x2745 JUMPI PUSH2 0x2744 PUSH2 0x1DD9 JUMP JUMPDEST JUMPDEST PUSH2 0x274F DUP3 SLOAD PUSH2 0x2556 JUMP JUMPDEST PUSH2 0x275A DUP3 DUP3 DUP6 PUSH2 0x269A JUMP JUMPDEST PUSH0 PUSH1 0x20 SWAP1 POP PUSH1 0x1F DUP4 GT PUSH1 0x1 DUP2 EQ PUSH2 0x278B JUMPI PUSH0 DUP5 ISZERO PUSH2 0x2779 JUMPI DUP3 DUP8 ADD MLOAD SWAP1 POP JUMPDEST PUSH2 0x2783 DUP6 DUP3 PUSH2 0x2708 JUMP JUMPDEST DUP7 SSTORE POP PUSH2 0x27EA JUMP JUMPDEST PUSH1 0x1F NOT DUP5 AND PUSH2 0x2799 DUP7 PUSH2 0x2586 JUMP JUMPDEST PUSH0 JUMPDEST DUP3 DUP2 LT ISZERO PUSH2 0x27C0 JUMPI DUP5 DUP10 ADD MLOAD DUP3 SSTORE PUSH1 0x1 DUP3 ADD SWAP2 POP PUSH1 0x20 DUP6 ADD SWAP5 POP PUSH1 0x20 DUP2 ADD SWAP1 POP PUSH2 0x279B JUMP JUMPDEST DUP7 DUP4 LT ISZERO PUSH2 0x27DD JUMPI DUP5 DUP10 ADD MLOAD PUSH2 0x27D9 PUSH1 0x1F DUP10 AND DUP3 PUSH2 0x26EC JUMP JUMPDEST DUP4 SSTORE POP JUMPDEST PUSH1 0x1 PUSH1 0x2 DUP9 MUL ADD DUP9 SSTORE POP POP POP JUMPDEST POP POP POP POP POP POP JUMP JUMPDEST PUSH32 0x41677265656D656E742068617320657870697265640000000000000000000000 PUSH0 DUP3 ADD MSTORE POP JUMP JUMPDEST PUSH0 PUSH2 0x2826 PUSH1 0x15 DUP4 PUSH2 0x1FCB JUMP JUMPDEST SWAP2 POP PUSH2 0x2831 DUP3 PUSH2 0x27F2 JUMP JUMPDEST PUSH1 0x20 DUP3 ADD SWAP1 POP SWAP2 SWAP1 POP JUMP JUMPDEST PUSH0 PUSH1 0x20 DUP3 ADD SWAP1 POP DUP2 DUP2 SUB PUSH0 DUP4 ADD MSTORE PUSH2 0x2853 DUP2 PUSH2 0x281A JUMP JUMPDEST SWAP1 POP SWAP2 SWAP1 POP JUMP JUMPDEST PUSH32 0x596F7520617265206E6F74207468652074656E616E74206F6620746869732072 PUSH0 DUP3 ADD MSTORE PUSH32 0x6F6F6D0000000000000000000000000000000000000000000000000000000000 PUSH1 0x20 DUP3 ADD MSTORE POP JUMP JUMPDEST PUSH0 PUSH2 0x28B4 PUSH1 0x23 DUP4 PUSH2 0x1FCB JUMP JUMPDEST SWAP2 POP PUSH2 0x28BF DUP3 PUSH2 0x285A JUMP JUMPDEST PUSH1 0x40 DUP3 ADD SWAP1 POP SWAP2 SWAP1 POP JUMP JUMPDEST PUSH0 PUSH1 0x20 DUP3 ADD SWAP1 POP DUP2 DUP2 SUB PUSH0 DUP4 ADD MSTORE PUSH2 0x28E1 DUP2 PUSH2 0x28A8 JUMP JUMPDEST SWAP1 POP SWAP2 SWAP1 POP JUMP JUMPDEST PUSH32 0x54696D656C65667420746F20706179207468652072656E740000000000000000 PUSH0 DUP3 ADD MSTORE POP JUMP JUMPDEST PUSH0 PUSH2 0x291C PUSH1 0x18 DUP4 PUSH2 0x1FCB JUMP JUMPDEST SWAP2 POP PUSH2 0x2927 DUP3 PUSH2 0x28E8 JUMP JUMPDEST PUSH1 0x20 DUP3 ADD SWAP1 POP SWAP2 SWAP1 POP JUMP JUMPDEST PUSH0 PUSH1 0x20 DUP3 ADD SWAP1 POP DUP2 DUP2 SUB PUSH0 DUP4 ADD MSTORE PUSH2 0x2949 DUP2 PUSH2 0x2910 JUMP JUMPDEST SWAP1 POP SWAP2 SWAP1 POP JUMP JUMPDEST PUSH32 0x4E6F7420656E6F75676820657468657220696E20796F75722077616C6C657400 PUSH0 DUP3 ADD MSTORE POP JUMP JUMPDEST PUSH0 PUSH2 0x2984 PUSH1 0x1F DUP4 PUSH2 0x1FCB JUMP JUMPDEST SWAP2 POP PUSH2 0x298F DUP3 PUSH2 0x2950 JUMP JUMPDEST PUSH1 0x20 DUP3 ADD SWAP1 POP SWAP2 SWAP1 POP JUMP JUMPDEST PUSH0 PUSH1 0x20 DUP3 ADD SWAP1 POP DUP2 DUP2 SUB PUSH0 DUP4 ADD MSTORE PUSH2 0x29B1 DUP2 PUSH2 0x2978 JUMP JUMPDEST SWAP1 POP SWAP2 SWAP1 POP JUMP JUMPDEST PUSH32 0x52656E74207061796D656E74206661696C656400000000000000000000000000 PUSH0 DUP3 ADD MSTORE POP JUMP JUMPDEST PUSH0 PUSH2 0x29EC PUSH1 0x13 DUP4 PUSH2 0x1FCB JUMP JUMPDEST SWAP2 POP PUSH2 0x29F7 DUP3 PUSH2 0x29B8 JUMP JUMPDEST PUSH1 0x20 DUP3 ADD SWAP1 POP SWAP2 SWAP1 POP JUMP JUMPDEST PUSH0 PUSH1 0x20 DUP3 ADD SWAP1 POP DUP2 DUP2 SUB PUSH0 DUP4 ADD MSTORE PUSH2 0x2A19 DUP2 PUSH2 0x29E0 JUMP JUMPDEST SWAP1 POP SWAP2 SWAP1 POP JUMP JUMPDEST PUSH32 0x4F6E6C792074656E616E74732063616E20616363657373207468697300000000 PUSH0 DUP3 ADD MSTORE POP JUMP JUMPDEST PUSH0 PUSH2 0x2A54 PUSH1 0x1C DUP4 PUSH2 0x1FCB JUMP JUMPDEST SWAP2 POP PUSH2 0x2A5F DUP3 PUSH2 0x2A20 JUMP JUMPDEST PUSH1 0x20 DUP3 ADD SWAP1 POP SWAP2 SWAP1 POP JUMP JUMPDEST PUSH0 PUSH1 0x20 DUP3 ADD SWAP1 POP DUP2 DUP2 SUB PUSH0 DUP4 ADD MSTORE PUSH2 0x2A81 DUP2 PUSH2 0x2A48 JUMP JUMPDEST SWAP1 POP SWAP2 SWAP1 POP JUMP JUMPDEST PUSH32 0x526F6F6D206973206E6F7420766163616E740000000000000000000000000000 PUSH0 DUP3 ADD MSTORE POP JUMP JUMPDEST PUSH0 PUSH2 0x2ABC PUSH1 0x12 DUP4 PUSH2 0x1FCB JUMP JUMPDEST SWAP2 POP PUSH2 0x2AC7 DUP3 PUSH2 0x2A88 JUMP JUMPDEST PUSH1 0x20 DUP3 ADD SWAP1 POP SWAP2 SWAP1 POP JUMP JUMPDEST PUSH0 PUSH1 0x20 DUP3 ADD SWAP1 POP DUP2 DUP2 SUB PUSH0 DUP4 ADD MSTORE PUSH2 0x2AE9 DUP2 PUSH2 0x2AB0 JUMP JUMPDEST SWAP1 POP SWAP2 SWAP1 POP JUMP JUMPDEST PUSH32 0x4661696C656420746F207369676E2061677265656D656E740000000000000000 PUSH0 DUP3 ADD MSTORE POP JUMP JUMPDEST PUSH0 PUSH2 0x2B24 PUSH1 0x18 DUP4 PUSH2 0x1FCB JUMP JUMPDEST SWAP2 POP PUSH2 0x2B2F DUP3 PUSH2 0x2AF0 JUMP JUMPDEST PUSH1 0x20 DUP3 ADD SWAP1 POP SWAP2 SWAP1 POP JUMP JUMPDEST PUSH0 PUSH1 0x20 DUP3 ADD SWAP1 POP DUP2 DUP2 SUB PUSH0 DUP4 ADD MSTORE PUSH2 0x2B51 DUP2 PUSH2 0x2B18 JUMP JUMPDEST SWAP1 POP SWAP2 SWAP1 POP JUMP INVALID LOG2 PUSH5 0x6970667358 0x22 SLT KECCAK256 DUP8 AND DUP12 0x1F 0xB4 LOG4 0xAD 0xC3 EXTCODECOPY DUP5 CREATE 0xE0 0xD1 LOG2 PUSH31 0xB05DCD0CAB9D6008C73BFB05A3835F9E564736F6C634300081A0033000000 "
		},
		"gasEstimates": {
			"creation": {
				"codeDepositCost": "2230000",
				"executionCost": "17395",
				"totalCost": "2247395"
			},
			"external": {
				"add_room(string,string,uint256,uint256)": "infinite",
				"agreementCompleted(uint256)": "infinite",
				"agreement_terminated(uint256)": "infinite",
				"no_of_aggrement()": "2447",
				"no_of_rent()": "2514",
				"no_of_rooms()": "2470",
				"payRent(uint256)": "infinite",
				"rent_by_no(uint256)": "infinite",
				"room_agreement_by_no(uint256)": "infinite",
				"room_by_no(uint256)": "infinite",
				"signAgreement(uint256,uint256)": "infinite"
			}
		},
		"methodIdentifiers": {
			"add_room(string,string,uint256,uint256)": "1f261a82",
			"agreementCompleted(uint256)": "16abb8a1",
			"agreement_terminated(uint256)": "7681466c",
			"no_of_aggrement()": "900b3b53",
			"no_of_rent()": "75eb9ef6",
			"no_of_rooms()": "59e2cbec",
			"payRent(uint256)": "d9e8843f",
			"rent_by_no(uint256)": "f5b46a65",
			"room_agreement_by_no(uint256)": "ccc3e83a",
			"room_by_no(uint256)": "646fc100",
			"signAgreement(uint256,uint256)": "e1590cb6"
		}
	},
	"abi": [
		{
			"inputs": [
				{
					"internalType": "string",
					"name": "_roomname",
					"type": "string"
				},
				{
					"internalType": "string",
					"name": "_roomaddress",
					"type": "string"
				},
				{
					"internalType": "uint256",
					"name": "_rentcost",
					"type": "uint256"
				},
				{
					"internalType": "uint256",
					"name": "_security",
					"type": "uint256"
				}
			],
			"name": "add_room",
			"outputs": [],
			"stateMutability": "nonpayable",
			"type": "function"
		},
		{
			"inputs": [
				{
					"internalType": "uint256",
					"name": "_index",
					"type": "uint256"
				}
			],
			"name": "agreementCompleted",
			"outputs": [],
			"stateMutability": "payable",
			"type": "function"
		},
		{
			"inputs": [
				{
					"internalType": "uint256",
					"name": "_index",
					"type": "uint256"
				}
			],
			"name": "agreement_terminated",
			"outputs": [],
			"stateMutability": "nonpayable",
			"type": "function"
		},
		{
			"inputs": [],
			"name": "no_of_aggrement",
			"outputs": [
				{
					"internalType": "uint256",
					"name": "",
					"type": "uint256"
				}
			],
			"stateMutability": "view",
			"type": "function"
		},
		{
			"inputs": [],
			"name": "no_of_rent",
			"outputs": [
				{
					"internalType": "uint256",
					"name": "",
					"type": "uint256"
				}
			],
			"stateMutability": "view",
			"type": "function"
		},
		{
			"inputs": [],
			"name": "no_of_rooms",
			"outputs": [
				{
					"internalType": "uint256",
					"name": "",
					"type": "uint256"
				}
			],
			"stateMutability": "view",
			"type": "function"
		},
		{
			"inputs": [
				{
					"internalType": "uint256",
					"name": "_index",
					"type": "uint256"
				}
			],
			"name": "payRent",
			"outputs": [],
			"stateMutability": "payable",
			"type": "function"
		},
		{
			"inputs": [
				{
					"internalType": "uint256",
					"name": "",
					"type": "uint256"
				}
			],
			"name": "rent_by_no",
			"outputs": [
				{
					"internalType": "uint256",
					"name": "rent_no",
					"type": "uint256"
				},
				{
					"internalType": "uint256",
					"name": "room_id",
					"type": "uint256"
				},
				{
					"internalType": "uint256",
					"name": "agreement_id",
					"type": "uint256"
				},
				{
					"internalType": "string",
					"name": "room_name",
					"type": "string"
				},
				{
					"internalType": "string",
					"name": "room_address",
					"type": "string"
				},
				{
					"internalType": "uint256",
					"name": "rent_per_month",
					"type": "uint256"
				},
				{
					"internalType": "uint256",
					"name": "timestamp",
					"type": "uint256"
				},
				{
					"internalType": "address payable",
					"name": "tenant_address",
					"type": "address"
				},
				{
					"internalType": "address payable",
					"name": "landlord_address",
					"type": "address"
				}
			],
			"stateMutability": "view",
			"type": "function"
		},
		{
			"inputs": [
				{
					"internalType": "uint256",
					"name": "",
					"type": "uint256"
				}
			],
			"name": "room_agreement_by_no",
			"outputs": [
				{
					"internalType": "uint256",
					"name": "room_id",
					"type": "uint256"
				},
				{
					"internalType": "uint256",
					"name": "agreement_id",
					"type": "uint256"
				},
				{
					"internalType": "string",
					"name": "room_name",
					"type": "string"
				},
				{
					"internalType": "string",
					"name": "room_address",
					"type": "string"
				},
				{
					"internalType": "uint256",
					"name": "rent_per_month",
					"type": "uint256"
				},
				{
					"internalType": "uint256",
					"name": "security_deposit",
					"type": "uint256"
				},
				{
					"internalType": "uint256",
					"name": "lock_in_period",
					"type": "uint256"
				},
				{
					"internalType": "uint256",
					"name": "timestamp",
					"type": "uint256"
				},
				{
					"internalType": "address payable",
					"name": "tenant_address",
					"type": "address"
				},
				{
					"internalType": "address payable",
					"name": "landlord_address",
					"type": "address"
				}
			],
			"stateMutability": "view",
			"type": "function"
		},
		{
			"inputs": [
				{
					"internalType": "uint256",
					"name": "",
					"type": "uint256"
				}
			],
			"name": "room_by_no",
			"outputs": [
				{
					"internalType": "uint256",
					"name": "room_id",
					"type": "uint256"
				},
				{
					"internalType": "uint256",
					"name": "agreement_id",
					"type": "uint256"
				},
				{
					"internalType": "string",
					"name": "room_name",
					"type": "string"
				},
				{
					"internalType": "string",
					"name": "room_address",
					"type": "string"
				},
				{
					"internalType": "uint256",
					"name": "rent_per_month",
					"type": "uint256"
				},
				{
					"internalType": "uint256",
					"name": "security_deposit",
					"type": "uint256"
				},
				{
					"internalType": "uint256",
					"name": "timestamp",
					"type": "uint256"
				},
				{
					"internalType": "bool",
					"name": "vacant",
					"type": "bool"
				},
				{
					"internalType": "address payable",
					"name": "landlord",
					"type": "address"
				},
				{
					"internalType": "address payable",
					"name": "current_tenant",
					"type": "address"
				}
			],
			"stateMutability": "view",
			"type": "function"
		},
		{
			"inputs": [
				{
					"internalType": "uint256",
					"name": "_index",
					"type": "uint256"
				},
				{
					"internalType": "uint256",
					"name": "_duration",
					"type": "uint256"
				}
			],
			"name": "signAgreement",
			"outputs": [],
			"stateMutability": "payable",
			"type": "function"
		}
	]
}